:020000040800F2
:100000000000032035100008692E00086B2E000840
:100010006D2E00086F2E0008712E000800000000F1
:10002000000000000000000000000000318B00080C
:10003000732E000800000000C18B000843840008F4
:10004000851000088510000885100008851000083C
:10005000851000088510000885100008851000082C
:10006000851000088510000885100008851000081C
:10007000851000088510000885100008851000080C
:1000800085100008851000088510000885100008FC
:1000900085100008851000088510000885100008EC
:1000A00085100008851000088510000885100008DC
:1000B00085100008851000088510000885100008CC
:1000C00085100008851000088510000885100008BC
:1000D00085100008851000088510000885100008AC
:1000E000851000088510000885100008851000089C
:1000F000851000088510000885100008851000088C
:10010000851000088510000885100008851000087B
:100110008510000885100008752E0008851000085D
:10012000851000088510000885100008851000085B
:10013000851000088510000885100008851000084B
:10014000851000088510000885100008851000083B
:10015000851000088510000885100008851000082B
:10016000851000088510000885100008851000081B
:1001700085100008851000088510000800000000A8
:1001800085100008851000088510000885100008FB
:1001900085100008851000088510000885100008EB
:0C01A000812E0008851000088D2E00083C
:1001B00010B5054C237833B9044B13B10448AFF3A1
:1001C00000800123237010BD800300200000000088
:1001D000E05F020808B5034B1BB103490348AFF3C6
:1001E000008008BD0000000084030020E05F0208DA
:1001F000034613F8012B002AFBD1181A0138704767
:1002000001F0FF01102A2BDB10F0070F08D010F8C7
:10021000013B013A8B422DD010F0070F42B3F6D1CB
:10022000F0B441EA012141EA014122F007047FF0E4
:1002300000070023F0E80256083C85EA010586EA3B
:10024000010685FA47F5A3FA87F586FA47F6A5FA77
:1002500087F68EB9EED1F0BC01F0FF0102F0070283
:1002600032B110F8013B013A83EA010313B1F8D12E
:100270000020704701387047002D06BF354603380F
:10028000073815F0010F07D1013015F4807F02BF48
:10029000013015F4C03F0130F0BC0138704700BF99
:1002A00081F0004102E000BF83F0004330B54FEA27
:1002B00041044FEA430594EA050F08BF90EA020F94
:1002C0001FBF54EA000C55EA020C7FEA645C7FEA27
:1002D000655C00F0E2804FEA5454D4EB5555B8BF4A
:1002E0006D420CDD2C4480EA020281EA030382EABB
:1002F000000083EA010180EA020281EA0303362D4D
:1003000088BF30BD11F0004F4FEA01314FF4801C1F
:100310004CEA113102D0404261EB410113F0004F31
:100320004FEA03334CEA133302D0524263EB4303E8
:1003300094EA050F00F0A780A4F10104D5F1200E86
:100340000DDB02FA0EFC22FA05F2801841F10001E1
:1003500003FA0EF2801843FA05F359410EE0A5F1B5
:1003600020050EF1200E012A03FA0EFC28BF4CF0E6
:10037000020C43FA05F3C01851EBE37101F000459C
:1003800007D54FF0000EDCF1000C7EEB00006EEBA9
:100390000101B1F5801F1BD3B1F5001F0CD3490833
:1003A0005FEA30004FEA3C0C04F101044FEA44528A
:1003B00012F5800F80F09A80BCF1004F08BF5FEA11
:1003C000500C50F1000041EB045141EA050130BDF1
:1003D0005FEA4C0C404141EB0101013C28BFB1F503
:1003E000801FE9D291F0000F04BF01460020B1FA4E
:1003F00081F308BF2033A3F10B03B3F120020CDA21
:100400000C3208DD02F1140CC2F10C0201FA0CF0FE
:1004100021FA02F10CE002F11402D8BFC2F1200C63
:1004200001FA02F120FA0CFCDCBF41EA0C01904019
:10043000E41AA2BF01EB0451294330BD6FEA040462
:100440001F3C1CDA0C340EDC04F11404C4F120024D
:1004500020FA04F001FA02F340EA030021FA04F35F
:1004600045EA030130BDC4F10C04C4F1200220FAB6
:1004700002F001FA04F340EA0300294630BD21FAF4
:1004800004F0294630BD94F0000F83F4801306BFBA
:1004900081F480110134013D4EE77FEA645C18BFAE
:1004A0007FEA655C29D094EA050F08BF90EA020F45
:1004B00005D054EA000C04BF1946104630BD91EA3D
:1004C000030F1EBF0021002030BD5FEA545C05D140
:1004D0004000494128BF41F0004130BD14F580047F
:1004E0003CBF01F5801130BD01F0004545F0FE41F3
:1004F00041F470014FF0000030BD7FEA645C1ABF28
:10050000194610467FEA655C1CBF0B46024650EA5E
:10051000013406BF52EA033591EA030F41F400218A
:1005200030BD00BF90F0000F04BF0021704730B510
:100530004FF4806404F132044FF000054FF00001E5
:1005400050E700BF90F0000F04BF0021704730B5A6
:100550004FF4806404F1320410F0004548BF40427B
:100560004FF000013EE700BF42004FEAE2014FEAD0
:1005700031014FEA02701FBF12F07F4393F07F4FAB
:1005800081F06051704732F07F4208BF704793F0AE
:100590007F4F04BF41F40021704730B54FF46074C1
:1005A00001F0004521F000411CE700BF50EA0102C4
:1005B00008BF704730B54FF000050AE050EA01026D
:1005C00008BF704730B511F0004502D5404261EBDD
:1005D00041014FF4806404F132045FEA915C3FF41E
:1005E000D8AE4FF003025FEADC0C18BF03325FEABB
:1005F000DC0C18BF033202EBDC02C2F1200300FA6C
:1006000003FC20FA02F001FA03FE40EA0E0021FA90
:1006100002F11444BDE600BF70B54FF0FF0C4CF47E
:10062000E06C1CEA11541DBF1CEA135594EA0C0F30
:1006300095EA0C0F00F0DEF82C4481EA030621EA6B
:100640004C5123EA4C5350EA013518BF52EA0335A6
:1006500041F4801143F4801338D0A0FB02CE4FF058
:100660000005E1FB02E506F00042E0FB03E54FF088
:100670000006E1FB03569CF0000F18BF4EF0010E80
:10068000A4F1FF04B6F5007F64F5407404D25FEA7C
:100690004E0E6D4146EB060642EAC62141EA55512F
:1006A0004FEAC52040EA5E504FEACE2EB4F1FD0C71
:1006B00088BFBCF5E06F1ED8BEF1004F08BF5FEAEF
:1006C000500E50F1000041EB045170BD06F00046A1
:1006D00046EA010140EA020081EA0301B4EB5C044E
:1006E000C2BFD4EB0C0541EA045170BD41F4801146
:1006F0004FF0000E013C00F3AB8014F1360FDEBF6B
:10070000002001F0004170BDC4F10004203C35DA46
:100710000C341BDC04F11404C4F1200500FA05F3C9
:1007200020FA04F001FA05F240EA020001F000426A
:1007300021F0004110EBD37021FA04F642EB0601E0
:100740005EEA430E08BF20EAD37070BDC4F10C040A
:10075000C4F1200500FA04F320FA05F001FA04F2CE
:1007600040EA020001F0004110EBD37041F10001BA
:100770005EEA430E08BF20EAD37070BDC4F12005C5
:1007800000FA05F24EEA020E20FA04F301FA05F22D
:1007900043EA020321FA04F001F0004121FA04F2D5
:1007A00020EA020000EBD3705EEA430E08BF20EAA5
:1007B000D37070BD94F0000F0FD101F000464000DF
:1007C00041EB010111F4801F08BF013CF7D041EA61
:1007D000060195F0000F18BF704703F00046520065
:1007E00043EB030313F4801F08BF013DF7D043EA36
:1007F0000603704794EA0C0F0CEA135518BF95EAEC
:100800000C0F0CD050EA410618BF52EA4306D1D172
:1008100081EA030101F000414FF0000070BD50EA91
:10082000410606BF1046194652EA430619D094EA1B
:100830000C0F02D150EA013613D195EA0C0F05D105
:1008400052EA03361CBF104619460AD181EA030159
:1008500001F0004141F0FE4141F470014FF0000011
:1008600070BD41F0FE4141F4780170BD70B54FF0AC
:10087000FF0C4CF4E06C1CEA11541DBF1CEA13552C
:1008800094EA0C0F95EA0C0F00F0A7F8A4EB05040E
:1008900081EA030E52EA03354FEA013100F0888005
:1008A0004FEA03334FF0805545EA131343EA1263CE
:1008B0004FEA022245EA111545EA10654FEA002683
:1008C0000EF000419D4208BF964244F1FD0404F53C
:1008D000407402D25B084FEA3202B61A65EB030598
:1008E0005B084FEA32024FF480104FF4002CB6EB55
:1008F000020E75EB030E22BFB61A754640EA0C00D5
:100900005B084FEA3202B6EB020E75EB030E22BF14
:10091000B61A754640EA5C005B084FEA3202B6EB55
:10092000020E75EB030E22BFB61A754640EA9C0014
:100930005B084FEA3202B6EB020E75EB030E22BFE4
:10094000B61A754640EADC0055EA060E18D04FEAA2
:10095000051545EA16754FEA06164FEAC30343EA42
:1009600052734FEAC2025FEA1C1CC0D111F4801F0F
:100970000BD141EA00014FF000004FF0004CB6E708
:1009800011F4801F04BF01430020B4F1FD0C88BFA7
:10099000BCF5E06F3FF6AFAEB5EB030C04BFB6EBB2
:1009A000020C5FEA500C50F1000041EB045170BDA5
:1009B0000EF0004E4EEA113114EB5C04C2BFD4EBD2
:1009C0000C0541EA045170BD41F480114FF0000E56
:1009D000013C90E645EA060E8DE60CEA135594EAD2
:1009E0000C0F08BF95EA0C0F3FF43BAF94EA0C0FD5
:1009F0000AD150EA01347FF434AF95EA0C0F7FF44A
:100A000025AF104619462CE795EA0C0F06D152EA9D
:100A100003353FF4FDAE1046194622E750EA410681
:100A200018BF52EA43067FF4C5AE50EA41047FF492
:100A30000DAF52EA43057FF4EBAE12E74FF0FF3CF7
:100A400006E000BF4FF0010C02E000BF4FF0010CC8
:100A50004DF804CD4FEA410C7FEA6C5C4FEA430C41
:100A600018BF7FEA6C5C1BD001B050EA410C0CBF90
:100A700052EA430C91EA030F02BF90EA020F0020F2
:100A8000704710F1000F91EA030F58BF994208BF59
:100A900090422CBFD8176FEAE37040F00100704716
:100AA0004FEA410C7FEA6C5C02D150EA013C07D16D
:100AB0004FEA430C7FEA6C5CD6D152EA033CD3D0B8
:100AC0005DF8040B704700BF8446104662468C46B2
:100AD0001946634600E000BF01B5FFF7B7FF0028E5
:100AE00048BF10F1000F01BD4DF808EDFFF7F4FF0E
:100AF0000CBF012000205DF808FB00BF4DF808ED99
:100B0000FFF7EAFF34BF012000205DF808FB00BFBB
:100B10004DF808EDFFF7E0FF94BF012000205DF8DD
:100B200008FB00BF4DF808EDFFF7CEFF94BF012092
:100B300000205DF808FB00BF4DF808EDFFF7C4FF8B
:100B400034BF012000205DF808FB00BF4FEA410CD4
:100B50007FEA6C5C02D150EA013C0AD14FEA430CB7
:100B60007FEA6C5C02D152EA033C02D14FF00000F4
:100B700070474FF0010070474FEA410212F5001232
:100B800015D211D56FF47873B3EB625212D94FEAD4
:100B9000C12343F0004343EA505311F0004F23FABE
:100BA00002F018BF404270474FF00000704750EA13
:100BB000013005D111F0004008BF6FF000407047D0
:100BC0004FF00000704700BF4FEA4102B2F1E0432E
:100BD00024BFB3F5001CDCF1FE5C0DD901F0004C24
:100BE0004FEAC0024CEA5070B2F1004F40EB830074
:100BF00008BF20F00100704711F0804F21D113F1A0
:100C00003872BCBF01F00040704741F480114FEAD8
:100C10005252C2F11802C2F1200C10FA0CF320FA61
:100C200002F018BF40F001004FEAC1234FEAD3237E
:100C300003FA0CFC40EA0C0023FA02F34FEA4303E8
:100C4000CCE77FEA625307D150EA01331EBF4FF071
:100C5000FE4040F44000704701F0004040F0FE408C
:100C600040F40000704700BF7BB972B90029BEBFD5
:100C700000204FF0004106E008BF00281CBF6FF0C5
:100C800000414FF0FF3000F0D3B9ADF1080C6DE931
:100C900004CE002909DB002B1ADB00F04DF8DDF84B
:100CA00004E0DDE9022304B07047404261EB4101FA
:100CB000002B1BDB00F040F8DDF804E0DDE9022347
:100CC00004B0404261EB4101524263EB4303704781
:100CD000524263EB430300F02FF8DDF804E0DDE956
:100CE000022304B0404261EB41017047524263EB82
:100CF000430300F021F8DDF804E0DDE9022304B04D
:100D0000524263EB4303704753B94AB9002908BF05
:100D100000281CBF4FF0FF314FF0FF3000F088B9C2
:100D2000ADF1080C6DE904CE00F006F8DDF804E042
:100D3000DDE9022304B070472DE9F047089D8E4697
:100D400004468846002B4AD18A42174662D9B2FA35
:100D500082F64EB1C6F1200301FA06F820FA03F339
:100D6000B74043EA0808B4404FEA174E1FFA87FC21
:100D7000B8FBFEF1230C0EFB118843EA084301FB8C
:100D80000CF29A4209D9FB1801F1FF3080F0EA8099
:100D90009A4240F2E78002393B449A1AA3B2B2FB6E
:100DA000FEF00EFB102243EA024300FB0CFC9C45C4
:100DB00009D9FB1800F1FF3280F0D6809C4540F243
:100DC000D3803B44023840EA0140A3EB0C030021EE
:100DD0001DB1F3400022C5E90032BDE8F0878B4227
:100DE00005D90DB1C5E9000100210846F5E7B3FAC0
:100DF00083F1002946D1734502D3824200F2058176
:100E0000841A6EEB030201209046002DE5D0C5E95F
:100E10000048E2E7002A00F09080B2FA82F6002E45
:100E200040F0A4808A1A030C4FEA174E80B2BCB27D
:100E30000121B2FBFEFC0EFB1C2243EA024304FB31
:100E40000CF29A4207D9FB180CF1FF3802D29A42F1
:100E500000F2E080C4469B1AB3FBFEF20EFB123395
:100E600040EA034302FB04F49C4207D9FB1802F159
:100E7000FF3002D29C4200F2CA8002461B1B42EAAB
:100E80000C40A5E7C1F120068B4022FA06F71F436C
:100E90000EFA01F420FA06F32EFA06FE4FEA17497D
:100EA000234300FA01F81FFA87FCBEFBF9F01C0C83
:100EB00009FB10EE44EA0E4400FB0CFEA64502FAC4
:100EC00001F209D93C1900F1FF3A80F09C80A64557
:100ED00040F2998002383C44A4EB0E041FFA83FED2
:100EE000B4FBF9F309FB13444EEA044403FB0CFC86
:100EF000A44508D93C1903F1FF3E80F08280A44547
:100F00007FD9023B3C4443EA0040A4EB0C04A0FB25
:100F100002EC64457346E14662D35FD05DB1B8EB45
:100F2000030264EB090404FA06F622FA01F31E43F5
:100F3000CC40C5E9006400214FE7B1FBF2FC010C95
:100F400041EA0E4180B240EA01423B4638463C4607
:100F5000B846BE462026B1FBF7F1A2EB080241EAF3
:100F60000C4166E7014618E710462CE7C6F120025F
:100F70002EFA02F3B740B14020FA02F24FEA174EC0
:100F80000A43B3FBFEF8BCB20EFB1833110C41EA66
:100F9000034108FB04F9B04089454FEA104380B291
:100FA0003ED9791808F1FF3C01D289451FD8A1EB41
:100FB0000901B1FBFEF909FB04F80EFB191192B20D
:100FC00042EA0142424529D2BA1809F1FF31C4D29E
:100FD0004245C2D2A9F102013A44BEE7F0459DD292
:100FE000BEEB02036CEB070C0138E14696E7A7EB7A
:100FF00009094944A8F1020CB1FBFEF909FB04F808
:10100000DBE773467FE7504666E70846FDE63B446C
:10101000023A33E7ACF1020C3B441CE749469CE73B
:10102000A1EB0901C446B1FBFEF909FB04F8C4E7D2
:10103000704700BFDFF834D0002103E00C4B5B5851
:10104000435004310B480C4B42189A42F6D30B4ADA
:1010500002E0002342F8043B094B9A42F9D304F022
:101060004BFC24F0A7F801F0ADF870470000032016
:1010700054A71308000000206C010020800300200A
:10108000DC590120FEE7704708B500F0BFFDBDE860
:10109000084000F041BD00F0BBBD704710B5042111
:1010A000044622F0D2FC204610BD000038B50C4B9F
:1010B0000C4C18800C4B822019806368984740F6CE
:1010C000110398420AD1094D23682C608220984769
:1010D0002B688220DB689847002038BD0120FCE7A0
:1010E000A603002054000020A4030020A803002031
:1010F0004FF4A071F020FFF7D9BF0000F7B5394DCC
:101100002B6804461B6982209847208000284ED017
:101110002B680DF106025B6901A982209847324BCA
:101120001B78002B4BD0BDF8062040F674639A4222
:101130003FD9ADF80630BDF806209B1A9BB20A2BAA
:1011400042D90B22B3FBF2F3284A1288934201D909
:10115000013A93B2BDF80420254840F6B8318A42DE
:1011600034D8C2F571620E32016892B20F25B2FB1B
:10117000F5F2204D2D88AA4284BF05F1FF35AAB2B1
:101180008A4215468EB22AD9921B91B21A4E3768FE
:10119000BB42BAB28CBF9A1AD21A92B21144052934
:1011A000C4BF05603360036863803368A38003B005
:1011B000F0BDB32A9CBFB422ADF80620BBE7BDF852
:1011C0000630A3F5B473B9E70023C3E7C2F56D6237
:1011D000083292B20E2A0168C8D800252A46891A18
:1011E00089B2D3E7A8030020E83A0020A403002036
:1011F000A0030020A60300209C03002037B568460A
:101200000D461446FFF77AFFBDF8000030B1BDF877
:1012100002302B60BDF804302360012003B030BDE4
:10122000032821D8DFE800F0020B12190F4B1A68CF
:10123000B2FA82F2520904210D4805F007B80B4BAF
:101240005A68B2FA82F252090821F5E7074B9A6808
:10125000B2FA82F252091021EEE7044BDA68B2FAD0
:1012600082F252092021E7E7704700BFAC0300205B
:1012700000100240032821D8DFE800F0020B121909
:101280000F4B1A68003A18BF012204210D4804F0E0
:10129000DDBF0B4B5A68003A18BF01220821F5E761
:1012A000074B9A68003A18BF01221021EEE7044B61
:1012B000DA68003A18BF01222021E7E7704700BF33
:1012C000AC0300200010024003280DD8DFE800F036
:1012D0000206080A0421054804F0BDBF0821FAE708
:1012E0001021F8E72021F6E7704700BF0010024008
:1012F00008B5032811D8DFE800F0020A0C0E04211B
:10130000074804F09DFF431E5842584108BD08217C
:10131000F6E71021F4E72021F2E70020F3E700BF11
:101320000010024070B5084D00240126E0B2FFF71E
:10133000DFFF18B12B68012B18BF2E600134052C7C
:1013400005F10405F2D170BDAC030020012380F843
:10135000781080F87930704770470020704700009F
:10136000034B4164003918BF01211970704700BF59
:101370009B4C0120704700207047836B0BB10846DF
:10138000184770474FF6FF707047406803689B69C5
:1013900018477047704770477047704710B504464C
:1013A00000F04CFD23680349D3F890302046BDE897
:1013B00010401847000000D008B503680446D3F871
:1013C0008430984723682046DB6F984700F0ECF89C
:1013D000236820465B6F9847292001F0D7F900F079
:1013E000E3F8236820465B6F9847F8E710B504469A
:1013F0000AF0BEF923682046D3F8BC30BDE810409F
:10140000184700F0FFBC00F003BD00F035BD00F050
:10141000D5BC00F045BD00F04DBD00F0D9BC09F0D1
:10142000D5BB10B58421044622F00FFB204610BD29
:1014300010B590F8341090F878400C4B8C421A7824
:1014400009D03AB90A4A0B491488088810800C80E0
:1014500001221A7010BD002AFCD0054A05491488E3
:10146000088810800C800022F3E700BF944C012014
:10147000904C0120924C012070B50D46194635B9AB
:10148000094B0A4A0A4840F2FF2123F063FBC0E9F6
:101490000F52084B003A18BF01221A700368BDE8CA
:1014A0007040D3F890301847C4600208FC6002080E
:1014B0004A6102089A4C012008B5094B1B888B42EF
:1014C00003D8084B1B88934205D9074B074A0848A5
:1014D000A32123F03FFB074B1980074B1A8008BD5F
:1014E000904C0120924C01208F610208F2610208A9
:1014F0004A610208964C0120984C0120034690F85E
:101500007A0018B1586803681B68184770470000D4
:10151000012108B50022084607F026F80A4B18609A
:1015200028B90A4B0A4A28210A4823F013FB002253
:101530000421012007F0B7F8074B186018B9074BD2
:10154000034A2C21F0E708BDC003002035620208E1
:101550007E620208AD620208BC030020EE6202084F
:10156000024B4FF0FF31186807F048B8C003002065
:10157000014B186807F06EB8C0030020024B002131
:10158000186807F03BB800BFC0030020FFF7F0BFAA
:1015900003480449006800231A4607F0BFB800BF9B
:1015A000BC0300200400002013B5084C00231A4699
:1015B00001A9206807F0E3F820684FF0FF3300220C
:1015C00001A907F0DCF802B010BD00BFBC03002089
:1015D00003685B6C18470120704703689B6A1847D3
:1015E000FEE740F2EF307047054B0360054B4FF0CC
:1015F0008062C3F88820BFF34F8FBFF36F8F7047AF
:10160000386D020800E100E010B504464FF45A615D
:10161000FFF7EAFF204622F018FA204610BD00002E
:1016200082B0002301930E4B1A6B42F400021A633E
:101630001A6B02F400020192019A1A6942F4000244
:101640001A611A6922F400021A61064B064A1A61ED
:10165000064A5A61064B4FF080629A6002B07047AA
:1016600000380240C83C0020C1180008E1150008FD
:1016700000E100E008B50A2809D8DFE800F006100C
:101680000E080808081010101000022008BD054BB5
:10169000054A0648902123F05DFA0020F6E7012074
:1016A000F4E700BF306302084B6302089663020848
:1016B00038B50C46887FFFF7DDFFA58AE28A164B16
:1016C0002169586342EA05425A64628BD963521B0E
:1016D0001A642568082D0ED19A611A615862207F1C
:1016E0000E4A42EA0062DA61E2681A620C4A596103
:1016F000D9601A6038BD0022D8611A61E1680A0A0F
:10170000480902F4784200F4FC600243C1F3C401CA
:101710000A439A63034AECE700B002400900010063
:10172000012302000123030008B50B280BD8DFE8D2
:1017300000F00612100A0A0A0A080808080802201F
:1017400008BD0520FCE7054B054A06486F2123F03C
:1017500001FA0020F4E70120F2E700BF306302083D
:10176000D5630208966302082DE9F04191F81D80C7
:101770000C464046FFF7D8FFA77F05463846FFF7DF
:10178000D3FF06463846FFF775FFA18A628B444BAC
:10179000521A1A649A61228B521A1A61E28A5863A9
:1017A00042EA01425A6421696268D963DA602068BA
:1017B000802828D0227F0FD8202867D0402865D0E5
:1017C00004281AD0364B45EA026545F40035B84581
:1017D000DD6161D0334A44E0B0F5807F04D0B0F5DC
:1017E000007FEFD1304800E0304840EA0262DA6121
:1017F000E2681A625E62596132E045EA026242F4CE
:101800000032DA61F6E7A068021DDA62227F45EA5B
:10181000026545F40035DD615E625961017841B1D0
:10182000012921D0224B234A23484FF48D7123F004
:1018300091F9DA69418822F47F42013922F01002DD
:1018400042EA0122DA610121154BDA6942F02002F5
:10185000DA61DA699206FCD410229A600029B9D0C4
:10186000164A1A60BDE8F081B2F1FF01DA694088DA
:1018700022F47F4200F1FF3022F0100242EA0022FF
:1018800042F0100218BF0121DA61DDE745EA026289
:10189000034B42F40032B4E742F20132E1E700BF09
:1018A00000B0024001230100090002000A0002000A
:1018B0001F640208396402089663020801230200CB
:1018C000024B1B68586803685B6918479C4C0120F1
:1018D00070B5044625460A4B0C300026606026721F
:1018E000667245F8203B602229460AF097F804F515
:1018F0005A63EE6024359D42FBD1204670BD00BF87
:10190000386D0208034B1A68D207FCD423229A6070
:10191000704700BF00B002407047000030B50F4C68
:101920002568ED07FCD423250904A56041F00101D9
:101930000225FF2B65636164E0630AD00849656294
:1019400041EA0363E361074B22626061E060236068
:1019500030BDE561039BA363034BF8E700B0024091
:1019600009000100010002000100030030B50E4C27
:101970002568ED07FCD423251204A56042F001027E
:101980000225FF2B65636264E063E16008D01B06FB
:1019900043F00213E361054B65626061236030BD73
:1019A000034BE3610123F9E700B0024001000200AC
:1019B000020002FF30B50B4C2568ED07FCD423254F
:1019C00012041B06A56043F40033022542F0010215
:1019D00065636264E063E160E361034B65626061DB
:1019E000236030BD00B002400100020001207047BA
:1019F0000C2070470C2303FB0100083070470C23B8
:101A000003FB0100083070470120704742F2D850B4
:101A1000704742F2D85303FB01000830704742F28E
:101A2000D85303FB01000830704701207047102095
:101A3000704700EB01100830704700EB01100830D0
:101A40007047084601F022BC10B5034B0360044602
:101A500008F013FE204610BDF06D020810B50446D4
:101A6000FFF7F2FF2046142121F0EFFF204610BDC2
:101A700010B5034B0360044608F0FFFD204610BD7F
:101A8000BC6D020810B50446FFF7F2FF204642F293
:101A9000E05121F0DAFF204610BD000010B5034BE5
:101AA0000360044608F0E9FD204610BD886D020879
:101AB00010B50446FFF7F2FF2046182121F0C5FFBC
:101AC000204610BD10B5094B0360044600F51850C0
:101AD0000C30FFF7B9FF04F12C00FFF7C9FF04F148
:101AE0001400FFF7DBFF204610BD00BF246E020884
:101AF00008B50248FFF7E6FF08BD00BF9C120020B2
:101B000010B50446FFF7DEFF20464FF41E5121F0CA
:101B10009CFF204610BD00002DE9F34101F02CFA96
:101B2000054601F02DFA00240146234628462246A8
:101B3000009412F0F7FE274B274A1A60204602F065
:101B400025FA264D264B274A27489A6012F052FE66
:101B50002B68BFF35B8FDB0736D4284621F077FF75
:101B600090B3224C224F234B236007F1180604F157
:101B7000140004F12C086060C4F80880E760266156
:101B800008F07CFD1C4B6361404608F077FD1B4B61
:101B9000E362384608F072FD04F5005303F5C460B3
:101BA000174AC3F80C2602F075FA224607F1140111
:101BB000304602F065FA304601F068FB114822F029
:101BC000E7FF284621F04FFF0F4802B0BDE8F04183
:101BD000FFF7E4BB004D01204804002098120020CC
:101BE000680400204C040020080000209C12002003
:101BF000A8380020246E0208886D0208BC6D020817
:101C0000F06D0208F11A0008C403002070470000BC
:101C10000148FFF7D1BB00BFC403002070B5264EBA
:101C2000264C274D274B23603046FFF751FE2846B0
:101C300017F07EFF244810F0B7FA244B2448DC60EC
:101C400000224FF48071C3E9121222491A86C3E9B7
:101C50001A12214983F85820C3E91E011F49C3F80D
:101C600080101F491F480B60F021C3E90422C3E91B
:101C70000622C3E90822C3E90A22C3E90E22C3E906
:101C80001022C3E91422C3E917225A6683F8702090
:101C90005A67C3E9016501801348018013484FF476
:101CA000A07101801248018012490A70012283F854
:101CB0003420114A1A6070BDF404002094120020F0
:101CC00068040020B46002084C040020C403002013
:101CD0000000010101000001000450001A0014007E
:101CE0009C4C0120904C0120964C0120924C0120EC
:101CF000984C0120944C01204C6C02080148FFF7DD
:101D000073BC00BFF404002000207047818070473E
:101D1000C1807047018170474181704770477047AB
:101D200070477047704710B4C4880368121B8488DA
:101D30005B6D091B12B25DF8044B09B218474FF6F0
:101D4000FF7383814FF0FF3303621368C361106038
:101D50007047002070478B88838001207047704750
:101D600080F82610704790F82600704710B50022C2
:101D7000B1F90840B1F90A10028042808480C18024
:101D800010BD0022028042808280C28070470177AD
:101D9000704780ED080A704780F82410704780F87B
:101DA0002510704701207047983070478C3070477D
:101DB000843070477047704770470000034B902293
:101DC00083F85A2383F85823704700BF00E100E0EE
:101DD000094A0A49D3680A48C3F30A03013B9BB284
:101DE0000B801169C1F30A01013901801364536B3F
:101DF00043F0010353637047006801401E3A00201E
:101E00001C3A0020014BD3F8AC0070470068014039
:101E1000024B0122C3F8AC105A62704700680140BF
:101E200010B52C21044621F010FE204610BD10B53F
:101E3000BC21044621F009FE204610BD70B50446C1
:101E400008F019FF23689D6E0EF046FF01462046FC
:101E5000A8472368054AD3F88C502046AC46002397
:101E6000BDE87040A2F51631604700BF00B004D055
:101E700008F0E8BE08F0F2BE08F0AEBE09F01DB8EA
:101E800090F8252012B103685B691847704790F8F5
:101E900025201AB190F8242002B118607047000084
:101EA000034B4FF080629A604FF080729A607047E7
:101EB00000E100E0084B4FF08062C3F88820BFF3D8
:101EC0004F8FBFF36F8F4FF08072C3F88820BFF33E
:101ED0004F8FBFF36F8F704700E100E070B50023B4
:101EE000124E8380124B0360336893F858200546E6
:101EF0000AB1D86C00B998680368DB6A9847336800
:101F0000B0FA80F4D86C640930B10368DB6A984792
:101F1000002808BF44F001042CB9064B064A0748C4
:101F20002C2122F017FE284670BD00BF9C4C0120DA
:101F3000386E020877640208D56402080E6502084C
:101F400070B5254E3568BFF35B8F15F0010540D1A4
:101F5000304621F07CFD00283BD0204C204B2561F1
:101F600004F13400C4E90035C4E90255E584A562F2
:101F7000A58510F0FEFB04F158000BF005FA194B93
:101F8000A3652046184B40F8843BFFF7A7FF174B8B
:101F9000C4F884302433C4F88C304FF4C803C4E947
:101FA00028350023C4F8AC30C4F8B030C4F8B430DD
:101FB000C4F8B8300E480F4BC4F89050C4F89C5089
:101FC000C4F8A850C4F8983022F0E2FD304621F061
:101FD0004AFD024870BD00BF203A0020243A00208C
:101FE00048750208586E0208D06E0208FC74020898
:101FF000B91D0008DC74020838B5184C23685BB3BF
:10200000174B184A1B6C11888B4216D1164B198836
:1020100004F024FF236893F86A200025013283F836
:102020006A2083F87C50FFF7B3FA206809F0A0FB20
:102030002846BDE83840FFF7F3B804F00FFF2468E6
:10204000236820461B6A9847012384F87C300020CF
:10205000BDE83840FFF70EB938BD00BF9C4C0120E9
:10206000006801401E3A00201C3A002007B5064BCC
:10207000ADF806001B68054801220DF1060105F0C8
:1020800063FC03B05DF804FB0C000020743B0020EF
:1020900008B5642006F05CFAFBE70000BFB51B4EF4
:1020A0001B4D1C4C1C4F304603F01AFD284603F014
:1020B00017FD0121304603F091FD0121284603F070
:1020C0008DFD164B22881A80154B3A881A803046AF
:1020D00003F0D7FD2080284603F0D3FD2288114964
:1020E000388083B201A822F0F9FE01A8FEF780F83B
:1020F0000A2382B201A90C4806F0BDF8322003F091
:1021000035FC012006F024FACBE700BF583D002043
:10211000103D00201A0000201800002016000020AA
:1021200014000020706502082C3B002030B595B0EB
:10213000102200210AA822F036FF1422002103A851
:1021400022F031FF00241D4B01941A6C42F08052A2
:102150001A641B6C03F080530193019B184B02948B
:102160001A6842F440421A601B6803F44043029329
:102170000122029B4FF48033CDE9082302254FF45E
:102180008003CDE90E5308214FF4A873CDE9101355
:1021900008A804231393129504F07EFE0F23CDE9C3
:1021A00003354FF4A0504FF48053CDE906030521C9
:1021B00003A8059405F04CF815B030BD0038024076
:1021C000007000402DE980489BB003F0A3FBFFF7AF
:1021D000ADFF142200210DA822F0E5FE0024C84B1B
:1021E00000941A6BC748C84D42F010021A631A6B6C
:1021F00002F010020092009A01941A6B42F0200241
:102200001A631A6B02F020020192019A02941A6B6F
:1022100042F080021A631A6B02F080020292029A64
:1022200003941A6B42F004021A631A6B02F0040260
:102230000392039A04941A6B42F001021A631A6B18
:1022400002F001020492049A05941A6B42F0020211
:102250001A631A6B02F002020592059A06941A6B31
:1022600042F040021A631A6B02F040020692069A8C
:1022700007941A6B42F008021A631B6B03F0080301
:10228000224607933C21079B03F0E0FF9F48012271
:10229000022103F0DBFF22469C48042103F0D6FF15
:1022A00022469B484FF4405103F0D0FF01263C23C7
:1022B000CDE90D3693480F9403230DA902271093FF
:1022C00003F0DAFE91480DA9CDE90D76CDE90F4472
:1022D00003F0D2FE04238D480DA9CDE90D36CDE9DA
:1022E0000F4703F0C9FE0DA94FF440538848CDE9CC
:1022F0000D36CDE90F4703F0BFFE8648864B0360DD
:1023000003F0B0FDDFF838C2844B2C62C5E900C38E
:1023100028464FF48043C5E90434C5E90244C5E9C1
:10232000064404F0A1F91021284604F0E5FB2146FB
:10233000284604F000FC7A4DDFF808E2AC624FF466
:102340008273C5E900E34FF400781823C5E90683DA
:1023500028460A23C5E90244C5E90444C5E90844FE
:10236000EB6205F095FA8F232246394667488DF8CF
:1023700024308DF8344003F069FF32464FF47A730D
:1023800009A9284605F0E0FA4FF47A7332460DA900
:10239000284605F085FC324639465C48614D03F01D
:1023A00055FF9DF83430D32B04BF5F4B1E705F4B3D
:1023B0000126C5E900364FF0100840230024C5E986
:1023C00004834FF4C073C5E906344FF40063C5E9D4
:1023D00008344FF4005302274FF0040A4FF0030B68
:1023E000AB620DA907232846CDE90D73CDE90FA3F4
:1023F0004FF00809C5E9024ACDE911B7139705F076
:102400002BF94FF6FF7209A92846CDE90A960894E0
:1024100009960C9405F040F9304603F0A7FA4FF600
:10242000FF7209A92846CDE90979CDE90B6405F0C9
:1024300033F94FF6FF7209A92846CDE909B9CDE96C
:102440000BA405F029F94FF40C730893089B0C9327
:102450004FF6FF7209A92846CDE909A90B9605F0A8
:102460001BF940F26A51284605F034F9342221461E
:102470000DEB020022F097FD2D4D2E4B2C61C5E98E
:1024800000340923C5E905361D23C5E9073B40F2A1
:102490000D1240F24313C5E9092340F2171140F22F
:1024A00047132846C5E90B13C5E90244AC8685F8F5
:1024B000364004F0DBFBFF21F022CDE912144FF08F
:1024C00005094FF480614FF4A073CDE90E24CDE9E6
:1024D0001419CDE916420DA922462846CDE9103738
:1024E000154D18930D94ADF864408DF8664004F0D6
:1024F00088FC124B2B601B6898472B6824E000BFB8
:102500000038024000100240743C002000080240E5
:10251000000C0240083D002000300240A08601006F
:10252000743B0020F83A0020E83A0020400100A067
:10253000CC3B002000680140E03A00201C00002055
:10254000005C004000500140424DDB689847424B20
:102550002846C5E90034C5E90274C5E90A47C5E95A
:102560000C4403F08FFC3146284603F041FD3B4DFF
:102570003B4F424621460DA822F015FD394B2C61F8
:102580004FF4003B4FF0007A2846C5E9003BC5F800
:1025900008A02C7685F82040EC62AF62EC60EE611A
:1025A00085F830406E6103F0F5F90D230DA928463A
:1025B000CDE90D362C4D0F9403F066FB42462146C3
:1025C0000DA822F0F0FC294BC5F808A02846C5E963
:1025D000003BC5E90A742C612C7685F82040EC603C
:1025E000EE6185F830406E6103F0D4F90DA92846FC
:1025F000CDE90D961E4D0F9403F046FB1D484FF498
:10260000E133C0E900530C23C0E90534C0E90244BA
:102610000461C46105F000FEFEF736FDFEF733FDF0
:1026200005F01CFF144A1548214605F04DFF144BD8
:10263000144A18602146144805F046FF134B144A0B
:1026400018602146134805F03FFF134B186005F052
:1026500017FFFEE7C83C002000B00240583D0020B4
:102660000100000F00200140103D0020002101402A
:10267000001001402C3B00205C6F020891200008F4
:10268000F43A0020386F020897100008F03A002052
:10269000146F02089D200008EC3A00207047704734
:1026A0007FB5094B8DF817201B6802930DF11702B7
:1026B0000123009201930A460146044804F07CF885
:1026C00007B05DF804FB00BF10000020743C002040
:1026D0007FB500238DF81730084B1B6802930A461C
:1026E00001230DF11701009101930146044804F004
:1026F000F3F89DF8170007B05DF804FB1000002008
:10270000743C00201FB5084C24680092CDE90134C8
:102710000A4601230146054804F0DEF8003818BFD8
:10272000012004B010BD00BF10000020743C002048
:1027300003F01CB910B5064C00222046042103F01A
:1027400085FD20460122BDE81040042103F07EBD36
:102750000008024038B50B4D044601220A484FF4E8
:10276000005103F073FD00220421284603F06EFDA2
:102770002046FFF77BFC28460122BDE838400421B3
:1027800003F064BD00080240000C024038B50B4D58
:10279000044600220A484FF4005103F057FD00227E
:1027A0000421284603F052FD2046FFF75FFC28462F
:1027B0000122BDE83840042103F048BD0008024072
:1027C000000C0240F7B5144E144F05460C46304637
:1027D0000022042103F03AFD00224FF40051384654
:1027E00003F034FD2846FFF741FC0D4B0D481B68F4
:1027F000224601A905F054FA384601224FF400514F
:10280000019C03F023FD30460122042103F01EFD4C
:10281000204603B0F0BD00BF00080240000C02409B
:102820000C000020743B002003F0A0B80268034BAA
:102830009A4201D103F088B8704700BF00100040F1
:102840007047000082B00E4B00220092596C41F498
:1028500080415964596C01F48041009100990192C2
:10286000196C41F0805119641B6C03F08053019383
:10287000019B0F216FF0010002B003F0B3BA00BF5B
:102880000038024010B514228AB0044600210DEB36
:10289000020022F088FB2368214A93421FD1214B7A
:1028A0002148002101915A6C42F480725A645A6C9A
:1028B00002F480720192019A02911A6B42F00402B2
:1028C0001A631B6B03F0040302930821029B03238A
:1028D000CDE9051305A903F0CFFB0AB010BD134ADB
:1028E0009342FAD10F4B1248002103915A6C42F4E3
:1028F00000725A645A6C02F400720392039A0491B3
:102900001A6B42F001021A631B6B03F0010304937C
:10291000049B20220323CDE9052305A9DBE700BFA3
:102920000020014000380240000802400021014020
:10293000000002400268094B9A4282B00BD100238A
:102940000193074B1A6B42F480521A631B6B03F41A
:1029500080530193019B02B0704700BF00300240DA
:102960000038024007B50F4B02689A4216D1002288
:10297000A3F5F0430192196B41F4000119631B6B3D
:1029800003F40003019305215A20019B03F02AFA66
:102990005A2003B05DF804EB03F056BA03B05DF8BB
:1029A00004FB00BF00B002402DE9F043044689B0AB
:1029B0001422002103A822F0F6FA2268244B9A423E
:1029C00043D1244C244800250095236B43F0040395
:1029D0002363236B03F004030093009B0195236B97
:1029E00043F001032363236B03F001030193019B75
:1029F0004FF012094FF400734FF00108032704262B
:102A000003A9CDE90339CDE90587079603F034FB27
:102A10004FF480731148079603A9CDE90339CDE936
:102A2000058703F029FB0295236C43F4000323641C
:102A3000236C03F400030293029B236A43F4000314
:102A40002362236A23F40003236209B0BDE8F08304
:102A5000005C0040003802400008024000000240D4
:102A6000F0B599B004461422002107A822F09BFA81
:102A700030220DEB0200002122F095FA22685E4B15
:102A80009A4240F0B78008230C93C023109304238C
:102A900012930CA84FF40033159304F0B1FC08B165
:102AA000FFF7CEFE554B5648002400945A6C42F076
:102AB00080625A645A6C02F080620092009A01941B
:102AC0001A6B42F020021A631A6B02F02002019284
:102AD000019A02941A6B42F001021A631A6B02F017
:102AE00001020292029A03941A6B42F002021A63E4
:102AF0001A6B02F002020392039A04941A6B42F0DA
:102B000040021A631A6B02F040020492049A059480
:102B10001A6B42F004021A631A6B02F00402059267
:102B2000059A06941A6B42F008021A631B6B03F0B5
:102B30000803069302250E26069B0B964FF480632E
:102B400007A9CDE90735CDE9094503F095FA41F626
:102B500058032C480B9607A9CDE907350927CDE97D
:102B6000094503F089FA032327480B9707A9CDE904
:102B70000735CDE9094503F07FFA4FF47063224829
:102B80000B9607A9CDE90735CDE9094503F074FA9D
:102B90004FF40C631D480B9607A9CDE90735CDE925
:102BA000094503F069FAC02319480B9607A9CDE936
:102BB0000735CDE9094503F05FFA082315480B9660
:102BC00007A9CDE90735CDE9094503F055FA4FF4DA
:102BD000A0530E480B9707A9CDE90735CDE9094564
:102BE00003F04AFA58202246052103F0FBF858204A
:102BF00003F02AF919B0F0BD006801400038024026
:102C0000001402400000024000040240001802408C
:102C100000080240000C024010B5044688B014229F
:102C2000002103A822F0BFF92268144B9A4223D155
:102C300003F56843002101915A6C114842F4801257
:102C40005A645A6C02F480120192019A02911A6B32
:102C500042F020021A631B6B03F020030293029BD5
:102C60004FF4607202230321CDE903230523CDE94C
:102C7000061303A903F000FA08B010BD005001408C
:102C80000014024010B5044688B01422002103A8A5
:102C900022F089F92268144B9A4223D103F5943328
:102CA000002101915A6C114842F010025A645A6C8A
:102CB00002F010020192019A02911A6B42F0010295
:102CC0001A631B6B03F001030293029B4FF4C06273
:102CD00002230321CDE903230723CDE9061303A92A
:102CE00003F0CAF908B010BD001001400000024016
:102CF0002DE9F04186B0002303932B4B1C68002C78
:102D00004FD14FF00108C3F80080284B00949A6B14
:102D1000274842EA08029A639B6B03EA0803009380
:102D2000022703260C25009B01A94FF63F03CDE99E
:102D30000137CDE9046503F09FF91E48059501A907
:102D4000CDE90187CDE9034603F096F948F2331344
:102D50001948059501A9CDE90137CDE9034603F0EE
:102D60008BF94FF683731548059501A9CDE9013715
:102D7000CDE9034603F080F94CF203731048059542
:102D800001A9CDE90137CDE9034603F075F96023C8
:102D90000C48059501A9CDE90137CDE9034603F0BB
:102DA0006BF906B0BDE8F081A03D0020003802407C
:102DB00000140240000802400018024000100240C7
:102DC000000C02400004024070B588B0002302935A
:102DD000204B1A6C42F010021A641B6C03F01003B3
:102DE0000293054601A903A8029B04F0EBFA069B97
:102DF0004BBB04F0C7FA184E184B336040F2E73370
:102E0000F360174BB0FBF3F3013B736030460023D4
:102E10003361B360B36105F013F9044680B93046FD
:102E200004F0E4FF044658B9362003F00DF80F2DE6
:102E30000DD822462946362002F0D4FF094B1D60EA
:102E4000204608B070BD04F09DFA4000D3E701248D
:102E5000F6E700BF00380240A43D0020001000400B
:102E600040420F00840000207047FEE7FEE7FEE7C7
:102E7000FEE77047014804F0F7BF00BFA43D002003
:102E8000014803F061BF00BFCC3B0020014803F0C4
:102E900025B800BFC83C00200120704708B522F0CB
:102EA00083F9162303604FF0FF3008BD08B522F008
:102EB0007BF916230360FEE770B50D4614460E46F7
:102EC000731B9C4201DC204670BDAFF3008006F806
:102ED000010BF5E770B50D4614460E46731B9C4278
:102EE00001DC204670BD16F8010BAFF30080F5E75A
:102EF0004FF0FF3070474FF400534B600020704795
:102F000001207047002070470A4A116808B503463F
:102F100009B9094911601068694603448B4206D912
:102F200022F042F90C2303604FF0FF3008BD13601C
:102F3000FCE700BFEC3D0020E0590120704710B5D0
:102F40000421044620F081FD204610BD08B5032968
:102F50000FD8DFE801F00A02060A01F063F84068C2
:102F600008BD01F05FF88068FAE701F05BF80068DF
:102F7000F6E70020F4E7000000487047946F02086D
:102F80000C20704713B5002451B1036801948DF8EB
:102F9000034001AA9C680DF10303A04702B010BDD5
:102FA0000846FBE7C0897047008A7047C0887047B1
:102FB00080887047807A00F07F007047807AC0096F
:102FC00070470020704700009FED010A704700BF66
:102FD00000000000704710B50821044620F035FDC0
:102FE000204610BD7047704700F59873086849681F
:102FF00003C3704770477047416070477047704720
:10300000064BC0F84C310023C0F8503100F5A273D4
:10301000C0F84801C0F84031704700BFC130000817
:10302000012303727047704710B4C268416854109E
:10303000034601EB6200D20748BF0A599B685DF85E
:10304000044B48BFD35818470346406830B19A68CC
:103050001AB9D86800F0010070470120704710B518
:103060000C21044620F0F1FC204610BD10B51021C3
:10307000044620F0EAFC204610BD10B54FF4AE71B6
:10308000044620F0E2FC204610BD10B50DF024FEF1
:103090000368BDE81040DB6B184710B50446D0F854
:1030A000400158B10368DB68984738B1D4F8400153
:1030B00003689B6898470023C4F8403110BD0000A6
:1030C0002DE9F14FD0E9556A0746B06803681B6ADD
:1030D000984742F2D753984205D8444B444AA3211B
:1030E000444821F037FD706803681B6A98470F2831
:1030F00003D8414B3E4AA421F2E7F06803681B6AFB
:1031000098470B2803D83D4B394AA521E8E70DF035
:10311000E3FDDFF8F09004300DF003FED9F8000075
:1031200010B10368DB689847D9F8000010B1036854
:103130001B689847DFF8D080D8F8000010B103680A
:103140005B699847D7F83C0110B103685B68984702
:10315000D8F8000010B103681B689847D7F83C0105
:1031600010B103689B689847F068036800215B6AA8
:1031700098474FF0000B224BC0F804B0044680F88B
:1031800008B00360B068036859465B6A9847054613
:1031900000F0C0FF7068036859465B6A984729468B
:1031A000064600F089FF331DC7F83C61C9F80040AE
:1031B000C8F80050CAF800302B68C6F808A02846A6
:1031C000DB68EE639847336830461B6898472146B2
:1031D00028460FF0FFFF236820461B6998472368A5
:1031E0005B69204601B0BDE8F04F18479D650208B5
:1031F0002B660208FD66020844670208E7670208BA
:1032000008710208E44C0120E04C0120044B1B68CB
:1032100093F858200AB1D86C00B99868704700BF7D
:103220009C4C0120F8B5174604460E460DF016FEDC
:10323000124B1C60124B2360124B0025C4E9513520
:10324000114BC4E953551868036801219B68C4E910
:103250004F55C4E955769847284600F097FEFFF78A
:10326000D5FF18F00EFBFFF7D1FF18F085FBFFF735
:10327000CDFF18F08DFB2046F8BD00BFF04C0120BB
:10328000B47002089C7002089C4C0120064BC0F8E8
:103290004C310023C0F8503100F5A273C0F848014A
:1032A000C0F84031704700BFC1300008406A704725
:1032B000806A704770478A880B8810B5D20A4C889C
:1032C000C1699BB251F8220043EA0443184410BD7F
:1032D00010B50446BAB1107B68B1537BD27A1B0299
:1032E00003F4E0631A43236A03EB82031A888A42D9
:1032F00002D193F9020010BD05D8013880B2043321
:103300000028F3D1F7E70020F5E710B52C2104469B
:1033100020F09BFB204610BD30B58BB00446BDF8B5
:1033200060500895BDF85C5007959DF85050069583
:103330009DF84C5005959DF8485004959DF84450D3
:1033400003959DF8405002959DF83C500195BDF8BD
:10335000385000950FF0CAFA064B2360159BE361C5
:10336000169B2362199B63621A9BA36220460BB0D3
:1033700030BD00BF2C710208806A704770477047EB
:1033800070477047704730B5036885B06D4601815E
:10339000D3F88430014604462846984795E807004C
:1033A0003C3484E8070005B030BD30B5036885B013
:1033B0006D464181D3F8843001460446284698473B
:1033C00095E807003C3484E8070005B030BD0022D2
:1033D000028042808280C280704780F83610704739
:1033E00070B5036804461B6B154698472368294649
:1033F00020465B6EBDE87040184700207047806C27
:1034000070477047704770477047704730B4C26864
:1034100044685510034604EB6200D20748BF625966
:103420009B6830BC48BFD35818470346406830B14A
:103430009A681AB9D86800F00100704701207047F7
:1034400090F82D3080F85C3070470146343091F8A8
:103450002C3013B162310BF02FB86031FBE710B59F
:103460004C21044620F0F1FA204610BD10B564212D
:10347000044620F0EAFA204610BD10B5102104469B
:1034800020F0E3FA204610BD10B5034B036004465C
:103490000BF028FF204610BDDC72020810B5064B69
:1034A000036004460BF01EFF204641F2B82120F0D5
:1034B000CCFA204610BD00BFDC72020808B5FEF74A
:1034C000DFFC08BD10B50446006B50B10368DB6833
:1034D000984730B1206B036821469B68BDE81040D7
:1034E000184710BD00F57E728A4202D10368DB6A7C
:1034F00018477047036870B55E6B124B1B68044633
:103500008DB22BB9104B114A6C21114821F022FBCE
:103510001049828D0988914203D80F4B0B4A6D21C7
:10352000F3E713F812200D4B1B6853F822000368D1
:103530001B6B9847291A3346204609B2BDE87040F4
:10354000184700BFF44C01208A680208CC680208C2
:1035500007690208F84C01204E690208FC4C012062
:103560000B7970B590F82C6004460D460BB916B176
:1035700070BD002EFCD0B3FA83F35B0984F82C30C5
:1035800023682046D3F88C309847236820465B692F
:103590009847002EECD02B79012BE9D123682046E7
:1035A000D3F88830BDE87040184700224FF0FF3153
:1035B000C0E9002182607047074A02600022C0E92A
:1035C0000122C0E90322C0E90522C0E907224FF425
:1035D00080728284704700BFC879020870B50368A2
:1035E00004461B6B154698472368294620465B6BAB
:1035F000BDE87040184770B5036804469B6B1546DC
:103600009847236829462046DB6BBDE87040184781
:1036100038B504461D46FFF7E1FFBDF910202946E5
:103620002046FFF7E8FF38BD0B8870B5A0F8603082
:103630000546138825F8623F0446284611F086F9AE
:103640000646284611F0B6F9314602462046FFF7F5
:10365000D2FF23682046D3F88C30BDE8704018476D
:1036600010B526220446002121F09DFC2046FFF7DC
:10367000A3FF044B2360FF2384F826300023A362BA
:10368000204610BD2878020838B5262204460D468B
:10369000002121F088FC2046FFF78EFF064B2360B7
:1036A0002B88E384FF23204684F8283029460AF03B
:1036B00003FF204638BD00BFF878020810B5262267
:1036C0000446002121F06FFC2046FFF775FF0A4BEE
:1036D00023600A4BA3624FF6FF73A3854FF47F026A
:1036E0000023C4E90C3223874FF0FF32C4E91023D2
:1036F000E363204610BD00BF987702088C70020873
:103700002DE9F04F044699B0A04600250FF0B6FB16
:10371000D64BE56348F8403B4046FFF7A1FF04F174
:103720006C034FF6FF7616A918460893ADF858605B
:10373000FFF7AAFF04F1980316A918460993ADF8FC
:103740005860FFF7A1FF04F1C40316A918460A93B5
:10375000ADF85860FFF798FF04F1F00316A904F5DF
:103760008E771846DFF838A30B93ADF85860FFF753
:103770008BFF384609F0DCFF04F5C6730AF1240B11
:10378000184604F5D0790F93FEF7A8FBC4F88CA176
:10379000C4F894B1C4F89851484609F0C9FF04F53B
:1037A000047318460E93FEF799FBC4F810A204F5B3
:1037B000097AC4F818B2C4F81C525046FFF77EFFCD
:1037C00004F51C7BAA4AC4F82422C4F86C5258465B
:1037D000FFF7F2FEA74BC4F8703204F527731846C2
:1037E000C4F898520D93FFF73BFFA34BC4F89C32EB
:1037F00004F534731846C4F8C852A4F8CC520393A5
:10380000FFF75CFF04F54773994AC4F8D0221846C5
:10381000C4F818530493FFF751FF954AC4F81C23CA
:1038200004F55A731846C4F864530593FFF746FF2E
:1038300004F56C7318460693FFF740FF04F57E739A
:1038400018460793FFF7B8FE4FF47F43A4F82434DB
:103850004FF0010384F81C34884BC4F8F83304F2A9
:103860002C43184616A9C4F82054C4F828540C93C5
:10387000ADF85860FFF708FF2A460C98A4F8586482
:10388000A4F85A642946FFF7A9FE0C99079806F098
:1038900007FF7B4A04F58053C3E9AA24794A4FF411
:1038A0006161C3E9AC2504F593600BF011FD4FF4A1
:1038B000A0732A4600932946F0234046FFF7A8FE4E
:1038C000261D4FF07F43A3664146304606F0E8FED2
:1038D0002A4608982946FFF781FE0898ADF8585007
:1038E00016A90AF0E9FD0899304606F0D9FE2A46E5
:1038F00009982946FFF772FE4FF001030998ADF8C9
:10390000583016A90AF0D8FD0999304606F0C8FECD
:103910002A460A982946FFF761FE02230A98ADF865
:10392000583016A90AF0C8FD0A99304606F0B8FECC
:103930002A460B982946FFF751FE03230B98ADF852
:10394000583016A90AF0B8FD0B99304606F0A8FECB
:103950004FF4A07300932A46F02329463846FFF718
:1039600057FE494BC4F898314FF47843A4F89C3182
:103970000F9BC4F844314FF407522946384609F0EA
:10398000EDFF4FF407524FF4F051384609F0F1FFC4
:10399000D4F85831402B05D04023C4F8583138466C
:1039A00009F0E6FE0121384609F0EEFF7F2384F896
:1039B00042313946304606F073FE00224FF4A073C0
:1039C000114600934846F023FFF722FE2F4BC4F820
:1039D0001C324FF2E053A4F820320E9BC4F8C831D9
:1039E00042F2E0424FF47061484609F0B7FF4FF4ED
:1039F000B4620021484609F0BCFFD4F8DC31402B0A
:103A000005D04023C4F8DC31484609F0B1FE4846F1
:103A1000012109F0B9FF4946304606F041FE40F267
:103A20002512A8215046FFF7D9FD194BC4F854328E
:103A3000D4F82432DFF86C90D3F8843010AD00272E
:103A400051462846A4F85872984795E807000AF1AD
:103A50003C0383E80700D9F8003004F25C481BBB44
:103A60000C4B0D4A60210D4821F074F8DC720208FD
:103A7000947102081C7402089078020824720208EB
:103A8000C4720208E53400080000FFFF00BCF0FF2C
:103A9000EB001FFF8A6802088C69020807690208A8
:103AA000FC740208F44C0120974B1B881BB9974B00
:103AB000974A6121D7E7974B3946186800F0A2FA78
:103AC000954A03460A21404610F086FE5046C4F847
:103AD0006C820AF075FBDFF85C82CDF85880032316
:103AE000504616A9ADF85C300AF08AFB51463046C4
:103AF0004FF0E50A06F0D4FDCDF800A0B223232252
:103B00001F215846FFF784FD0D98CDF800A0B22381
:103B10003A463946FFF77CFD804B814A0D994FF0BC
:103B2000060AC4E9B1235846A4F8CCA206F0B8FDB1
:103B3000692203983921FFF751FD7A4BC4F800330D
:103B4000D4F8D0320399D3F88430A4F8047328460B
:103B50009847039A02F13C0395E8070083E80700C1
:103B6000D9F8003004F58E620892002B3FF478AF4C
:103B7000654A1388022B9AD9664B0221186800F017
:103B800041FA654A03460A21089810F025FE089973
:103B90000398C4F818130AF013FB0398ADF85CA05F
:103BA00016A9CDF858800AF02BFB0399584606F069
:103BB00077FD2D2204983921FFF710FD5A4BC4F8E8
:103BC0004C33D4F81C330499D3F88430A4F85073E0
:103BD00028469847049901F13C0395E8070083E8DB
:103BE0000700D9F8003004F2844A002B3FF438AFC4
:103BF000454A1388012B7FF65AAF464B01211868BE
:103C000000F000FA444A03460A21504610F0E4FD51
:103C10000498C4F864A30AF0D3FA07230498ADF813
:103C20005C3016A9CDF858800AF0EAFA0499584693
:103C300006F036FD05984E221721FFF7CFFC3B4BCF
:103C40000599C4F898332846A4F89C730AF03EF806
:103C500095E80700059BCDF858803C3383E80700C2
:103C600004230598ADF85C3016A90AF0C9FA059945
:103C7000584606F015FD069811223621FFF7AEFCD6
:103C80002B4B0699C4F8E0332846A4F8E4730AF0F5
:103C90001DF895E80700069BCDF858803C3383E873
:103CA000070005250698ADF85C5016A90AF0A8FA99
:103CB0000699584606F0F4FC09230798ADF85830E9
:103CC00016AA15A9ADF85450FFF7AEFC0C983A4669
:103CD0003946FFF783FC04F595530833C4F82834BC
:103CE0003C2300938F2207983B21FFF791FC079913
:103CF000584606F0D5FC3046594606F0D1FC204621
:103D000019B0BDE8F08F00BFF84C01204E690208E1
:103D10008C690208004D0120D7690208456C8CFFB0
:103D200069A3B2FF0000CFFF00C431FF2D2DB5FF06
:103D30000A8A0AFF8C7002087047000030B5164DE1
:103D40002C6814F001048FB0BFF35B8F20D128469C
:103D50001FF07DFEE0B13F230993104B0893104BF9
:103D6000104911480A940122CDE906430423CDE904
:103D700003320A230093CDE90B44CDE901440594B5
:103D8000FFF7CAFA094820F003FF28461FF06BFE30
:103D900005480FB030BD00BFF03D00208C87020801
:103DA00098870208D0860208F43D0020393D0008BB
:103DB0007047000030B5164D2C6814F001048FB028
:103DC000BFF35B8F21D128461FF041FEE8B13F23AE
:103DD0000993104B0893104B104911480A94CDE9F0
:103DE000064301220423CDE90332142300930B225E
:103DF000CDE90B44CDE901440594FFF78DFA09485C
:103E000020F0C6FE28461FF02EFE05480FB030BD3C
:103E1000203E0020908702089C870208E086020866
:103E2000243E0020B13D00087047000030B5164D1B
:103E30002C6814F001048FB0BFF35B8F20D12846AB
:103E40001FF005FEE0B13F230993104B0893104B80
:103E5000104911480A940122CDE906430423CDE913
:103E6000033228230093CDE90B44CDE901440594A6
:103E7000FFF752FA094820F08BFE28461FF0F3FDA9
:103E800005480FB030BD00BF503E002094870208A7
:103E9000A08702087C870208543E0020293E0008C3
:103EA00000207047002070470EB403B503AB00211B
:103EB00053F8042B01930DF097FF02B05DF804EB6B
:103EC00003B070470CB407B504AB53F8042B01934F
:103ED0000DF08AFF03B05DF804EB02B070470000FC
:103EE000436C10B5044673B3038F2BB9184B194AB2
:103EF000C521194820F02EFEC38E00EB43035B8CD6
:103F00000BB30FF0C0FE238F012B03D8134B144AC1
:103F1000CB21EEE7E28E531C9BB2092B194688BFDA
:103F2000A3F10A0104EB410140F63F10498C8142A4
:103F300009D10A2B04EB420228BF002304EB430300
:103F4000508C588451842046BDE810400FF09EBD2F
:103F5000DA690208E36902088E6A0208D86A020870
:103F6000E66A02080FF059BD10B586B002AC84E8CD
:103F700006001A460AAB05930193099B009321465C
:103F8000089B0CF047FA06B010BD000038B518BB0E
:103F9000124B13481C681349B4B1226822440260D2
:103FA000626822440A60A26814440F4B00221A80FF
:103FB00000F038F8054600F033F80C4B1C600C4B51
:103FC0001D600C4B188007E00B4B03600B4B0B6024
:103FD0000B4B1C68002CE8D138BD00BF8C3E002084
:103FE000843E0020803E0020883E0020F44C0120CA
:103FF000FC4C0120F84C0120C4870208A487020869
:10400000EC870208044B1B6853F82100034B1B6824
:1040100003EB4000704700BF803E0020843E00203C
:104020000820704700487047903E002010B5FFF709
:10403000C1FE044C2060FFF7F9FE6060FFF77EFED2
:10404000A06010BD903E002010B5002404600C60FC
:1040500014601C6010BD704710B54FF4AE7104467B
:104060001FF0F3FC204610BD10B50446D0F85801EF
:1040700000F013F82046BDE810400CF0AFBE000081
:1040800010B50446FFF7CEF8014B2360204610BD63
:1040900014730208002202607047704770470438AA
:1040A0007047704710B5102104461FF0CEFC204623
:1040B00010BDA0F10400F5E700228260024A026010
:1040C00018324260C1607047687302087047000090
:1040D00038B5094B0360044642F21825B5F5955FE3
:1040E00005D0635960191B6898472C3DF6E72046B8
:1040F000FFF7CAF9204638BD9073020810B5044690
:10410000FFF7E6FF204642F2D8511FF09EFC204602
:1041100010BD00002DE9F743074607F58058FFF76B
:10412000EFFA2C4B3B6007F596541E2307F5095612
:10413000C8F8B8320C3404364FF6FF7504F5C6796A
:10414000204601A92C34ADF80450FFF79DFA4C45E8
:10415000F6D1B442F2D107F5135001A928301E4C14
:10416000ADF80450FFF790FA07F5145001A9143088
:10417000ADF80450FFF788FA07F5005C2068616825
:104180000CF5AD6303C304F10C06A06818600FCEF4
:104190000CF5AF650FC50FCE0FC596E80F003C3488
:1041A00085E80F000FCC0CF5B5650FC50FCC0FC51A
:1041B00094E80F0085E80F00002388F8C03203233D
:1041C000CCF8743538460123C8F8C83203B0BDE8CE
:1041D000F08300BF90730208F85F02082DE9F04FEA
:1041E000284B85B000F5965700F5095600F5125595
:1041F0001B1A0C3703363C354FF00008019318F0BA
:10420000010F0CBF4FF0080B4FF0090BB2463C46B4
:104210004FF00009019A236832F81A201B6EADF89E
:104220000C20204603A998472868FCF79DF9164BF7
:104230000022FCF739F841EC100B1FF0DFFD51ECC8
:10424000100BFCF799FC2368B4F904109B6D02B2C3
:1042500009F10109204698471AF8013F84F82530F2
:10426000CB4504F12C04D5DC08F10108B8F10A0FA4
:1042700007F5C67706F1090605F10405BFD105B0BB
:10428000BDE8F08F18DEFFFF00002D4000F58053E1
:1042900093EDAF7A00F5125300F513503C33243000
:1042A000D3ED007A77EE877AE3EC017A8342F7D197
:1042B0007047000000000000D0B5B74B1B882DED03
:1042C000048B08EE903AB54B9FEDB59A1B8808EE2B
:1042D000103AB8EEC88AF8EEE88A38EE498A78EEE5
:1042E000C98A68EE087A0446E8EEA87A04F5005414
:1042F00017EE900AFCF738F941EC100B1FF0CDFBDC
:1043000094F84035012B57EC106B18D0022B00F0BD
:10431000FB808BB9F1EE047AB4EEE78AF1EE10FA85
:1043200003DD012384F8403506E004F5AA6204F2B7
:104330005454002313602360BDEC048BD0BDF5EE14
:10434000C08AF1EE10FA4CBFB1EE687AB0EE687A2E
:10435000F1EE047AB4EEE77AF1EE10FA7CD8B5EE1D
:10436000C08AF1EE10FA72D5F9EE047AB4EEE78A5B
:10437000F1EE10FAE0DB8B4B1B8808EE103A8A4B0B
:104380001B8808EE903AB8EEC88AF8EEE88A38EE54
:10439000498A78EEC98AC8EE887AF5EEC07AF1EEDD
:1043A00010FA01D5F1EE677A17EE900AFCF7DCF807
:1043B00077A3D3E90023FCF7A1FB50B1B5EEC08A87
:1043C000F1EE10FA4CBF9FED798A9FED798AF3EEFA
:1043D000098A68EEA87AF1EE688AE8EE087AB1EE0A
:1043E000488A17EE900AFCF7BFF841EC100B1FF05B
:1043F00054FB51EC100BFCF7E7FB07EE900A88EE3C
:10440000277A04F5AA6388EEA79A9FED6A8A83ED5E
:10441000007A67EE087A04F2545317EE900A83ED9F
:10442000009AFCF7A1F8644B0022FBF73FFFFCF772
:10443000A3FBDFED627AC4F86005E9EE087AFDEED1
:10444000E77A17EE903AC4F8643502236AE7B4EECF
:10445000E78AF1EE10FA8ED9B5EEC08AF1EE10FAC5
:104460007FF76AAFC8EE287AF5EEC07AF1EE10FA5F
:1044700048BFF1EE677A17EE900AFCF775F844A38F
:10448000D3E90023FCF73AFB80BB30463946FCF702
:104490009BFB07EE900AF1EE688A88EEA77A04F596
:1044A000AA63B1EE488AC8EE278A9FED428A83ED5F
:1044B000007A67EE087A04F2545317EE900AC3EDBF
:1044C000008AFCF751F83C4B0022FBF7EFFEFCF7AB
:1044D00053FBDFED3A7AC4F86005E8EE887AFDEE2A
:1044E000E77A17EE903AC4F8643525E7F5EEC08A0E
:1044F000F1EE10FA4CBFDFED2D8ADFED2D8ADFEDF6
:10450000307AB3EE098AC6E704F5A96393ED008A11
:1045100018EE100AFCF728F82A4B002206460F4630
:10452000FBF7C4FE284B0022FCF7FCFA50B9254BE0
:10453000002230463946FBF7B7FE00220023FCF785
:10454000E7FA38B104F5AA63D3ED007AF1EE677AA1
:10455000C3ED007A04F5AB6393ED007A04F5AA632A
:10456000D3ED007AA7EE878A04F5A96383ED008A6C
:1045700004F2545304F24C54D3ED006AD4ED007AA3
:10458000E7EE267AC4ED007AD6E600BFAFF30080EE
:10459000ABAAAAAAAAAACA3F1A00002018000020A3
:1045A0000000FF4216000020140000200000F0C2AE
:1045B0000000F0420000164300005E40008093437C
:1045C0002C27F54200002A4000006E40F7B500F5A8
:1045D000005400F513552835B4F84235ADF80430D1
:1045E00001A9284609F068FF04F5A96304F24C54B8
:1045F0001868FBF7B9FF124B0022FBF755FE41ECA0
:10460000100B1FF0FBFB206857EC106BFBF7ACFFA7
:104610000C4B0022FBF748FE41EC100B1FF0EEFBA9
:1046200051EC100BFCF7A8FA394604B23046FCF7FF
:10463000A3FA224601B22846FDF775FB03B0F0BD90
:1046400000002A4000002D4007B500F5005300F59A
:104650001450B3F84435ADF8043001A9143009F012
:104660002BFF03B05DF804FB00F5005393F84025E1
:10467000013A012A09D8D3F86425D3F8601552010C
:10468000490100F5D07009F074B97047044A054B30
:1046900011881B888B4238BF0B461380704700BFC0
:1046A000E43A0020E63A002010B5094B094A1B887D
:1046B0000446142100F25C4010F08EF8012384F8C7
:1046C000493204F50970BDE810400DF0B7BC00BFD9
:1046D000E63A0020B86B020870B5104B104E1B88EC
:1046E00000F28445044632461421284610F074F83E
:1046F0000C4BC4F8645304F58E651B88324628467B
:10470000142110F069F80123C4F8185384F8953285
:1047100004F51C70BDE870400DF090BCE63A002036
:10472000BB6B0208E43A00202DE9F04F99B001F587
:104730000053079303F24C53824618688B46FBF7ED
:1047400013FF0022984BFBF7AFFD079BD3F8E4342F
:10475000019303F62E130BEB8303804658688946BA
:10476000FBF702FF904B0022FBF7A0FD02460B4631
:1047700040464946FCF7E0F940B18C4B93E8030012
:104780008AE80300504619B0BDE8F08F6FF02A03A5
:1047900003FB0BF31593079B019C03F5AA63179387
:1047A00004F00103002B029314BF092308230D9387
:1047B00014BF082309230C9304EBC40303F5095326
:1047C00003335B4406930D9B082B0CBF0723082380
:1047D00014934FF0FF3300930123039304F62E1339
:1047E0000BEB83031693009B049301330093069B0A
:1047F0005B78002B00F0BC81069B009D2C2253436C
:10480000A3F5BA23159AB43B985EFBF79BFE684B61
:104810000022FBF74BFDFCF7D7F9169B0A90D3ED6E
:10482000017A179BCDED087AD3ED007AF5EEC07AC8
:10483000F1EE10FA00F20B81079B03F5A9631868EB
:10484000FBF792FE02460B46CDE91023584B00229F
:10485000FBF72AFD06460A980F46FBF785FE02463F
:104860000B46CDE90A23524B0022FBF71DFDCDE993
:104870000E0102460B4630463946FCF75DF900282A
:1048800000F09A804A4B0022DDE90A01FBF70EFD99
:1048900002460B4630463946FCF730F9002800F056
:1048A0008B800898FBF760FE06460F4602460B46D3
:1048B00040464946FCF740F9B0B13D4B0022304636
:1048C0003946FBF7F3FC02460B4640464946FCF7E7
:1048D00015F948B1DDE90223002A08BF1D460C9BEB
:1048E0009D4280F245819DE0314B002230463946A1
:1048F000FBF7DAFCCDE9040102460B464046494687
:10490000FCF71AF9C0B132463B4640464946FCF72F
:10491000F5F8002800F02C810D9B039A934240F398
:104920002781069B9B78002B40F02281CAF800402B
:104930001346CAF8043025E7DDE90423404649461A
:10494000FCF7DCF8002800F013811A4B00223046F7
:104950003946FBF7A9FC02460B4640464946FCF7A0
:10496000EBF8002800F00481DDE90213009D002C23
:10497000D4BF04F1090204F1FF32002908BF1D462B
:104980000C9B9D4280F2F48002EBC2035B442B44FB
:1049900042F244215B5C002B40F0EA80CAF8002020
:1049A000CAF80450EEE600BF00002D406460020823
:1049B00000002A40008043408C4B0022DDE91001BA
:1049C000FBF774FC06460F4602460B46DDE90E0176
:1049D000FCF794F8002800F0CB80844B0022DDE93E
:1049E0000A01FBF763FC02460B4630463946FCF7EA
:1049F00085F8002800F0BC800898FBF7B5FD7C4BDB
:104A00000022FBF753FC02460B4640464946FCF7A2
:104A100075F8002800F0AC80029B1BB1049D6A1C55
:104A200000F0A6800A22631C93FBF2F102FB113313
:104A300003EBC3025A442A4442F24421525C1AB1A5
:104A4000019AA24240F09480CAF80030A8E740F3EF
:104A50008F80079B03F5A9631868FBF785FD024665
:104A60000B46CDE91223614B0022FBF71FFCCDE979
:104A70000E010A98FBF778FD5C4B002206460F46B4
:104A8000FBF712FC594BCDE90A01002230463946AA
:104A9000FBF70CFCDDE90A23CDE91001DDE90E018D
:104AA000FCF74AF8002878D0DDE91023DDE90E0193
:104AB000FCF724F8002870D00898FBF755FD06464F
:104AC0000F4602460B4640464946FCF735F868B1AA
:104AD000464B002230463946FBF7E8FB02460B46C0
:104AE00040464946FCF70AF8002895D13F4B002282
:104AF00030463946FBF7D8FBCDE9080102460B46A4
:104B000040464946FCF718F880B132463B464046DD
:104B10004946FBF7F3FF48B1049B013328D0069BBD
:104B20001B782BBB049BCAF8004002E7314B0022E4
:104B300030463946FBF7B8FB02460B46404649462D
:104B4000FBF7FAFFA0B1DDE9082340464946FBF731
:104B5000D5FF68B1029B002CD4BF04F1090204F117
:104B6000FF32002B3FF410AF049D6B1C7FF40CAFA1
:104B7000039B009A01330393069B01330693149B16
:104B800093427FF430AE631E58BF1C46019B48BF62
:104B90000934A3427FF404AEEFE5144B0022DDE9B3
:104BA0001201FBF781FB06460F4602460B46DDE984
:104BB0001001FBF7C1FF0028DAD0DDE90A01324617
:104BC0003B46FBF79BFF0028D2D00898FBF7CCFCB4
:104BD000074B0022FBF76AFB02460B46404649465C
:104BE000FBF78CFF0028C3D0009D73E600002A402D
:104BF00000002D400080434000F50050074AB0F807
:104C00004435A0F84235002380F8403500F5A9630B
:104C100000F24C501A60024B036070470000F042F3
:104C20000080934300F580530549D3F8C82243F22E
:104C3000390001FB020020F00040C3F8C8027047B1
:104C40006D4EC64110B50446FFF7ECFF04F5005366
:104C5000D3F87435B0FBF3F202FB130303F595535D
:104C6000143334F8130010BD73B500F5005505F585
:104C7000A9661B4B336005F24C531A4A1A6005F5BE
:104C8000AB634FF080421A60002385F8403504463C
:104C9000FFF7D8FF04F513542834A5F84205ADF802
:104CA000040001A9204609F007FC3068FBF75CFC12
:104CB0000D4B0022FBF7F8FA41EC100B1FF09EF8A9
:104CC00051EC100BFBF758FF40F2191201B22046CD
:104CD000FEF784FC012385F80D3502B070BD00BFDE
:104CE0000000F0420080934300002A4038B504469B
:104CF000FFF7A8FF04F500554FF48C72A5F84405A2
:104D000004F514500A211430FEF768FC012385F8DD
:104D1000393538BD13B50446FFF794FF04F5005349
:104D2000ADF80400A3F8440504F5145001A91430AB
:104D300009F0C2FB02B010BD2DE9F04F2DED048B40
:104D4000454B9FED468A00F5005A85B01B1ADAF8EC
:104D5000E45401930746F0EE488AB3EE0D9AB4EEA0
:104D6000688AF1EE10FA74D1DAF8E4341D20584361
:104D7000FBF7E8FB3A4B0022FBF798FAFBF724FF1E
:104D800008EE100A07EB850909F5005909F2BC4342
:104D900083ED008A4FF4C67405F0010305EBC506E8
:104DA000002B04FB057406F509560CBF08230923E4
:104DB00004F5965406F10306009304F10C040CBFAD
:104DC0004FF010084FF003083E444FF0000B3846F8
:104DD000FFF738FF019BADF80C0023F8160023689D
:104DE00020461B6E03A9984709F2BC431868FBF7DD
:104DF000BBFB1B4B0022FBF757FA41EC100B1EF0DC
:104E0000FDFF51EC100BFBF7B7FE236802B29B6D60
:104E10000FFA88F120469847012306F8013F9B448A
:104E200084F82530009B08F11A089B4504F12C04F6
:104E30001FFA88F8CBD16B1E58BF1D46DAF8E43450
:104E400048BF0935AB428AD105B0BDEC048BBDE843
:104E5000F08F38EE498A95E718DEFFFF0080934314
:104E600000002D4070B50026044680F8956200F5DC
:104E70001C700DF0E3F804F580552046FFF714FC94
:104E8000012385F8C03204F500530422C3F8E4245A
:104E9000094B1E80094BC5F8BC322046FFF74CFF7A
:104EA0002046FFF7E1FE2046FFF720FF03F002FB5C
:104EB000C5F8C40270BD00BFE63A00208FC2F53CC1
:104EC000D0E9B43293421FBF01335A2293FBF2F16F
:104ED00002FB11331ABFC0F8D03201200020704706
:104EE000D0F8D432D0F8D0025A22013393FBF2F139
:104EF00002FB11331B1A58425841704737B56D46B3
:104F000085E806000446FFF7EBFF90B9D4F8D432E9
:104F100095E8030004EBC30282E8030001335A2240
:104F200093FBF2F102FB1133C4F8D432012003B039
:104F300030BD0020FBE700002DE9F04F2DED028B86
:104F400000F5005AADF25C6DBAF8423501930DF1EF
:104F5000100801EBC10388E8060016469A1802F50E
:104F60008A520C3200EB42020D46CF000199D180EB
:104F7000C2183244044642F2442001211154DAF8A6
:104F8000E4244FF00A0C511891FBFCFE0CFB1E119F
:104F9000A94223D115F0010F03444FF000010CBFCB
:104FA0004FF0080C4FF0090C234408468E4218BFFE
:104FB000585401318C45F9DC02F62E1204EB8202C2
:104FC000D2ED017AB3EE0D7A77EE877A05F62E13DD
:104FD00004EB8303C3ED017ACAF8E4545A2200219A
:104FE00015A81FF0E0FF2F4415AB1F440123BB554C
:104FF000E0AF002698E806003846C7E9B466FFF738
:105000007DFFD7E9B43293423CD1B7B2022F40F2D0
:10501000F18000213E462CA842F244258C46D0E97E
:10502000003203EBC3032344134401318E4203F8DF
:1050300005C000F10800F2DCDAF8E45442F2432142
:105040002E4606EBC60316F0010F0B440CBF0820DA
:1050500009202344002213F801CFBCF1000F40F0D7
:105060009A8001329042F6DC731E48BF06F10903B4
:10507000AB4240F08E8038460DF25C6DBDEC028B89
:10508000BDE8F08F57F83320009207EBC303384692
:105090005B680293FFF714FFB2B22CAB009943F8A0
:1050A000321003EBC203029A5A600B46DB075DD451
:1050B00004F5155303F1680C09AD383318685968C5
:1050C0002A4603C2083363451546F7D10DF124087B
:1050D0004FF0000BD8F80050009B5D1955D50A35EC
:1050E000D8F80430029A02EB030905F001030833F3
:1050F000994532D205F62E1304EB83035868FBF76B
:1051000033FA3D4B0022FBF7D1F800220023FBF7D6
:1051100013FD10B305EBC502A3184B4442F2442122
:105120005B5CD3B115AB134413F80910A9B94A4419
:1051300002F58A520C3204EB42020199D2888A426B
:105140000BD1CDE9075907AA06CAE0A80393FFF7D8
:10515000D5FE039B012203F809200BF1010BBBF1E3
:10516000060F08F10808B5D101364AE704F51653D1
:1051700003F1580C09AD2833186859682A4603C250
:10518000083363451546F7D1A0E7092DC8BF0A3D8E
:10519000A6E71E4655E7AE423FF46DAF6B1C0A22F0
:1051A00093FBF2F102FB113303F62E1304EB83039E
:1051B00093ED018AF3EE0D8A42F2442805F62E1390
:1051C00005EBC50038EE688A04EB830305F00102A5
:1051D000404483ED018AC2F10902012120441FF0FD
:1051E000E2FE6B1E4CBF09351D46AE42E6D1CAF841
:1051F000E46440E700273EE700002D4000F5005240
:10520000034692F84025013A012A94BF0122002268
:1052100000F5D07083F8C52108F09AB800000000AE
:1052200073B5044603F04DF904F58055D5F8B8324E
:10523000B0FBF3F603F03EF9D5F8C432C01AB04221
:1052400022D995F8C0323BB92046FFF71FFA02B0C9
:10525000BDE87040FFF740BA04F50056D6F8E434D4
:1052600003F62E1304EB83035868FBF77DF9284BF4
:105270000022FBF71BF824A3D3E90023FBF75CFC17
:1052800020B1002385F8C03202B070BD2046FEF781
:10529000FDFF2046FFF710F82046FFF7E5F996F8E6
:1052A0004035022B19D16E4621463046FFF73CFAB5
:1052B000009B013311D0019B01330ED096E806000C
:1052C0002046FFF739FE134B1A88104418802046F9
:1052D000FFF792FC2046FFF71DFD2046FEF77EFFFC
:1052E0002046FFF773F92046FFF7AEF92046FFF797
:1052F00085FF2046FFF7D8F9201D0CF09FFE03F034
:10530000D9F8C5F8C402BFE70000000000E0704013
:1053100000002D40E63A00202DE9F84F0446261DF6
:1053200004F51C7804F51357FEF76FF8283741464B
:10533000304605F0F6F904F500593946304605F0D7
:10534000AFF90025384604F51457143789F80D5580
:105350000CF074FE3946304605F0A2F989F839554B
:1053600038460CF06BFE04F5965A0AF10C0A40F62A
:10537000787B0AEB0509002749463046013705F0DE
:105380008FF9092F09F12C09F6D105F5C6755D4590
:10539000EFD1002504F5D07084F8C55107F0D8FF8F
:1053A00004F5097084F849520CF048FE4146304635
:1053B000BDE8F84F05F074B9F02070474FF4A070C5
:1053C00070472920FDF7E2B92820FDF7DFB908B5BD
:1053D000FDF7B0F9CA20FDF7D9F9C320FDF7BAF9F6
:1053E0000820FDF7B7F95020FDF7B4F9CF20FDF7FD
:1053F000CDF90020FDF7AEF9C120FDF7ABF9302063
:10540000FDF7A8F9ED20FDF7C1F96420FDF7A2F939
:105410000320FDF79FF91220FDF79CF98120FDF78D
:1054200099F9E820FDF7B2F98520FDF793F90020FE
:10543000FDF790F97820FDF78DF9CB20FDF7A6F95F
:105440003920FDF787F92C20FDF784F90020FDF7BE
:1054500081F93420FDF77EF90220FDF77BF9F72072
:10546000FDF794F92020FDF775F9EA20FDF78EF994
:105470000020FDF76FF90020FDF76CF9B120FDF772
:1054800085F90020FDF766F91B20FDF763F9B620CA
:10549000FDF77CF90A20FDF75DF9A220FDF75AF926
:1054A000C020FDF773F91020FDF754F9C120FDF776
:1054B0006DF91020FDF74EF9C520FDF767F945207D
:1054C000FDF748F91520FDF745F9C720FDF75EF90E
:1054D0009020FDF73FF93620FDF758F9C820FDF779
:1054E00039F9F220FDF752F90020FDF733F9B02029
:1054F000FDF74CF9C220FDF72DF9B620FDF746F96E
:105500000A20FDF727F9A720FDF724F92720FDF74A
:1055100021F90420FDF71EF92A20FDF737F90020B4
:10552000FDF718F90020FDF715F90020FDF712F935
:10553000EF20FDF70FF92B20FDF728F90020FDF7EC
:1055400009F90020FDF706F90120FDF703F93F20D6
:10555000FDF700F9F620FDF719F90120FDF7FAF83B
:105560000020FDF7F7F80620FDF7F4F82C20FDF7F2
:105570000DF9C820FDF758F92620FDF707F901209D
:10558000FDF7E8F8E020FDF701F90F20FDF7E2F85C
:105590002920FDF7DFF82420FDF7DCF80C20FDF7CB
:1055A000D9F80E20FDF7D6F80920FDF7D3F84E20E4
:1055B000FDF7D0F87820FDF7CDF83C20FDF7CAF8CC
:1055C0000920FDF7C7F81320FDF7C4F80520FDF703
:1055D000C1F81720FDF7BEF81120FDF7BBF8002039
:1055E000FDF7B8F8E120FDF7D1F80020FDF7B2F89B
:1055F0001620FDF7AFF81B20FDF7ACF80420FDF7EF
:10560000A9F81120FDF7A6F80720FDF7A3F831202F
:10561000FDF7A0F83320FDF79DF84220FDF79AF83A
:105620000520FDF797F80C20FDF794F80A20FDF708
:1056300091F82820FDF78EF82F20FDF78BF80F202A
:10564000FDF788F81120FDF7A1F8C820FDF7ECF868
:105650002920FDF79BF8BDE808402C20FDF796B8FF
:1056600008B5FDF767F80321D320FDF7ABF880B24A
:1056700008BD10B5C4B2022203212046FDF710F880
:105680000A20FDF755F8204600220321FDF708F80F
:10569000BDE810400220FDF74BB838B50446E4B22F
:1056A000FCF7FCFF00212046FDF712F8012105461A
:1056B0002046FDF70DF840EA052080B238BD10B550
:1056C000C4B240212046FDF703F8030607D54C215C
:1056D0002046FCF7FDFF003818BF012010BD012255
:1056E0004B212046FCF7DCFF204600224B21FCF733
:1056F000D7FF0020F2E773B50423C4B20E46154667
:10570000D7210DEB03022046FCF7FCFF019B1BBADF
:105710001A0DC3F30B23328020462B8001224B212C
:10572000FCF7BEFF00224B212046FCF7B9FF02B078
:1057300070BD000010B50A4A1378984204460DD097
:10574000517888420AD00BB141B90123D454FCF7F7
:10575000A5FF2046BDE81040FFF78BBF10BD00BF7E
:105760009C3E002010B5C4B209212046FCF7B0FFD2
:1057700040F00102D2B220460921BDE81040FCF7FA
:105780008FBF10B5C4B209212046FCF7A1FF092143
:1057900000F0FE022046BDE81040FCF781BF38B59E
:1057A000C4B20D4620460A21FCF792FF40EA0502EA
:1057B000D2B220460A21BDE83840FCF771BF10B5CF
:1057C0000446FCF76CFF20461F21FFF7E8FF204648
:1057D000BDE81040FFF7C6BF38B5C4B20D4620463D
:1057E0000A21FCF775FF20EA0502D2B220460A2101
:1057F000BDE83840FCF754BF10B50446FFF7C1FFC1
:1058000020461F21BDE81040FFF7E6BF10B5C0B22B
:105810000C460B21FCF75CFF204010BD1F21FFF759
:10582000F5BF0A46C0B20B21FCF73ABF1F21FFF7B4
:10583000F8BF38B5C4B20D4620461721FCF748FF23
:1058400020EA0502D2B220461721BDE83840FCF715
:1058500027BF70B5C4B2064604212046FCF738FFC6
:10586000042100F0FB0205462046FCF719FF3046F4
:10587000F021FFF7DEFF05F0F80220460421FCF7D7
:105880000FFF492220212046FCF70AFF0220FCF7E7
:105890004FFF204601222121FCF702FF20469A22D9
:1058A0004121FCF7FDFE204601224A21FCF7F8FECB
:1058B000204601224B21FCF7F3FE204600224B211B
:1058C000FCF7EEFE204601225621FCF7E9FE2046B9
:1058D00001225821FCF7E4FE204601224021FCF77A
:1058E000DFFE2046FF220B21FCF7DAFEBDE8704008
:1058F0000220FCF71DBF0000054BD3F8882042F4BE
:105900007002C3F888204FF000629A60704700BFB1
:1059100000ED00E008B50B4B1A6842F400721A6003
:105920001A6842F480621A601A6842F480721A603F
:10593000032000F045FA0020FDF746FAFCF782FF4D
:10594000002008BD003C0240034A044B11681B784C
:105950000B441360704700BFA03E00208000002071
:10596000014B1868704700BFA03E002038B50446C0
:10597000FFF7F6FF631C1CBF054B1B78054618BFDD
:10598000E418FFF7EDFF431BA342FAD338BD00BF75
:105990008000002038B50446002800F09B80056C8C
:1059A00025B9FCF76FFF656484F83C50236CDB0677
:1059B00000F18E80236C23F4885323F0020343F01C
:1059C00002032364444B5A6822F440325A605A68F6
:1059D00061680A435A60236821695A6822F4807218
:1059E0005A605A6842EA01225A605A68A16822F055
:1059F00040725A605A680A435A609A68E16822F411
:105A000000629A609A680A439A603449A26A8A429C
:105A100052D0996821F07061996099680A439A6040
:105A20009A68E16A22F040529A609A680A439A6042
:105A30009A6822F002029A609A68217E42EA410244
:105A40009A6094F82020002A3ED05A68616A42F495
:105A500000625A605A6822F460425A605A680139FA
:105A600042EA41325A60DA6AE16922F47002DA628B
:105A7000DA6A013942EA0152DA629A6822F4007263
:105A80009A609A6894F8301042EA41229A609A68C3
:105A9000616922F480629A609A68002042EA812259
:105AA0009A606064236C23F0030343F001032364D2
:105AB000002384F83C3038BD9A6822F070629A6006
:105AC0009A6822F04052B2E75A6822F40062C9E7AD
:105AD0000120EDE70120EEE7002301400100000F67
