:020000040800F2
:100000000000032021060008B9210008BB210008D8
:10001000BD210008BF210008C12100080000000028
:10002000000000000000000000000000E162000885
:10003000C32100080000000071630008FD5B000898
:1000400071060008710600087106000871060008B4
:1000500071060008710600087106000871060008A4
:100060007106000871060008710600087106000894
:100070007106000871060008710600087106000884
:100080007106000871060008710600087106000874
:100090007106000871060008710600087106000864
:1000A0007106000871060008710600087106000854
:1000B0007106000871060008710600087106000844
:1000C0007106000871060008710600087106000834
:1000D0007106000871060008710600087106000824
:1000E0007106000871060008710600087106000814
:1000F0007106000871060008710600087106000804
:1001000071060008710600087106000871060008F3
:100110007106000871060008C52100087106000874
:1001200071060008710600087106000871060008D3
:1001300071060008710600087106000871060008C3
:1001400071060008710600087106000871060008B3
:1001500071060008710600087106000871060008A3
:100160007106000871060008710600087106000893
:100170007106000871060008710600080000000002
:100180007106000871060008710600087106000873
:100190007106000871060008710600087106000863
:0C01A000D121000871060008DD210008D4
:1001B00010B5054C237833B9044B13B10448AFF3A1
:1001C00000800123237010BD800300200000000088
:1001D000181A020808B5034B1BB103490348AFF3D3
:1001E000008008BD0000000084030020181A0208E7
:1001F00001F0FF01102A2BDB10F0070F08D010F8D8
:10020000013B013A8B422DD010F0070F42B3F6D1DB
:10021000F0B441EA012141EA014122F007047FF0F4
:1002200000070023F0E80256083C85EA010586EA4B
:10023000010685FA47F5A3FA87F586FA47F6A5FA87
:1002400087F68EB9EED1F0BC01F0FF0102F0070293
:1002500032B110F8013B013A83EA010313B1F8D13E
:100260000020704701387047002D06BF354603381F
:10027000073815F0010F07D1013015F4807F02BF58
:10028000013015F4C03F0130F0BC0138704700BFA9
:100290007BB972B90029BEBF00204FF0004106E0D3
:1002A00008BF00281CBF6FF000414FF0FF3000F086
:1002B000B5B9ADF1080C6DE904CE002909DB002BBE
:1002C0001ADB00F04DF8DDF804E0DDE9022304B0AC
:1002D0007047404261EB4101002B1BDB00F040F80E
:1002E000DDF804E0DDE9022304B0404261EB4101A6
:1002F000524263EB43037047524263EB430300F007
:100300002FF8DDF804E0DDE9022304B0404261EBA0
:1003100041017047524263EB430300F021F8DDF8DE
:1003200004E0DDE9022304B0524263EB430370476B
:1003300053B94AB9002908BF00281CBF4FF0FF314C
:100340004FF0FF3000F06AB9ADF1080C6DE904CE52
:1003500000F006F8DDF804E0DDE9022304B07047A0
:100360002DE9F047089D0C46002B4ED194468C4554
:100370008646B2FA82F262D94AB1C2F120039140B4
:1003800020FA03F30CFA02FC194300FA02FE4FEACA
:100390001C471FFA8CF6B1FBF7F44FEA1E4307FB2C
:1003A000141143EA014304FB06F199420AD91CEBFC
:1003B000030304F1FF3080F01281994240F20F8173
:1003C000023C6344591A1FFA8EF3B1FBF7F007FBA6
:1003D000101143EA014300FB06F69E420AD91CEBCA
:1003E000030300F1FF3180F0FC809E4240F2F9806F
:1003F000634402389B1B40EA044000211DB1D340F6
:100400000022C5E90032BDE8F0878B4205D90DB165
:10041000C5E9000100210846F5E7B3FA83F1002998
:1004200046D1A34202D39042C0F0F080861A64EB1A
:1004300003030120002DE6D0C5E90063E3E7002AAD
:1004400040F09080A1EB0C044FEA1C481FFA8CF797
:100450000121B4FBF8F64FEA1E4308FB164443EAB9
:10046000044307FB06F0984208D91CEB030306F18E
:10047000FF3402D2984200F2CD8026461C1A1FFAA1
:100480008EF3B4FBF8F008FB104443EA044300FB8E
:1004900007F79F4208D91CEB030300F1FF3402D297
:1004A0009F4200F2B0802046DB1B40EA0640A5E7F1
:1004B000C1F120068B4022FA06F71F4320FA06FC02
:1004C00004FA01F343EA0C03F44000FA01F8380C93
:1004D0004FEA1349B4FBF0FE1FFA87FC00FB1E44F1
:1004E00049EA04440EFB0CF9A14502FA01F20AD9CB
:1004F0003C190EF1FF3A80F08480A14540F28180E2
:10050000AEF1020E3C44A4EB09041FFA83F9B4FBDC
:10051000F0F300FB134449EA044403FB0CFCA4453C
:1005200007D93C1903F1FF3067D2A44565D9023BD6
:100530003C4443EA0E40A0FB0293A4EB0C049C4213
:10054000CE469C4651D34ED055B1B8EB0E0364EB6A
:100550000C0404FA06F6CB401E43CC40C5E9006407
:10056000002150E7C2F1200320FA03F10CFA02FC4B
:1005700024FA03F394400C434FEA1C4800FA02FEAD
:100580001FFA8CF7B3FBF8F008FB1031230C43EA99
:10059000014300FB07F1994208D91CEB030300F16A
:1005A000FF362CD299422AD9023863445B1AA4B28E
:1005B000B3FBF8F108FB113344EA034401FB07F3F2
:1005C000A34208D91CEB040401F1FF3613D2A34265
:1005D00011D902396444E41A41EA004139E704467A
:1005E000F0E6084606E7C845AED2B9EB020E63EB6B
:1005F000070C0138A8E73146EDE7034699E7304696
:10060000D4E7D6467FE7634402384DE706462346E3
:1006100008460FE7023E634430E700BF704700BF63
:10062000DFF834D0002103E00C4B5B584350043119
:100630000B480C4B42189A42F6D30B4A02E00023B7
:1006400042F8043B094B9A42F9D303F035F820F005
:1006500073FC01F061F8704700000320105A130882
:10066000000000206401002080030020A04201203F
:10067000FEE7704708B500F0B9FDBDE8084000F09E
:100680003DBD00F0B5BD704710B5042104461FF014
:100690005CFA204610BD000038B50C4B0C4C18809D
:1006A0000C4B822019806368984740F611039842EA
:1006B0000AD1094D23682C60822098472B6882203C
:1006C000DB689847002038BD0120FCE7A603002026
:1006D0004C000020A4030020A80300204FF4A071C8
:1006E000F020FFF7D9BF0000F7B5374D2B6804465F
:1006F0001B6982209847208000284ED02B680DF17E
:1007000006025B6901A982209847304B1B78002BB9
:100710004BD0BDF8063040F6746293423FD9ADF835
:100720000620BDF80630D21A92B20A2A42D90B230B
:10073000B2FBF3F2264B1B889A4201D9013B9AB2D5
:10074000BDF8043040F6B8318B4235D8C3F571633B
:100750000E339BB20F21B3FBF1F31E4909888B4284
:1007600001D901398BB21C4E1C4D30682F68834271
:1007700081B28CBF591AC91AB8B2BA428CBF101ACA
:10078000801A89B280B201440529C8BF336033683A
:10079000C8BF2A6063802B68A38003B0F0BDB32B71
:1007A0009CBFB423ADF80630BBE7BDF80620A2F528
:1007B000B472B9E70022C3E7C3F56D6308339BB297
:1007C0000E2BC7D80023CEE7A80300202025002049
:1007D000A4030020A6030020A00300209C03002007
:1007E00037B568460D461446FFF77EFFBDF800009A
:1007F00030B1BDF802302B60BDF804302360012019
:1008000003B030BD032821D8DFE800F0020B121935
:100810000F4B1A68B2FA82F2520904210D4803F014
:10082000E1B90B4B5A68B2FA82F252090821F5E796
:10083000074B9A68B2FA82F252091021EEE7044B94
:10084000DA68B2FA82F252092021E7E7704700BF66
:10085000AC03002000100240032821D8DFE800F09C
:10086000020B12190F4B1A68003A18BF012204211B
:100870000D4803F0B7B90B4B5A68003A18BF012274
:100880000821F5E7074B9A68003A18BF01221021AA
:10089000EEE7044BDA68003A18BF01222021E7E7AF
:1008A000704700BFAC0300200010024003280DD8A1
:1008B000DFE800F00206080A0421054803F097B9B2
:1008C0000821FAE71021F8E72021F6E7704700BF7A
:1008D0000010024008B5032811D8DFE800F0020A32
:1008E0000C0E0421074803F077F9431E5842584183
:1008F00008BD0821F6E71021F4E72021F2E70020E7
:10090000F3E700BF0010024070B5084D0024012637
:10091000E0B2FFF7DFFF18B12B68012B18BF2E6084
:100920000134052C05F10405F2D170BDAC030020A3
:10093000012380F8781080F87930704770470020E4
:1009400070470000034B4164003918BF0121197042
:10095000704700BF5F350120704700207047836BF0
:100960000BB10846184770474FF6FF707047406854
:1009700003689B6918477047704770477047704716
:1009800010B5044600F04AFD23680349D3F89030BF
:100990002046BDE810401847000000D008B50368A5
:1009A0000446D3F88430984723682046DB6F984785
:1009B00000F0ECF8236820465B6F9847292001F08F
:1009C0001BF900F0E3F8236820465B6F9847F8E7CF
:1009D00010B5044608F07CFA23682046D3F8BC30F2
:1009E000BDE81040184700F0FBBC00F0FFBC00F071
:1009F00033BD00F0D1BC00F043BD00F04BBD00F0B2
:100A0000D5BC07F093BC10B5842104461FF09DF8B7
:100A1000204610BD10B590F8341090F878400C4B7B
:100A20008C421A7809D03AB90A4A0B4914880888C6
:100A300010800C8001221A7010BD002AFCD0054ADB
:100A400005491488088810800C800022F3E700BF55
:100A500058350120543501205635012070B50D461A
:100A6000194635B9094B0A4A0A4840F2FF211FF0DE
:100A7000B3FFC0E90F52084B003A18BF01221A70A9
:100A80000368BDE87040D3F890301847881A020810
:100A9000C01A02080E1B02085E35012008B5094B7A
:100AA0001B888B4203D8084B1B88934205D9074B00
:100AB000074A0848A3211FF08FFF074B1980074BF7
:100AC0001A8008BD5435012056350120531B0208F9
:100AD000B61B02080E1B02085A3501205C350120A6
:100AE000034690F87A0018B1586803681B681847E5
:100AF00070470000012108B50022084605F00BF9F7
:100B00000A4B186028B90A4B0A4A28210A481FF0E4
:100B100063FF00220421012005F09CF9074B1860B7
:100B200018B9074B034A2C21F0E708BDC003002089
:100B3000E81C0208311D0208601D0208BC030020E9
:100B4000A61D0208024B4FF0FF31186805F02DB9C1
:100B5000C0030020014B186805F053B9C003002002
:100B6000024B0021186805F020B900BFC003002027
:100B7000FFF7F0BF03480449006800231A4605F058
:100B8000A4B900BFBC0300200400002013B5084C2A
:100B900000231A4601A9206805F0C8F920684FF023
:100BA000FF33002201A905F0C1F902B010BD00BF5A
:100BB000BC03002003685B6C184701207047036882
:100BC0009B6A1847FEE740F2EF307047054B036021
:100BD000054B4FF08062C3F88820BFF34F8FBFF3FF
:100BE0006F8F70473C1F020800E100E010B504461B
:100BF0004FF45A61FFF7EAFF20461EF0A6FF204699
:100C000010BD000082B0002301930E4B1A6B42F41A
:100C100000021A631A6B02F400020192019A1A6927
:100C200042F400021A611A6922F400021A61064BAA
:100C3000064A1A61064A5A61064B4FF080629A6072
:100C400002B0704700380240B4260020A50E00080C
:100C5000C50B000800E100E008B50A2809D8DFE864
:100C600000F006100E0808080810101010000220EE
:100C700008BD054B054A064890211FF0ADFE002037
:100C8000F6E70120F4E700BFE81D0208031E020892
:100C90004E1E020838B50C46887FFFF7DDFFA58A97
:100CA000E28A164B2169586342EA05425A64628B14
:100CB000D963521B1A642568082D0ED19A611A61F6
:100CC0005862207F0E4A42EA0062DA61E2681A62E4
:100CD0000C4A5961D9601A6038BD0022D8611A6186
:100CE000E1680A0A480902F4784200F4FC60024311
:100CF000C1F3C4010A439A63034AECE700B002401F
:100D000009000100012302000123030008B50B289C
:100D10000BD8DFE800F00612100A0A0A0A080808D1
:100D20000808022008BD0520FCE7054B054A0648D7
:100D30006F211FF051FE0020F4E70120F2E700BF11
:100D4000E81D0208921E02084E1E02082DE9F0411D
:100D500091F81D800C464046FFF7D8FFA77F054657
:100D60003846FFF7D3FF06463846FFF775FFA18ADE
:100D7000628B444B521A1A649A61228B521A1A617E
:100D8000E28A586342EA01425A6421696268D9637F
:100D9000DA602068802828D0227F0FD8202867D0EA
:100DA000402865D004281AD0364B45EA026545F440
:100DB0000035B845DD6161D0334A44E0B0F5807F4D
:100DC00004D0B0F5007FEFD1304800E0304840EA71
:100DD0000262DA61E2681A625E62596132E045EAF3
:100DE000026242F40032DA61F6E7A068021DDA62BC
:100DF000227F45EA026545F40035DD615E62596196
:100E0000017841B1012921D0224B234A23484FF4D4
:100E10008D711FF0E1FDDA69418822F47F420139CA
:100E200022F0100242EA0122DA610121154BDA694F
:100E300042F02002DA61DA699206FCD410229A604C
:100E40000029B9D0164A1A60BDE8F081B2F1FF015D
:100E5000DA69408822F47F4200F1FF3022F010026C
:100E600042EA002242F0100218BF0121DA61DDE7F8
:100E700045EA0262034B42F40032B4E742F2013227
:100E8000E1E700BF00B002400123010009000200B9
:100E90000A000200DC1E0208F61E02084E1E0208AE
:100EA00001230200024B1B68586803685B691847FE
:100EB0006035012070B5044625460A4B0C300026EB
:100EC00060602672667245F8203B6022294608F071
:100ED00055F904F55A63EE6024359D42FBD1204656
:100EE00070BD00BF3C1F0208034B1A68D207FCD438
:100EF00023229A60704700BF00B002407047000094
:100F000030B50F4C2568ED07FCD423250904A560F6
:100F100041F001010225FF2B65636164E0630AD0A3
:100F20000849656241EA0363E361074B226260613D
:100F3000E060236030BDE561039BA363034BF8E7EA
:100F400000B002400900010001000200010003009E
:100F500030B50E4C2568ED07FCD423251204A5609E
:100F600042F001020225FF2B65636264E063E160E9
:100F700008D01B0643F00213E361054B6562606114
:100F8000236030BD034BE3610123F9E700B0024069
:100F900001000200020002FF30B50B4C2568ED078E
:100FA000FCD4232512041B06A56043F4003302255C
:100FB00042F0010265636264E063E160E361034B58
:100FC00065626061236030BD00B002400100020034
:100FD000012070470C2070470C2303FB01000830F0
:100FE00070470C2303FB0100083070470120704755
:100FF00041F21400704741F2140303FB0100083072
:10100000704741F2140303FB0100083070470120D0
:1010100070471020704700EB01100830704700EB5C
:10102000011008307047084601F0D6BA10B5034BDE
:101030000360044606F0D1FE204610BDF41F0208EE
:1010400010B50446FFF7F2FF204614211EF07DFD87
:10105000204610BD10B5034B0360044606F0BDFEEC
:10106000204610BDC01F020810B50446FFF7F2FF6E
:10107000204641F21C011EF068FD204610BD000014
:1010800010B5034B0360044606F0A7FE204610BDD2
:101090008C1F020810B50446FFF7F2FF2046182106
:1010A0001EF053FD204610BD10B5094B03600446E9
:1010B00000F582500830FFF7B9FF04F12C00FFF76C
:1010C000C9FF04F11400FFF7DBFF204610BD00BF8D
:1010D0002820020808B50248FFF7E6FF08BD00BF58
:1010E0009C12002010B50446FFF7DEFF204641F2B7
:1010F000BC111EF02AFD204610BD00002DE9F34171
:1011000001F0E0F8054601F0E1F80024014623462D
:101110002846224600940FF085FC264B264A1A608A
:10112000204601F0E3FE254D254B264A26489A60CD
:101130000FF0E0FB2B68BFF35B8FDB0734D428464E
:101140001EF005FD80B3214C214B224F236004F596
:10115000835604F1140004F12C086060C4F8088080
:10116000E760266106F03AFE1B4B6361404606F0DD
:1011700035FE1A4BE362384606F030FE04F5805324
:1011800003F15C00164A9A6401F034FF2246311FD5
:10119000304601F025FF304601F01EFA11481FF0DD
:1011A00039FC28461EF0DFFC0F4802B0BDE8F041D4
:1011B000FFF7E6BBC4350120480400209812002048
:1011C000680400204C040020080000209C1200202D
:1011D00028200208E42200208C1F0208C01F0208F9
:1011E000F41F0208D5100008C40300207047000057
:1011F0000148FFF7D3BB00BFC403002070B5264EE3
:10120000264C274D274B23603046FFF753FE2846D8
:1012100014F00EFD24480DF0ABFC244B2448DC6098
:1012200000224FF48071C3E9121222491A86C3E9E1
:101230001A12214983F85820C3E91E011F49C3F837
:1012400080101F491F480B60F021C3E90422C3E945
:101250000622C3E90822C3E90A22C3E90E22C3E930
:101260001022C3E91422C3E917225A6683F87020BA
:101270005A67C3E9016501801348018013484FF4A0
:10128000A07101801248018012490A70012283F87E
:101290003420114A1A6070BDF4040020941200201A
:1012A00068040020781A02084C040020C4030020BF
:1012B0000000010101000001000450001A001400A8
:1012C00060350120543501205A3501205635012062
:1012D0005C35012058350120041C02080148FFF745
:1012E00075BC00BFF4040020002070478180704767
:1012F000C1807047018170474181704770477047D6
:1013000070477047704710B4C4880368121B848804
:101310005B6D091B12B25DF8044B09B218474FF61A
:10132000FF7383814FF0FF3303621368C361106062
:101330007047002070478B8883800120704770477A
:1013400080F82610704790F82600704710B50022EC
:10135000B1F90840B1F90A10028042808480C1804E
:1013600010BD0022028042808280C28070470177D7
:10137000704780ED080A704780F82410704780F8A5
:101380002510704701207047983070478C307047A7
:101390008430704770470000034B902283F85A2333
:1013A00083F85823704700BF00E100E0094A0A496A
:1013B000D3680A48C3F30A03013B9BB20B8011694F
:1013C000C1F30A01013901801364536B43F0010337
:1013D00053637047006801405A24002058240020BD
:1013E000014BD3F8AC00704700680140024B01226A
:1013F000C3F8AC105A6270470068014070477047EC
:1014000010B52C2104461EF0A0FB204610BD10B5DF
:10141000BC2104461EF099FB204610BD70B5044661
:1014200006F0D9FF23689D6E0CF03AF9014620467C
:10143000A8472368054AD3F88C502046AC460023C1
:10144000BDE87040A2F51631604700BF00B004D07F
:1014500006F0A8BF06F0B2BF06F06EBF07F0DDB819
:1014600090F8252012B103685B691847704790F81F
:1014700025201AB190F8242002B1186070470000AE
:10148000034B4FF080629A604FF080729A60704711
:1014900000E100E0084B4FF08062C3F88820BFF302
:1014A0004F8FBFF36F8F4FF08072C3F88820BFF368
:1014B0004F8FBFF36F8F704700E100E070B50023DE
:1014C000124E8380124B0360336893F85820054610
:1014D0000AB1D86C00B998680368DB6A984733682A
:1014E000B0FA80F4D86C640930B10368DB6A9847BD
:1014F000002808BF44F001042CB9064B064A0748EF
:101500002C211FF069FA284670BD00BF603501200C
:10151000382102083420020892200208CB20020859
:1015200070B5254E3568BFF35B8F15F0010540D1CE
:1015300030461EF00CFB00283BD0204C204B256190
:1015400004F13400C4E90035C4E90255E584A5621C
:10155000A5850DF0F2FD04F1580009F0C5FA194B0C
:10156000A3652046184B40F8843BFFF7A7FF174BB5
:10157000C4F884302433C4F88C304FF4C803C4E971
:1015800028350023C4F8AC30C4F8B030C4F8B43007
:10159000C4F8B8300E480F4BC4F89050C4F89C50B3
:1015A000C4F8A850C4F898301FF034FA30461EF042
:1015B000DAFA024870BD00BF5C24002060240020DD
:1015C000842E020858210208D0210208382E020871
:1015D00095130008182E020838B5184C23685BB321
:1015E000174B184A1B6C11888B4216D1164B198861
:1015F00003F00AF9236893F86A200025013283F882
:101600006A2083F87C50FFF7B5FA206807F060FC89
:101610002846BDE83840FFF7F5B803F0F5F8246830
:10162000236820461B6A9847012384F87C300020F9
:10163000BDE83840FFF710B938BD00BF6035012064
:10164000006801405A2400205824002007B5064BAA
:10165000ADF806001B68054801220DF1060103F0F4
:1016600073FE03B05DF804FB0C0000206025002031
:1016700008B5642004F043FBFBE7000030B595B0EB
:10168000102200210AA81FF0AEFB1422002103A89B
:101690001FF0A9FB00241E4B01941A6C42F08052EB
:1016A0001A641B6C03F080530193019B194B029445
:1016B0001A6842F440421A601B6803F440430293E4
:1016C0000122029B4FF48033CDE9082302254FF419
:1016D00080030821CDE90E534FF4B473CDE9101304
:1016E00008A804231393129503F0E6F803F0AAF870
:1016F0000F23CDE903354FF4A0504FF48053CDE9CB
:101700000603052103A8059403F0B2FA15B030BD15
:10171000003802400070004080B59AB001F0DAFF56
:10172000FFF7ACFF142200210DA81FF05CFB002482
:10173000C74B00941A6BC748C74DDFF8588342F077
:1017400010021A631A6B02F010020092009A0194C0
:101750001A6B42F020021A631A6B02F02002019207
:10176000019A02941A6B42F080021A631A6B02F01B
:1017700080020292029A03941A6B42F004021A63E6
:101780001A6B02F004020392039A04941A6B42F05B
:1017900001021A631A6B02F001020492049A059482
:1017A0001A6B42F002021A631A6B02F002020592EF
:1017B000059A06941A6B42F040021A631A6B02F003
:1017C00040020692069A07941A6B42F008021A63C6
:1017D0001B6B03F00803224607933C21079B02F092
:1017E00001FA9E480122022102F0FCF922469B48A0
:1017F000042102F0F7F9224699484FF4405102F0D3
:10180000F1F901263C23CDE90D3692480F940323CC
:101810000DA90227109302F0FBF890480DA9CDE91D
:101820000D76CDE90F4402F0F3F804238B480DA99F
:10183000CDE90D36CDE90F4702F0EAF80DA94FF4D6
:1018400040538748CDE90D36CDE90F4702F0E0F867
:101850008448854B036001F0CFFFDFF83CE2834B07
:101860002C62C5E900E328464FF48043C5E90434FF
:10187000C5E90244C5E9064402F0C2FB102128462E
:1018800002F006FE21462846794D02F020FE4FF474
:101890008273C5E900834FF400791823C5E90693E4
:1018A00028460A23C5E90244C5E90444C5E90844B9
:1018B000AC62EB6203F0ECFC8F23224639466748AA
:1018C0008DF824308DF8344002F08CF932464FF414
:1018D0007A7309A9284603F037FD4FF47A7332462C
:1018E0000DA9284603F0DCFE324639465B48614DBF
:1018F00002F078F99DF83430D32B04BF5E4B1E7094
:101900005E4B0126C5E90036102240230024C5E9BC
:1019100004234FF4C073C5E906344FF40063C5E9EE
:1019200008344FF4005302274FF00409AB624FF024
:10193000030A07230DA92846CDE90D73CDE90F93BE
:101940004FF00808C5E90249CDE911A7139703F044
:1019500083FB4FF6FF7209A92846CDE90A86089451
:1019600009960C9403F098FB304601F0DFFE4FF629
:10197000FF7209A92846CDE90978CDE90B6403F087
:101980008BFB4FF6FF7209A92846CDE909A8CDE9DE
:101990000B9403F081FB4FF40C730893089B0C939A
:1019A0004FF6FF7209A92846CDE909980B9603F076
:1019B00073FB40F26A51284603F08CFB34220DEB96
:1019C000020021461FF00FFA2D4D2E4B2C61C5E968
:1019D00000340923C5E905361D23C5E9073A40F25D
:1019E0000D1140F24313C5E9091340F2171040F2FC
:1019F0004713C5E90B032846C5E90244AC8685F8C0
:101A0000364002F009FEFF214FF4806CF022CDE950
:101A100012140521CDE914C14FF4A0730DA9CDE92D
:101A20000E24CDE9164228462246174D1893CDE9DB
:101A300010370D94ADF864408DF8664002F0B7FEA3
:101A4000124B2B601B6898472B68114DDB6825E013
:101A500000380240001002406026002000080240CA
:101A6000000C0240F426002000300240A086010055
:101A7000602500202C25002020250020400100A00A
:101A8000B8250020006801401C250020140000201B
:101A9000B426002000500140005C00409847134BE2
:101AA0002846C5E90034C5E90274C5E90A47C5E915
:101AB0000C4401F0B1FE3146284601F065FFFEF707
:101AC000D9FDFEF7D6FD04F0A7F8094A09482146DA
:101AD00004F0CEF8084B094A18602146084804F083
:101AE000C7F8084B186004F0A9F8FEE700B0024000
:101AF0005022020871160008282500202C22020816
:101B00008306000824250020704770477FB5094BE5
:101B10008DF817201B6802930DF117020123009224
:101B200001930A460146044802F012FB07B05DF833
:101B300004FB00BF10000020602600207FB50023BA
:101B40008DF81730084B1B6802930A4601230DF1EC
:101B50001701009101930146044802F089FB9DF8AA
:101B6000170007B05DF804FB10000020602600207D
:101B70001FB5084C24680092CDE901340A460123C0
:101B80000146054802F074FB003818BF012004B07C
:101B900010BD00BF100000206026002001F0C6BD6F
:101BA00010B5064C00222046042102F01BF8204606
:101BB0000122BDE81040042102F014B800080240E0
:101BC00038B50B4D044601220A484FF4005102F08B
:101BD00009F800220421284602F004F82046FFF705
:101BE00035FD28460122BDE83840042101F0FABF46
:101BF00000080240000C024038B50B4D044600229C
:101C00000A484FF4005101F0EDFF0022042128465C
:101C100001F0E8FF2046FFF719FD28460122BDE844
:101C20003840042101F0DEBF00080240000C0240F1
:101C3000F7B5144E144F05460C46304600220421D9
:101C400001F0D0FF00224FF40051384601F0CAFFE6
:101C50002846FFF7FBFC0D4B0D481B68224601A9E7
:101C600003F01EFD384601224FF40051019C01F0A3
:101C7000B9FF30460122042101F0B4FF204603B031
:101C8000F0BD00BF00080240000C02400C00002024
:101C90006025002001F04ABD0268034B9A4201D141
:101CA00001F032BD704700BF0010004070470000D7
:101CB00082B00E4B00220092596C41F4804159646D
:101CC000596C01F48041009100990192196C41F026
:101CD000805119641B6C03F080530193019B0F2109
:101CE0006FF0010002B001F047BD00BF00380240B4
:101CF0000268094B9A4282B00BD100230193074B33
:101D00001A6B42F480521A631B6B03F480530193E5
:101D1000019B02B0704700BF003002400038024013
:101D200007B50F4B02689A4216D10022A3F5F04383
:101D30000192196B41F4000119631B6B03F400035A
:101D4000019305215A20019B01F016FD5A2003B092
:101D50005DF804EB01F042BD03B05DF804FB00BF89
:101D600000B002402DE9F043044689B0142200215E
:101D700003A81FF038F82268244B9A4243D1244C20
:101D8000244800250095236B43F004032363236B51
:101D900003F004030093009B0195236B43F00103C0
:101DA0002363236B03F001030193019B4FF012099E
:101DB0004FF400734FF001080327042603A9CDE96F
:101DC0000339CDE90587079601F022FE4FF48073B1
:101DD0001148079603A9CDE90339CDE9058701F03C
:101DE00017FE0295236C43F400032364236C03F471
:101DF00000030293029B236A43F400032362236AD5
:101E000023F40003236209B0BDE8F083005C0040C6
:101E1000003802400008024000000240F0B599B0CE
:101E200004461422002107A81EF0DDFF30220DEB2E
:101E3000020000211EF0D7FF22685E4B9A4240F05C
:101E4000B78008230C93C0231093042312930CA88B
:101E50004FF40033159302F0D3FF08B1FFF726FFCC
:101E6000554B5648002400945A6C42F080625A64E4
:101E70005A6C02F080620092009A01941A6B42F050
:101E800020021A631A6B02F020020192019A029456
:101E90001A6B42F001021A631A6B02F001020292FD
:101EA000029A03941A6B42F002021A631A6B02F050
:101EB00002020392039A04941A6B42F040021A63DE
:101EC0001A6B02F040020492049A05941A6B42F0D5
:101ED00004021A631A6B02F004020592059A069432
:101EE0001A6B42F008021A631B6B03F00803069397
:101EF00002250E26069B0B964FF4806307A9CDE9B9
:101F00000735CDE9094501F083FD41F658032C481A
:101F10000B9607A9CDE907350927CDE9094501F059
:101F200077FD032327480B9707A9CDE90735CDE9AE
:101F3000094501F06DFD4FF4706322480B9607A927
:101F4000CDE90735CDE9094501F062FD4FF40C6399
:101F50001D480B9607A9CDE90735CDE9094501F0E4
:101F600057FDC02319480B9607A9CDE90735CDE9E0
:101F7000094501F04DFD082315480B9607A9CDE949
:101F80000735CDE9094501F043FD4FF4A0530E4854
:101F90000B9707A9CDE90735CDE9094501F038FDD3
:101FA00058202246052101F0E7FB582001F016FCDD
:101FB00019B0F0BD00680140003802400014024032
:101FC00000000240000402400018024000080240E5
:101FD000000C024010B5044688B01422002103A86A
:101FE0001EF001FF2268144B9A4223D103F5684387
:101FF000002101915A6C114842F480125A645A6CC3
:1020000002F480120192019A02911A6B42F02002AE
:102010001A631B6B03F020030293029B4FF4607260
:1020200002230321CDE903230523CDE9061303A9E8
:1020300001F0EEFC08B010BD005001400014024059
:102040002DE9F04186B0002303932B4B1C68002C34
:102050004FD14FF00108C3F80080284B00949A6BD1
:10206000274842EA08029A639B6B03EA080300933D
:10207000022703260C25009B01A94FF63F03CDE95B
:102080000137CDE9046501F0C3FC1E48059501A99F
:10209000CDE90187CDE9034601F0BAFC48F23313DC
:1020A0001948059501A9CDE90137CDE9034601F0AD
:1020B000AFFC4FF683731548059501A9CDE90137AB
:1020C000CDE9034601F0A4FC4CF2037310480595DA
:1020D00001A9CDE90137CDE9034601F099FC602360
:1020E0000C48059501A9CDE90137CDE9034601F07A
:1020F0008FFC06B0BDE8F081FC26002000380240CD
:102100000014024000080240001802400010024083
:10211000000C02400004024070B588B00023029316
:10212000204B1A6C42F010021A641B6C03F010036F
:102130000293054601A903A8029B02F043FE069BF9
:102140004BBB02F02FFE184E184B336040F2E733C2
:10215000F360174BB0FBF3F3013B73603046002391
:102160003361B360B36103F07FFC044680B930464D
:1021700003F03CFB044658B9362001F02FFB0F2D2D
:102180000DD822462946362001F0F6FA094B1D608B
:10219000204608B070BD02F005FE4000D3E70124E0
:1021A000F6E700BF00380240002700200010004082
:1021B00040420F007C0000207047FEE7FEE7FEE78C
:1021C000FEE77047014803F04FBB00BF0027002027
:1021D000014802F08FBA00BFB8250020014801F085
:1021E00049BB00BFB42600200120704708B51EF08F
:1021F0009DFE162303604FF0FF3008BD08B51EF0AA
:1022000095FE16230360FEE770B50D4614460E4694
:10221000731B9C4201DC204670BDAFF3008006F8C2
:10222000010BF5E770B50D4614460E46731B9C4234
:1022300001DC204670BD16F8010BAFF30080F5E716
:102240004FF0FF3070474FF400534B600020704751
:1022500001207047002070470A4A116808B50346FC
:1022600009B9094911601068694603448B4206D9CF
:102270001EF05CFE0C2303604FF0FF3008BD1360BE
:10228000FCE700BF48270020A0420120704710B59E
:10229000042104461DF059FC204610BD012908B553
:1022A00006D0022908D059B900F06CFE006808BDBC
:1022B00000F068FE4068FAE700F064FE8068F6E728
:1022C0000020F4E700487047882202080C2070477D
:1022D00013B5002451B1036801948DF8034001AA9D
:1022E0009C680DF10303A04702B010BD0846FBE750
:1022F000C0897047008A7047C088704780887047DF
:10230000807A00F07F007047807AC0097047002013
:10231000704700009FED010A704700BF00000000F9
:10232000704710B5082104461DF00FFC204610BD73
:102330007047704700F598730868496803C3704791
:10234000704770474160704770470000064BC0F807
:102350004C310023C0F8503100F5A273C0F8480199
:10236000C0F84031704700BF0D24000801230372FC
:1023700070477047704710B4C268416854100346F4
:1023800001EB6200D20748BF0A599B685DF8044B15
:1023900048BFD35818470346406830B19A681AB905
:1023A000D86800F0010070470120704710B50C217B
:1023B00004461DF0CAFB204610BD10B5102104468E
:1023C0001DF0C3FB204610BD10B54FF4AE7104469E
:1023D0001DF0BBFB204610BD10B50BF061F9036882
:1023E000BDE81040DB6B184710B50446D0F840013B
:1023F00058B10368DB68984738B1D4F840010368E6
:102400009B6898470023C4F8403110BD2DE9F14F77
:10241000D0E9556A0746B06803681B6A984741F2DD
:102420001303984205D8444B444AA32144481EF064
:10243000D3FA706803681B6A98470F2803D8414B8A
:102440003E4AA421F2E7F06803681B6A98470B280C
:1024500003D83D4B394AA521E8E70BF021F9DFF815
:10246000F09004300BF041F9D9F8000010B1036886
:10247000DB689847D9F8000010B103681B689847DB
:10248000DFF8D080D8F8000010B103685B69984786
:10249000D7F83C0110B103685B689847D8F8000092
:1024A00010B103681B689847D7F83C0110B1036866
:1024B0009B689847F068036800215B6A98474FF073
:1024C000000B224BC0F804B0044680F808B003604B
:1024D000B068036859465B6A9847054600F0CAFD34
:1024E0007068036859465B6A98472946064600F0BB
:1024F00093FD331DC7F83C61C9F80040C8F800508F
:10250000CAF800302B68C6F808A02846DB68EE63DE
:102510009847336830461B689847214628460DF097
:102520006FFA236820461B69984723685B69204639
:1025300001B0BDE8F04F18478823020816240208AE
:10254000E82402082F250208D2250208EC260208FA
:10255000A8350120A4350120044B1B6893F85820AE
:102560000AB1D86C00B99868704700BF6035012087
:10257000F8B5174604460E460BF054F9124B1C6092
:10258000124B2360124B0025C4E95135114BC4E9AD
:1025900053551868036801219B68C4E94F55C4E985
:1025A00055769847284600F0A1FCFFF7D5FF15F0B7
:1025B000E8F9FFF7D1FF15F05FFAFFF7CDFF15F04F
:1025C00067FA2046F8BD00BFB435012098260208FE
:1025D0008026020860350120064BC0F84C310023EC
:1025E000C0F8503100F5A273C0F84801C0F840317E
:1025F000704700BF0D240008406A7047806A70472A
:1026000070478A880B8810B5D20A4C88C1699BB282
:1026100051F8220043EA0443184410BD10B50446A3
:10262000BAB1107B68B1537BD27A1B0203F4E0632A
:102630001A43236A03EB82031A888A4202D193F970
:10264000020010BD05D8013880B204330028F3D150
:10265000F7E70020F5E710B52C2104461DF075FAC8
:10266000204610BD30B58BB00446BDF860500895CB
:10267000BDF85C5007959DF8505006959DF84C505C
:1026800005959DF8485004959DF8445003959DF894
:10269000405002959DF83C500195BDF8385000958A
:1026A0000CF008FE064B2360159BE361169B23622A
:1026B000199B63621A9BA36220460BB030BD00BF1A
:1026C00010270208806A704770477047704770474C
:1026D000704730B50368018185B06D460146D3F877
:1026E000843004462846984795E807003C3484E83F
:1026F000070005B030BD30B50368418185B06D4637
:102700000146D3F8843004462846984795E80700E8
:102710003C3484E8070005B030BD002202804280CE
:102720008280C280704780F83610704770B50368A9
:1027300004461B6B154698472368294620465B6E66
:10274000BDE87040184700207047806C70477047A4
:102750007047704770477047704730B4C26844682C
:102760005510034604EB6200D20748BF62599B68CC
:1027700030BC48BFD35818470346406830B19A6808
:102780001AB9D86800F0010070470120704790F82E
:102790002D3080F85C3070470146343091F82C3091
:1027A00013B1623108F081BB6031FBE710B56421E1
:1027B00004461DF0CAF9204610BD10B54C21044650
:1027C0001DF0C3F9204610BD10B5102104461DF0C0
:1027D000BCF9204610BD10B54FF40A7104461DF037
:1027E000B4F9204610BD08B5FEF73AFE08BD10B595
:1027F0000446006B50B10368DB68984730B1206B2A
:10280000036821469B68BDE81040184710BD00F5DD
:102810008E728A4202D10368DB6A184770470B79CF
:1028200070B590F82C6004460D460BB916B170BD1A
:10283000002EFCD0B3FA83F35B0984F82C302368B4
:102840002046D3F88C309847236820465B69984728
:10285000002EECD02B79012BE9D123682046D3F848
:102860008830BDE870401847036870B55E6B124B46
:102870001B6804468DB22BB9104B114A6C211148CC
:102880001EF0AAF81049828D0988914203D80F4B97
:102890000B4A6D21F3E713F812200D4B1B6853F818
:1028A000220003681B6B9847291A3346204609B259
:1028B000BDE87040184700BFB835012070270208F6
:1028C000B2270208ED270208BC350120342802088F
:1028D000C035012000224FF0FF31C0E900218260A5
:1028E000704770B5036804461B6B1546984723680C
:1028F000294620465B6BBDE87040184770B50368F9
:1029000004469B6B15469847236829462046DB6B97
:10291000BDE8704018470B8870B5A0F860300546D8
:10292000138825F8623F044628460EF08FF80646C5
:1029300028460EF0BFF8314602462046FFF7DEFF7C
:1029400023682046D3F88C30BDE87040184700005B
:102950000022C0E90122C0E90322C0E90522C0E942
:1029600007224FF480728284014A0260704700BFE0
:102970007C28020838B5262204460D4600211EF0A8
:1029800032FA2046FFF7E4FF064B23602B88E384EE
:10299000FF23204684F82830294608F086FA20468E
:1029A00038BD00BFB02F020810B526220446002112
:1029B0001EF019FA2046FFF7CBFF0A4BA3624FF631
:1029C000FF73A3854FF47F020023C4E90C32064A4B
:1029D000226023874FF0FF32C4E91023E363A3642E
:1029E000204610BD80230208E4280208F7B54FF402
:1029F0007F430646838540F2011300258384134BF1
:102A00008562C0E90155C0E90355C0E90555C0E933
:102A10000755056346F8343B04464FF6FF7701A996
:102A20003046ADF80470FFF7A5FF2A462946304628
:102A3000A4F86070A4F86270FFF753FF2046314697
:102A400005F0DEF9204603B0F0BD00BF742902088E
:102A50002DE9F04F04468DB0274600250CF024FEEA
:102A6000884BE56347F8403B2622294638461EF04E
:102A7000BAF93846FFF76CFF834B236404F16C0B03
:102A8000FF234FF6FF7684F866300AA9A5665846FC
:102A9000ADF82860FFF76EFF04F198030AA9184605
:102AA0000193ADF82860FFF765FF04F1C4030AA99C
:102AB00018460293ADF82860FFF75CFF04F1F003BD
:102AC00004F58E7A0AA91846039304F5C079ADF887
:102AD0002860FFF74FFF5046FFF788FF04F5E678C0
:102AE0004846FFF761FF4046FFF75EFF674BC4E9CA
:102AF0008634674B2A46C4E9883529463846FFF7AD
:102B0000F0FE4FF4A0723846F021FFF7F7FE261DC5
:102B10004FF07F43A3663946304605F071F92A46E7
:102B200029465846FFF7DDFE0AA95846ADF8285059
:102B300008F0BBF95946304605F062F92A4601987B
:102B4000DFF850B12946FFF7CCFE01270198ADF818
:102B500028700AA908F0A9F90199304605F050F942
:102B600002982A462946FFF7BCFE02220298ADF8D9
:102B700028200AA908F099F90299304605F040F991
:102B800003982A462946FFF7ACFE03220398ADF8C6
:102B900028200AA908F089F90399304605F030F990
:102BA0000522ADF824200922ADF8282009A90AAA97
:102BB0005046FFF7B0FE2A46294604F5A870FFF7F5
:102BC00090FE04F50672C4F84C215046C8225A21E2
:102BD000FFF787FE3C2211465046FFF78FFE514615
:102BE000304605F00DF948466A224A21FFF779FE82
:102BF000D4F88021A4F8B4514FF07F430DF1100AAE
:102C0000C4F8B03149465046D2F8842090479AE83B
:102C1000070004F5DE7C8CE807000AA94846CDF8D9
:102C200028B0ADF82C7008F079F84946304605F028
:102C3000E7F88C2240464A21FFF753FE4FF07F43CE
:102C4000C4F8FC31D4F8CC31A4F8005241465046C7
:102C5000D3F8843098479AE8070004F5027383E8B4
:102C600007000AA94046CDF828B0ADF82C5008F06E
:102C700055F83046414605F0C3F820460DB0BDE892
:102C8000F08F00BF2C2A0208482F0208142A0208DD
:102C90000F280008802302087047000030B5164D49
:102CA0002C68BFF35B8F14F001048FB020D128464D
:102CB0001CF04DFFE0B13F230993104B0893104BDC
:102CC000104911480A940122CDE906430423CDE9B5
:102CD00003320A230093CDE90B44CDE90144059466
:102CE000FFF7C0FC09481DF095FE28461CF03BFF8D
:102CF00005480FB030BD00BF4C270020903A0208B5
:102D00009C3A0208603A020850270020992C0008DB
:102D10007047000030B5164D2C68BFF35B8F14F080
:102D200001048FB020D128461CF011FFE0B13F23F1
:102D30000993104B0893104B104911480A94012233
:102D4000CDE906430423CDE9033214230093CDE9F2
:102D50000B44CDE901440594FFF784FC09481DF0BC
:102D600059FE28461CF0FFFE05480FB030BD00BFDD
:102D70007C270020943A0208A03A0208703A020820
:102D800080270020112D00087047000030B5164D37
:102D90002C68BFF35B8F14F001048FB020D128465C
:102DA0001CF0D5FEE0B13F230993104B0893104B64
:102DB000104911480A940122CDE906430423CDE9C4
:102DC000033228230093CDE90B44CDE90144059457
:102DD000FFF748FC09481DF01DFE28461CF0C3FE05
:102DE00005480FB030BD00BFAC270020983A02085C
:102DF000A43A0208803A0208B0270020892D000872
:102E000000207047002070470EB403B503AB0021CB
:102E100053F8042B01930BF0CBFC02B05DF804EBEC
:102E200003B070470CB407B504AB53F8042B0193FF
:102E30000BF0BEFC03B05DF804EB02B0704700007D
:102E4000436C10B5044673B3038F2BB9184B194A62
:102E5000C52119481DF0C0FDC38E00EB43035B8CF8
:102E60000BB30DF00CFB238F012B03D8134B144A2B
:102E7000CB21EEE7E28E531C9BB2092B194688BF8B
:102E8000A3F10A0104EB410140F63F10498C814255
:102E900009D10A2B04EB420228BF002304EB4303B1
:102EA000508C588451842046BDE810400DF0EAB99A
:102EB0005C2A0208652A0208102B02085A2B020815
:102EC000682B02080DF0A5B910B586B002AC84E8F5
:102ED00006001A460AAB05930193099B009321460D
:102EE000089B09F07BFF06B010BD000038B518BB89
:102EF000124B13481C681349B4B122682244026083
:102F0000626822440A60A26814440F4B00221A80AF
:102F100000F038F8054600F033F80C4B1C600C4B01
:102F20001D600C4B188007E00B4B03600B4B0B60D4
:102F30000B4B1C68002CE8D138BD00BFE8270020EF
:102F4000E0270020DC270020E4270020B8350120FE
:102F5000C0350120BC350120B03A0208A83A020869
:102F6000B43A0208044B1B6853F82100034B1B685A
:102F700003EB4000704700BFDC270020E027002063
:102F80000220704700487047EC27002010B5FFF77B
:102F9000C1FE044C2060FFF7F9FE6060FFF77EFE83
:102FA000A06010BDEC27002010B5002404600C6068
:102FB00014601C6010BD704710B54FF4AE7104462C
:102FC0001CF0C3FD204610BD10B50446D0F85801D2
:102FD00000F013F82046BDE810400AF0E3BB000003
:102FE00010B50446FFF7C4FA014B2360204610BD1C
:102FF000442C020800220260704770477047043872
:103000007047704710B5102104461CF09EFD204605
:1030100010BDA0F10400F5E700228260024A0260C0
:1030200018324260C1607047982C02087047000057
:1030300038B5094B0360044640F6E87563596019DA
:103040001B682C3D9847B5F5FE7FF7D12046FFF76A
:103050007FFB204638BD00BFC02C020810B50446D7
:10306000FFF7E6FF204641F214011CF06EFD2046FA
:1030700010BD00002DE9F347064606F58057FFF71F
:10308000E7FCDFF868A0184B336006F50A741437C4
:103090004FF6FF78002504F5C6790123A580E58069
:1030A00025816581A581E58125826582E56125848B
:1030B000658484F8245084F82530C4F800A0A4F86E
:1030C000268084F82880C4E90555204601A92C34BF
:1030D000ADF8048007F0E9FE4C45DED1BC42DAD100
:1030E000304602B0BDE8F087C02C0208B02F0208BD
:1030F0002DE9F04F074685B0804603264FF0040BBC
:103100003B1D0FFA86FA08F50A75C14603240193A0
:10311000D9F82822ADF80CB02846126E03A99047C2
:10312000D9F828222846126B51469047D9F8282210
:1031300021B22846526B1D349047A4B2294601980B
:1031400004F05EFEB4F5847F09F12C0905F12C052D
:10315000DED106F11A039EB2ED2E08F5C678CFD166
:1031600005B0BDE8F08F10B50446FFF7F2FA20462F
:10317000BDE81040FFF7BCBFF02070474FF4A070CF
:1031800070472920FEF738BD2820FEF735BD08B569
:10319000FEF706FDCA20FEF72FFDC320FEF710FD47
:1031A0000820FEF70DFD5020FEF70AFDCF20FEF7A8
:1031B00023FD0020FEF704FDC120FEF701FD3020B5
:1031C000FEF7FEFCED20FEF717FD6420FEF7F8FC8D
:1031D0000320FEF7F5FC1220FEF7F2FC8120FEF73B
:1031E000EFFCE820FEF708FD8520FEF7E9FC002053
:1031F000FEF7E6FC7820FEF7E3FCCB20FEF7FCFCB4
:103200003920FEF7DDFC2C20FEF7DAFC0020FEF76B
:10321000D7FC3420FEF7D4FC0220FEF7D1FCF720C7
:10322000FEF7EAFC2020FEF7CBFCEA20FEF7E4FCE8
:103230000020FEF7C5FC0020FEF7C2FCB120FEF71F
:10324000DBFC0020FEF7BCFC1B20FEF7B9FCB6201F
:10325000FEF7D2FC0A20FEF7B3FCA220FEF7B0FC7A
:10326000C020FEF7C9FC1020FEF7AAFCC120FEF723
:10327000C3FC1020FEF7A4FCC520FEF7BDFC4520D2
:10328000FEF79EFC1520FEF79BFCC720FEF7B4FC62
:103290009020FEF795FC3620FEF7AEFCC820FEF726
:1032A0008FFCF220FEF7A8FC0020FEF789FCB0207E
:1032B000FEF7A2FCC220FEF783FCB620FEF79CFCC2
:1032C0000A20FEF77DFCA720FEF77AFC2720FEF7F8
:1032D00077FC0420FEF774FC2A20FEF78DFC00200A
:1032E000FEF76EFC0020FEF76BFC0020FEF768FC8A
:1032F000EF20FEF765FC2B20FEF77EFC0020FEF79A
:103300005FFC0020FEF75CFC0120FEF759FC3F202B
:10331000FEF756FCF620FEF76FFC0120FEF750FC8E
:103320000020FEF74DFC0620FEF74AFC2C20FEF79D
:1033300063FCC820FEF7AEFC2620FEF75DFC0120F2
:10334000FEF73EFCE020FEF757FC0F20FEF738FCAE
:103350002920FEF735FC2420FEF732FC0C20FEF776
:103360002FFC0E20FEF72CFC0920FEF729FC4E2036
:10337000FEF726FC7820FEF723FC3C20FEF720FC1D
:103380000920FEF71DFC1320FEF71AFC0520FEF7AE
:1033900017FC1720FEF714FC1120FEF711FC00208B
:1033A000FEF70EFCE120FEF727FC0020FEF708FCEC
:1033B0001620FEF705FC1B20FEF702FC0420FEF79A
:1033C000FFFB1120FEF7FCFB0720FEF7F9FB312085
:1033D000FEF7F6FB3320FEF7F3FB4220FEF7F0FB8F
:1033E0000520FEF7EDFB0C20FEF7EAFB0A20FEF7B6
:1033F000E7FB2820FEF7E4FB2F20FEF7E1FB0F2080
:10340000FEF7DEFB1120FEF7F7FBC820FEF742FCBB
:103410002920FEF7F1FBBDE808402C20FEF7ECBBAD
:1034200008B5FEF7BDFB0321D320FEF701FC80B2F7
:1034300008BD10B5C4B2022203212046FEF766FB88
:103440000A20FEF7ABFB204600220321FEF75EFBBD
:10345000BDE810400220FEF7A1BB38B50446E4B237
:10346000FEF752FB00212046FEF768FB01210546CE
:103470002046FEF763FB40EA052080B238BD10B558
:10348000C4B240212046FEF759FB030607D54C2164
:103490002046FEF753FB003818BF012010BD012263
:1034A0004B212046FEF732FB204600224B21FEF73F
:1034B0002DFB0020F2E773B50423C4B20E46154677
:1034C000D7210DEB03022046FEF752FB019B1BBAEE
:1034D0001A0DC3F30B23328020462B8001224B218F
:1034E000FEF714FB00224B212046FEF70FFB02B033
:1034F00070BD000010B50A4A1378984204460DD0FA
:10350000517888420AD00BB141B90123D454FEF757
:10351000FBFA2046BDE81040FFF78BBF10BD00BF8F
:10352000F827002010B5C4B209212046FEF706FB9B
:1035300040F00102D2B220460921BDE81040FEF75A
:10354000E5BA10B5C4B209212046FEF7F7FA092101
:1035500000F0FE022046BDE81040FEF7D7BA38B5AD
:10356000C4B20D4620460A21FEF7E8FA40EA0502F9
:10357000D2B220460A21BDE83840FEF7C7BA10B5DE
:103580000446FEF7C2FA20461F21FFF7E8FF204657
:10359000BDE81040FFF7C6BF38B5C4B20D4620469F
:1035A0000A21FEF7CBFA20EA0502D2B220460A2110
:1035B000BDE83840FEF7AABA10B50446FFF7C1FFD0
:1035C00020461F21BDE81040FFF7E6BF10B5C0B28E
:1035D0000C460B21FEF7B2FA204010BD1F21FFF769
:1035E000F5BF0A46C0B20B21FEF790BA1F21FFF7C4
:1035F000F8BF38B5C4B20D4620461721FEF79EFA33
:1036000020EA0502D2B220461721BDE83840FEF775
:103610007DBA70B5C4B2064604212046FEF78EFA84
:10362000042100F0FB0205462046FEF76FFA304603
:10363000F021FFF7DEFF05F0F80220460421FEF737
:1036400065FA492220212046FEF760FA0220FEF7A3
:10365000A5FA204601222121FEF758FA20469A2297
:103660004121FEF753FA204601224A21FEF74EFA85
:10367000204601224B21FEF749FA204600224B2129
:10368000FEF744FA204601225621FEF73FFA204673
:1036900001225821FEF73AFA204601224021FEF786
:1036A00035FA2046FF220B21FEF730FABDE87040C4
:1036B0000220FEF773BA0000054BD3F8882042F4CD
:1036C0007002C3F888204FF000629A60704700BF14
:1036D00000ED00E008B50B4B1A6842F400721A6066
:1036E0001A6842F480621A601A6842F480721A60A2
:1036F000032000F02FF80020FEF70EFDFEF7D8FAA9
:10370000002008BD003C0240034A044B11681B78AE
:103710000B441360704700BFFC2700207800002096
:10372000014B1868704700BFFC27002038B50446DD
:10373000FFF7F6FF631C1CBF054B1B78054618BF3F
:10374000E418FFF7EDFF431BA342FAD338BD00BFD7
:10375000780000200749CA6822F4E06203021204DC
:1037600003F4E063120C134343F0BF6343F40033EC
:10377000CB60704700ED00E0164B30B5DC68C4F359
:103780000224C4F10703251D042B28BF0423062DA2
:103790004FF0FF358CBF033C002405FA03F321EA08
:1037A0000303A54022EA0502A340002843EA0203DE
:1037B000ACBF00F16040084A4FEA0313B8BF00F005
:1037C0000F00DBB2AABF00F56140135480F800334C
:1037D00030BD00BF00ED00E014ED00E0002807DB85
:1037E000044A4109012300F01F00834042F82130C0
:1037F000704700BF00E100E010B5044650B14379C6
:1038000003F0FF0213B90271FEF772FA012363712C
:10381000002010BD0120FCE710B5044630B390F83D
:10382000393003F0FF021BB980F83820FEF778FA30
:1038300022686168022384F83930136823F4403326
:103840000B431360536BA16823F007030B435363CF
:10385000136CE16823F47F5323F03F030B4313649D
:1038600000200123E06384F8393010BD0120FCE71B
:1038700070477047036870B55E681D68F2070446BC
:1038800014D5E90512D51A6822F480721A60C26B49
:1038900042F00102C26301229A60042380F83930A9
:1038A000002380F83830436903B19847B20616D533
:1038B000AB0414D523681A6822F400521A6020223F
:1038C0009A60E36B43F00203E363042384F8393026
:1038D000002384F8383063690BB1204698473007DD
:1038E00016D5290514D523681A6822F400621A60D7
:1038F00008229A60E36B43F00403E363042384F833
:103900003930002384F8383063690BB1204698477A
:1039100072070BD56B0509D523681A6822F48062FB
:103920001A6004229A602046FFF7A2FFB00714D560
:10393000A90512D523681A6822F400721A600222BF
:103940009A60E36BE363012384F83930002384F841
:10395000383023690BB120469847F20613D5EB04A3
:1039600011D523681A6822F480521A6010229A60D6
:10397000E36BE363012384F83930002384F83830A3
:103980002046FFF776FF70BDF0B590F83820012A89
:1039900003464FF002002BD0012283F8382083F831
:1039A000390003EB0112D2E90740556A174F44EA88
:1039B0000040093C012C9CBF05F07F4210434FEAB8
:1039C00001161A6888BF40EA056091B9516A39400A
:1039D00001435162012C9969916103D8596A21F020
:1039E0007F4191620122002083F8392083F838005A
:1039F000F0BDD16939400143D1619919012C896920
:103A000011619CBF25F07F451562EBE7F0FFFC00DC
:103A10002DE9F74FDFF8BC916C4A00230D680124B3
:103A20009C4004EA0506AC4340F0B7804D6803278C
:103A300005F003044FEA430807FA08FC671E012F4C
:103A40006FEA0C0C34D8876807EA0C0ECF6807FAC7
:103A500008F747EA0E078760476827EA060EC5F3AE
:103A600000179F4047EA0E074760C76807EA0C0E39
:103A70008F6807FA08F747EA0E07022CC76019D1CA
:103A80004FEAD30A00EB8A0A03F0070BDAF820703A
:103A90004FEA8B0B4FF00F0E0EFA0BFE27EA0E0EBD
:103AA0000F6907FA0BF747EA0E07CAF8207001E022
:103AB000032CDAD1076804FA08F407EA0C073C4340
:103AC00015F4403F046068D000240194D9F84440C4
:103AD00044F48044C9F84440D9F8444023F0030733
:103AE00007F1804704F4804407F59C37019403F004
:103AF000030C019CD7F808E04FEA8C0C0F2404FA61
:103B00000CF42EEA040E324CA0424DD004F5806431
:103B1000A0424BD004F58064A04249D004F58064F3
:103B2000A04247D004F58064A04245D004F58064EB
:103B3000A04243D004F58064A04241D004F58064E3
:103B4000A0423FD004F58064A0423DD004F58064DB
:103B5000A04214BF0A24092404FA0CF444EA0E0417
:103B6000BC609468F74315F4801F0CBF3C4034439D
:103B70009460D46815F4001F0CBF3C403443D460FB
:103B8000546815F4003F0CBF3C4034435460146843
:103B9000ED0354BF3C40344314600133102B7FF4D9
:103BA0003DAF03B0BDE8F08F0024D5E70124D3E793
:103BB0000224D1E70324CFE70424CDE70524CBE793
:103BC0000624C9E70724C7E70824C5E7003C0140ED
:103BD00000000240003802400369194214BF01206E
:103BE000002070470AB1816170470904FBE743690F
:103BF00001EA030221EA030141EA024181617047BF
:103C000001684B6913F480634FF0000210D06FF429
:103C100080634B612023026380F83D3080F83E20B2
:103C2000036C80F83C2043F00403036401207047D8
:103C3000184670472DE9F84606460F4691461D4640
:103C40004FEA114A3368BAF1010F0CBF5C699C69F5
:103C500027EA0404A4B2B4FA84F46409A14501D0AB
:103C6000002025E06A1CEED0FFF75AFD089BC01A21
:103C7000A84201D8002DE5D13368BAF1010F0CBF7D
:103C80005B699B6927EA03039BB2B3FA83F35B0981
:103C90009945D7D100232022336386F83D2086F84A
:103CA0003E30326C86F83C3042F020023264012013
:103CB000BDE8F8862DE9F04104460F4616469846C1
:103CC0002568686927EA000080B2C0B16B695A05AF
:103CD00017D52B6843F400732B606FF480636B611E
:103CE00020220023236384F83D2084F83E30236C97
:103CF00043F004032364002384F83C300120BDE832
:103D0000F081731CDDD0FFF70BFDA0EB0800B04283
:103D100001D8002ED4D123685A6927EA020292B250
:103D2000002ACDD000232022236384F83D2084F88C
:103D30003E30236C1343DDE770B504460D4616464E
:103D400023685B691B0601D500201EE02046FFF7B3
:103D500057FFC8B96A1CF3D0FFF7E2FC801BA842EA
:103D600001D8002DECD123685B6913F08003E7D103
:103D70002022236384F83D2084F83E30226C84F8AE
:103D80003C3042F020022264012070BD2DE9F04356
:103D90001546026885B0DDE90C789946136843F44E
:103DA000807313600E463B46CDF8008000224FF032
:103DB00001110446FFF73EFF236838B11B68DB059D
:103DC00002D54FF400732364032620E006F0FE06BC
:103DD0001E611A4943463A462046FFF76BFFA8B9D1
:103DE000236803905A6903929B69039342463946BC
:103DF0002046039BFFF7A0FF064660B1236C042B0F
:103E000001BF2268136843F4007313600126304633
:103E100005B0BDE8F083B9F1010F236802D1EDB21E
:103E20001D61F4E72A0A1A61394642462046FFF727
:103E300083FF0028E2D12368F1E700BF0200010000
:103E40002DE9FF479A46036815461A6842F48062D6
:103E50001A601A68DDE90C7842F480721A600E4626
:103E60003B46CDF8008000224FF001110446FFF7D9
:103E7000E1FE236838B11B68DB0544BF4FF40073D3
:103E80002364032021E05FFA86F906F0FE061E6136
:103E90002B4943463A462046FFF70CFFA0B923685A
:103EA00003905A6903929B69039342463946204620
:103EB000039BFFF741FF58B1236C042B01BF22681D
:103EC000136843F400731360012004B0BDE8F08769
:103ED000BAF1010F23681AD1EDB242461D6139468D
:103EE0002046FFF729FF02460028E5D121680B682C
:103EF00043F480730B602046CDF800803B464FF0C2
:103F00000111FFF797FE226860B11368B4E72A0A2F
:103F10001A61394642462046FFF70EFF0028CBD1F2
:103F20002368D9E749F001031361054943463A463E
:103F30002046FFF7BFFE003818BF0120C5E700BFCD
:103F40000200010070B504460D46164623685B6901
:103F50005B0701D500201EE02046FFF751FEC8B9DF
:103F60006A1CF3D0FFF7DCFB801BA84201D8002DB0
:103F7000ECD123685B6913F00403E7D120222363AB
:103F800084F83D2084F83E30226C84F83C3042F0C6
:103F900020022264012070BD70B504460D4616460D
:103FA00021684B6913F0400301D0002011E04A69F9
:103FB000D2060FD56FF010024A612022236384F8E5
:103FC0003D2084F83E30236C2364002384F83C3089
:103FD000012070BDFFF7A4FB801BA84201D8002D73
:103FE000DED123685B6913F04003D9D1202223631B
:103FF00084F83D2084F83E30236C1343E4E700004E
:1040000070B5044608B9012070BD90F83D3003F04A
:10401000FF021BB980F83C20FDF7A4FE242384F89E
:104020003D3023681A6822F001021A601A6842F4CF
:1040300000421A601A6822F400421A6000F0B2FED0
:104040003F4B65689D4294BF3E4B3F4B98428CBFAF
:1040500000230123002BD6D12268394E51683B4BF7
:10406000B0FBF3F321F03F011943B542516088BF23
:104070004FF49676116A88BF734321F03F0184BFE5
:104080004FF47A76B3FBF6F301330B431362D16935
:10409000431E2B4821F44F41854221F0FF0132D8C5
:1040A0006D0040F6FC70B3FBF5F30133034242D0E0
:1040B000C3F30B031943D161D4E9073011680343FB
:1040C00021F0C0010B4313609168D4E9030321F48C
:1040D0000341034321F0FF010B439360D4E9053012
:1040E000D168034321F0FF010B43D360136843F011
:1040F0000103136000202023206484F83D302063F6
:1041000084F83E0080E7A06850B905EB4505B3FB95
:10411000F5F30133C3F30B037BB143F40043C9E769
:1041200019206843B3FBF0F30133C3F30B0323B14E
:1041300043F44043BEE70423BCE70123BAE700BFD2
:10414000A08601007F841E00FF083D0040420F0052
:104150002DE9F743044699460C9E0F469046FFF71B
:10416000DFFA94F83D30202B054603D0022003B03F
:10417000BDE8F08300903C49192301222046FFF757
:1041800059FD0028F2D194F83C30012BEED0206884
:10419000012384F83C300368D9075EBF036843F00D
:1041A00001030360036823F400630360212384F8A0
:1041B0003D30402384F83E30002323640A9B636231
:1041C000BDF82C306385638D2385284BE36242461E
:1041D000CDE900654B4639462046FFF7D7FD00285C
:1041E0002AD00120C3E7FFF7A7FD40B1236C042BC1
:1041F00001BF2268136843F400731360F1E7636A38
:1042000027681A4612F8011B39616262628D218D9E
:10421000013A92B262857A69481E80B252072085BF
:104220000AD548B15A783A6102336362638D013B23
:1042300002399BB221856385238D2A46314620466B
:10424000002BD0D1FFF77EFE0028CFD12268136863
:1042500043F400731360202384F83D3084F83C005D
:1042600084F83E0083E700BF020010000000FFFF5B
:104270002DE9F043044687B09946109F0D469046BD
:10428000FFF74EFA94F83D30202B064604D0022565
:10429000284607B0BDE8F08300907A49192301222F
:1042A0002046FFF7C7FC0028F1D194F83C30012BE1
:1042B000EDD02068012384F83C300368DB075EBF43
:1042C000036843F001030360036823F400630360A1
:1042D000222384F83D30402384F83E3000232364B9
:1042E0000E9B6362BDF83C306385638D2385664B0E
:1042F000E3622946CDE900764B4642462046FFF769
:104300009FFD054608B10125C2E7228D2368B2B999
:1043100002905A6902929A690292029A1A6842F4C9
:1043200000721A60DFF86481238D002B2CD12022CB
:1043300084F83D2084F83C3084F83E30A8E7012A18
:104340000AD11A6822F480621A6003905A690392B3
:104350009A690392039AE1E7022A0ED11A6822F4BD
:1043600080621A601A6842F400621A6004905A6906
:1043700004929B690493049BD4E705905A690592C3
:104380009B690593059BCDE7032B56D8012B15D1CF
:10439000324639462046FFF7FFFD0028B3D1236897
:1043A0001A69636A1A70636A01336362238D013B81
:1043B0002385638D013B9BB26385B5E7022B009695
:1043C0003B464FF000024146204619D1FFF732FC30
:1043D000002898D123681A6842F400721A601A699A
:1043E000636A1A70626A531C6362238D013B2385E2
:1043F000638D013B9BB2638523681B695370D2E7D1
:10440000FFF718FC024600287FF47DAF2368196887
:1044100021F4806119601969636A1970636A013354
:104420006362238D013B2385638D013B9BB26385D2
:10443000414600963B462046C8E73246394620466C
:10444000FFF7AAFD00287FF45EAF23681A69636A4C
:104450001A70628D616A013A92B24B1C62852268C1
:104460006362238D5069013B9BB2400723857FF532
:104470005BAF032B02BF136823F4806313601369DF
:104480004B7090E7020010000000FFFF04000100E5
:1044900010B590F83D30202BDCB216D1242380F8E3
:1044A0003D3003681A6822F001021A605A6A22F04D
:1044B00010025A625A6A114359621A6842F00102A4
:1044C0001A6080F83D40002010BD0220FCE730B5A6
:1044D00090F83D30202BDCB216D10268242380F8FE
:1044E0003D30136823F001031360556A4FF6F073F3
:1044F0002B400B439BB25362136843F001031360DC
:1045000080F83D40002030BD0220FCE70068D1F873
:1045100000C0D201843283182DE9F043C6685D687B
:104520004C68D1F8189005F470455D60C5680CF1D1
:104530000107C5F30B45C6F30B463D44264445EA47
:1045400006455D60C668CD68C6F30A062E449D68C0
:1045500005F470459D60C7688D68C7F30A0701358B
:104560003D4445EA06459D601D690E6925F0070535
:104570001D614FF0000E1E619D6991F8327091F837
:104580003180C3F818E091F8305045EA096545EAF2
:10459000082545EA07459D615D6925F0FF055D61D8
:1045A0004D695D61DD6925F4E06525F00705DD6194
:1045B000D1E907573D43DD619D6A4D6AC3F828E0A4
:1045C0009D621EB3012E23D0B51E022D22D9072EC7
:1045D00014BF01250225DE6A06F0E026DE62A4EBA8
:1045E0000C048E6AC96A6C436E43033444EA064481
:1045F000DC621C6B24F4FF6424F007041C63196361
:10460000835843F001038350BDE8F0830425E2E7BB
:104610000325E0E70225DEE738B50446002863D02D
:1046200090F8A13003F0FF021BB980F8A020FDF73D
:10463000F5FB022384F8A13023689A6922F07042C6
:104640009A61D4E901200243E06899690243206934
:1046500002430A439A619A68244960690A409A6051
:104660009A6842EA0042A06902439A60DA68E06907
:104670000A40DA60DA6842EA0042206A0243DA60FD
:104680001A69606A0A401A611A6942EA0042A06A1D
:1046900002431A615A690A405A615A69E16A42EA58
:1046A0000142216B0A435A61DA6A94F8350094F8A2
:1046B000361002F07F42DA62DD6A94F834202A4331
:1046C00042EA002242EA0142DA625A6B42F00602F2
:1046D0005A639A6942F001029A6100200123C4F8EA
:1046E000A40084F8A13038BD0120FCE700F800F0F8
:1046F00070477047036870B59E6B5D6B7207044628
:1047000014D5690712D55A6B22F004025A630422A9
:10471000DA63D0F8A43043F00103C0F8A4300023DA
:1047200080F8A12080F8A030FFF7E2FFB20716D58D
:10473000AB0714D523685A6B22F002025A63022297
:10474000DA63D4F8A4301343C4F8A430042384F803
:10475000A130002384F8A0302046FFF7C9FFF007FE
:1047600010D5E9070ED523685A6B22F001025A636F
:104770000122DA63002384F8A12084F8A0302046C7
:10478000FCF72AFF320711D52B070FD523685A6B88
:1047900022F008025A630822DA63012384F8A13068
:1047A000002384F8A0302046FFF7A3FF70BD2DE959
:1047B000F04190F8A030012B06460F4694464FF08A
:1047C00002001FD04FF0010886F8A08086F8A100F3
:1047D00034240D4604FB02640FCD38340FC40FCDD2
:1047E0000FC40FCD0FC42B68236030466246394694
:1047F000FFF78CFE33680020C3F8248086F8A18080
:1048000086F8A000BDE8F08190F8A020012A0346B8
:104810004FF0020012D01A6883F8A100506B20F00C
:104820000100506306480164516B41F0010151637E
:104830000020012283F8A12083F8A000704700BF68
:104840000068014037B500230193184B184D1A6CCE
:1048500042F080521A641B6C03F080530193019B59
:10486000144B01221A64FEF75BFF04466B68DA03FF
:104870000BD5104B0E4D01225A64FEF751FF044632
:104880006B689B030AD5002006E0FEF749FF001B7A
:10489000B0F57A7FEAD9032003B030BDFEF740FFC0
:1048A000001BB0F57A7FEBD9F5E700BF0038024076
:1048B0000070004000000E422DE9F341044640B371
:1048C0000368DE0710D423689D075BD423681907AB
:1048D00000F19D8023685A0700F1BD80A369002B79
:1048E00040F0248100202CE08D4B9A6802F00C02ED
:1048F000042A07D09A6802F00C02082A0BD15B68E0
:10490000590208D5864B1B689A03DCD56368002BD7
:10491000D9D1012015E06368814DB3F5803F13D1F3
:104920002B6843F480332B60FEF7FAFE7C4E05467D
:1049300033689B03C7D4FEF7F3FE401B6428F7D906
:10494000032002B0BDE8F081B3F5A02F04D12B689D
:1049500043F480232B60E3E72A6822F480322A6044
:104960002A6822F480222A60002BDDD1FEF7D8FECF
:1049700006462B689F03A6D5FEF7D2FE801B64284F
:10498000F7D9DDE7664B9A6812F00C0F07D09A68EA
:1049900002F00C02082A11D15B685D020ED4604A55
:1049A0001368990702D5E368012BB2D11368216916
:1049B00023F0F80343EAC103136087E7E268594B29
:1049C000B2B101221A60FEF7ABFE554D06462B68C8
:1049D0009B0707D52B68226923F0F80343EAC2033B
:1049E0002B6073E7FEF79CFE801B0228EFD9A7E738
:1049F0001A60FEF795FE4A4E054633689F077FF51D
:104A000065AFFEF78DFE401B0228F6D998E7626974
:104A1000444B82B10122C3F8802EFEF781FE404E46
:104A20000546736F9B073FF555AFFEF779FE401BB8
:104A30000228F6D984E7C3F8802EFEF771FE384EBF
:104A40000546736F9F077FF545AFFEF769FE401B74
:104A50000228F6D974E7324B1A6C12F0805228D132
:104A600001921A6C42F080521A641B6C03F080535E
:104A70000193019B01272C4D2B68D8051BD5A368FA
:104A8000274D012B27D12B6F43F001032B67FEF736
:104A900047FE234E054641F28838336F9A0739D5D1
:104AA000002F3FF41BAF1E4A136C23F08053136496
:104AB00014E70027DFE72B6843F480732B60FEF7D1
:104AC0002FFE06462B68D905D9D4FEF729FE801B98
:104AD0000228F7D934E7052B04D12B6F43F00403E8
:104AE0002B67D0E72A6F22F001022A672A6F22F093
:104AF00004022A67002BCAD1FEF712FE41F2883861
:104B000006462B6F9B07CBD5FEF70AFE801B404560
:104B1000F7D915E7FEF704FE401B4045BDD90FE766
:104B2000003802400000474200700040374DAA683C
:104B300002F00C02082A3ED0022B354B4FF0000247
:104B40001A662BD1FEF7ECFD06462B6899011FD49F
:104B5000D4E907321343626A43EA8213E26A43EA02
:104B60000263A26A5208013A43EA02436B60284B8F
:104B7000264D01221A66FEF7D3FD04462B689A01E2
:104B80003FF5B0AEFEF7CCFD001B0228F6D9D7E604
:104B9000FEF7C6FD801B0228D7D9D1E6FEF7C0FD7F
:104BA00004462B689B017FF59DAEFEF7B9FD001B07
:104BB0000228F6D9C4E6012B3FF4ABAE6B68E2697C
:104BC00003F4800191427FF4A4AE216A03F03F0216
:104BD0008A427FF49EAE616A47F6C0721A40B2EB19
:104BE000811F7FF496AEA26A520803F44031013A65
:104BF000B1EB024F7FF48DAEE26A03F07063B3EB6A
:104C0000026F14BF012000209BE600BF0038024065
:104C100000004742134908B58B6803F00C03042BCE
:104C20001CD0082B1CD14A684B68496813F48003D8
:104C300014BF0D480D48C1F3881118BF002302F0BE
:104C40003F02A1FB0001FBF773FB064B5B68C3F35C
:104C5000014301335B00B0FBF3F008BD0248FCE701
:104C60000248FAE70038024000127A000024F400FB
:104C70002DE9F0410D46044610B90120BDE8F08150
:104C8000434B1A6802F00F028A4228D321688F072B
:104C90002DD4C80740D43E4B1A6802F00F02AA4236
:104CA00065D8226851076BD4130707D5394A2169A3
:104CB000936823F4604343EAC1039360FFF7AAFFBC
:104CC000344B354A9B68C3F30313D35CD840334B52
:104CD0001860334B1868FDF71FFA0020CEE7CAB200
:104CE0001A701B6803F00F038B42C6D1CEE7294B25
:104CF00011F0040F1EBF9A6842F4E0529A600E074A
:104D000042BF9A6842F460429A609A68A06822F0B2
:104D1000F00202439A60BCE762681E4B012A1CD174
:104D20001B6813F4003FA8D01A4EB36823F00303A6
:104D30001343B360FEF7F4FC41F288380746B368CA
:104D4000626803F00C03B3EB820FA4D0FEF7E8FC1B
:104D5000C01B4045F3D9032090E7911E01291B6831
:104D600002D813F0007FDEE713F0020FDBE7EAB2B0
:104D70001A701B6803F00F03AB427FF47EAF90E71D
:104D80000449E0688B6823F4E05303438B608BE7AE
:104D9000003C024000380240F82C02087400002059
:104DA0007C000020044B054A9B68C3F38223D35C3C
:104DB000034A1068D840704700380240F02C0208BF
:104DC000740000200F2303600B4B9A6802F003026B
:104DD00042609A6802F0F00282609A6802F4E0523F
:104DE000C2609B68DB0803F4E0530361034B1B685C
:104DF00003F00F030B60704700380240003C024094
:104E0000036813F0430FF7B5044640F08880236829
:104E100013F00C0F45D08C4B8C4D00221A67FEF717
:104E20007FFC06462B68990000F1CB8021684A0779
:104E300015D5D4E90403D5F888201B0602F0E0421A
:104E400043EA80131343C5F88830D5F88C30226AC2
:104E500023F4F853013A43EA0223C5F88C300B07D8
:104E600014D57A4AA369D2F8881020691B0701F08B
:104E7000706143EA80130B43C2F88830D2F88C305B
:104E8000616A23F440330B43C2F88C306E4B6F4E93
:104E900001221A67FEF744FC054633689F0040F183
:104EA00097802368980634D500230193674B684D9B
:104EB0001A6C42F080521A641B6C03F08053019309
:104EC000019B2B6843F480732B60FEF729FC064698
:104ED0002B68D80540F183805C4DA26A2B6F13F4D8
:104EE000407340F08380A36A03F44072B2F5407FC0
:104EF000564A40F09E80916823F0704021F4F811EA
:104F000020F4407001439160116FC3F30B030B4316
:104F100013672368DB0600F1908000204FE04A4BC6
:104F20004A4E00229A66FEF7FBFB054633681F01D6
:104F30003FD42168C80741BFD4E901231B0743EAD6
:104F40008213C6F884308A0715D5404AE368D2F840
:104F5000840065681B0600F0E04043EA85130343C4
:104F6000C2F88430D2F88C00E36920F01F00013BC6
:104F70000343C2F88C304B060AD5E36862681B060F
:104F800043EA8213A26843EA0273304AC2F88430CB
:104F90002D4B2E4E01229A66FEF7C2FB0546336862
:104FA0001F013FF534AFFEF7BBFB401B0228F6D9CB
:104FB00004E0FEF7B5FB401B0228B7D9032003B07D
:104FC000F0BDFEF7ADFB801B02287FF62BAFF5E7A7
:104FD000FEF7A6FB401B02287FF65FAFEEE7FEF769
:104FE0009FFB801B02287FF673AFE7E702F4407255
:104FF00093423FF478AF2B6F134A0121C2F8401E51
:1050000023F440730021C2F8401E2B672B6FD90791
:105010007FF569AFFEF784FB41F2883706462B6FB8
:105020009A073FF560AFFEF77BFB801BB842F6D9CD
:10503000C4E7916821F4F81165E7064B94F82C2039
:10504000C3F8E02169E700BF000047420038024092
:10505000007000400010474238B50D460446C8B104
:1050600090F82C3003F0FF021BB980F82D20FCF7DC
:10507000E7FF022384F82C30211D206800F022FD78
:1050800062682068294600F055FD012384F82C3021
:10509000002038BD0120FCE770B590F82C30022BC1
:1050A00005460E46D8B212D000F0FB04012C0FD1F9
:1050B000022385F82C30286800F072FD3368022B3B
:1050C00006BF052385F82C3085F82C40002070BDE4
:1050D0000120FCE738B590F82C30022B0446D8B2FA
:1050E0000DD094F82C30012BDDB209D102232068B9
:1050F00084F82C3000F078FD84F82C50002038BD66
:105100000120FCE72DE9F3471F46894690460446F7
:10511000FEF706FB0A9D3D442D1AFEF701FB264BC8
:105120001E68C6F3CB366E438246019622689368AA
:1051300039EA03030CBF01230023434501D10020BA
:105140002EE07B1CF3D0FEF7EBFAA0EB0A00A8429E
:1051500029D323685A6822F0E0025A606268B2F5E7
:10516000827F0AD1A268B2F5004F02D0B2F5806FFB
:1051700003D11A6822F040021A60A26AB2F5005FF9
:1051800007D11A6822F400521A601A6842F40052D9
:105190001A60012384F85130002384F85030032032
:1051A00002B0BDE8F087019A019B002A03F1FF33AA
:1051B000019308BF1546B9E774000020F0B585B02B
:1051C0000B4600920E461746022101220446FFF7C5
:1051D00099FF054628B1636D43F0200363650325FD
:1051E00015E0124B1868124BB0FBF3F04FF47A73D2
:1051F000584363680390B3F5827F0BD10097334621
:105200002A4680212046FFF77DFF0028E3D128466B
:1052100005B0F0BD039B002BF9D0039B013B03932A
:1052200023689B681B06F5D4F1E700BF74000020DB
:1052300000366E0137B50B464168B1F5827F0446F2
:1052400008D0009201210022FFF75CFFD0B90020B6
:1052500003B030BD8168B1F5004F02D0B1F5806F69
:1052600007D125682868B1F5806F20F040002860DC
:1052700004D00092802100222046E5E7009201211F
:105280000022F9E7636D43F0200363650320DFE745
:1052900010B50446002855D0436A002B4ED1426811
:1052A000B2F5827F00D0C3610023A36294F851302D
:1052B00003F0FF0223B984F850202046FCF78AFE51
:1052C0002168A068A269022384F851300B6823F09A
:1052D00040030B60636800F4044003F482730343EB
:1052E000E06800F400600343206900F0020003431B
:1052F000606900F00100034302F400700343E069B9
:1053000000F038000343206A00F080000343A06AE5
:1053100000F4005003430B60636A120C03F01003A7
:1053200002F004021A434A60CB6923F40063CB61A4
:1053300000200123606584F8513010BD0023C0E9CE
:105340000433B1E70120F8E72DE9F74304461F468F
:105350000D469046FEF7E4F994F85130012B814652
:10536000D8B240F09F80002D74D0B8F1000F71D0FA
:1053700094F85030012B00F09580032384F85130CD
:1053800000236365C4E91033A4F83680A363A387C0
:10539000E387A368266884F85000B3F5004F2563BF
:1053A000A4F8348007D1336823F0400333603368B6
:1053B00043F4804333603368E2685B065EBF336862
:1053C00043F040033360B2F5006F636845D113B119
:1053D000B8F1010F07D135F8023BF3602563E38E86
:1053E000013B9BB2E386E38E9BB2D3B94A46394672
:1053F0002046FFF7E3FE002851D1A36833B901939B
:105400002368DA6801929B680193019B012384F869
:105410005130606D0023C01A84F8503018BF01204D
:1054200018E022689368980705D5236B33F8021BB0
:10543000D1602363D3E7FEF773F9A0EB0900B8420C
:10544000D1D3791CCFD0012384F85130002384F8C4
:105450005030032003B0BDE8F08313B1B8F1010F61
:1054600008D12B783373236B01332363E38E013B25
:105470009BB2E386E38E9BB2002BB7D023689A6879
:10548000920703D5226B12781A73ECE7FEF748F9FE
:10549000A0EB0900B842EDD37B1CEBD0D3E720236F
:1054A0006365AAE70220D5E72DE9F74304460D46D8
:1054B00091461E46DDF82880FEF732F994F8513007
:1054C0006268012B0746D9B20AD0B2F5827F40F05C
:1054D000E580A368002B40F0E180042940F0DE80E5
:1054E000002D4BD0B9F1000F48D0002E46D094F8D3
:1054F0005030012B00F0D280012384F8503094F812
:105500005130C4F83890042B1CBF052384F8513067
:1055100000236365C4E910332368E687E6861968CB
:10552000A687490658BF1968256358BF41F0400156
:10553000A68658BF1960E168B1F5006F55D10AB170
:10554000012E07D135F8022BDA60E38E2563013B8B
:105550009BB2E3860125E38E9BB28BB9E38F9BB2AE
:1055600073B93A4641462046FFF728FE002800F06E
:10557000818020236365002384F85030012031E0CE
:1055800021688B689A070DD5E38E9BB253B145B164
:10559000236B33F8022BCA602363E38E013B9BB27B
:1055A000E38600258A6812F001020CD0E38F9BB2DB
:1055B0004BB1A36BC96823F8021BA363E38F013BC4
:1055C0009BB2E3871546FEF7ABF8C01B4045C2D33C
:1055D000B8F1FF3FBFD0012384F85130002384F895
:1055E0005030032003B0BDE8F0830AB1012E08D18A
:1055F0002A781A73236B01332363E38E013B9BB23A
:10560000E38601252DE0226893689B070ED5E38E83
:105610009BB25BB14DB1236B1B781373236B0133CA
:105620002363E38E013B9BB2E386002522689168E9
:1056300011F001010DD0E38F9BB253B1A36BD2687F
:105640001A70A36B0133A363E38F013B9BB2E38723
:105650000D46FEF765F8C01B404502D3B8F1FF3F89
:10566000B9D1E38E9BB2002BCDD1E38F9BB2002B3F
:10567000C9D176E7A36833B901932368DA68019248
:105680009B680193019B012384F85130606D0023D6
:10569000C01A84F8503018BF0120A3E70220A1E708
:1056A0002DE9F7431E4690F85130012B04468946F8
:1056B0001746DDB204D00225284603B0BDE8F083CA
:1056C0004368B3F5827F0BD183684BB9042380F81C
:1056D0005130134600960A46FFF7E6FE0546EBE713
:1056E000FEF71EF88046B9F1000FE5D0002FE3D099
:1056F00094F85030012BDED0A268C4F83890012312
:10570000002584F85030B2F5004F4FF0040384F8C0
:105710005130C4E9105565652368E787A78725637D
:10572000A586E58607D11A6822F040021A601A6839
:1057300022F480421A601A6855065EBF1A6842F069
:1057400040021A60E368F3B1E38F9BB2FBB12368B8
:105750009A68D2073CD5DA68A36B23F8022BA363BF
:10576000E38F013B9BB2E387EEE723689A68D0079B
:105770001ED5A26B1B7B1370A36B0133A363E38F56
:10578000013B9BB2E387E38F9BB2002BEDD14246F6
:1057900031462046FFF74EFD18BB012384F85130F7
:1057A000656D0023ED1A84F8503018BF012583E79A
:1057B000FDF7B6FFA0EB0800B042E4D3711CE2D0C5
:1057C000012384F85130002384F85030032573E717
:1057D000FDF7A6FFA0EB0800B042B5D3731CB3D011
:1057E000EEE720236365D8E77047000090F83D306E
:1057F000012B30D1022380F83D300368DA6842F093
:105800000102DA60154A93421AD0B3F1804F17D0E3
:10581000A2F57C42934213D002F5806293420FD0EE
:1058200002F5806293420BD002F57842934207D092
:1058300002F57052934203D0A2F59432934204D100
:105840009A6802F00702062A03D01A6842F00102A1
:105850001A60002070470120704700BF000001401F
:105860007047704770477047036870B5DD681E6900
:10587000B10704460DD5AA070BD56FF002021A61D5
:10588000012202779B699B0769D0FFF7EAFF00239B
:105890002377710710D56A070ED523686FF00402CD
:1058A0001A61022222779B6913F4407F20465CD064
:1058B000FFF7D7FF0023237733070FD528070DD530
:1058C00023686FF008021A6104222277DB699907C6
:1058D000204650D0FFF7C5FF00232377F20610D5EE
:1058E000EB060ED523686FF010021A6108222277AA
:1058F000DB6913F4407F204643D0FFF7B2FF00235B
:105900002377F00708D5E90706D523686FF0010271
:105910001A612046FCF7C0F9320608D52B0606D5D9
:1059200023686FF080021A61204600F0CAF8700602
:1059300008D5690606D523686FF040021A61204633
:10594000FFF791FFB20622D5AB0620D523686FF092
:10595000200220461A61BDE8704000F0B1B8FFF7A0
:105960007FFF2046FFF77EFF91E7FFF779FF204694
:10597000FFF778FF9EE7FFF773FF2046FFF772FF00
:10598000AAE7FFF76DFF2046FFF76CFFB7E770BD92
:10599000334A0368904212D0B0F1804F0FD0A2F585
:1059A0007C4290420BD002F58062904207D002F513
:1059B0008062904203D002F57842904219D14A6841
:1059C00023F070031343264A904229D0B0F1804F50
:1059D00026D0A2F57C42904222D002F5806290420D
:1059E0001ED002F5806290421AD002F578429042B1
:1059F00016D01C4A904213D002F5806290420FD01C
:105A000002F5806290420BD0A2F59832904207D006
:105A100002F58062904203D002F58062904203D189
:105A2000CA6823F4407313434A6923F08003134385
:105A300003608B68C3620B688362094B984203D092
:105A400003F58063984201D10B690363012343612D
:105A50000369DB0742BF036923F001030361704759
:105A6000000001400040014010B5044630B390F8FA
:105A70003D3003F0FF021BB980F83C20FFF7B4FE75
:105A80000223206884F83D30211DFFF781FF0123A8
:105A900084F84630002084F83E3084F83F3084F8A3
:105AA000403084F8413084F8423084F8433084F840
:105AB000443084F8453084F83D3010BD0120FCE7C7
:105AC000704770472DE9F041D1E90738D1E9012C41
:105AD000D1E90376D1E90554D1F824E0096843EA15
