:020000040800F2
:1000000000000320E50F0008192E00081B2E000831
:100010001D2E00081F2E0008212E000800000000E1
:100020000000000000000000000000003180000817
:10003000232E000800000000C1800008437900085A
:10004000351000083510000835100008351000087C
:10005000351000083510000835100008351000086C
:10006000351000083510000835100008351000085C
:10007000351000083510000835100008351000084C
:10008000351000083510000835100008351000083C
:10009000351000083510000835100008351000082C
:1000A000351000083510000835100008351000081C
:1000B000351000083510000835100008351000080C
:1000C00035100008351000083510000835100008FC
:1000D00035100008351000083510000835100008EC
:1000E00035100008351000083510000835100008DC
:1000F00035100008351000083510000835100008CC
:1001000035100008351000083510000835100008BB
:100110003510000835100008252E0008351000089D
:10012000351000083510000835100008351000089B
:10013000351000083510000835100008351000088B
:10014000351000083510000835100008351000087B
:10015000351000083510000835100008351000086B
:10016000351000083510000835100008351000085B
:100170003510000835100008351000080000000098
:10018000351000083510000835100008351000083B
:10019000351000083510000835100008351000082B
:0C01A000312E0008351000083D2E00082C
:1001B00010B5054C237833B9044B13B10448AFF3A1
:1001C00000800123237010BD800300200000000088
:1001D0003C3E020808B5034B1BB103490348AFF38B
:1001E000008008BD00000000840300203C3E02089F
:1001F000034613F8012B002AFBD1181A0138704767
:1002000001F0FF01102A2BDB10F0070F08D010F8C7
:10021000013B013A8B422DD010F0070F42B3F6D1CB
:10022000F0B441EA012141EA014122F007047FF0E4
:1002300000070023F0E80256083C85EA010586EA3B
:10024000010685FA47F5A3FA87F586FA47F6A5FA77
:1002500087F68EB9EED1F0BC01F0FF0102F0070283
:1002600032B110F8013B013A83EA010313B1F8D12E
:100270000020704701387047002D06BF354603380F
:10028000073815F0010F07D1013015F4807F02BF48
:10029000013015F4C03F0130F0BC0138704700BF99
:1002A00081F0004102E000BF83F0004330B54FEA27
:1002B00041044FEA430594EA050F08BF90EA020F94
:1002C0001FBF54EA000C55EA020C7FEA645C7FEA27
:1002D000655C00F0E2804FEA5454D4EB5555B8BF4A
:1002E0006D420CDD2C4480EA020281EA030382EABB
:1002F000000083EA010180EA020281EA0303362D4D
:1003000088BF30BD11F0004F4FEA01314FF4801C1F
:100310004CEA113102D0404261EB410113F0004F31
:100320004FEA03334CEA133302D0524263EB4303E8
:1003300094EA050F00F0A780A4F10104D5F1200E86
:100340000DDB02FA0EFC22FA05F2801841F10001E1
:1003500003FA0EF2801843FA05F359410EE0A5F1B5
:1003600020050EF1200E012A03FA0EFC28BF4CF0E6
:10037000020C43FA05F3C01851EBE37101F000459C
:1003800007D54FF0000EDCF1000C7EEB00006EEBA9
:100390000101B1F5801F1BD3B1F5001F0CD3490833
:1003A0005FEA30004FEA3C0C04F101044FEA44528A
:1003B00012F5800F80F09A80BCF1004F08BF5FEA11
:1003C000500C50F1000041EB045141EA050130BDF1
:1003D0005FEA4C0C404141EB0101013C28BFB1F503
:1003E000801FE9D291F0000F04BF01460020B1FA4E
:1003F00081F308BF2033A3F10B03B3F120020CDA21
:100400000C3208DD02F1140CC2F10C0201FA0CF0FE
:1004100021FA02F10CE002F11402D8BFC2F1200C63
:1004200001FA02F120FA0CFCDCBF41EA0C01904019
:10043000E41AA2BF01EB0451294330BD6FEA040462
:100440001F3C1CDA0C340EDC04F11404C4F120024D
:1004500020FA04F001FA02F340EA030021FA04F35F
:1004600045EA030130BDC4F10C04C4F1200220FAB6
:1004700002F001FA04F340EA0300294630BD21FAF4
:1004800004F0294630BD94F0000F83F4801306BFBA
:1004900081F480110134013D4EE77FEA645C18BFAE
:1004A0007FEA655C29D094EA050F08BF90EA020F45
:1004B00005D054EA000C04BF1946104630BD91EA3D
:1004C000030F1EBF0021002030BD5FEA545C05D140
:1004D0004000494128BF41F0004130BD14F580047F
:1004E0003CBF01F5801130BD01F0004545F0FE41F3
:1004F00041F470014FF0000030BD7FEA645C1ABF28
:10050000194610467FEA655C1CBF0B46024650EA5E
:10051000013406BF52EA033591EA030F41F400218A
:1005200030BD00BF90F0000F04BF0021704730B510
:100530004FF4806404F132044FF000054FF00001E5
:1005400050E700BF90F0000F04BF0021704730B5A6
:100550004FF4806404F1320410F0004548BF40427B
:100560004FF000013EE700BF42004FEAE2014FEAD0
:1005700031014FEA02701FBF12F07F4393F07F4FAB
:1005800081F06051704732F07F4208BF704793F0AE
:100590007F4F04BF41F40021704730B54FF46074C1
:1005A00001F0004521F000411CE700BF50EA0102C4
:1005B00008BF704730B54FF000050AE050EA01026D
:1005C00008BF704730B511F0004502D5404261EBDD
:1005D00041014FF4806404F132045FEA915C3FF41E
:1005E000D8AE4FF003025FEADC0C18BF03325FEABB
:1005F000DC0C18BF033202EBDC02C2F1200300FA6C
:1006000003FC20FA02F001FA03FE40EA0E0021FA90
:1006100002F11444BDE600BF70B54FF0FF0C4CF47E
:10062000E06C1CEA11541DBF1CEA135594EA0C0F30
:1006300095EA0C0F00F0DEF82C4481EA030621EA6B
:100640004C5123EA4C5350EA013518BF52EA0335A6
:1006500041F4801143F4801338D0A0FB02CE4FF058
:100660000005E1FB02E506F00042E0FB03E54FF088
:100670000006E1FB03569CF0000F18BF4EF0010E80
:10068000A4F1FF04B6F5007F64F5407404D25FEA7C
:100690004E0E6D4146EB060642EAC62141EA55512F
:1006A0004FEAC52040EA5E504FEACE2EB4F1FD0C71
:1006B00088BFBCF5E06F1ED8BEF1004F08BF5FEAEF
:1006C000500E50F1000041EB045170BD06F00046A1
:1006D00046EA010140EA020081EA0301B4EB5C044E
:1006E000C2BFD4EB0C0541EA045170BD41F4801146
:1006F0004FF0000E013C00F3AB8014F1360FDEBF6B
:10070000002001F0004170BDC4F10004203C35DA46
:100710000C341BDC04F11404C4F1200500FA05F3C9
:1007200020FA04F001FA05F240EA020001F000426A
:1007300021F0004110EBD37021FA04F642EB0601E0
:100740005EEA430E08BF20EAD37070BDC4F10C040A
:10075000C4F1200500FA04F320FA05F001FA04F2CE
:1007600040EA020001F0004110EBD37041F10001BA
:100770005EEA430E08BF20EAD37070BDC4F12005C5
:1007800000FA05F24EEA020E20FA04F301FA05F22D
:1007900043EA020321FA04F001F0004121FA04F2D5
:1007A00020EA020000EBD3705EEA430E08BF20EAA5
:1007B000D37070BD94F0000F0FD101F000464000DF
:1007C00041EB010111F4801F08BF013CF7D041EA61
:1007D000060195F0000F18BF704703F00046520065
:1007E00043EB030313F4801F08BF013DF7D043EA36
:1007F0000603704794EA0C0F0CEA135518BF95EAEC
:100800000C0F0CD050EA410618BF52EA4306D1D172
:1008100081EA030101F000414FF0000070BD50EA91
:10082000410606BF1046194652EA430619D094EA1B
:100830000C0F02D150EA013613D195EA0C0F05D105
:1008400052EA03361CBF104619460AD181EA030159
:1008500001F0004141F0FE4141F470014FF0000011
:1008600070BD41F0FE4141F4780170BD70B54FF0AC
:10087000FF0C4CF4E06C1CEA11541DBF1CEA13552C
:1008800094EA0C0F95EA0C0F00F0A7F8A4EB05040E
:1008900081EA030E52EA03354FEA013100F0888005
:1008A0004FEA03334FF0805545EA131343EA1263CE
:1008B0004FEA022245EA111545EA10654FEA002683
:1008C0000EF000419D4208BF964244F1FD0404F53C
:1008D000407402D25B084FEA3202B61A65EB030598
:1008E0005B084FEA32024FF480104FF4002CB6EB55
:1008F000020E75EB030E22BFB61A754640EA0C00D5
:100900005B084FEA3202B6EB020E75EB030E22BF14
:10091000B61A754640EA5C005B084FEA3202B6EB55
:10092000020E75EB030E22BFB61A754640EA9C0014
:100930005B084FEA3202B6EB020E75EB030E22BFE4
:10094000B61A754640EADC0055EA060E18D04FEAA2
:10095000051545EA16754FEA06164FEAC30343EA42
:1009600052734FEAC2025FEA1C1CC0D111F4801F0F
:100970000BD141EA00014FF000004FF0004CB6E708
:1009800011F4801F04BF01430020B4F1FD0C88BFA7
:10099000BCF5E06F3FF6AFAEB5EB030C04BFB6EBB2
:1009A000020C5FEA500C50F1000041EB045170BDA5
:1009B0000EF0004E4EEA113114EB5C04C2BFD4EBD2
:1009C0000C0541EA045170BD41F480114FF0000E56
:1009D000013C90E645EA060E8DE60CEA135594EAD2
:1009E0000C0F08BF95EA0C0F3FF43BAF94EA0C0FD5
:1009F0000AD150EA01347FF434AF95EA0C0F7FF44A
:100A000025AF104619462CE795EA0C0F06D152EA9D
:100A100003353FF4FDAE1046194622E750EA410681
:100A200018BF52EA43067FF4C5AE50EA41047FF492
:100A30000DAF52EA43057FF4EBAE12E74FF0FF3CF7
:100A400006E000BF4FF0010C02E000BF4FF0010CC8
:100A50004DF804CD4FEA410C7FEA6C5C4FEA430C41
:100A600018BF7FEA6C5C1BD001B050EA410C0CBF90
:100A700052EA430C91EA030F02BF90EA020F0020F2
:100A8000704710F1000F91EA030F58BF994208BF59
:100A900090422CBFD8176FEAE37040F00100704716
:100AA0004FEA410C7FEA6C5C02D150EA013C07D16D
:100AB0004FEA430C7FEA6C5CD6D152EA033CD3D0B8
:100AC0005DF8040B704700BF8446104662468C46B2
:100AD0001946634600E000BF01B5FFF7B7FF0028E5
:100AE00048BF10F1000F01BD4DF808EDFFF7F4FF0E
:100AF0000CBF012000205DF808FB00BF4DF808ED99
:100B0000FFF7EAFF34BF012000205DF808FB00BFBB
:100B10004DF808EDFFF7E0FF94BF012000205DF8DD
:100B200008FB00BF4DF808EDFFF7CEFF94BF012092
:100B300000205DF808FB00BF4DF808EDFFF7C4FF8B
:100B400034BF012000205DF808FB00BF4FEA410CD4
:100B50007FEA6C5C02D150EA013C0AD14FEA430CB7
:100B60007FEA6C5C02D152EA033C02D14FF00000F4
:100B700070474FF0010070474FEA4102B2F1E04385
:100B800024BFB3F5001CDCF1FE5C0DD901F0004C74
:100B90004FEAC0024CEA5070B2F1004F40EB8300C4
:100BA00008BF20F00100704711F0804F21D113F1F0
:100BB0003872BCBF01F00040704741F480114FEA29
:100BC0005252C2F11802C2F1200C10FA0CF320FAB2
:100BD00002F018BF40F001004FEAC1234FEAD323CF
:100BE00003FA0CFC40EA0C0023FA02F34FEA430339
:100BF000CCE77FEA625307D150EA01331EBF4FF0C2
:100C0000FE4040F44000704701F0004040F0FE40DC
:100C100040F40000704700BF7BB972B90029BEBF25
:100C200000204FF0004106E008BF00281CBF6FF015
:100C300000414FF0FF3000F0D3B9ADF1080C6DE981
:100C400004CE002909DB002B1ADB00F04DF8DDF89B
:100C500004E0DDE9022304B07047404261EB41014A
:100C6000002B1BDB00F040F8DDF804E0DDE9022397
:100C700004B0404261EB4101524263EB43037047D1
:100C8000524263EB430300F02FF8DDF804E0DDE9A6
:100C9000022304B0404261EB41017047524263EBD2
:100CA000430300F021F8DDF804E0DDE9022304B09D
:100CB000524263EB4303704753B94AB9002908BF56
:100CC00000281CBF4FF0FF314FF0FF3000F088B913
:100CD000ADF1080C6DE904CE00F006F8DDF804E093
:100CE000DDE9022304B070472DE9F047089D8E46E8
:100CF00004468846002B4AD18A42174662D9B2FA86
:100D000082F64EB1C6F1200301FA06F820FA03F389
:100D1000B74043EA0808B4404FEA174E1FFA87FC71
:100D2000B8FBFEF1230C0EFB118843EA084301FBDC
:100D30000CF29A4209D9FB1801F1FF3080F0EA80E9
:100D40009A4240F2E78002393B449A1AA3B2B2FBBE
:100D5000FEF00EFB102243EA024300FB0CFC9C4514
:100D600009D9FB1800F1FF3280F0D6809C4540F293
:100D7000D3803B44023840EA0140A3EB0C0300213E
:100D80001DB1F3400022C5E90032BDE8F0878B4277
:100D900005D90DB1C5E9000100210846F5E7B3FA10
:100DA00083F1002946D1734502D3824200F20581C6
:100DB000841A6EEB030201209046002DE5D0C5E9B0
:100DC0000048E2E7002A00F09080B2FA82F6002E96
:100DD00040F0A4808A1A030C4FEA174E80B2BCB2CE
:100DE0000121B2FBFEFC0EFB1C2243EA024304FB82
:100DF0000CF29A4207D9FB180CF1FF3802D29A4242
:100E000000F2E080C4469B1AB3FBFEF20EFB1233E5
:100E100040EA034302FB04F49C4207D9FB1802F1A9
:100E2000FF3002D29C4200F2CA8002461B1B42EAFB
:100E30000C40A5E7C1F120068B4022FA06F71F43BC
:100E40000EFA01F420FA06F32EFA06FE4FEA1749CD
:100E5000234300FA01F81FFA87FCBEFBF9F01C0CD3
:100E600009FB10EE44EA0E4400FB0CFEA64502FA14
:100E700001F209D93C1900F1FF3A80F09C80A645A7
:100E800040F2998002383C44A4EB0E041FFA83FE22
:100E9000B4FBF9F309FB13444EEA044403FB0CFCD6
:100EA000A44508D93C1903F1FF3E80F08280A44597
:100EB0007FD9023B3C4443EA0040A4EB0C04A0FB76
:100EC00002EC64457346E14662D35FD05DB1B8EB96
:100ED000030264EB090404FA06F622FA01F31E4346
:100EE000CC40C5E9006400214FE7B1FBF2FC010CE6
:100EF00041EA0E4180B240EA01423B4638463C4658
:100F0000B846BE462026B1FBF7F1A2EB080241EA43
:100F10000C4166E7014618E710462CE7C6F12002AF
:100F20002EFA02F3B740B14020FA02F24FEA174E10
:100F30000A43B3FBFEF8BCB20EFB1833110C41EAB6
:100F4000034108FB04F9B04089454FEA104380B2E1
:100F50003ED9791808F1FF3C01D289451FD8A1EB91
:100F60000901B1FBFEF909FB04F80EFB191192B25D
:100F700042EA0142424529D2BA1809F1FF31C4D2EE
:100F80004245C2D2A9F102013A44BEE7F0459DD2E2
:100F9000BEEB02036CEB070C0138E14696E7A7EBCA
:100FA00009094944A8F1020CB1FBFEF909FB04F858
:100FB000DBE773467FE7504666E70846FDE63B44BD
:100FC000023A33E7ACF1020C3B441CE749469CE78C
:100FD000A1EB0901C446B1FBFEF909FB04F8C4E723
:100FE000704700BFDFF834D0002103E00C4B5B58A2
:100FF000435004310B480C4B42189A42F6D30B4A2B
:1010000002E0002342F8043B094B9A42F9D303F073
:10101000F3FE21F0FDFF01F0ADF870470000032062
:10102000EC7E1308000000206C01002080030020EB
:10103000D4470120FEE7704708B500F0BFFDBDE8CA
:10104000084000F041BD00F0BBBD704710B5042161
:10105000044620F04AFC204610BD000038B50C4B79
:101060000C4C18800C4B822019806368984740F61E
:10107000110398420AD1094D23682C6082209847B9
:101080002B688220DB689847002038BD0120FCE7F0
:10109000A603002054000020A4030020A803002081
:1010A0004FF4A071F020FFF7D9BF0000F7B5394D1C
:1010B0002B6804461B6982209847208000284ED068
:1010C0002B680DF106025B6901A982209847324B1B
:1010D0001B78002B4BD0BDF8062040F674639A4273
:1010E0003FD9ADF80630BDF806209B1A9BB20A2BFB
:1010F00042D90B22B3FBF2F3284A1288934201D95A
:10110000013A93B2BDF80420254840F6B8318A422E
:1011100034D8C2F571620E32016892B20F25B2FB6B
:10112000F5F2204D2D88AA4284BF05F1FF35AAB201
:101130008A4215468EB22AD9921B91B21A4E37684E
:10114000BB42BAB28CBF9A1AD21A92B21144052984
:10115000C4BF05603360036863803368A38003B055
:10116000F0BDB32A9CBFB422ADF80620BBE7BDF8A2
:101170000630A3F5B473B9E70023C3E7C2F56D6287
:10118000083292B20E2A0168C8D800252A46891A68
:1011900089B2D3E7A8030020E0280020A4030020A0
:1011A000A0030020A60300209C03002037B568465A
:1011B0000D461446FFF77AFFBDF8000030B1BDF8C8
:1011C00002302B60BDF804302360012003B030BD35
:1011D000032821D8DFE800F0020B12190F4B1A6820
:1011E000B2FA82F2520904210D4804F0AFBA0B4B57
:1011F0005A68B2FA82F252090821F5E7074B9A6859
:10120000B2FA82F252091021EEE7044BDA68B2FA20
:1012100082F252092021E7E7704700BFAC030020AB
:1012200000100240032821D8DFE800F0020B121959
:101230000F4B1A68003A18BF012204210D4804F030
:1012400085BA0B4B5A68003A18BF01220821F5E70E
:10125000074B9A68003A18BF01221021EEE7044BB1
:10126000DA68003A18BF01222021E7E7704700BF83
:10127000AC0300200010024003280DD8DFE800F086
:101280000206080A0421054804F065BA0821FAE7B5
:101290001021F8E72021F6E7704700BF0010024058
:1012A00008B5032811D8DFE800F0020A0C0E04216B
:1012B000074804F045FA431E5842584108BD08212A
:1012C000F6E71021F4E72021F2E70020F3E700BF62
:1012D0000010024070B5084D00240126E0B2FFF76F
:1012E000DFFF18B12B68012B18BF2E600134052CCD
:1012F00005F10405F2D170BDAC030020012380F894
:10130000781080F8793070477047002070470000EF
:10131000034B4164003918BF01211970704700BFA9
:10132000933A0120704700207047836B0BB1084649
:10133000184770474FF6FF707047406803689B6915
:1013400018477047704770477047704710B504469C
:1013500000F04CFD23680349D3F890302046BDE8E7
:1013600010401847000000D008B503680446D3F8C1
:101370008430984723682046DB6F984700F0ECF8EC
:10138000236820465B6F9847292001F0D7F900F0C9
:10139000E3F8236820465B6F9847F8E710B50446EA
:1013A00009F066FC23682046D3F8BC30BDE8104045
:1013B000184700F0FFBC00F003BD00F035BD00F0A1
:1013C000D5BC00F045BD00F04DBD00F0D9BC08F023
:1013D0007DBE10B58421044620F087FA204610BD5A
:1013E00010B590F8341090F878400C4B8C421A7875
:1013F00009D03AB90A4A0B491488088810800C8031
:1014000001221A7010BD002AFCD0054A0549148833
:10141000088810800C800022F3E700BF8C3A01207E
:10142000883A01208A3A012070B50D46194635B92F
:10143000094B0A4A0A4840F2FF2121F0B9FAC0E9F3
:101440000F52084B003A18BF01221A700368BDE81A
:101450007040D3F8903018471C3F0208543F0208F0
:10146000A23F0208923A012008B5094B1B888B4223
:1014700003D8084B1B88934205D9074B074A0848F5
:10148000A32121F095FA074B1980074B1A8008BD5C
:10149000883A01208A3A0120E73F02084A400208C0
:1014A000A23F02088E3A0120903A0120034690F8AC
:1014B0007A0018B1586803681B6818477047000025
:1014C000012108B50022084606F0CEFA0A4B186042
:1014D00028B90A4B0A4A28210A4821F069FA002251
:1014E0000421012006F05FFB074B186018B9074B79
:1014F000034A2C21F0E708BDC00300208D400208FC
:10150000D640020805410208BC0300204B410208F6
:10151000024B4FF0FF31186806F0F0BAC00300200C
:10152000014B186806F016BBC0030020024B0021D7
:10153000186806F0E3BA00BFC0030020FFF7F0BF51
:1015400003480449006800231A4606F067BB00BF41
:10155000BC0300200400002013B5084C00231A46E9
:1015600001A9206806F08BFB20684FF0FF330022B2
:1015700001A906F084FB02B010BD00BFBC0300202F
:1015800003685B6C18470120704703689B6A184723
:10159000FEE740F2EF307047054B0360054B4FF01C
:1015A0008062C3F88820BFF34F8FBFF36F8F7047FF
:1015B000444B020800E100E010B504464FF45A61C4
:1015C000FFF7EAFF204620F090F9204610BD00000A
:1015D00082B0002301930E4B1A6B42F400021A638F
:1015E0001A6B02F400020192019A1A6942F4000295
:1015F0001A611A6922F400021A61064B064A1A613E
:10160000064A5A61064B4FF080629A6002B07047FA
:1016100000380240C02A0020711800089115000807
:1016200000E100E008B50A2809D8DFE800F006105C
:101630000E080808081010101000022008BD054B05
:10164000054A0648902121F0B3F90020F6E7012071
:10165000F4E700BF8D410208A8410208F3410208E7
:1016600038B50C46887FFFF7DDFFA58AE28A164B66
:101670002169586342EA05425A64628BD963521B5E
:101680001A642568082D0ED19A611A615862207F6C
:101690000E4A42EA0062DA61E2681A620C4A596153
:1016A000D9601A6038BD0022D8611A61E1680A0A5F
:1016B000480902F4784200F4FC600243C1F3C4011B
:1016C0000A439A63034AECE700B0024009000100B4
:1016D000012302000123030008B50B280BD8DFE823
:1016E00000F00612100A0A0A0A0808080808022070
:1016F00008BD0520FCE7054B054A06486F2121F08F
:1017000057F90020F4E70120F2E700BF8D410208FD
:1017100037420208F34102082DE9F04191F81D809B
:101720000C464046FFF7D8FFA77F05463846FFF72F
:10173000D3FF06463846FFF775FFA18A628B444BFC
:10174000521A1A649A61228B521A1A61E28A5863F9
:1017500042EA01425A6421696268D963DA6020680A
:10176000802828D0227F0FD8202867D0402865D035
:1017700004281AD0364B45EA026545F40035B845D1
:10178000DD6161D0334A44E0B0F5807F04D0B0F52C
:10179000007FEFD1304800E0304840EA0262DA6171
:1017A000E2681A625E62596132E045EA026242F41E
:1017B0000032DA61F6E7A068021DDA62227F45EAAC
:1017C000026545F40035DD615E625961017841B121
:1017D000012921D0224B234A23484FF48D7121F057
:1017E000E7F8DA69418822F47F42013922F01002D9
:1017F00042EA0122DA610121154BDA6942F0200246
:10180000DA61DA699206FCD410229A600029B9D014
:10181000164A1A60BDE8F081B2F1FF01DA6940882A
:1018200022F47F4200F1FF3022F0100242EA00224F
:1018300042F0100218BF0121DA61DDE745EA0262D9
:10184000034B42F40032B4E742F20132E1E700BF59
:1018500000B0024001230100090002000A0002005A
:10186000814202089B420208F34102080123020060
:10187000024B1B68586803685B691847943A01205B
:1018800070B5044625460A4B0C300026606026726F
:10189000667245F8203B6022294609F03FFB04F5BB
:1018A0005A63EE6024359D42FBD1204670BD00BFD7
:1018B000444B0208034B1A68D207FCD423229A60D7
:1018C000704700BF00B002407047000030B50F4CB9
:1018D0002568ED07FCD423250904A56041F001012A
:1018E0000225FF2B65636164E0630AD008496562E5
:1018F00041EA0363E361074B22626061E0602360B9
:1019000030BDE561039BA363034BF8E700B00240E1
:1019100009000100010002000100030030B50E4C77
:101920002568ED07FCD423251204A56042F00102CE
:101930000225FF2B65636264E063E16008D01B064B
:1019400043F00213E361054B65626061236030BDC3
:10195000034BE3610123F9E700B0024001000200FC
:10196000020002FF30B50B4C2568ED07FCD423259F
:1019700012041B06A56043F40033022542F0010265
:1019800065636264E063E160E361034B656260612B
:10199000236030BD00B0024001000200012070470A
:1019A0000C2070470C2303FB0100083070470C2308
:1019B00003FB0100083070470120704741F2D4302A
:1019C000704741F2D43303FB01000830704741F205
:1019D000D43303FB0100083070470120704710200A
:1019E000704700EB01100830704700EB0110083021
:1019F0007047084601F020BC10B5034B0360044655
:101A000008F0BBF8204610BDFC4B020810B5044698
:101A1000FFF7F2FF204614211FF067FF204610BD9C
:101A200010B5034B0360044608F0A7F8204610BD2C
:101A3000C84B020810B50446FFF7F2FF204641F2FA
:101A4000DC311FF052FF204610BD000010B5034BE3
:101A50000360044608F091F8204610BD944B02083C
:101A600010B50446FFF7F2FF204618211FF03DFF96
:101A7000204610BD10B5094B0360044600F5A05088
:101A80000830FFF7B9FF04F12C00FFF7C9FF04F19C
:101A90001400FFF7DBFF204610BD00BF304C0208EA
:101AA00008B50248FFF7E6FF08BD00BF9C12002002
:101AB00010B50446FFF7DEFF204641F27C511FF0CF
:101AC00014FF204610BD00002DE9F34101F02AFA71
:101AD000054601F02BFA00240146234628462246FB
:101AE000009410F06FFE274B274A1A60204602F040
:101AF0002DF8264D264B274A27489A6010F0CAFD3C
:101B00002B68BFF35B8FDB0735D428461FF0EFFE51
:101B100088B3224C224B234F236004F5A15604F1D5
:101B2000140004F12C086060C4F80880E7602661A6
:101B300008F024F81C4B6361404608F01FF81B4B6B
:101B4000E362384608F01AF804F5805303F21C40AB
:101B5000174AC3F8082402F07DF82246311F3046A8
:101B600002F06EF8304601F067FB124820F03EFFAD
:101B700028461FF0C8FE104802B0BDE8F041FFF74C
:101B8000E5BB00BFF83A012048040020981200206D
:101B9000680400204C040020080000209C12002053
:101BA000304C0208A4260020944B0208C84B0208BF
:101BB000FC4B0208A11A0008C40300207047000073
:101BC0000148FFF7D1BB00BFC403002070B5264E0B
:101BD000264C274D274B23603046FFF751FE284601
:101BE00015F0F6FE24480EF093FE244B2448DC60EA
:101BF00000224FF48071C3E9121222491A86C3E908
:101C00001A12214983F85820C3E91E011F49C3F85D
:101C100080101F491F480B60F021C3E90422C3E96B
:101C20000622C3E90822C3E90A22C3E90E22C3E956
:101C30001022C3E91422C3E917225A6683F87020E0
:101C40005A67C3E9016501801348018013484FF4C6
:101C5000A07101801248018012490A70012283F8A4
:101C60003420114A1A6070BDF40400209412002040
:101C7000680400200C3F02084C040020C40300202C
:101C80000000010101000001000450001A001400CE
:101C9000943A0120883A01208E3A01208A3A0120A4
:101CA000903A01208C3A0120584A02080148FFF777
:101CB00073BC00BFF404002000207047818070478F
:101CC000C1807047018170474181704770477047FC
:101CD00070477047704710B4C4880368121B84882B
:101CE0005B6D091B12B25DF8044B09B218474FF641
:101CF000FF7383814FF0FF3303621368C361106089
:101D00007047002070478B888380012070477047A0
:101D100080F82610704790F82600704710B5002212
:101D2000B1F90840B1F90A10028042808480C18074
:101D300010BD0022028042808280C28070470177FD
:101D4000704780ED080A704780F82410704780F8CB
:101D50002510704701207047983070478C307047CD
:101D6000843070477047704770470000034B9022E3
:101D700083F85A2383F85823704700BF00E100E03E
:101D8000094A0A49D3680A48C3F30A03013B9BB2D4
:101D90000B801169C1F30A01013901801364536B8F
:101DA00043F0010353637047006801401A28002084
:101DB00018280020014BD3F8AC00704700680140A0
:101DC000024B0122C3F8AC105A6270470068014010
:101DD00010B52C2104461FF088FD204610BD10B51B
:101DE000BC2104461FF081FD204610BD70B504469D
:101DF00008F0C1F923689D6E0DF022FB01462046D4
:101E0000A8472368054AD3F88C502046AC460023E7
:101E1000BDE87040A2F51631604700BF00B004D0A5
:101E200008F090B908F09AB908F056B908F0C5BAA8
:101E300090F8252012B103685B691847704790F845
:101E400025201AB190F8242002B1186070470000D4
:101E5000034B4FF080629A604FF080729A60704737
:101E600000E100E0084B4FF08062C3F88820BFF328
:101E70004F8FBFF36F8F4FF08072C3F88820BFF38E
:101E80004F8FBFF36F8F704700E100E070B5002304
:101E9000124E8380124B0360336893F85820054636
:101EA0000AB1D86C00B998680368DB6A9847336850
:101EB000B0FA80F4D86C640930B10368DB6A9847E3
:101EC000002808BF44F001042CB9064B064A074815
:101ED0002C2120F06DFD284670BD00BF943A0120F2
:101EE000444C0208D94202083743020870430208F2
:101EF00070B5254E3568BFF35B8F15F0010540D1F5
:101F000030461FF0F4FC00283BD0204C204B2561CC
:101F100004F13400C4E90035C4E90255E584A56242
:101F2000A5850EF0DAFF04F158000AF0ADFC194B5C
:101F3000A3652046184B40F8843BFFF7A7FF174BDB
:101F4000C4F884302433C4F88C304FF4C803C4E997
:101F500028350023C4F8AC30C4F8B030C4F8B4302D
:101F6000C4F8B8300E480F4BC4F89050C4F89C50D9
:101F7000C4F8A850C4F8983020F038FD30461FF05F
:101F8000C2FC024870BD00BF1C2800202028002091
:101F9000BC530208644C0208DC4C0208705302086F
:101FA000691D00085053020838B5184C23685BB30C
:101FB000174B184A1B6C11888B4216D1164B198887
:101FC00004F0CCF9236893F86A200025013283F8E5
:101FD0006A2083F87C50FFF7B3FA206808F048FEC7
:101FE0002846BDE83840FFF7F3B804F0B7F9246895
:101FF000236820461B6A9847012384F87C30002020
:10200000BDE83840FFF70EB938BD00BF943A012053
:10201000006801401A2800201828002007B5064B48
:10202000ADF806001B68054801220DF1060104F019
:102030000BFF03B05DF804FB0C0000206C290020AE
:1020400008B5642005F004FDFBE70000BFB51B4E9A
:102050001B4D1C4C1C4F304602F0C2FF284602F0BC
:10206000BFFF0121304603F039F80121284603F073
:1020700035F8164B22881A80154B3A881A8030465C
:1020800003F07FF82080284603F07BF8228811496E
:10209000388083B201A820F04FFE01A8FEF7A8F80F
:1020A0000A2382B201A90C4805F065FB322002F038
:1020B000DDFE012005F0CCFCCBE700BF502B00205B
:1020C000082B00201A000020180000201600002015
:1020D00014000020D24302082429002030B595B016
:1020E000102200210AA820F08CFE1422002103A84F
:1020F00020F087FE00241D4B01941A6C42F08052A0
:102100001A641B6C03F080530193019B184B0294DB
:102110001A6842F440421A601B6803F44043029379
:102120000122029B4FF48033CDE9082302254FF4AE
:102130008003CDE90E5308214FF4A873CDE91013A5
:1021400008A804231393129504F026F90F23CDE970
:1021500003354FF4A0504FF48053CDE90603052119
:1021600003A8059404F0F4FA15B030BD003802401D
:10217000007000402DE980489BB002F04BFEFFF755
:10218000ADFF142200210DA820F03BFE0024C84B17
:1021900000941A6BC748C84D42F010021A631A6BBC
:1021A00002F010020092009A01941A6B42F0200291
:1021B0001A631A6B02F020020192019A02941A6BC0
:1021C00042F080021A631A6B02F080020292029AB5
:1021D00003941A6B42F004021A631A6B02F00402B1
:1021E0000392039A04941A6B42F001021A631A6B69
:1021F00002F001020492049A05941A6B42F0020262
:102200001A631A6B02F002020592059A06941A6B81
:1022100042F040021A631A6B02F040020692069ADC
:1022200007941A6B42F008021A631B6B03F0080351
:10223000224607933C21079B03F088FA9F4801221E
:10224000022103F083FA22469C48042103F07EFA1F
:1022500022469B484FF4405103F078FA01263C2374
:10226000CDE90D3693480F9403230DA9022710934F
:1022700003F082F991480DA9CDE90D76CDE90F441F
:1022800003F07AF904238D480DA9CDE90D36CDE987
:102290000F4703F071F90DA94FF440538848CDE979
:1022A0000D36CDE90F4703F067F98648864B03608A
:1022B00003F058F8DFF838C2844B2C62C5E900C33C
:1022C00028464FF48043C5E90434C5E90244C5E912
:1022D000064403F049FC1021284603F08DFE2146F8
:1022E000284603F0A8FE7A4DDFF808E2AC624FF40E
:1022F0008273C5E900E34FF400781823C5E906832B
:1023000028460A23C5E90244C5E90444C5E908444E
:10231000EB6204F03DFD8F232246394667488DF875
:1023200024308DF8344003F011FA32464FF47A73BA
:1023300009A9284604F088FD4FF47A7332460DA9A6
:10234000284604F02DFF324639465C48614D03F0C3
:10235000FDF99DF83430D32B04BF5F4B1E705F4BEB
:102360000126C5E900364FF0100840230024C5E9D6
:1023700004834FF4C073C5E906344FF40063C5E924
:1023800008344FF4005302274FF0040A4FF0030BB8
:10239000AB620DA907232846CDE90D73CDE90FA344
:1023A0004FF00809C5E9024ACDE911B7139704F0C7
:1023B000D3FB4FF6FF7209A92846CDE90A96089487
:1023C00009960C9404F0E8FB304602F04FFD4FF6FE
:1023D000FF7209A92846CDE90979CDE90B6404F01B
:1023E000DBFB4FF6FF7209A92846CDE909B9CDE913
:1023F0000BA404F0D1FB4FF40C730893089B0C93CF
:102400004FF6FF7209A92846CDE909A90B9604F0F9
:10241000C3FB40F26A51284604F0DCFB342221461B
:102420000DEB020020F0EDFC2D4D2E4B2C61C5E98B
:1024300000340923C5E905361D23C5E9073B40F2F1
:102440000D1240F24313C5E9092340F2171140F27F
:1024500047132846C5E90B13C5E90244AC8685F845
:10246000364003F083FEFF21F022CDE912144FF035
:1024700005094FF480614FF4A073CDE90E24CDE936
:102480001419CDE916420DA922462846CDE9103788
:10249000154D18930D94ADF864408DF8664003F027
:1024A00030FF124B2B601B6898472B6824E000BF5D
:1024B00000380240001002406C2A00200008024050
:1024C000000C0240002B002000300240A0860100DA
:1024D0006C290020F0280020E0280020400100A006
:1024E000C429002000680140DC2800201C000020D6
:1024F000005C004000500140424DDB689847424B71
:102500002846C5E90034C5E90274C5E90A47C5E9AA
:102510000C4402F037FF3146284602F0E9FF3B4DFC
:102520003B4F424621460DA820F06BFC394B2C61F5
:102530004FF4003B4FF0007A2846C5E9003BC5F850
:1025400008A02C7685F82040EC62AF62EC60EE616A
:1025500085F830406E6102F09DFC0D230DA92846E0
:10256000CDE90D362C4D0F9402F00EFE4246214669
:102570000DA820F046FC294BC5F808A02846C5E95F
:10258000003BC5E90A742C612C7685F82040EC608C
:10259000EE6185F830406E6102F07CFC0DA92846A2
:1025A000CDE90D961E4D0F9402F0EEFD1D484FF43F
:1025B000E133C0E900530C23C0E90534C0E902440B
:1025C0000461C46105F0A8F8FEF736FDFEF733FD9F
:1025D00005F0C4F9144A1548214605F0F5F9144BE5
:1025E000144A18602146144805F0EEF9134B144ABA
:1025F00018602146134805F0E7F9134B186005F001
:10260000BFF9FEE7C02A002000B00240502B002096
:102610000100000F00200140082B00200021014094
:102620000010014024290020684D020841200008C4
:10263000EC280020444D020847100008E82800203C
:10264000204D02084D200008E42800207047704704
:102650007FB5094B8DF817201B6802930DF1170207
:102660000123009201930A460146044803F024FB2B
:1026700007B05DF804FB00BF100000206C2A0020AA
:102680007FB500238DF81730084B1B6802930A466C
:1026900001230DF11701009101930146044803F055
:1026A0009BFB9DF8170007B05DF804FB10000020AD
:1026B0006C2A00201FB5084C24680092CDE9013433
:1026C0000A4601230146054803F086FB003818BF7F
:1026D000012004B010BD00BF100000206C2A0020B3
:1026E00002F0C4BB10B5064C00222046042103F0C2
:1026F0002DF820460122BDE81040042103F026B841
:102700000008024038B50B4D044601220A484FF438
:10271000005103F01BF800220421284603F016F8AC
:102720002046FFF77BFC28460122BDE83840042103
:1027300003F00CB800080240000C024038B50B4D05
:10274000044600220A484FF4005102F0FFFF002225
:102750000421284602F0FAFF2046FFF75FFC2846D6
:102760000122BDE83840042102F0F0BF0008024019
:10277000000C0240F7B5144E144F05460C46304687
:102780000022042102F0E2FF00224FF400513846FB
:1027900002F0DCFF2846FFF741FC0D4B0D481B689B
:1027A000224601A904F0FCFC384601224FF40051F6
:1027B000019C02F0CBFF30460122042102F0C6FF4B
:1027C000204603B0F0BD00BF00080240000C0240EC
:1027D0000C0000206C29002002F048BB0268034B6B
:1027E0009A4201D102F030BB704700BF0010004098
:1027F0007047000082B00E4B00220092596C41F4E9
:1028000080415964596C01F4804100910099019212
:10281000196C41F0805119641B6C03F080530193D3
:10282000019B0F216FF0010002B002F05BBD00BF01
:102830000038024010B514228AB0044600210DEB86
:10284000020020F0DEFA2368214A93421FD1214B77
:102850002148002101915A6C42F480725A645A6CEA
:1028600002F480720192019A02911A6B42F0040202
:102870001A631B6B03F0040302930821029B0323DA
:10288000CDE9051305A902F077FE0AB010BD134A81
:102890009342FAD10F4B1248002103915A6C42F433
:1028A00000725A645A6C02F400720392039A049103
:1028B0001A6B42F001021A631B6B03F001030493CD
:1028C000049B20220323CDE9052305A9DBE700BFF4
:1028D0000020014000380240000802400021014071
:1028E000000002400268094B9A4282B00BD10023DB
:1028F0000193074B1A6B42F480521A631B6B03F46B
:1029000080530193019B02B0704700BF003002402A
:102910000038024007B50F4B02689A4216D10022D8
:10292000A3F5F0430192196B41F4000119631B6B8D
:1029300003F40003019305215A20019B02F0D2FC0D
:102940005A2003B05DF804EB02F0FEBC03B05DF862
:1029500004FB00BF00B002402DE9F043044689B0FB
:102960001422002103A820F04CFA2268244B9A423A
:1029700043D1244C244800250095236B43F00403E5
:102980002363236B03F004030093009B0195236BE7
:1029900043F001032363236B03F001030193019BC5
:1029A0004FF012094FF400734FF00108032704267B
:1029B00003A9CDE90339CDE90587079602F0DCFDCF
:1029C0004FF480731148079603A9CDE90339CDE987
:1029D000058702F0D1FD0295236C43F400032364C4
:1029E000236C03F400030293029B236A43F4000365
:1029F0002362236A23F40003236209B0BDE8F08355
:102A0000005C004000380240000802400000024024
:102A1000F0B599B004461422002107A820F0F1F97E
:102A200030220DEB0200002120F0EBF922685E4B12
:102A30009A4240F0B78008230C93C02310930423DC
:102A400012930CA84FF40033159303F059FF08B10B
:102A5000FFF7CEFE554B5648002400945A6C42F0C6
:102A600080625A645A6C02F080620092009A01946B
:102A70001A6B42F020021A631A6B02F020020192D4
:102A8000019A02941A6B42F001021A631A6B02F067
:102A900001020292029A03941A6B42F002021A6334
:102AA0001A6B02F002020392039A04941A6B42F02A
:102AB00040021A631A6B02F040020492049A0594D1
:102AC0001A6B42F004021A631A6B02F004020592B8
:102AD000059A06941A6B42F008021A631B6B03F006
:102AE0000803069302250E26069B0B964FF480637F
:102AF00007A9CDE90735CDE9094502F03DFD41F6CD
:102B000058032C480B9607A9CDE907350927CDE9CD
:102B1000094502F031FD032327480B9707A9CDE9AA
:102B20000735CDE9094502F027FD4FF470632248CF
:102B30000B9607A9CDE90735CDE9094502F01CFD43
:102B40004FF40C631D480B9607A9CDE90735CDE975
:102B5000094502F011FDC02319480B9607A9CDE9DC
:102B60000735CDE9094502F007FD082315480B9606
:102B700007A9CDE90735CDE9094502F0FDFC4FF481
:102B8000A0530E480B9707A9CDE90735CDE90945B4
:102B900002F0F2FC58202246052102F0A3FB582047
:102BA00002F0D2FB19B0F0BD0068014000380240CD
:102BB00000140240000002400004024000180240DD
:102BC00000080240000C024010B5044688B01422F0
:102BD000002103A820F015F92268144B9A4223D152
:102BE00003F56843002101915A6C114842F48012A8
:102BF0005A645A6C02F480120192019A02911A6B83
:102C000042F020021A631B6B03F020030293029B25
:102C10004FF4607202230321CDE903230523CDE99C
:102C2000061303A902F0A8FC08B010BD0050014033
:102C30000014024010B5044688B01422002103A8F5
:102C400020F0DFF82268144B9A4223D103F5943325
:102C5000002101915A6C114842F010025A645A6CDA
:102C600002F010020192019A02911A6B42F00102E5
:102C70001A631B6B03F001030293029B4FF4C062C3
:102C800002230321CDE903230723CDE9061303A97A
:102C900002F072FC08B010BD0010014000000240BC
:102CA0002DE9F04186B0002303932B4B1C68002CC8
:102CB0004FD14FF00108C3F80080284B00949A6B65
:102CC000274842EA08029A639B6B03EA08030093D1
:102CD000022703260C25009B01A94FF63F03CDE9EF
:102CE0000137CDE9046502F047FC1E48059501A9AE
:102CF000CDE90187CDE9034602F03EFC48F23313EB
:102D00001948059501A9CDE90137CDE9034602F03F
:102D100033FC4FF683731548059501A9CDE90137BA
:102D2000CDE9034602F028FC4CF2037310480595E8
:102D300001A9CDE90137CDE9034602F01DFC60236E
:102D40000C48059501A9CDE90137CDE9034602F00C
:102D500013FC06B0BDE8F081982B0020003802403B
:102D60000014024000080240001802400010024017
:102D7000000C02400004024070B588B000230293AA
:102D8000204B1A6C42F010021A641B6C03F0100303
:102D90000293054601A903A8029B03F093FD069B3D
:102DA0004BBB03F06FFD184E184B336040F2E73316
:102DB000F360174BB0FBF3F3013B73603046002325
:102DC0003361B360B36104F0BBFB044680B93046A5
:102DD00004F08CFA044658B9362002F0B5FA0F2DEB
:102DE0000DD822462946362002F07CFA094B1D6098
:102DF000204608B070BD03F045FD4000D3E7012434
:102E0000F6E700BF003802409C2B00200010004075
:102E100040420F00840000207047FEE7FEE7FEE717
:102E2000FEE77047014804F09FBA00BF9C2B0020CA
:102E3000014803F009BA00BFC4290020014802F08C
:102E4000CDBA00BFC02A00200120704708B520F08D
:102E5000D9F8162303604FF0FF3008BD08B520F005
:102E6000D1F816230360FEE770B50D4614460E46F2
:102E7000731B9C4201DC204670BDAFF3008006F856
:102E8000010BF5E770B50D4614460E46731B9C42C8
:102E900001DC204670BD16F8010BAFF30080F5E7AA
:102EA0004FF0FF3070474FF400534B6000207047E5
:102EB00001207047002070470A4A116808B5034690
:102EC00009B9094911601068694603448B4206D963
:102ED00020F098F80C2303604FF0FF3008BD13601A
:102EE000FCE700BFE42B0020D8470120704710B555
:102EF000042104461EF0F9FC204610BD012908B546
:102F000006D0022908D059B900F06CFE006808BD4F
:102F100000F068FE4068FAE700F064FE8068F6E7BB
:102F20000020F4E700487047A04D02080C207047CD
:102F300013B5002451B1036801948DF8034001AA30
:102F40009C680DF10303A04702B010BD0846FBE7E3
:102F5000C0897047008A7047C08870478088704772
:102F6000807A00F07F007047807AC00970470020A7
:102F7000704700009FED010A704700BF000000008D
:102F8000704710B5082104461EF0AFFC204610BD66
:102F90007047704700F598730868496803C3704725
:102FA000704770474160704770477047064BC0F8E4
:102FB0004C310023C0F8503100F5A273C0F848012D
:102FC000C0F84031704700BF6D3000080123037224
:102FD0007047704710B4C26841685410034601EB53
:102FE0006200D20748BF0A599B685DF8044B48BF8E
:102FF000D35818470346406830B19A681AB9D86860
:1030000000F0010070470120704710B50C21044604
:103010001EF06BFC204610BD10B5102104461EF0BA
:1030200064FC204610BD10B54FF4AE7104461EF08E
:103030005CFC204610BD10B50CF002FA0368BDE838
:103040001040DB6B184710B50446D0F8400158B16A
:103050000368DB68984738B1D4F8400103689B687F
:1030600098470023C4F8403110BD00002DE9F14F0E
:10307000D0E9556A0746B06803681B6A984741F271
:10308000D333984205D8444B444AA32144481FF007
:103090008FFC706803681B6A98470F2803D8414B60
:1030A0003E4AA421F2E7F06803681B6A98470B28A0
:1030B00003D83D4B394AA521E8E70CF0C1F9DFF808
:1030C000F09004300CF0E1F9D9F8000010B1036879
:1030D000DB689847D9F8000010B103681B6898476F
:1030E000DFF8D080D8F8000010B103685B6998471A
:1030F000D7F83C0110B103685B689847D8F8000026
:1031000010B103681B689847D7F83C0110B10368F9
:103110009B689847F068036800215B6A98474FF006
:10312000000B224BC0F804B0044680F808B00360DE
:10313000B068036859465B6A9847054600F0CAFDC7
:103140007068036859465B6A98472946064600F04E
:1031500093FD331DC7F83C61C9F80040C8F8005022
:10316000CAF800302B68C6F808A02846DB68EE6372
:103170009847336830461B689847214628460EF02A
:103180000FFB236820461B69984723685B6920462C
:1031900001B0BDE8F04F1847FF4302088D44020814
:1031A0005F450208A645020849460208144F020876
:1031B000DC3A0120D83A0120044B1B6893F85820D0
:1031C0000AB1D86C00B99868704700BF943A0120E2
:1031D000F8B5174604460E460CF0F4F9124B1C6085
:1031E000124B2360124B0025C4E95135114BC4E941
:1031F00053551868036801219B68C4E94F55C4E919
:1032000055769847284600F0A1FCFFF7D5FF16F049
:1032100088FAFFF7D1FF16F0FFFAFFF7CDFF16F09F
:1032200007FB2046F8BD00BFE83A0120C04E020867
:10323000A84E0208943A0120064BC0F84C310023F6
:10324000C0F8503100F5A273C0F84801C0F8403111
:10325000704700BF6D300008406A7047806A704751
:1032600070478A880B8810B5D20A4C88C1699BB216
:1032700051F8220043EA0443184410BD10B5044637
:10328000BAB1107B68B1537BD27A1B0203F4E063BE
:103290001A43236A03EB82031A888A4202D193F904
:1032A000020010BD05D8013880B204330028F3D1E4
:1032B000F7E70020F5E710B52C2104461EF015FBBA
:1032C000204610BD30B58BB00446BDF8605008955F
:1032D000BDF85C5007959DF8505006959DF84C50F0
:1032E00005959DF8485004959DF8445003959DF828
:1032F000405002959DF83C500195BDF8385000951E
:103300000DF0A8FE064B2360159BE361169B23621C
:10331000199B63621A9BA36220460BB030BD00BFAD
:10332000384F0208806A704770477047704770478F
:10333000704730B5036885B06D460181D3F884309D
:10334000014604462846984795E807003C3484E83F
:10335000070005B030BD30B5036885B06D464181CA
:10336000D3F88430014604462846984795E807007C
:103370003C3484E8070005B030BD00220280428062
:103380008280C280704780F83610704770B503683D
:1033900004461B6B154698472368294620465B6EFA
:1033A000BDE87040184700207047806C7047704738
:1033B0007047704770477047704730B4C2684468C0
:1033C0005510034604EB6200D20748BF62599B6860
:1033D00030BC48BFD35818470346406830B19A689C
:1033E0001AB9D86800F0010070470120704790F8C2
:1033F0002D3080F85C3070470146343091F82C3025
:1034000013B1623109F021BC6031FBE710B56421D2
:1034100004461EF06AFA204610BD10B54C21044641
:103420001EF063FA204610BD10B5102104461EF0B0
:103430005CFA204610BD10B54FF40A7104461EF028
:1034400054FA204610BD08B5FEF7F2FC08BD10B5D1
:103450000446006B50B10368DB68984730B1206BBD
:10346000036821469B68BDE81040184710BD00F571
:103470008E728A4202D10368DB6A184770470B7963
:1034800070B590F82C6004460D460BB916B170BDAE
:10349000002EFCD0B3FA83F35B0984F82C30236848
:1034A0002046D3F88C309847236820465B699847BC
:1034B000002EECD02B79012BE9D123682046D3F8DC
:1034C0008830BDE870401847036870B55E6B124BDA
:1034D0001B6804468DB22BB9104B114A6C21114860
:1034E0001FF066FA1049828D0988914203D80F4B6C
:1034F0000B4A6D21F3E713F812200D4B1B6853F8AC
:10350000220003681B6B9847291A3346204609B2EC
:10351000BDE87040184700BFEC3A0120EC460208B5
:103520002E47020869470208F03A0120B047020816
:10353000F43A012000224FF0FF31C0E900218260FF
:10354000704770B5036804461B6B1546984723689F
:10355000294620465B6BBDE87040184770B503688C
:1035600004469B6B15469847236829462046DB6B2B
:10357000BDE8704018470B8870B5A0F8603005466C
:10358000138825F8623F044628460FF02FF90646B7
:1035900028460FF05FF9314602462046FFF7DEFF6E
:1035A00023682046D3F88C30BDE8704018470000EF
:1035B0000022C0E90122C0E90322C0E90522C0E9D6
:1035C00007224FF480728284014A0260704700BF74
:1035D000A04F020838B5262204460D4600211FF0F0
:1035E00010FC2046FFF7E4FF064B23602B88E384A2
:1035F000FF23204684F82830294609F026FB204680
:1036000038BD00BFE854020810B526220446002148
:103610001FF0F7FB2046FFF7CBFF0A4BA3624FF6E4
:10362000FF73A3854FF47F020023C4E90C32064ADE
:10363000226023874FF0FF32C4E91023E363A364C1
:10364000204610BD984E020808500208F7B54FF406
:103650007F430646838540F2011300258384134B84
:103660008562C0E90155C0E90355C0E90555C0E9C7
:103670000755056346F8343B04464FF6FF7701A92A
:103680003046ADF80470FFF7A5FF2A4629463046BC
:10369000A4F86070A4F86270FFF753FF204631462B
:1036A00006F07EFA204603B0F0BD00BF9850020835
:1036B0002DE9F04F04468DB0274600250DF0C4FEDD
:1036C000884BE56347F8403B2622294638461FF0E1
:1036D00098FB3846FFF76CFF834B236404F16C0BB7
:1036E000FF234FF6FF7684F866300AA9A566584690
:1036F000ADF82860FFF76EFF04F198030AA9184699
:103700000193ADF82860FFF765FF04F1C4030AA92F
:1037100018460293ADF82860FFF75CFF04F1F00350
:1037200004F58E7A0AA91846039304F5C079ADF81A
:103730002860FFF74FFF5046FFF788FF04F5E67853
:103740004846FFF761FF4046FFF75EFF674BC4E95D
:103750008634674B2A46C4E9883529463846FFF740
:10376000F0FE4FF4A0723846F021FFF7F7FE261D59
:103770004FF07F43A3663946304606F011FA2A46D9
:1037800029465846FFF7DDFE0AA95846ADF82850ED
:1037900009F05BFA5946304606F002FA2A460198CB
:1037A000DFF850B12946FFF7CCFE01270198ADF8AC
:1037B00028700AA909F049FA0199304606F0F0F993
:1037C00002982A462946FFF7BCFE02220298ADF86D
:1037D00028200AA909F039FA0299304606F0E0F9E2
:1037E00003982A462946FFF7ACFE03220398ADF85A
:1037F00028200AA909F029FA0399304606F0D0F9E1
:103800000522ADF824200922ADF8282009A90AAA2A
:103810005046FFF7B0FE2A46294604F5A870FFF788
:1038200090FE04F50672C4F84C215046C8225A2175
:10383000FFF787FE3C2211465046FFF78FFE5146A8
:10384000304606F0ADF948466A224A21FFF779FE74
:10385000D4F88021A4F8B4514FF07F430DF1100A41
:10386000C4F8B03149465046D2F8842090479AE8CF
:10387000070004F5DE7C8CE807000AA94846CDF86D
:1038800028B0ADF82C7009F019F94946304606F019
:1038900087F98C2240464A21FFF753FE4FF07F43C1
:1038A000C4F8FC31D4F8CC31A4F80052414650465B
:1038B000D3F8843098479AE8070004F5027383E848
:1038C00007000AA94046CDF828B0ADF82C5009F001
:1038D000F5F83046414606F063F920460DB0BDE8E4
:1038E000F08F00BF5051020880540208385102087E
:1038F0006F340008984E02087047000030B5164D2E
:103900002C6814F001048FB0BFF35B8F20D12846E0
:103910001DF0EDFFE0B13F230993104B0893104BCE
:10392000104911480A940122CDE906430423CDE948
:1039300003320A230093CDE90B44CDE901440594F9
:10394000FFF7C0FC09481FF051F828461DF0DBFFC7
:1039500005480FB030BD00BFE82B00206C5F0208A7
:10396000785F02083C5F0208EC2B0020F938000861
:103970007047000030B5164D2C6814F001048FB06C
:10398000BFF35B8F20D128461DF0B1FFE0B13F238C
:103990000993104B0893104B104911480A940122C7
:1039A000CDE906430423CDE9033214230093CDE986
:1039B0000B44CDE901440594FFF784FC09481FF04E
:1039C00015F828461DF09FFF05480FB030BD00BF19
:1039D000182C0020705F02087C5F02084C5F020810
:1039E0001C2C0020713900087047000030B5164DBE
:1039F0002C6814F001048FB0BFF35B8F20D12846F0
:103A00001DF075FFE0B13F230993104B0893104B55
:103A1000104911480A940122CDE906430423CDE957
:103A2000033228230093CDE90B44CDE901440594EA
:103A3000FFF748FC09481EF0D9FF28461DF063FF38
:103A400005480FB030BD00BF482C0020745F02084D
:103A5000805F02085C5F02084C2C0020E9390008F6
:103A600000207047002070470EB403B503AB00215F
:103A700053F8042B01930CF06BFD02B05DF804EBDE
:103A800003B070470CB407B504AB53F8042B019393
:103A90000CF05EFD03B05DF804EB02B0704700006F
:103AA000436C10B5044673B3038F2BB9184B194AF6
:103AB000C52119481EF07CFFC38E00EB43035B8CCD
:103AC0000BB30EF0ACFB238F012B03D8134B144A1E
:103AD000CB21EEE7E28E531C9BB2092B194688BF1F
:103AE000A3F10A0104EB410140F63F10498C8142E9
:103AF00009D10A2B04EB420228BF002304EB430345
:103B0000508C588451842046BDE810400EF08ABA8B
:103B1000EE470208F7470208A2480208EC480208EC
:103B2000FA4802080EF045BA10B586B002AC84E837
:103B300006001A460AAB05930193099B00932146A0
:103B4000089B0BF01BF806B010BD000038B518BB81
:103B5000124B13481C681349B4B122682244026016
:103B6000626822440A60A26814440F4B00221A8043
:103B700000F038F8054600F033F80C4B1C600C4B95
:103B80001D600C4B188007E00B4B03600B4B0B6068
:103B90000B4B1C68002CE8D138BD00BF842C0020E2
:103BA0007C2C0020782C0020802C0020EC3A012076
:103BB000F43A0120F03A01208C5F0208845F020889
:103BC000905F0208044B1B6853F82100034B1B68ED
:103BD00003EB4000704700BF782C00207C2C0020B5
:103BE0000220704700487047882C002010B5FFF76E
:103BF000C1FE044C2060FFF7F9FE6060FFF77EFE17
:103C0000A06010BD882C002010B5002404600C605A
:103C100014601C6010BD704710B54FF4AE710446BF
:103C20001DF063FE204610BD10B50446D0F85801C3
:103C300000F013F82046BDE810400BF083BC0000F4
:103C400010B50446FFF7C4FA014B2360204610BDAF
:103C5000885102080022026070477047704704389C
:103C60007047704710B5102104461DF03EFE2046F7
:103C700010BDA0F10400F5E700228260024A026054
:103C800018324260C1607047DC5102087047000082
:103C900038B5094B0360044641F28415B5F5037F3E
:103CA00005D0635960191B6898472C3DF6E72046FC
:103CB000FFF781FB204638BD0452020810B50446C8
:103CC000FFF7E6FF204641F2D4311DF00EFE2046FC
:103CD00010BD00002DE9F3410746FFF7E9FC354B25
:103CE0003B6007F58D561E23C7F8283207F50E7482
:103CF00010364FF6FF7504F5C678204601A92C341E
:103D0000ADF80450FFF766FC4445F6D1B442F2D159
:103D100007F5975001A90C30274CADF80450FFF778
:103D200059FC07F5985001A91830ADF80450FFF779
:103D300051FC2068616807F59B5303C304F10C062E
:103D4000A06818600FCE07F5805C0CF55C750FC598
:103D50000FCE0FC596E80F003C3485E80F000FCC5E
:103D600007F59D550FC50FCC0FC594E80F0085E8EA
:103D70000F00FA23CCF8D0330423CCF8E8320F4BF1
:103D8000C7F82C320323CCF86C330D4BC7F8343210
:103D90000C4BCCF84C330C4BCCF850334FF08043E9
:103DA000CCF85C33384600238CF8443302B0BDE8CD
:103DB000F08100BF04520208583E02088FC2F53C51
:103DC00015CD5B070000D64200008C432DE9F74F6C
:103DD00000F58D56074600F596580F36002515F06C
:103DE000010F4FF4C6730CBF4FF0080B4FF0090BD7
:103DF00003FB0574B2464FF000091AF8013FA3B166
:103E0000D8ED007AD4F83832B4F93C129B6DFDEE4F
:103E1000E77A04F50E7017EE902A019012B29847D7
:103E2000D4F8383201985B69984709F10109D945FE
:103E300004F12C04E1DB01350A2D08F1040806F138
:103E40000906CCD103B0BDE8F08F90ED8B7A00F578
:103E5000965300F597500830D3ED007A77EE877AC5
:103E6000E3EC017A8342F7D1704700002DE9F04777
:103E700000F5805A2DED048B9AF84433012B0DD0B8
:103E8000022B75D033B9534B1B88872B02D90123E2
:103E90008AF84433BDEC048BBDE8F0874D4B1B889A
:103EA000783B9BB20F2BF5D84B4B1B88783B9BB2D2
:103EB0000F2BEFD802238AF84433484BDFED487AC2
:103EC0001B8808EE903A474B1B88F8EEE88A08EE0C
:103ED000103A78EEE78AB8EEC88A38EE678AF1EED3
:103EE000687A17EE900AFCF73FFB68EE087A064600
:103EF000E8EEA87A0F4617EE900AFCF735FB41EC86
:103F0000190BB0EE490AF0EE690A1DF016FDDAF859
:103F10005C0359EC108BFCF727FB424604460D4628
:103F20004B4630463946FCF7A1FC22462B46FCF7AF
:103F300073FBFCF721FEB0EE490AF0EE690ACAF8FD
:103F400054031DF0FAFCF1EE487A57EC106B17EEB3
:103F5000900AFCF709FB32463B46FCF787FC2246F9
:103F60002B46FCF759FBFCF707FECAF8580391E70C
:103F70009AEDD38A18EE100AFCF7F6FA1A4B0022D3
:103F800004460D46FCF792F9184B0022FCF7CAFDD7
:103F900050B9154B002220462946FCF785F900222E
:103FA0000023FCF7B5FD28B1DAEDD57AF1EE677A9A
:103FB000CAEDD57ADAEDD57A9AEDD67A77EE887AA7
:103FC000CAEDD37ADAEDD47A77EE877ACAEDD47A6D
:103FD00060E700BF180000201A0000201600002033
:103FE0000000FF421400002000002A4000006E4044
:103FF00038B500F580542DED028B94EDD30A00F511
:1040000097551DF04BFEB0EE408A94EDD40A1DF09A
:1040100045FEBDEEC00ABDEEC88A10EE103A1AB2D7
:1040200018EE103A0C35284619B2FDF754FEBDECD7
:10403000028B2846BDE838400CF0B4BB31EE426A32
:1040400070EEE27A31EEE27A70EE426A67EEC67A9C
:1040500032EE432AE6EE877A88B030EE437AF5EE08
:10406000C07A70EEE37A72EEE32A67EEC27AF1EE7E
:1040700010FAE7EE227A4CBF01230023F5EEC07A56
:10408000F1EE10FA4CBF01220022934217D130EE1C
:10409000410A73EEE13A70EEE10A33EE413A20EE66
:1040A000230AA3EE600AB5EEC00AF1EE10FA4CBF87
:1040B00001200020C31A5842584108B07047002020
:1040C000FBE700002DE9F04F01F5805A2DED068B3E
:1040D000DAEDD4AADAF8E8728BB005461AEE900A47
:1040E0000C46FCF741FA00227E4BFCF7DDF807F5A1
:1040F000966304EB8303804618688946FCF734FA1C
:10410000784B0022FCF7D2F802460B46404649465F
:10411000FCF712FD48B14FF0FF33C5E900332846E4
:104120000BB0BDEC068BBDE8F08F6FF02A03634344
:104130000193B946F2EE0A8AF2EE0D9A09EBC90133
:1041400009F0010601F58D5106F108030F3109F55B
:104150009668009321444FF0000B04EB880811F897
:10416000010F002800F0AE802C2303FB01F0A0F526
:1041700042300438019BD8ED005AC35E9AEDD34A11
:10418000CDED055A01EE103AB8EEC11A35EEA95A36
:1041900034EE68AA7AEEE94A31EE688A31EE289A5E
:1041A000F0EE453AB0EE493AB0EE482AF0EE452A34
:1041B000F0EE651AB0EE4A0AF0EE640A20468DED84
:1041C00002AACDED034A8DED041A8DED095AFFF7D1
:1041D00035FF90B109F101030A2193FBF1F001FBD6
:1041E000103916B90BF1010B04E0BBF1080F08BF41
:1041F0004FF0070BC5E9009B91E775EEE95AB0EE69
:10420000493AF0EE453AB0EE492AF0EE652AB0EEB2
:104210004A0AF0EE640A2046FFF710FF80B1009BC7
:10422000082B0CBF072108218B45DBD109F10103C5
:104230000A22C6F1080B93FBF2F102FB1139D9E710
:1042400034EE284AB0EE483AF0EE453AB0EE492A4C
:10425000F0EE452AB0EE440AF0EE640A20468DEDF9
:10426000088AFFF7EBFE70B109F101030A2193FB05
:10427000F1F001FB1039002EBCD0BBF1000FB9D01A
:104280000BF1FF3BB6E7B0EE483AF0EE453AB0EE40
:10429000482AF0EE652AB0EE440AF0EE640A2046A1
:1042A0008DED068ACDED075AFFF7C8FE50B1BBF180
:1042B000000FE5D109F101030A2193FBF1F001FBA5
:1042C000103997E7009B0BF1010B5B453FF747AFB8
:1042D000B9F101024CBF09F1090991464F457FF43C
:1042E0002DAF18E700002D4013B500F5805400F500
:1042F0009750B4F84833ADF8043001A90C3008F0F9
:10430000A4FC002384F84433034BC4F84C33034B20
:10431000C4F8503302B010BD0000D64200008C43F8
:10432000D0F834120246054843F2390300FB01334A
:1043300023F00040C2F83402704700BF6D4EC64102
:1043400010B50446FFF7ECFF04F58053D3F86C3347
:10435000B0FBF3F202FB130303F51B6334F8130005
:1043600010BD13B50446FFF7EBFF04F58053ADF81D
:104370000400A3F8480304F5985001A9183008F088
:1043800064FC02B010BDD0E9B43293421FBF0133C8
:104390005A2293FBF2F102FB11331ABFC0F8D0325C
:1043A000012000207047D0F8D432D0F8D0025A2231
:1043B000013393FBF2F102FB11331B1A58425841AF
:1043C000704737B56D4685E806000446FFF7EBFFFA
:1043D00090B9D4F8D4325A22013393FBF2F102FBA4
:1043E000113395E80300C4F8D43204EBC30484E825
:1043F0000300012003B030BD0020FBE72DE9F04FA2
:10440000ADF25C6D0DF110082C2388E8060016460D
:1044100053434FF4C672044602FB013303F50E709A
:10442000234404F58059D3F83832B9F846231B6E7B
:10443000ADF88023E0AF0D4620443946984705EBA0
:10444000C502A318334441F2B01001211954D9F820
:10445000E8324FF00A0C591891FBFCFE0CFB1E11C0
:10446000A94224D1024415F0010F04EB02014FF0E0
:1044700000020CBF4FF0080C4FF0090C104696429A
:1044800018BF885401326245F9DB03F5966304EBEB
:104490008303D3ED007AB3EE0D7A77EE877A05F5D4
:1044A000966204EB8202C2ED007AC9F8E852002657
:1044B0005A223146C7E9B46615A81EF0A2FC98E856
:1044C00006003846FFF77DFF0DF1B00AD346D7E965
:1044D000B43293421FD10022504641F2B015174624
:1044E000964200F1080040F09A80022E0FDD002273
:1044F00041F2B0101546DAE9003103EBC30323445F
:104500000B44013296421D540AF1080AF3D10DF210
:104510005C6DBDE8F08F57F83320CBF8002007EB37
:10452000C30338465B680293029BCBF804300192C8
:10453000FFF729FF019B13F0010F06F1010604F5B7
:104540009D535CD104F59B5210320DF1240C106880
:104550005168654603C508329A42AC46F7D10DF161
:104560002408D8F80050019B5D1954D50A35D8F8B5
:104570000430029A02EB030905F001030833994560
:1045800035D205EBC503E2184A4441F2B011525C42
:104590006AB315AA1A44039212F809203ABB4B4495
:1045A00003F6041304EB430304F580525988B2F870
:1045B000463399421BD105F5966304EB83031868D3
:1045C000FBF7D2FF1A4B0022FBF770FE00220023FC
:1045D000FCF7B2FA58B1CDE9075907AB93E80600EA
:1045E000E0A8FFF7EEFE039A012302F8093008F174
:1045F000080815AB9845B4D10BF1080B67E709AD76
:1046000003F1300C186859682A4603C20833634521
:104610001546F7D1A3E7092DC8BF0A3DA7E750E922
:10462000023103EBC30323440B4401325F5557E7C8
:1046300000002D40F7B5044603F0C3F9D4F8283242
:10464000B0FBF3F503F0B6F9D4F83032C01AA84243
:104650004AD904F58055D5F8E83203F5966304EBA2
:1046600083031868FBF780FF204B0022FBF71EFE38
:104670000646D5F8D0030F46FBF764FF02460B460B
:1046800030463946FCF758FA70BB2046FFF7DDFB91
:104690002046FFF7EBFB95F84433022B15D16D460E
:1046A00021462846FFF70EFD009B01330DD0019BEC
:1046B00001330AD095E806002046FFF79FFE20460A
:1046C000FFF712FE2046FFF74CFE2046FFF77EFB69
:1046D0002046FFF78DFC04F5985018300CF062F876
:1046E00003F068F9C4F8300203B0F0BD00002D40BB
:1046F0002DE9F04F3C4A00F5805387B0121AD3F8E9
:10470000E852029206464FF0FF34621C03BFD3F812
:10471000E8221D214A431D3C0CBF07EE902A07EEFC
:10472000904A05F00102F8EEE77A06EB850A002AC6
:104730000AF5805A0CBF10220322CAEDB07A05EBAD
:10474000C507FDEEE77A019207F58D570CBF0822E9
:10475000092200920F374FF4C67217EE904A02FBFF
:10476000056937444FF0000830460393FFF7E8FD32
:10477000029BD9F8382223F8170009F50E7B126E38
:10478000ADF8140005A958469047DAEDB07A019BC0
:10479000FDEEE77A08EB480108EB810103EB4101EC
:1047A00017EE903A09B21AB25846FEF7CAFE4FF019
:1047B000010307F8013F5946301D05F0F1F9009B50
:1047C00008F10108984509F12C09039BCCD16A1E18
:1047D00058BF1546D3F8E82248BF0935AA4294D1FC
:1047E00007B0BDE8F08F00BFACEEFFFF70B52DED58
:1047F000028B82B00446FFF7A3FD04F5805604F552
:1048000097550C3501A9A6F84603ADF804002846D3
:1048100008F01BFA96EDD30A1DF040FAB0EE408A7C
:1048200096EDD40A1DF03AFABDEEC00ABDEEC88A74
:1048300010EE103A1AB218EE103A284619B2FEF7E6
:1048400080FE2946201D02B0BDEC028BBDE8704001
:1048500005F0A6B937B50446FFF772FD04F5985583
:1048600004F580531835A3F84803ADF8040001A9F6
:10487000284608F0EAF928464FF48C720A21FEF720
:1048800060FE2946201D03B0BDE8304005F088B920
:1048900010B50446FEF790FD2046FFF729FF20469D
:1048A000FFF7A4FF2046FFF7D5FF002384F841312E
:1048B00003F080F8C4F8300210BDF02070474FF4C8
:1048C000A07070472920FDF739BF2820FDF736BFBB
:1048D00008B5FDF707FFCA20FDF730FFC320FDF73D
:1048E00011FF0820FDF70EFF5020FDF70BFFCF2032
:1048F000FDF724FF0020FDF705FFC120FDF702FFB3
:104900003020FDF7FFFEED20FDF718FF6420FDF7D6
:10491000F9FE0320FDF7F6FE1220FDF7F3FE8120DD
:10492000FDF7F0FEE820FDF709FF8520FDF7EAFE20
:104930000020FDF7E7FE7820FDF7E4FECB20FDF731
:10494000FDFE3920FDF7DEFE2C20FDF7DBFE00200A
:10495000FDF7D8FE3420FDF7D5FE0220FDF7D2FE8C
:10496000F720FDF7EBFE2020FDF7CCFEEA20FDF757
:10497000E5FE0020FDF7C6FE0020FDF7C3FEB120D6
:10498000FDF7DCFE0020FDF7BDFE1B20FDF7BAFEA3
:10499000B620FDF7D3FE0A20FDF7B4FEA220FDF7F6
:1049A000B1FEC020FDF7CAFE1020FDF7ABFEC1200E
:1049B000FDF7C4FE1020FDF7A5FEC520FDF7BEFEE5
:1049C0004520FDF79FFE1520FDF79CFEC720FDF753
:1049D000B5FE9020FDF796FE3620FDF7AFFEC8200D
:1049E000FDF790FEF220FDF7A9FE0020FDF78AFEFC
:1049F000B020FDF7A3FEC220FDF784FEB620FDF730
:104A00009DFE0A20FDF77EFEA720FDF77BFE2720F6
:104A1000FDF778FE0420FDF775FE2A20FDF78EFED7
:104A20000020FDF76FFE0020FDF76CFE0020FDF773
:104A300069FEEF20FDF766FE2B20FDF77FFE0020CC
:104A4000FDF760FE0020FDF75DFE0120FDF75AFE38
:104A50003F20FDF757FEF620FDF770FE0120FDF721
:104A600051FE0020FDF74EFE0620FDF74BFE2C20E8
:104A7000FDF764FEC820FDF7AFFE2620FDF75EFEC1
:104A80000120FDF73FFEE020FDF758FE0F20FDF767
:104A900039FE2920FDF736FE2420FDF733FE0C20D9
:104AA000FDF730FE0E20FDF72DFE0920FDF72AFE52
:104AB0004E20FDF727FE7820FDF724FE3C20FDF771
:104AC00021FE0920FDF71EFE1320FDF71BFE052029
:104AD000FDF718FE1720FDF715FE1120FDF712FE59
:104AE0000020FDF70FFEE120FDF728FE0020FDF776
:104AF00009FE1620FDF706FE1B20FDF703FE04202D
:104B0000FDF700FE1120FDF7FDFD0720FDF7FAFD82
:104B10003120FDF7F7FD3320FDF7F4FD4220FDF7CE
:104B2000F1FD0520FDF7EEFD0C20FDF7EBFD0A2061
:104B3000FDF7E8FD2820FDF7E5FD2F20FDF7E2FD5C
:104B40000F20FDF7DFFD1120FDF7F8FDC820FDF770
:104B500043FE2920FDF7F2FDBDE808402C20FDF7BB
:104B6000EDBD08B5FDF7BEFD0321D320FDF702FE24
:104B700080B208BD10B5C4B2022203212046FDF761
:104B800067FD0A20FDF7ACFD204600220321FDF75A
:104B90005FFDBDE810400220FDF7A2BD38B5044618
:104BA000E4B2FDF753FD00212046FDF769FD012128
:104BB00005462046FDF764FD40EA052080B238BD79
:104BC00010B5C4B240212046FDF75AFD030607D5B3
:104BD0004C212046FDF754FD003818BF012010BDC0
:104BE00001224B212046FDF733FD204600224B21B8
:104BF000FDF72EFD0020F2E773B50423C4B20E4684
:104C00001546D7210DEB03022046FDF753FD019B0E
:104C10001BBA1A0DC3F30B23328020462B800122CE
:104C20004B21FDF715FD00224B212046FDF710FD1D
:104C300002B070BD10B50A4A1378984204460DD0F0
:104C4000517888420AD00BB141B90123D454FDF701
:104C5000FDFC2046BDE81040FFF78CBF10BD00BF33
:104C6000942C002010B5C4B209212046FDF708FDA0
:104C700040F00102D2B220460921BDE81040FDF704
:104C8000E7BC10B5C4B209212046FDF7F9FC0921A3
:104C900000F0FE022046BDE81040FDF7D9BC38B553
:104CA000C4B20D4620460A21FDF7EAFC40EA05029F
:104CB000D2B220460A21BDE83840FDF7C9BC10B584
:104CC0000446FDF7C4FC20461F21FFF7E8FF2046FD
:104CD000BDE81040FFF7C6BF38B5C4B20D46204648
:104CE0000A21FDF7CDFC20EA0502D2B220460A21B6
:104CF000BDE83840FDF7ACBC10B50446FFF7C1FF76
:104D000020461F21BDE81040FFF7E6BF10B5C0B236
:104D10000C460B21FDF7B4FC204010BD1F21FFF70E
:104D2000F5BF0A46C0B20B21FDF792BC1F21FFF769
:104D3000F8BF38B5C4B20D4620461721FDF7A0FCD8
:104D400020EA0502D2B220461721BDE83840FDF71F
:104D50007FBC70B5C4B2064604212046FDF790FC26
:104D6000042100F0FB0205462046FDF771FC3046A9
:104D7000F021FFF7DEFF05F0F80220460421FDF7E1
:104D800067FC492220212046FDF762FC0220FDF746
:104D9000A7FC204601222121FDF75AFC20469A2239
:104DA0004121FDF755FC204601224A21FDF750FC28
:104DB000204601224B21FDF74BFC204600224B21CF
:104DC000FDF746FC204601225621FDF741FC204616
:104DD00001225821FDF73CFC204601224021FDF72D
:104DE00037FC2046FF220B21FDF732FCBDE8704066
:104DF0000220FDF775BC0000054BD3F8882042F473
:104E00007002C3F888204FF000629A60704700BFBC
:104E100000ED00E008B50B4B1A6842F400721A600E
:104E20001A6842F480621A601A6842F480721A604A
:104E3000032000F045FA0020FDF79EFFFDF7DAFCA5
:104E4000002008BD003C0240034A044B11681B7857
:104E50000B441360704700BF982C00208000002096
:104E6000014B1868704700BF982C002038B50446E5
:104E7000FFF7F6FF631C1CBF054B1B78054618BFE8
:104E8000E418FFF7EDFF431BA342FAD338BD00BF80
:104E90008000002038B50446002800F09B80056C97
:104EA00025B9FDF7C7FC656484F83C50236CDB062C
:104EB00000F18E80236C23F4885323F0020343F027
:104EC00002032364444B5A6822F440325A605A6801
:104ED00061680A435A60236821695A6822F4807223
:104EE0005A605A6842EA01225A605A68A16822F060
:104EF00040725A605A680A435A609A68E16822F41C
:104F000000629A609A680A439A603449A26A8A42A7
:104F100052D0996821F07061996099680A439A604B
:104F20009A68E16A22F040529A609A680A439A604D
:104F30009A6822F002029A609A68217E42EA41024F
:104F40009A6094F82020002A3ED05A68616A42F4A0
:104F500000625A605A6822F460425A605A68013905
:104F600042EA41325A60DA6AE16922F47002DA6296
:104F7000DA6A013942EA0152DA629A6822F400726E
:104F80009A609A6894F8301042EA41229A609A68CE
:104F9000616922F480629A609A68002042EA812264
:104FA0009A606064236C23F0030343F001032364DD
:104FB000002384F83C3038BD9A6822F070629A6011
:104FC0009A6822F04052B2E75A6822F40062C9E7B8
:104FD0000120EDE70120EEE7002301400100000F72
:104FE00082B00023019390F83C30012B69D001235B
:104FF00080F83C3003689A68D2070BD59A68D107CD
:105000001AD4036C43F010030364436C43F00103B0
:1050100043644CE09A682C4942F001029A602B4AA2
:105020001268B2FBF1F202EB42020192019A002AED
:10503000E4D0019A013AF8E7026C22F4E06222F02F
:10504000010242F4807202645A68520541BF026C48
:1050500022F4405242F480520264026C12F48052F4
:105060001CBF426C22F006024264002280F83C2001
:105070006FF022021A60164A516811F01F0F15498D
:105080001CD18B4207D001F580718B420CD1526844
:1050900012F01F0F0BD19A6812F0405F07D19A6887
:1050A00042F080429A6002E00B498B4202D000201D
:1050B00002B07047526812F0100FEBE78B42F6D146
:1050C000E9E70220F4E700BF40420F007C00002027
:1050D00000230140002001400022014003689A683B
:1050E000520570B504460D460BD59B68DE0508D504
:1050F000036C43F020030364002380F83C3001205C
:1051000070BDFFF7ADFE064623681A6891070CD5FF
:105110006FF012021A60226C42F4007222649A68E4
:1051200012F0405F17D00020EAE7681CEDD065B9A7
:1051300023681B6813F00203E6D1226C84F83C302C
:1051400042F0040222640320DAE7FFF789FE801BA5
:10515000A842EDD8D8E7227E002AE4D1DA6A12F418
:10516000700F02D09B685A05DDD4236C23F4807342
:105170002364236CDB04D6D4236C43F00103236443
:10518000D1E70368D86C7047F7B50023019390F816
:105190003C30012B054600F08680012380F83C302E
:1051A00008682B688E68092884B233D904EB44025E
:1051B000DF681E3A4FF0070C0CFA02FC27EA0C07D6
:1051C000DF60DF6806FA02F23A43DA6049680629CE
:1051D00001EB81022DD8596B053A1F26964021EA32
:1051E00006015963596B04FA02F20A435A632F4AC3
:1051F00093420AD1122837D12D4B5A6822F400026B
:105200005A605A6842F480025A60002085F83C00D7
:1052100003B0F0BD1A6900EB400C072707FA0CF742
:1052200022EA07021A611A6906FA0CF616431E6191
:10523000CCE70C294FF01F010BD81E6B233A91408D
:1052400026EA01011963196B04FA02F20A431A6390
:10525000CDE7DE6A413A914026EA0101D962D96A76
:1052600094400C43DC62C2E7124B984201D01128F3
:10527000CBD10F4B5A6822F480025A605A6842F42C
:1052800000025A600B4B9842BFD10B4B0B4A1B6874
:10529000B3FBF2F30A2253430193019B002BB4D0DA
:1052A000019B013BF8E70220B2E700BF002001406C
:1052B00000230140120000107C00002040420F003B
:1052C0000749CA6822F4E0620302120403F4E063AF
:1052D000120C134343F0BF6343F40033CB607047B9
:1052E00000ED00E0164B30B5DC68C4F30224C4F1D5
:1052F0000703251D042B28BF0423062D4FF0FF357F
:105300008CBF033C002405FA03F321EA0303A54004
:1053100022EA0502A340002843EA0203ACBF00F1E1
:105320006040084A4FEA0313B8BF00F00F00DBB239
:10533000AABF00F56140135480F8003330BD00BFB0
:1053400000ED00E014ED00E0002807DB044A41090D
:10535000012300F01F00834042F82130704700BF56
:1053600000E100E010B5044650B1437903F0FF02BC
:1053700013B90271FDF7B6FA01236371002010BD65
:105380000120FCE710B5044620B390F8393003F053
:10539000FF021BB980F83820FDF7BCFA022384F81D
:1053A0003930236861681A6822F440320A431A606F
:1053B0005A6BA16822F007020A435A631A6CE1682B
:1053C0006FF30D020A431A6400200123E06384F89E
:1053D000393010BD0120FCE770477047036870B595
:1053E0005E681D68F207044614D5E90512D51A68EF
:1053F00022F480721A60C26B42F00102C263012281
:105400009A60042380F83930002380F838304369EB
:1054100003B19847B20616D5AB0414D523681A68B1
:1054200022F400521A6020229A60E36B43F00203D8
:10543000E363042384F83930002384F83830636947
:105440000BB120469847300716D5290514D5236897
:105450001A6822F400621A6008229A60E36B43F033
:105460000403E363042384F83930002384F83830DC
:1054700063690BB12046984772070BD56B0509D5B8
:1054800023681A6822F480621A6004229A60204617
:10549000FFF7A2FFB00714D5A90512D523681A6833
:1054A00022F400721A6002229A60E36BE363012324
:1054B00084F83930002384F8383023690BB1204652
:1054C0009847F20613D5EB0411D523681A6822F425
:1054D00080521A6010229A60E36BE363012384F820
:1054E0003930002384F838302046FFF776FF70BD4E
:1054F000F0B590F83820012A03464FF002002BD077
:10550000012283F8382083F8390003EB0112D2E935
:105510000740556A174F44EA0040093C012C9CBFE4
:1055200005F07F4210434FEA01161A6888BF40EA2F
:10553000056091B9516A394001435162012C996962
:10554000916103D8596A21F07F41916201220020C4
:1055500083F8392083F83800F0BDD1693940014320
:10556000D1619919012C896911619CBF25F07F4592
:105570001562EBE7F0FFFC002DE9F74FDFF8BC9177
:105580006C4A00230D6801249C4004EA0506AC43E4
:1055900040F0B7804D68032705F003044FEA430845
:1055A00007FA08FC671E012F6FEA0C0C34D88768D5
:1055B00007EA0C0ECF6807FA08F747EA0E0787607C
:1055C000476827EA060EC5F300179F4047EA0E0713
:1055D0004760C76807EA0C0E8F6807FA08F747EAC2
:1055E0000E07022CC76019D14FEAD30A00EB8A0AD2
:1055F00003F0070BDAF820704FEA8B0B4FF00F0E19
:105600000EFA0BFE27EA0E0E0F6907FA0BF747EAB0
:105610000E07CAF8207001E0032CDAD1076804FAFB
:1056200008F407EA0C073C4315F4403F046068D0D7
:1056300000240194D9F8444044F48044C9F844401B
:10564000D9F8444023F0030707F1804704F480446D
:1056500007F59C37019403F0030C019CD7F808E090
:105660004FEA8C0C0F2404FA0CF42EEA040E324C90
:10567000A0424DD004F58064A0424BD004F5806474
:10568000A04249D004F58064A04247D004F580646C
:10569000A04245D004F58064A04243D004F5806464
:1056A000A04241D004F58064A0423FD004F580645C
:1056B000A0423DD004F58064A04214BF0A2409240E
:1056C00004FA0CF444EA0E04BC609468F74315F441
:1056D000801F0CBF3C4034439460D46815F4001F15
:1056E0000CBF3C403443D460546815F4003F0CBFF9
:1056F0003C40344354601468ED0354BF3C40344391
:1057000014600133102B7FF43DAF03B0BDE8F08F80
:105710000024D5E70124D3E70224D1E70324CFE70F
:105720000424CDE70524CBE70624C9E70724C7E70F
:105730000824C5E7003C0140000002400038024058
:105740000369194214BF0120002070470AB181612A
:1057500070470904FBE7436901EA030221EA0301F8
:1057600041EA02418161704701684B6913F480632B
:105770004FF0000210D06FF480634B61202302636E
:1057800080F83D3080F83E20036C80F83C2043F0E8
:105790000403036401207047184670472DE9F8465A
:1057A00006460F4691461D464FEA114A3368BAF144
:1057B000010F0CBF5C699C6927EA0404A4B2B4FA27
:1057C00084F46409A14501D0002025E06A1CEED0D4
:1057D000FFF746FB089BC01AA84201D8002DE5D16F
:1057E0003368BAF1010F0CBF5B699B6927EA0303B9
:1057F0009BB2B3FA83F35B099945D7D100232022EA
:10580000336386F83D2086F83E30326C86F83C30B3
:1058100042F0200232640120BDE8F8862DE9F04113
:1058200004460F46164698462568686927EA000030
:1058300080B2C0B16B695A0517D52B6843F4007369
:105840002B606FF480636B6120220023236384F854
:105850003D2084F83E30236C43F00403236400238E
:1058600084F83C300120BDE8F081731CDDD0FFF7E7
:10587000F7FAA0EB0800B04201D8002ED4D123687B
:105880005A6927EA020292B2002ACDD000232022D0
:10589000236384F83D2084F83E30236C1343DDE716
:1058A00070B504460D46164623685B691B0601D594
:1058B00000201EE02046FFF757FFC8B96A1CF3D04E
:1058C000FFF7CEFA801BA84201D8002DECD1236847
:1058D0005B6913F08003E7D12022236384F83D2025
:1058E00084F83E30226C84F83C3042F0200222647E
:1058F000012070BD2DE9F0431546026885B0DDE951
:105900000C789946136843F4807313600E463B4647
:10591000CDF8008000224FF001110446FFF73EFF52
:10592000236838B11B68DB0502D54FF4007323648C
:10593000032620E006F0FE061E611A4943463A4659
:105940002046FFF76BFFA8B9236803905A690392BA
:105950009B690393424639462046039BFFF7A0FF0D
:10596000064660B1236C042B01BF2268136843F420
:10597000007313600126304605B0BDE8F083B9F12D
:10598000010F236802D1EDB21D61F4E72A0A1A6102
:10599000394642462046FFF783FF0028E2D12368BC
:1059A000F1E700BF020001002DE9FF479A460368B6
:1059B00015461A6842F480621A601A68DDE90C78AC
:1059C00042F480721A600E463B46CDF800800022F9
:1059D0004FF001110446FFF7E1FE236838B11B6860
:1059E000DB0544BF4FF400732364032021E05FFA1A
:1059F00086F906F0FE061E612B4943463A462046CC
:105A0000FFF70CFFA0B9236803905A6903929B69C2
:105A10000393424639462046039BFFF741FF58B1A6
:105A2000236C042B01BF2268136843F400731360D6
:105A3000012004B0BDE8F087BAF1010F23681AD144
:105A4000EDB242461D6139462046FFF729FF024666
:105A50000028E5D121680B6843F480730B60204671
:105A6000CDF800803B464FF00111FFF797FE22680A
:105A700060B11368B4E72A0A1A61394642462046E3
:105A8000FFF70EFF0028CBD12368D9E749F00103C7
:105A90001361054943463A462046FFF7BFFE0038EA
:105AA00018BF0120C5E700BF0200010070B5044621
:105AB0000D46164623685B695B0701D500201EE092
:105AC0002046FFF751FEC8B96A1CF3D0FFF7C8F9AA
:105AD000801BA84201D8002DECD123685B6913F02C
