:020000040800F2
:1000000000000320351000089D2F00089F2F0008D6
:10001000A12F0008A32F0008A52F00080000000052
:10002000000000000000000000000000318D00080A
:10003000A72F000800000000C18D00083F860008BF
:10004000851000088510000885100008851000083C
:10005000851000088510000885100008851000082C
:10006000851000088510000885100008851000081C
:10007000851000088510000885100008851000080C
:1000800085100008851000088510000885100008FC
:1000900085100008851000088510000885100008EC
:1000A00085100008851000088510000885100008DC
:1000B00085100008851000088510000885100008CC
:1000C00085100008851000088510000885100008BC
:1000D00085100008851000088510000885100008AC
:1000E000851000088510000885100008851000089C
:1000F000851000088510000885100008851000088C
:10010000851000088510000885100008851000087B
:100110008510000885100008A92F00088510000828
:10012000851000088510000885100008851000085B
:10013000851000088510000885100008851000084B
:10014000851000088510000885100008851000083B
:10015000851000088510000885100008851000082B
:10016000851000088510000885100008851000081B
:1001700085100008851000088510000800000000A8
:1001800085100008851000088510000885100008FB
:1001900085100008851000088510000885100008EB
:0C01A000B52F000885100008C12F0008D2
:1001B00010B5054C237833B9044B13B10448AFF3A1
:1001C00000800123237010BD800300200000000088
:1001D0004464020808B5034B1BB103490348AFF35D
:1001E000008008BD00000000840300204464020871
:1001F000034613F8012B002AFBD1181A0138704767
:1002000001F0FF01102A2BDB10F0070F08D010F8C7
:10021000013B013A8B422DD010F0070F42B3F6D1CB
:10022000F0B441EA012141EA014122F007047FF0E4
:1002300000070023F0E80256083C85EA010586EA3B
:10024000010685FA47F5A3FA87F586FA47F6A5FA77
:1002500087F68EB9EED1F0BC01F0FF0102F0070283
:1002600032B110F8013B013A83EA010313B1F8D12E
:100270000020704701387047002D06BF354603380F
:10028000073815F0010F07D1013015F4807F02BF48
:10029000013015F4C03F0130F0BC0138704700BF99
:1002A00081F0004102E000BF83F0004330B54FEA27
:1002B00041044FEA430594EA050F08BF90EA020F94
:1002C0001FBF54EA000C55EA020C7FEA645C7FEA27
:1002D000655C00F0E2804FEA5454D4EB5555B8BF4A
:1002E0006D420CDD2C4480EA020281EA030382EABB
:1002F000000083EA010180EA020281EA0303362D4D
:1003000088BF30BD11F0004F4FEA01314FF4801C1F
:100310004CEA113102D0404261EB410113F0004F31
:100320004FEA03334CEA133302D0524263EB4303E8
:1003300094EA050F00F0A780A4F10104D5F1200E86
:100340000DDB02FA0EFC22FA05F2801841F10001E1
:1003500003FA0EF2801843FA05F359410EE0A5F1B5
:1003600020050EF1200E012A03FA0EFC28BF4CF0E6
:10037000020C43FA05F3C01851EBE37101F000459C
:1003800007D54FF0000EDCF1000C7EEB00006EEBA9
:100390000101B1F5801F1BD3B1F5001F0CD3490833
:1003A0005FEA30004FEA3C0C04F101044FEA44528A
:1003B00012F5800F80F09A80BCF1004F08BF5FEA11
:1003C000500C50F1000041EB045141EA050130BDF1
:1003D0005FEA4C0C404141EB0101013C28BFB1F503
:1003E000801FE9D291F0000F04BF01460020B1FA4E
:1003F00081F308BF2033A3F10B03B3F120020CDA21
:100400000C3208DD02F1140CC2F10C0201FA0CF0FE
:1004100021FA02F10CE002F11402D8BFC2F1200C63
:1004200001FA02F120FA0CFCDCBF41EA0C01904019
:10043000E41AA2BF01EB0451294330BD6FEA040462
:100440001F3C1CDA0C340EDC04F11404C4F120024D
:1004500020FA04F001FA02F340EA030021FA04F35F
:1004600045EA030130BDC4F10C04C4F1200220FAB6
:1004700002F001FA04F340EA0300294630BD21FAF4
:1004800004F0294630BD94F0000F83F4801306BFBA
:1004900081F480110134013D4EE77FEA645C18BFAE
:1004A0007FEA655C29D094EA050F08BF90EA020F45
:1004B00005D054EA000C04BF1946104630BD91EA3D
:1004C000030F1EBF0021002030BD5FEA545C05D140
:1004D0004000494128BF41F0004130BD14F580047F
:1004E0003CBF01F5801130BD01F0004545F0FE41F3
:1004F00041F470014FF0000030BD7FEA645C1ABF28
:10050000194610467FEA655C1CBF0B46024650EA5E
:10051000013406BF52EA033591EA030F41F400218A
:1005200030BD00BF90F0000F04BF0021704730B510
:100530004FF4806404F132044FF000054FF00001E5
:1005400050E700BF90F0000F04BF0021704730B5A6
:100550004FF4806404F1320410F0004548BF40427B
:100560004FF000013EE700BF42004FEAE2014FEAD0
:1005700031014FEA02701FBF12F07F4393F07F4FAB
:1005800081F06051704732F07F4208BF704793F0AE
:100590007F4F04BF41F40021704730B54FF46074C1
:1005A00001F0004521F000411CE700BF50EA0102C4
:1005B00008BF704730B54FF000050AE050EA01026D
:1005C00008BF704730B511F0004502D5404261EBDD
:1005D00041014FF4806404F132045FEA915C3FF41E
:1005E000D8AE4FF003025FEADC0C18BF03325FEABB
:1005F000DC0C18BF033202EBDC02C2F1200300FA6C
:1006000003FC20FA02F001FA03FE40EA0E0021FA90
:1006100002F11444BDE600BF70B54FF0FF0C4CF47E
:10062000E06C1CEA11541DBF1CEA135594EA0C0F30
:1006300095EA0C0F00F0DEF82C4481EA030621EA6B
:100640004C5123EA4C5350EA013518BF52EA0335A6
:1006500041F4801143F4801338D0A0FB02CE4FF058
:100660000005E1FB02E506F00042E0FB03E54FF088
:100670000006E1FB03569CF0000F18BF4EF0010E80
:10068000A4F1FF04B6F5007F64F5407404D25FEA7C
:100690004E0E6D4146EB060642EAC62141EA55512F
:1006A0004FEAC52040EA5E504FEACE2EB4F1FD0C71
:1006B00088BFBCF5E06F1ED8BEF1004F08BF5FEAEF
:1006C000500E50F1000041EB045170BD06F00046A1
:1006D00046EA010140EA020081EA0301B4EB5C044E
:1006E000C2BFD4EB0C0541EA045170BD41F4801146
:1006F0004FF0000E013C00F3AB8014F1360FDEBF6B
:10070000002001F0004170BDC4F10004203C35DA46
:100710000C341BDC04F11404C4F1200500FA05F3C9
:1007200020FA04F001FA05F240EA020001F000426A
:1007300021F0004110EBD37021FA04F642EB0601E0
:100740005EEA430E08BF20EAD37070BDC4F10C040A
:10075000C4F1200500FA04F320FA05F001FA04F2CE
:1007600040EA020001F0004110EBD37041F10001BA
:100770005EEA430E08BF20EAD37070BDC4F12005C5
:1007800000FA05F24EEA020E20FA04F301FA05F22D
:1007900043EA020321FA04F001F0004121FA04F2D5
:1007A00020EA020000EBD3705EEA430E08BF20EAA5
:1007B000D37070BD94F0000F0FD101F000464000DF
:1007C00041EB010111F4801F08BF013CF7D041EA61
:1007D000060195F0000F18BF704703F00046520065
:1007E00043EB030313F4801F08BF013DF7D043EA36
:1007F0000603704794EA0C0F0CEA135518BF95EAEC
:100800000C0F0CD050EA410618BF52EA4306D1D172
:1008100081EA030101F000414FF0000070BD50EA91
:10082000410606BF1046194652EA430619D094EA1B
:100830000C0F02D150EA013613D195EA0C0F05D105
:1008400052EA03361CBF104619460AD181EA030159
:1008500001F0004141F0FE4141F470014FF0000011
:1008600070BD41F0FE4141F4780170BD70B54FF0AC
:10087000FF0C4CF4E06C1CEA11541DBF1CEA13552C
:1008800094EA0C0F95EA0C0F00F0A7F8A4EB05040E
:1008900081EA030E52EA03354FEA013100F0888005
:1008A0004FEA03334FF0805545EA131343EA1263CE
:1008B0004FEA022245EA111545EA10654FEA002683
:1008C0000EF000419D4208BF964244F1FD0404F53C
:1008D000407402D25B084FEA3202B61A65EB030598
:1008E0005B084FEA32024FF480104FF4002CB6EB55
:1008F000020E75EB030E22BFB61A754640EA0C00D5
:100900005B084FEA3202B6EB020E75EB030E22BF14
:10091000B61A754640EA5C005B084FEA3202B6EB55
:10092000020E75EB030E22BFB61A754640EA9C0014
:100930005B084FEA3202B6EB020E75EB030E22BFE4
:10094000B61A754640EADC0055EA060E18D04FEAA2
:10095000051545EA16754FEA06164FEAC30343EA42
:1009600052734FEAC2025FEA1C1CC0D111F4801F0F
:100970000BD141EA00014FF000004FF0004CB6E708
:1009800011F4801F04BF01430020B4F1FD0C88BFA7
:10099000BCF5E06F3FF6AFAEB5EB030C04BFB6EBB2
:1009A000020C5FEA500C50F1000041EB045170BDA5
:1009B0000EF0004E4EEA113114EB5C04C2BFD4EBD2
:1009C0000C0541EA045170BD41F480114FF0000E56
:1009D000013C90E645EA060E8DE60CEA135594EAD2
:1009E0000C0F08BF95EA0C0F3FF43BAF94EA0C0FD5
:1009F0000AD150EA01347FF434AF95EA0C0F7FF44A
:100A000025AF104619462CE795EA0C0F06D152EA9D
:100A100003353FF4FDAE1046194622E750EA410681
:100A200018BF52EA43067FF4C5AE50EA41047FF492
:100A30000DAF52EA43057FF4EBAE12E74FF0FF3CF7
:100A400006E000BF4FF0010C02E000BF4FF0010CC8
:100A50004DF804CD4FEA410C7FEA6C5C4FEA430C41
:100A600018BF7FEA6C5C1BD001B050EA410C0CBF90
:100A700052EA430C91EA030F02BF90EA020F0020F2
:100A8000704710F1000F91EA030F58BF994208BF59
:100A900090422CBFD8176FEAE37040F00100704716
:100AA0004FEA410C7FEA6C5C02D150EA013C07D16D
:100AB0004FEA430C7FEA6C5CD6D152EA033CD3D0B8
:100AC0005DF8040B704700BF8446104662468C46B2
:100AD0001946634600E000BF01B5FFF7B7FF0028E5
:100AE00048BF10F1000F01BD4DF808EDFFF7F4FF0E
:100AF0000CBF012000205DF808FB00BF4DF808ED99
:100B0000FFF7EAFF34BF012000205DF808FB00BFBB
:100B10004DF808EDFFF7E0FF94BF012000205DF8DD
:100B200008FB00BF4DF808EDFFF7CEFF94BF012092
:100B300000205DF808FB00BF4DF808EDFFF7C4FF8B
:100B400034BF012000205DF808FB00BF4FEA410CD4
:100B50007FEA6C5C02D150EA013C0AD14FEA430CB7
:100B60007FEA6C5C02D152EA033C02D14FF00000F4
:100B700070474FF0010070474FEA410212F5001232
:100B800015D211D56FF47873B3EB625212D94FEAD4
:100B9000C12343F0004343EA505311F0004F23FABE
:100BA00002F018BF404270474FF00000704750EA13
:100BB000013005D111F0004008BF6FF000407047D0
:100BC0004FF00000704700BF4FEA4102B2F1E0432E
:100BD00024BFB3F5001CDCF1FE5C0DD901F0004C24
:100BE0004FEAC0024CEA5070B2F1004F40EB830074
:100BF00008BF20F00100704711F0804F21D113F1A0
:100C00003872BCBF01F00040704741F480114FEAD8
:100C10005252C2F11802C2F1200C10FA0CF320FA61
:100C200002F018BF40F001004FEAC1234FEAD3237E
:100C300003FA0CFC40EA0C0023FA02F34FEA4303E8
:100C4000CCE77FEA625307D150EA01331EBF4FF071
:100C5000FE4040F44000704701F0004040F0FE408C
:100C600040F40000704700BF7BB972B90029BEBFD5
:100C700000204FF0004106E008BF00281CBF6FF0C5
:100C800000414FF0FF3000F0D3B9ADF1080C6DE931
:100C900004CE002909DB002B1ADB00F04DF8DDF84B
:100CA00004E0DDE9022304B07047404261EB4101FA
:100CB000002B1BDB00F040F8DDF804E0DDE9022347
:100CC00004B0404261EB4101524263EB4303704781
:100CD000524263EB430300F02FF8DDF804E0DDE956
:100CE000022304B0404261EB41017047524263EB82
:100CF000430300F021F8DDF804E0DDE9022304B04D
:100D0000524263EB4303704753B94AB9002908BF05
:100D100000281CBF4FF0FF314FF0FF3000F088B9C2
:100D2000ADF1080C6DE904CE00F006F8DDF804E042
:100D3000DDE9022304B070472DE9F047089D8E4697
:100D400004468846002B4AD18A42174662D9B2FA35
:100D500082F64EB1C6F1200301FA06F820FA03F339
:100D6000B74043EA0808B4404FEA174E1FFA87FC21
:100D7000B8FBFEF1230C0EFB118843EA084301FB8C
:100D80000CF29A4209D9FB1801F1FF3080F0EA8099
:100D90009A4240F2E78002393B449A1AA3B2B2FB6E
:100DA000FEF00EFB102243EA024300FB0CFC9C45C4
:100DB00009D9FB1800F1FF3280F0D6809C4540F243
:100DC000D3803B44023840EA0140A3EB0C030021EE
:100DD0001DB1F3400022C5E90032BDE8F0878B4227
:100DE00005D90DB1C5E9000100210846F5E7B3FAC0
:100DF00083F1002946D1734502D3824200F2058176
:100E0000841A6EEB030201209046002DE5D0C5E95F
:100E10000048E2E7002A00F09080B2FA82F6002E45
:100E200040F0A4808A1A030C4FEA174E80B2BCB27D
:100E30000121B2FBFEFC0EFB1C2243EA024304FB31
:100E40000CF29A4207D9FB180CF1FF3802D29A42F1
:100E500000F2E080C4469B1AB3FBFEF20EFB123395
:100E600040EA034302FB04F49C4207D9FB1802F159
:100E7000FF3002D29C4200F2CA8002461B1B42EAAB
:100E80000C40A5E7C1F120068B4022FA06F71F436C
:100E90000EFA01F420FA06F32EFA06FE4FEA17497D
:100EA000234300FA01F81FFA87FCBEFBF9F01C0C83
:100EB00009FB10EE44EA0E4400FB0CFEA64502FAC4
:100EC00001F209D93C1900F1FF3A80F09C80A64557
:100ED00040F2998002383C44A4EB0E041FFA83FED2
:100EE000B4FBF9F309FB13444EEA044403FB0CFC86
:100EF000A44508D93C1903F1FF3E80F08280A44547
:100F00007FD9023B3C4443EA0040A4EB0C04A0FB25
:100F100002EC64457346E14662D35FD05DB1B8EB45
:100F2000030264EB090404FA06F622FA01F31E43F5
:100F3000CC40C5E9006400214FE7B1FBF2FC010C95
:100F400041EA0E4180B240EA01423B4638463C4607
:100F5000B846BE462026B1FBF7F1A2EB080241EAF3
:100F60000C4166E7014618E710462CE7C6F120025F
:100F70002EFA02F3B740B14020FA02F24FEA174EC0
:100F80000A43B3FBFEF8BCB20EFB1833110C41EA66
:100F9000034108FB04F9B04089454FEA104380B291
:100FA0003ED9791808F1FF3C01D289451FD8A1EB41
:100FB0000901B1FBFEF909FB04F80EFB191192B20D
:100FC00042EA0142424529D2BA1809F1FF31C4D29E
:100FD0004245C2D2A9F102013A44BEE7F0459DD292
:100FE000BEEB02036CEB070C0138E14696E7A7EB7A
:100FF00009094944A8F1020CB1FBFEF909FB04F808
:10100000DBE773467FE7504666E70846FDE63B446C
:10101000023A33E7ACF1020C3B441CE749469CE73B
:10102000A1EB0901C446B1FBFEF909FB04F8C4E7D2
:10103000704700BFDFF834D0002103E00C4B5B5851
:10104000435004310B480C4B42189A42F6D30B4ADA
:1010500002E0002342F8043B094B9A42F9D304F022
:1010600049FD24F0D9FA01F0EDF8704700000320A3
:1010700098C91308000000206C01002080030020A4
:10108000D85D0120FEE7704708B500F0BDFDBDE862
:10109000084000F03FBD00F0B9BD704710B5042115
:1010A000044622F0D2FD204610BD000038B50C4B9E
:1010B0000C4C18800C4B822019806368984740F6CE
:1010C000110398420AD1094D23682C608220984769
:1010D0002B688220DB689847002038BD0120FCE7A0
:1010E000A603002054000020A4030020A803002031
:1010F0004FF4A071F020FFF7D9BF0000F7B5394DCC
:101100002B6804461B6982209847208000284ED017
:101110002B680DF106025B6901A982209847324BCA
:101120001B78002B4BD0BDF8062040F674639A4222
:101130003FD9ADF80630BDF806209B1A9BB20A2BAA
:1011400042D90B22B3FBF2F3284A1288934201D909
:10115000013A93B2BDF80420254840F6B8318A42DE
:1011600034D8C2F571620E32016892B20F25B2FB1B
:10117000F5F2204D2D88AA4284BF05F1FF35AAB2B1
:101180008A4215468EB22AD9921B91B21A4E3768FE
:10119000BB42BAB28CBF9A1AD21A92B21144052934
:1011A000C4BF05603360036863803368A38003B005
:1011B000F0BDB32A9CBFB422ADF80620BBE7BDF852
:1011C0000630A3F5B473B9E70023C3E7C2F56D6237
:1011D000083292B20E2A0168C8D800252A46891A18
:1011E00089B2D3E7A80300209C3E0020A40300207E
:1011F000A0030020A60300209C03002037B568460A
:101200000D461446FFF77AFFBDF8000030B1BDF877
:1012100002302B60BDF804302360012003B030BDE4
:10122000032821D8DFE800F0020B12190F4B1A68CF
:10123000B2FA82F2520904210D4805F005B90B4BB0
:101240005A68B2FA82F252090821F5E7074B9A6808
:10125000B2FA82F252091021EEE7044BDA68B2FAD0
:1012600082F252092021E7E7704700BFAC0300205B
:1012700000100240032821D8DFE800F0020B121909
:101280000F4B1A68003A18BF012204210D4805F0DF
:10129000DBB80B4B5A68003A18BF01220821F5E76A
:1012A000074B9A68003A18BF01221021EEE7044B61
:1012B000DA68003A18BF01222021E7E7704700BF33
:1012C000AC0300200010024003280DD8DFE800F036
:1012D0000206080A0421054805F0BBB80821FAE710
:1012E0001021F8E72021F6E7704700BF0010024008
:1012F00008B5032811D8DFE800F0020A0C0E04211B
:10130000074805F09BF8431E5842584108BD082184
:10131000F6E71021F4E72021F2E70020F3E700BF11
:101320000010024070B5084D00240126E0B2FFF71E
:10133000DFFF18B12B68012B18BF2E600134052C7C
:1013400005F10405F2D170BDAC030020012380F843
:10135000781080F87930704770470020704700009F
:10136000034B4164003918BF01211970704700BF59
:1013700097500120704700207047836B0BB10846DF
:10138000184770474FF6FF707047406803689B69C5
:1013900018477047704770477047704710B504464C
:1013A00000F04AFD23680349D3F890302046BDE899
:1013B00010401847000000D008B503680446D3F871
:1013C0008430984723682046DB6F984700F0ECF89C
:1013D000236820465B6F9847292001F033FA00F01C
:1013E000E3F8236820465B6F9847F8E710B504469A
:1013F0000AF0BEFA23682046D3F8BC30BDE810409E
:10140000184700F0FDBC00F001BD00F033BD00F056
:10141000D3BC00F043BD00F04BBD00F0D7BC09F0D9
:10142000D5BC10B58421044622F00FFC204610BD27
:1014300010B590F8341090F878400C4B8C421A7824
:1014400009D03AB90A4A0B491488088810800C80E0
:1014500001221A7010BD002AFCD0054A05491488E3
:10146000088810800C800022F3E700BF9050012014
:101470008C5001208E50012070B50D46194635B9AB
:10148000094B0A4A0A4840F2FF2123F095FDC0E9C2
:101490000F52084B003A18BF01221A700368BDE8CA
:1014A0007040D3F8903018473C6502087465020814
:1014B000C26502089650012008B5094B1B888B4273
:1014C00003D8084B1B88934205D9074B074A0848A5
:1014D000A32123F071FD074B1980074B1A8008BD2B
:1014E0008C5001208E500120076602086A660208AF
:1014F000C26502089250012094500120034690F8E2
:101500007A0018B1586803681B68184770470000D4
:10151000012108B50022084607F024F90A4B18609B
:1015200028B90A4B0A4A28210A4823F045FD00221F
:101530000421012007F0B5F9074B186018B9074BD3
:10154000034A2C21F0E708BDC0030020AD66020865
:10155000F666020825670208BC0300206B670208D4
:10156000024B4FF0FF31186807F046B9C003002066
:10157000014B186807F06CB9C0030020024B002132
:10158000186807F039B900BFC0030020FFF7F0BFAB
:1015900003480449006800231A4607F0BDB900BF9C
:1015A000BC0300200400002013B5084C00231A4699
:1015B00001A9206807F0E1F920684FF0FF3300220D
:1015C00001A907F0DAF902B010BD00BFBC0300208A
:1015D00003685B6C18470120704703689B6A1847D3
:1015E000FEE740F2EF307047054B0360054B4FF0CC
:1015F0008062C3F88820BFF34F8FBFF36F8F7047AF
:10160000B471020800E100E010B504464FF45A61DD
:10161000FFF7EAFF204622F018FB204610BD00002D
:1016200082B0002301930E4B1A6B42F400021A633E
:101630001A6B02F400020192019A1A6942F4000244
:101640001A611A6922F400021A61064B064A1A61ED
:10165000064A5A61064B4FF080629A6002B07047AA
:1016600000380240C4400020C1180008E1150008FD
:1016700000E100E008B50A2809D8DFE800F006100C
:101680000E080808081010101000022008BD054BB5
:10169000054A0648902123F08FFC0020F6E7012040
:1016A000F4E700BFAD670208C867020813680208C4
:1016B00038B50C46887FFFF7DDFFA58AE28A164B16
:1016C0002169586342EA05425A64628BD963521B0E
:1016D0001A642568082D0ED19A611A615862207F1C
:1016E0000E4A42EA0062DA61E2681A620C4A596103
:1016F000D9601A6038BD0022D8611A61E1680A0A0F
:10170000480902F4784200F4FC600243C1F3C401CA
:101710000A439A63034AECE700B002400900010063
:10172000012302000123030008B50B280BD8DFE8D2
:1017300000F00612100A0A0A0A080808080802201F
:1017400008BD0520FCE7054B054A06486F2123F03C
:1017500033FC0020F4E70120F2E700BFAD67020888
:1017600057680208136802082DE9F04191F81D80BE
:101770000C464046FFF7D8FFA77F05463846FFF7DF
:10178000D3FF06463846FFF775FFA18A628B444BAC
:10179000521A1A649A61228B521A1A61E28A5863A9
:1017A00042EA01425A6421696268D963DA602068BA
:1017B000802828D0227F0FD8202867D0402865D0E5
:1017C00004281AD0364B45EA026545F40035B84581
:1017D000DD6161D0334A44E0B0F5807F04D0B0F5DC
:1017E000007FEFD1304800E0304840EA0262DA6121
:1017F000E2681A625E62596132E045EA026242F4CE
:101800000032DA61F6E7A068021DDA62227F45EA5B
:10181000026545F40035DD615E625961017841B1D0
:10182000012921D0224B234A23484FF48D7123F004
:10183000C3FBDA69418822F47F42013922F01002A9
:1018400042EA0122DA610121154BDA6942F02002F5
:10185000DA61DA699206FCD410229A600029B9D0C4
:10186000164A1A60BDE8F081B2F1FF01DA694088DA
:1018700022F47F4200F1FF3022F0100242EA0022FF
:1018800042F0100218BF0121DA61DDE745EA026289
:10189000034B42F40032B4E742F20132E1E700BF09
:1018A00000B0024001230100090002000A0002000A
:1018B000A1680208BB68020813680208012302003D
:1018C000024B1B68586803685B69184798500120F1
:1018D00070B5044625460A4B0C300026606026721F
:1018E000667245F8203B602229460AF097F904F514
:1018F0005A63EE6024359D42FBD1204670BD00BF87
:10190000B4710208034B1A68D207FCD423229A60F0
:10191000704700BF00B002407047000030B50F4C68
:101920002568ED07FCD423250904A56041F00101D9
:101930000225FF2B65636164E0630AD00849656294
:1019400041EA0363E361074B22626061E060236068
:1019500030BDE561039BA363034BF8E700B0024091
:1019600009000100010002000100030030B50E4C27
:101970002568ED07FCD423251204A56042F001027E
:101980000225FF2B65636264E063E16008D01B06FB
:1019900043F00213E361054B65626061236030BD73
:1019A000034BE3610123F9E700B0024001000200AC
:1019B000020002FF30B50B4C2568ED07FCD423254F
:1019C00012041B06A56043F40033022542F0010215
:1019D00065636264E063E160E361034B65626061DB
:1019E000236030BD00B002400100020001207047BA
:1019F0000C2070470C2303FB0100083070470C23B8
:101A000003FB0100083070470120704742F68C103C
:101A1000704742F68C1303FB01000830704742F612
:101A20008C1303FB01000830704701207047102021
:101A3000704700EB01100830704700EB01100830D0
:101A40007047084601F0BABC10B5034B036004466A
:101A500008F013FF204610BD6C72020810B5044652
:101A6000FFF7F2FF2046142122F0EFF8204610BDC8
:101A700010B5034B0360044608F0FFFE204610BD7E
:101A80003872020810B50446FFF7F2FF204642F60E
:101A9000941122F0DAF8204610BD000010B5034B77
:101AA0000360044608F0E9FE204610BD04720208F7
:101AB00010B50446FFF7F2FF2046182122F0C5F8C2
:101AC000204610BD10B5084B0360044600F52750B2
:101AD000FFF7BAFF04F12C00FFF7CAFF04F114006E
:101AE000FFF7DCFF204610BDA072020808B50248CF
:101AF000FFF7E8FF08BD00BF9C12002010B50446A8
:101B0000FFF7E0FF204642F6343122F09EF82046EF
:101B100010BD00002DE9F34101F0C6FA054601F0C1
:101B2000C7FA00240146234628462246009412F0B4
:101B3000F9FF284B284A1A60204602F0C1FA274DC7
:101B4000274B284A28489A6012F054FF2B68BFF3AD
:101B50005B8FDB0737D4284622F079F898B3234C03
:101B6000234B236004F5275707F1180604F11400EE
:101B700004F12C086060C4F80880E760266108F072
:101B80007DFE1C4B6361404608F078FE1A4BE36211
:101B9000384608F073FE04F5005303F6D410174AD4
:101BA000C3F8C02902F010FB224607F114013046A9
:101BB00002F000FB304601F001FC114823F01AFA54
:101BC000284622F050F80F4802B0BDE8F041FFF778
:101BD000E5BB00BFFC500120480400209812002003
:101BE000680400204C040020080000209C12002003
:101BF000A072020804720208387202086C720208AD
:101C0000ED1A0008C4030020704700000148FFF7E8
:101C1000D3BB00BFC403002070B5264E264C274D11
:101C2000274B23603046FFF753FE284618F080F814
:101C3000244810F0B9FB244B2448DC6000224FF408
:101C40008071C3E9121222491A86C3E91A12214986
:101C500083F85820C3E91E011F49C3F880101F49AB
:101C60001F480B60F021C3E90422C3E90622C3E93F
:101C70000822C3E90A22C3E90E22C3E91022C3E9FC
:101C80001422C3E917225A6683F870205A67C3E901
:101C9000016501801348018013484FF4A071018051
:101CA0001248018012490A70012283F83420114A37
:101CB0001A6070BDF4040020941200206804002013
:101CC0002C6502084C040020C40300200000010120
:101CD00001000001000450001A0014009850012077
:101CE0008C500120925001208E50012094500120F0
:101CF00090500120C87002080148FFF775BC00BF72
:101D0000F40400200020704781807047C180704734
:101D10000181704741817047704770477047704735
:101D2000704710B4C4880368121B84885B6D091B5C
:101D300012B25DF8044B09B218474FF6FF73838166
:101D40004FF0FF3303621368C361106070470020D7
:101D500070478B88838001207047704780F8261079
:101D6000704790F82600704710B50022B1F908407E
:101D7000B1F90A10028042808480C18010BD002227
:101D8000028042808280C28070470177704780ED78
:101D9000080A704780F82410704780F825107047B3
:101DA00001207047983070478C30704784307047FE
:101DB0007047704770470000034B902283F85A2306
:101DC00083F85823704700BF00E100E0094A0A4940
:101DD000D3680A48C3F30A03013B9BB20B80116925
:101DE000C1F30A01013901801364536B43F001030D
:101DF0005363704700680140D23D0020D03D002071
:101E0000014BD3F8AC00704700680140024B01223F
:101E1000C3F8AC105A6270470068014010B52C211D
:101E2000044621F012FF204610BD10B5BC21044627
:101E300021F00BFF204610BD70B5044609F01BF8D9
:101E400023689D6E0FF048F801462046A847236896
:101E5000054AD3F88C502046AC460023BDE87040BC
:101E6000A2F51631604700BF00B004D008F0EABF09
:101E700008F0F4BF08F0B0BF09F01FB990F82520B2
:101E800012B103685B691847704790F825201AB1B2
:101E900090F8242002B1186070470000034B4FF007
:101EA00080629A604FF080729A60704700E100E0B3
:101EB000084B4FF08062C3F88820BFF34F8FBFF309
:101EC0006F8F4FF08072C3F88820BFF34F8FBFF33E
:101ED0006F8F704700E100E070B50023124E8380E1
:101EE000124B0360336893F8582005460AB1D86C4A
:101EF00000B998680368DB6A98473368B0FA80F4E1
:101F0000D86C640930B10368DB6A9847002808BFC1
:101F100044F001042CB9064B064A07482C2123F053
:101F20004BF8284670BD00BF98500120B4720208DB
:101F3000F9680208576902089069020870B5254ED1
:101F40003568BFF35B8F15F0010540D1304621F0B5
:101F50007EFE00283BD0204C204B256104F134004C
:101F6000C4E90035C4E90255E584A562A58510F0F1
:101F700000FD04F158000BF007FB194BA365204648
:101F8000184B40F8843BFFF7A7FF174BC4F8843089
:101F90002433C4F88C304FF4C803C4E92835002337
:101FA000C4F8AC30C4F8B030C4F8B430C4F8B830B9
:101FB0000E480F4BC4F89050C4F89C50C4F8A85079
:101FC000C4F8983023F016F8304621F04CFE024851
:101FD00070BD00BFD43D0020D83D0020C479020868
:101FE000D47202084C73020878790208B51D000803
:101FF0005879020838B5184C23685BB3174B184A58
:102000001B6C11888B4216D1164B198805F024F8E9
:10201000236893F86A200025013283F86A2083F848
:102020007C50FFF7B5FA206809F0A2FC2846BDE80D
:102030003840FFF7F5B805F00FF82468236820460C
:102040001B6A9847012384F87C300020BDE83840A3
:10205000FFF710B938BD00BF98500120006801405B
:10206000D23D0020D03D002007B5064BADF806005C
:102070001B68054801220DF1060105F063FD03B060
:102080005DF804FB0C000020703F002008B56420C0
:1020900006F05CFBFBE70000BFB51B4E1B4D1C4C64
:1020A0001C4F304603F01AFE284603F017FE0121AC
:1020B000304603F091FE0121284603F08DFE164BB9
:1020C00022881A80154B3A881A80304603F0D7FED2
:1020D0002080284603F0D3FE22881149388083B23D
:1020E00001A823F02DF901A8FEF782F80A2382B295
:1020F00001A90C4806F0BDF9322003F035FD01209E
:1021000006F024FBCBE700BF544100200C41002027
:102110001A000020180000201600002014000020E3
:10212000F2690208283F00201FB54FF67E73ADF814
:10213000043006238DF8063000238DF808300B0A92
:102140008DF80A1053FA81F101F205118DF807009C
:10215000084440428DF80930C0F307238DF80B3056
:10216000EF238DF80C008DF80D300A22642301A9AD
:10217000024806F07EF905B05DF804FBE03E002061
:1021800008B54FF4FA7003F0EFFC02210920FFF7C5
:10219000CBFFC82003F0E8FCBDE808400A21062078
:1021A000FFF7C2BF01460320FFF7BEBF30B595B0B1
:1021B000102200210AA823F028F91422002103A8E4
:1021C00023F023F900241D4B01941A6C42F0805235
:1021D0001A641B6C03F080530193019B184B02940B
:1021E0001A6842F440421A601B6803F440430293A9
:1021F0000122029B4FF48033CDE9082302254FF4DE
:102200008003CDE90E5308214FF4A873CDE91013D4
:1022100008A804231393129504F03CFF0F23CDE983
:1022200003354FF4A0504FF48053CDE90603052148
:1022300003A8059405F00AF915B030BD0038024036
:10224000007000402DE980489BB003F061FCFFF76F
:10225000ADFF142200210DA823F0D7F80024C84BAD
:1022600000941A6BC748C84D42F010021A631A6BEB
:1022700002F010020092009A01941A6B42F02002C0
:102280001A631A6B02F020020192019A02941A6BEF
:1022900042F080021A631A6B02F080020292029AE4
:1022A00003941A6B42F004021A631A6B02F00402E0
:1022B0000392039A04941A6B42F001021A631A6B98
:1022C00002F001020492049A05941A6B42F0020291
:1022D0001A631A6B02F002020592059A06941A6BB1
:1022E00042F040021A631A6B02F040020692069A0C
:1022F00007941A6B42F008021A631B6B03F0080381
:10230000224607933C21079B04F09EF89F48012238
:10231000022104F099F822469C48042104F094F824
:1023200022469B484FF4405104F08EF801263C238E
:10233000CDE90D3693480F9403230DA9022710937E
:1023400003F098FF91480DA9CDE90D76CDE90F4432
:1023500003F090FF04238D480DA9CDE90D36CDE99A
:102360000F4703F087FF0DA94FF440538848CDE98C
:102370000D36CDE90F4703F07DFF8648864B03609D
:1023800003F06EFEDFF838C2844B2C62C5E900C34F
:1023900028464FF48043C5E90434C5E90244C5E941
:1023A000064404F05FFA1021284604F0A3FC2146FD
:1023B000284604F0BEFC7A4DDFF808E2AC624FF428
:1023C0008273C5E900E34FF400781823C5E906835A
:1023D00028460A23C5E90244C5E90444C5E908447E
:1023E000EB6205F053FB8F232246394667488DF890
:1023F00024308DF8344004F027F832464FF47A73D5
:1024000009A9284605F09EFB4FF47A7332460DA9C0
:10241000284605F043FD324639465C48614D04F0DC
:1024200013F89DF83430D32B04BF5F4B1E705F4B05
:102430000126C5E900364FF0100840230024C5E905
:1024400004834FF4C073C5E906344FF40063C5E953
:1024500008344FF4005302274FF0040A4FF0030BE7
:10246000AB620DA907232846CDE90D73CDE90FA373
:102470004FF00809C5E9024ACDE911B7139705F0F5
:10248000E9F94FF6FF7209A92846CDE90A960894A2
:1024900009960C9405F0FEF9304603F065FB4FF603
:1024A000FF7209A92846CDE90979CDE90B6405F049
:1024B000F1F94FF6FF7209A92846CDE909B9CDE92E
:1024C0000BA405F0E7F94FF40C730893089B0C93E9
:1024D0004FF6FF7209A92846CDE909A90B9605F028
:1024E000D9F940F26A51284605F0F2F93422214622
:1024F0000DEB020022F089FF2D4D2E4B2C61C5E91A
:1025000000340923C5E905361D23C5E9073B40F220
:102510000D1240F24313C5E9092340F2171140F2AE
:1025200047132846C5E90B13C5E90244AC8685F874
:10253000364004F099FCFF21F022CDE912144FF04F
:1025400005094FF480614FF4A073CDE90E24CDE965
:102550001419CDE916420DA922462846CDE91037B7
:10256000154D18930D94ADF864408DF8664004F055
:1025700046FD124B2B601B6898472B6824E000BF78
:102580000038024000100240704000200008024065
:10259000000C02400441002000300240A0860100EF
:1025A000703F0020AC3E00209C3E0020400100A077
:1025B000C83F002000680140943E00201C0000201D
:1025C000005C0040005001404E4DDB6898474E4B88
:1025D0002846C5E90034C5E90274C5E90A47C5E9DA
:1025E0000C4403F04DFD3146284603F0FFFD474DF6
:1025F000474F424621460DA822F007FF454BAF62E8
:102600004FF4003B4FF0007A2846C5E9003BC5F87F
:1026100008A02C612C7685F82040EC62EC60EE611D
:1026200085F830406E6103F0B3FA0D230DA92846FA
:10263000CDE90D36384D0F9403F024FC4246214677
:102640000DA822F0E2FE354BC5F808A02846C5E9E2
:10265000003BC5E90A742C612C7685F82040EC60BB
:10266000EE6185F830406E6103F092FA0DA92846BC
:10267000CDE90D962A4D0F9403F004FC29482A4F0A
:1026800004614FF4E133C0E900530C25C0E9024472
:10269000C0E90554C46105F0BDFE24484FF416534B
:1026A000C0E90073C0E90244C0E90445C0E906443A
:1026B00005F0B0FEFEF7E8FCFEF7E5FCFFF760FD75
:1026C0004FF4FA7003F050FA3046FFF76BFD05F057
:1026D000C3FF174A1748214605F0F4FF164B174A67
:1026E00018602146164805F0EDFF164B164A186093
:1026F0002146164805F0E6FF154B186005F0BEFFB1
:10270000FEE700BFC440002000B00240544100205A
:102710000100000F002001400C4100200021014079
:1027200000100140283F002000440040E03E00200F
:10273000D87302088D200008A83E0020B473020858
:1027400097100008A43E002090730208992000080A
:10275000A03E0020704770477FB5094B8DF81720C9
:102760001B6802930DF117020123009201930A46A0
:102770000146044804F01EF907B05DF804FB00BFF1
:1027800010000020704000207FB500238DF8173026
:10279000084B1B6802930A4601230DF117010091B3
:1027A00001930146044804F095F99DF8170007B01D
:1027B0005DF804FB10000020704000201FB5084C9D
:1027C00024680092CDE901340A46012301460548F8
:1027D00004F080F9003818BF012004B010BD00BF1C
:1027E000100000207040002003F0BEB910B5064C68
:1027F00000222046042103F027FE20460122BDE8E6
:102800001040042103F020BE0008024038B50B4DF3
:10281000044601220A484FF4005103F015FE00223D
:102820000421284603F010FE2046FFF71DFC284631
:102830000122BDE83840042103F006BE0008024032
:10284000000C024038B50B4D044600220A484FF4F4
:10285000005103F0F9FD00220421284603F0F4FDA5
:102860002046FFF701FC28460122BDE8384004213C
:1028700003F0EABD00080240000C0240F7B5144E18
:10288000144F05460C4630460022042103F0DCFDBF
:1028900000224FF40051384603F0D6FD2846FFF7DA
:1028A000E3FB0D4B0D481B68224601A905F0F6FA23
:1028B000384601224FF40051019C03F0C5FD30461B
:1028C0000122042103F0C0FD204603B0F0BD00BF8B
:1028D00000080240000C02400C000020703F002065
:1028E00003F042B90268034B9A4201D103F02AB9BE
:1028F000704700BF001000407047000082B00E4BD0
:1029000000220092596C41F480415964596C01F4E1
:102910008041009100990192196C41F08051196435
:102920001B6C03F080530193019B0F216FF001009A
:1029300002B003F055BB00BF0038024010B51422AE
:102940008AB0044600210DEB020022F05EFD2368F0
:10295000214A93421FD1214B2148002101915A6CF9
:1029600042F480725A645A6C02F480720192019AA5
:1029700002911A6B42F004021A631B6B03F004030A
:1029800002930821029B0323CDE9051305A903F057
:1029900071FC0AB010BD134A9342FAD10F4B124892
:1029A000002103915A6C42F400725A645A6C02F48A
:1029B00000720392039A04911A6B42F001021A63A7
:1029C0001B6B03F001030493049B20220323CDE936
:1029D000052305A9DBE700BF0020014000380240C5
:1029E0000008024000210140000002400268094B3B
:1029F0009A4282B00BD100230193074B1A6B42F429
:102A000080521A631B6B03F480530193019B02B045
:102A1000704700BF003002400038024007B50F4B3E
:102A200002689A4216D10022A3F5F0430192196B75
:102A300041F4000119631B6B03F4000301930521AA
:102A40005A20019B03F0CCFA5A2003B05DF804EB46
:102A500003F0F8BA03B05DF804FB00BF00B0024019
:102A60002DE9F043044689B01422002103A822F086
:102A7000CCFC2268244B9A4243D1244C24480025A4
:102A80000095236B43F004032363236B03F00403DB
:102A90000093009B0195236B43F001032363236B99
:102AA00003F001030193019B4FF012094FF40073EF
:102AB0004FF001080327042603A9CDE90339CDE926
:102AC0000587079603F0D6FB4FF4807311480796ED
:102AD00003A9CDE90339CDE9058703F0CBFB0295C6
:102AE000236C43F400032364236C03F40003029378
:102AF000029B236A43F400032362236A23F4000346
:102B0000236209B0BDE8F083005C00400038024059
:102B10000008024000000240F0B599B004461422BB
:102B2000002107A822F071FC30220DEB02000021E9
:102B300022F06BFC22685E4B9A4240F0B78008237B
:102B40000C93C0231093042312930CA84FF400336A
:102B5000159304F053FD08B1FFF7CEFE554B5648D0
:102B6000002400945A6C42F080625A645A6C02F05D
:102B700080620092009A01941A6B42F020021A635C
:102B80001A6B02F020020192019A02941A6B42F031
:102B900001021A631A6B02F001020292029A039474
:102BA0001A6B42F002021A631A6B02F002020392DD
:102BB000039A04941A6B42F040021A631A6B02F0F3
:102BC00040020492049A05941A6B42F004021A63BC
:102BD0001A6B02F004020592059A06941A6B42F0F1
:102BE00008021A631B6B03F00803069302250E26E6
:102BF000069B0B964FF4806307A9CDE90735CDE915
:102C0000094503F037FB41F658032C480B9607A9FA
:102C1000CDE907350927CDE9094503F02BFB03234F
:102C200027480B9707A9CDE90735CDE9094503F0FA
:102C300021FB4FF4706322480B9607A9CDE90735B5
:102C4000CDE9094503F016FB4FF40C631D480B96C4
:102C500007A9CDE90735CDE9094503F00BFBC023F2
:102C600019480B9607A9CDE90735CDE9094503F0C9
:102C700001FB082315480B9607A9CDE90735CDE9D7
:102C8000094503F0F7FA4FF4A0530E480B9707A934
:102C9000CDE90735CDE9094503F0ECFA5820224685
:102CA000052103F09DF9582003F0CCF919B0F0BDCF
:102CB0000068014000380240001402400000024059
:102CC000000402400018024000080240000C0240CC
:102CD00010B5044688B01422002103A822F095FB09
:102CE0002268144B9A4223D103F5684300210191D5
:102CF0005A6C114842F480125A645A6C02F48012E1
:102D00000192019A02911A6B42F020021A631B6B26
:102D100003F020030293029B4FF46072022303210D
:102D2000CDE903230523CDE9061303A903F0A2FA95
:102D300008B010BD0050014000140240F0B514224C
:102D40008BB0044600210DEB020022F05EFB2368ED
:102D50002F4A934224D12F4B2F48002100915A6CC7
:102D600042F010025A645A6C02F010020092009A6B
:102D700001911A6B42F001021A631B6B03F001030D
:102D80000193019B4FF4C06202230321CDE9052387
:102D90000723CDE9081305A903F06CFA0BB0F0BDC9
:102DA0001E4A9342FAD11B4B1B48002402941A6C12
:102DB00042F400321A641A6C02F400320292029A4F
:102DC00003941A6B42F001021A631A6B02F00102BB
:102DD0000392039A04941A6B42F008021A631B6B65
:102DE00003F008030493049B02270423032607250A
:102DF00005A9CDE90537CDE9086503F03BFA402385
:102E0000CDE90537CDE907460548099505A9C3E78A
:102E10000010014000380240000002400044004021
:102E2000000C02402DE9F04186B0002303932B4BA8
:102E30001C68002C4FD14FF00108C3F80080284BCC
:102E400000949A6B274842EA08029A639B6B03EA54
:102E500008030093022703260C25009B01A94FF6C7
:102E60003F03CDE90137CDE9046503F003FA1E48BD
:102E7000059501A9CDE90187CDE9034603F0FAF9EB
:102E800048F233131948059501A9CDE90137CDE979
:102E9000034603F0EFF94FF683731548059501A932
:102EA000CDE90137CDE9034603F0E4F94CF20373B1
:102EB0001048059501A9CDE90137CDE9034603F096
:102EC000D9F960230C48059501A9CDE90137CDE971
:102ED000034603F0CFF906B0BDE8F0819C41002025
:102EE000003802400014024000080240001802406E
:102EF00000100240000C02400004024070B588B08F
:102F000000230293204B1A6C42F010021A641B6CCF
:102F100003F010030293054601A903A8029B04F0E5
:102F20004FFB069B4BBB04F02BFB184E184B33603A
:102F300040F2E733F360174BB0FBF3F3013B7360F0
:102F4000304600233361B360B36105F077F904467E
:102F500080B9304605F048F8044658B9362003F0E9
:102F600071F80F2D0DD822462946362003F038F887
:102F7000094B1D60204608B070BD04F001FB400005
:102F8000D3E70124F6E700BF00380240A04100204B
:102F90000010004040420F00840000207047FEE710
:102FA000FEE7FEE7FEE77047014805F05BB800BFAB
:102FB000A0410020014803F0C5BF00BFC83F00206A
:102FC000014803F089B800BFC440002001207047C9
:102FD00008B522F01BFB162303604FF0FF3008BD3D
:102FE00008B522F013FB16230360FEE770B50D460B
:102FF00014460E46731B9C4201DC204670BDAFF3A5
:10300000008006F8010BF5E770B50D4614460E4634
:10301000731B9C4201DC204670BD16F8010BAFF318
:103020000080F5E74FF0FF3070474FF400534B60DE
:103030000020704701207047002070470A4A11683D
:1030400008B5034609B90949116010686946034487
:103050008B4206D922F0DAFA0C2303604FF0FF30DE
:1030600008BD1360FCE700BFE8410020D85D0120E7
:10307000704710B50421044620F0E7FD204610BD3E
:10308000012908B506D0022908D059B901F064F821
:10309000006808BD01F060F84068FAE701F05CF8EC
:1030A0008068F6E70020F4E70048704710740208D3
:1030B0000C20704713B5002451B1036801948DF8BA
:1030C000034001AA9C680DF10303A04702B010BDA4
:1030D0000846FBE7C0897047008A7047C088704780
:1030E00080887047807A00F07F007047807AC0093E
:1030F00070470020704700009FED010A704700BF35
:1031000000000000704710B50821044620F09DFD26
:10311000204610BD7047704700F5987308684968ED
:1031200003C37047704770474160704770477047EE
:10313000064BC0F84C310023C0F8503100F5A273A3
:10314000C0F84801C0F84031704700BFF1310008B5
:10315000012303727047704710B4C268416854106D
:10316000034601EB6200D20748BF0A599B685DF82D
:10317000044B48BFD35818470346406830B19A689B
:103180001AB9D86800F0010070470120704710B5E7
:103190000C21044620F059FD204610BD10B5102129
:1031A000044620F052FD204610BD10B54FF4AE711C
:1031B000044620F04AFD204610BD10B50DF08CFEEF
:1031C0000368BDE81040DB6B184710B50446D0F823
:1031D000400158B10368DB68984738B1D4F8400122
:1031E00003689B6898470023C4F8403110BD000075
:1031F0002DE9F14FD0E9556A0746B06803681B6AAC
:10320000984742F68B13984205D8444B444AA32171
:10321000444821F0D1FE706803681B6A98470F2864
:1032200003D8414B3E4AA421F2E7F06803681B6AC9
:1032300098470B2803D83D4B394AA521E8E70DF004
:103240004BFEDFF8F09004300DF06BFED9F8000073
:1032500010B10368DB689847D9F8000010B1036823
:103260001B689847DFF8D080D8F8000010B10368D9
:103270005B699847D7F83C0110B103685B689847D1
:10328000D8F8000010B103681B689847D7F83C01D4
:1032900010B103689B689847F068036800215B6A77
:1032A00098474FF0000B224BC0F804B0044680F85A
:1032B00008B00360B068036859465B6A98470546E2
:1032C00000F0C4FF7068036859465B6A9847294656
:1032D000064600F08BFF331DC7F83C61C9F800407B
:1032E000C8F80050CAF800302B68C6F808A0284675
:1032F000DB68EE639847336830461B689847214681
:10330000284610F067F8236820461B699847236811
:103310005B69204601B0BDE8F04F18471F6A0208FC
:10332000AD6A02087F6B0208C66B0208696C02086E
:1033300084750208E0500120DC500120044B1B681A
:1033400093F858200AB1D86C00B99868704700BF4C
:1033500098500120F8B5174604460E460DF07EFE43
:10336000124B1C60124B2360124B0025C4E95135EF
:10337000114BC4E953551868036801219B68C4E9DF
:103380004F55C4E955769847284600F099FEFFF757
:10339000D5FF18F076FBFFF7D1FF18F0EDFBFFF734
:1033A000CDFF18F0F5FB2046F8BD00BFEC50012022
:1033B000307502081875020898500120064BC0F8B5
:1033C0004C310023C0F8503100F5A273C0F8480119
:1033D000C0F84031704700BFF1310008406A7047C3
:1033E000806A704770478A880B8810B5D20A4C886B
:1033F000C1699BB251F8220043EA0443184410BD4E
:1034000010B50446BAB1107B68B1537BD27A1B0267
:1034100003F4E0631A43236A03EB82031A888A42A7
:1034200002D193F9020010BD05D8013880B20433EF
:103430000028F3D1F7E70020F5E710B52C2104466A
:1034400020F003FC204610BD30B58BB00446BDF81B
:1034500060500895BDF85C5007959DF85050069552
:103460009DF84C5005959DF8485004959DF84450A2
:1034700003959DF8405002959DF83C500195BDF88C
:10348000385000950FF032FB064B2360159BE3612B
:10349000169B2362199B63621A9BA36220460BB0A2
:1034A00030BD00BFA8750208806A7047704770473A
:1034B00070477047704730B5036885B06D4601812D
:1034C000D3F88430014604462846984795E807001B
:1034D0003C3484E8070005B030BD30B5036885B0E2
:1034E0006D464181D3F8843001460446284698470A
:1034F00095E807003C3484E8070005B030BD0022A1
:10350000028042808280C280704780F83610704707
:1035100070B5036804461B6B154698472368294617
:1035200020465B6EBDE87040184700207047806CF5
:1035300070477047704770477047704730B4C26833
:1035400044685510034604EB6200D20748BF625935
:103550009B6830BC48BFD35818470346406830B119
:103560009A681AB9D86800F00100704701207047C6
:1035700090F82D3080F85C3070470146343091F877
:103580002C3013B162310BF097B86031FBE710B506
:103590004C21044620F059FB204610BD10B5642193
:1035A000044620F052FB204610BD10B51021044601
:1035B00020F04BFB204610BD10B5034B03600446C2
:1035C0000BF090FF204610BD5877020810B5064B4F
:1035D000036004460BF086FF204641F2B82120F03C
:1035E00034FB204610BD00BF5877020808B5FEF72F
:1035F00045FC08BD10B50446006B50B10368DB689C
:10360000984730B1206B036821469B68BDE81040A5
:10361000184710BD00F57E728A4202D10368DB6A4A
:1036200018477047036870B55E6B124B1B68044601
:103630008DB22BB9104B114A6C21114821F0BCFC02
:103640001049828D0988914203D80F4B0B4A6D2196
:10365000F3E713F812200D4B1B6853F822000368A0
:103660001B6B9847291A3346204609B2BDE87040C3
:10367000184700BFF05001200C6D02084E6D020883
:10368000896D0208F4500120D06D0208F850012025
:103690000B7970B590F82C6004460D460BB916B145
:1036A00070BD002EFCD0B3FA83F35B0984F82C3094
:1036B00023682046D3F88C309847236820465B69FE
:1036C0009847002EECD02B79012BE9D123682046B6
:1036D000D3F88830BDE87040184700224FF0FF3122
:1036E000C0E9002182607047074A02600022C0E9F9
:1036F0000122C0E90322C0E90522C0E907224FF4F4
:1037000080728284704700BF447E020870B50368EF
:1037100004461B6B154698472368294620465B6B79
:10372000BDE87040184770B5036804469B6B1546AA
:103730009847236829462046DB6BBDE87040184750
:1037400038B504461D46FFF7E1FFBDF910202946B4
:103750002046FFF7E8FF38BD0B8870B5A0F8603051
:103760000546138825F8623F0446284611F0EEF915
:103770000646284611F01EFA314602462046FFF75B
:10378000D2FF23682046D3F88C30BDE8704018473C
:1037900010B526220446002121F037FE2046FFF70F
:1037A000A3FF044B2360FF2384F826300023A36289
:1037B000204610BDA47C020838B5262204460D46DA
:1037C000002121F022FE2046FFF78EFF064B2360EA
:1037D0002B88E384FF23204684F8283029460AF00A
:1037E0006BFF204638BD00BF747D020810B526224D
:1037F0000446002121F009FE2046FFF775FF0A4B21
:1038000023600A4BA3624FF6FF73A3854FF47F0238
:103810000023C4E90C3223874FF0FF32C4E91023A0
:10382000E363204610BD00BF147C0208087502083F
:103830002DE9F04F044699B0A04600250FF01EFC7C
:10384000D64BE56348F8403B4046FFF7A1FF04F143
:103850006C034FF6FF7616A918460893ADF858602A
:10386000FFF7AAFF04F1980316A918460993ADF8CB
:103870005860FFF7A1FF04F1C40316A918460A9384
:10388000ADF85860FFF798FF04F1F00316A904F5AE
:103890008E771846DFF838A30B93ADF85860FFF722
:1038A0008BFF38460AF044F804F5C6730AF1240B7E
:1038B000184604F5D0790F93FEF70EFBC4F88CA1DF
:1038C000C4F894B1C4F8985148460AF031F804F5A8
:1038D000047318460E93FEF7FFFAC4F810A204F51D
:1038E000097AC4F818B2C4F81C525046FFF77EFF9C
:1038F00004F51C7BAA4AC4F82422C4F86C5258462A
:10390000FFF7F2FEA74BC4F8703204F52773184690
:10391000C4F898520D93FFF73BFFA34BC4F89C32B9
:1039200004F534731846C4F8C852A4F8CC52039373
:10393000FFF75CFF04F54773994AC4F8D022184694
:10394000C4F818530493FFF751FF954AC4F81C2399
:1039500004F55A731846C4F864530593FFF746FFFD
:1039600004F56C7318460693FFF740FF04F57E7369
:1039700018460793FFF7B8FE4FF47F43A4F82434AA
:103980004FF0010384F81C34884BC4F8F83304F278
:103990002C43184616A9C4F82054C4F828540C9394
:1039A000ADF85860FFF708FF2A460C98A4F8586451
:1039B000A4F85A642946FFF7A9FE0C99079806F067
:1039C0006FFF7B4A04F58053C3E9AA24794A4FF478
:1039D0006161C3E9AC2504F593600BF079FD4FF408
:1039E000A0732A4600932946F0234046FFF7A8FE1D
:1039F000261D4FF07F43A3664146304606F050FF38
:103A00002A4608982946FFF781FE0898ADF85850D5
:103A100016A90AF051FE0899304606F041FF2A46E1
:103A200009982946FFF772FE4FF001030998ADF897
:103A3000583016A90AF040FE0999304606F030FFCA
:103A40002A460A982946FFF761FE02230A98ADF834
:103A5000583016A90AF030FE0A99304606F020FFC9
:103A60002A460B982946FFF751FE03230B98ADF821
:103A7000583016A90AF020FE0B99304606F010FFC8
:103A80004FF4A07300932A46F02329463846FFF7E7
:103A900057FE494BC4F898314FF47843A4F89C3151
:103AA0000F9BC4F844314FF40752294638460AF0B8
:103AB00055F84FF407524FF4F05138460AF059F8D0
:103AC000D4F85831402B05D04023C4F8583138463B
:103AD00009F04EFF012138460AF056F87F2384F89A
:103AE00042313946304606F0DBFE00224FF4A07327
:103AF000114600934846F023FFF722FE2F4BC4F8EF
:103B00001C324FF2E053A4F820320E9BC4F8C831A7
:103B100042F2E0424FF4706148460AF01FF84FF459
:103B2000B462002148460AF024F8D4F8DC31402B76
:103B300005D04023C4F8DC31484609F019FF484657
:103B400001210AF021F84946304606F0A9FE40F26C
:103B50002512A8215046FFF7D9FD194BC4F854325D
:103B6000D4F82432DFF86C90D3F8843010AD0027FD
:103B700051462846A4F85872984795E807000AF17C
:103B80003C0383E80700D9F8003004F25C481BBB13
:103B90000C4B0D4A60210D4821F00EFA58770208AF
:103BA00010760208987802080C7D0208A0760208B8
:103BB00040770208153600080000FFFF00BCF0FF48
:103BC000EB001FFF0C6D02080E6E0208896D0208E3
:103BD00078790208F0500120974B1B881BB9974B4E
:103BE000974A6121D7E7974B3946186800F0A4FA45
:103BF000954A03460A21404610F0EEFE5046C4F8AE
:103C00006C820AF0DDFBDFF85C82CDF8588003237C
:103C1000504616A9ADF85C300AF0F2FB514630462A
:103C20004FF0E50A06F03CFECDF800A0B2232322B7
:103C30001F215846FFF784FD0D98CDF800A0B22350
:103C40003A463946FFF77CFD804B814A0D994FF08B
:103C5000060AC4E9B1235846A4F8CCA206F020FE17
:103C6000692203983921FFF751FD7A4BC4F80033DC
:103C7000D4F8D0320399D3F88430A4F804732846DA
:103C80009847039A02F13C0395E8070083E8070090
:103C9000D9F8003004F58E620892002B3FF478AF1B
:103CA000654A1388022B9AD9664B0221186800F0E6
:103CB00043FA654A03460A21089810F08DFE0899D8
:103CC0000398C4F818130AF07BFB0398ADF85CA0C6
:103CD00016A9CDF858800AF093FB0399584606F0D0
:103CE000DFFD2D2204983921FFF710FD5A4BC4F84F
:103CF0004C33D4F81C330499D3F88430A4F85073AF
:103D000028469847049901F13C0395E8070083E8A9
:103D10000700D9F8003004F2844A002B3FF438AF92
:103D2000454A1388012B7FF65AAF464B012118688C
:103D300000F002FA444A03460A21504610F04CFEB5
:103D40000498C4F864A30AF03BFB07230498ADF879
:103D50005C3016A9CDF858800AF052FB04995846F9
:103D600006F09EFD05984E221721FFF7CFFC3B4B36
:103D70000599C4F898332846A4F89C730AF0A6F86D
:103D800095E80700059BCDF858803C3383E8070091
:103D900004230598ADF85C3016A90AF031FB0599AB
:103DA000584606F07DFD069811223621FFF7AEFC3D
:103DB0002B4B0699C4F8E0332846A4F8E4730AF0C4
:103DC00085F895E80700069BCDF858803C3383E8DA
:103DD000070005250698ADF85C5016A90AF010FBFF
:103DE0000699584606F05CFD09230798ADF858304F
:103DF00016AA15A9ADF85450FFF7AEFC0C983A4638
:103E00003946FFF783FC04F595530833C4F828348A
:103E10003C2300938F2207983B21FFF791FC0799E1
:103E2000584606F03DFD3046594606F039FD20461D
:103E300019B0BDE8F08F00BFF4500120D06D02082A
:103E40000E6E0208FC500120596E0208456C8CFF72
:103E500069A3B2FF0000CFFF00C431FF2D2DB5FFD5
:103E60000A8A0AFF087502087047000030B5164D2F
:103E70002C6814F001048FB0BFF35B8F20D128466B
:103E80001FF0E5FEE0B13F230993104B0893104B60
:103E9000104911480A940122CDE906430423CDE9D3
:103EA00003320A230093CDE90B44CDE90144059484
:103EB000FFF7CAFA094821F09DF828461FF0D3FE03
:103EC00005480FB030BD00BFEC41002030A802080B
:103ED000DCA90208DCA20208F0410020693E0008CB
:103EE0007047000030B5174D2C6814F001048FB0F6
:103EF000BFF35B8F22D128461FF0A9FEF0B13F230C
:103F00000993114B0893114B07930123CDE9053316
:103F100004930423CDE9024314230D4900935F2247
:103F20001823CDE90B440B480A940194FFF78CFA4F
:103F3000094821F05FF828461FF095FE05480FB0AC
:103F400030BD00BF1C42002034A80208E0A90208CE
:103F5000ECA2020820420020E13E00087047000069
:103F600030B5164D2C6814F001048FB0BFF35B8F91
:103F700020D128461FF06BFEE0B13F230993104B80
:103F80000893104B104911480A940122CDE90643C9
:103F90000423CDE9033228230093CDE90B44CDE976
:103FA00001440594FFF750FA094821F023F8284608
:103FB0001FF059FE05480FB030BD00BF4C42002035
:103FC000D8A90208E4A9020820A80208504200204B
:103FD0005D3F000800207047002070470EB403B515
:103FE00003AB002153F8042B01930DF0FDFF02B049
:103FF0005DF804EB03B070470CB407B504AB53F89D
:10400000042B01930DF0F0FF03B05DF804EB02B058
:1040100070470000436C10B5044673B3038F2BB98F
:10402000184B194AC521194820F0C6FFC38E00EB72
:1040300043035B8C0BB30FF026FF238F012B03D8B8
:10404000134B144ACB21EEE7E28E531C9BB2092B93
:10405000194688BFA3F10A0104EB410140F63F1065
:10406000498C814209D10A2B04EB420228BF00236C
:1040700004EB4303508C588451842046BDE8104023
:104080000FF004BE5C6E0208656E0208106F020835
:104090005A6F0208686F02080FF0BFBD10B586B0F6
:1040A00002AC84E806001A460AAB05930193099B0B
:1040B00000932146089B0CF0ADFA06B010BD00003D
:1040C00038B518BB124B13481C681349B4B12268A9
:1040D00022440260626822440A60A26814440F4BC2
:1040E00000221A8000F038F8054600F033F80C4B37
:1040F0001C600C4B1D600C4B188007E00B4B0360E1
:104100000B4B0B600B4B1C68002CE8D138BD00BF7B
:1041100088420020804200207C420020844200200F
:10412000F0500120F8500120F450012008AA0208A4
:10413000E8A9020830AA0208044B1B6853F82100C2
:10414000034B1B6803EB4000704700BF7C4200201C
:104150008042002008207047004870478C420020B1
:1041600010B5FFF7BFFE044C2060FFF7F9FE60605A
:10417000FFF77CFEA06010BD8C42002010B500242B
:1041800004600C6014601C6010BD704710B54FF4E3
:10419000AE7104461FF059FD204610BD10B504460F
:1041A000D0F8580100F013F82046BDE810400CF09C
:1041B00015BF000010B50446FFF7CCF8014B236093
:1041C000204610BD907702080022026070477047B9
:1041D000704704387047704710B5102104461FF02F
:1041E00034FD204610BDA0F10400F5E700228260F6
:1041F000024A026018324260C1607047E4770208E8
:10420000704700000A4B70B50446036042F2345513
:1042100041F2A426B54205D0635960191B6898473E
:104220002C3DF7E72046FFF7C7F9204670BD00BFD9
:104230000C78020810B50446FFF7E4FF204642F66A
:104240008C111FF002FD204610BD00002DE9F74340
:10425000064606F58057FFF7EBFA304B336006F55C
:1042600096541E2306F51558C7F8B832103408F1D5
:1042700020084FF6FF7504F5C679204601A92C34B5
:10428000ADF80450FFF798FA4C45F6D14445F2D109
:1042900006F5225001A90830ADF80450FFF78CFA5A
:1042A00006F5225001A93430ADF80450FFF784FA26
:1042B000DFF86CC006F5005EDCF80000DCF80410E6
:1042C0000EF6081303C30CF10C05DCF808001860A7
:1042D0000FCD0EF618140FC40FCD0FC495E80F00C4
:1042E0000CF13C0584E80F000FCD0EF648140FC406
:1042F0000FCD0FC495E80F000CF16C0C84E80F0093
:104300009CE80F000EF6781484E80F000023304676
:1043100087F8C03203B0BDE8F08300BF0C78020814
:10432000606402082DE9F04F284B85B000F59657E0
:1043300000F5155600F521551B1A10371F36143598
:104340004FF00008019318F0010F0CBF4FF0080B5D
:104350004FF0090BB2463C464FF00009019A236822
:1043600032F81A201B6EADF80C20204603A998479E
:104370002868FCF7F9F8164B0022FBF795FF41EC93
:10438000100B1FF07BFE51EC100BFCF7F5FB2368C4
:10439000B4F904109B6D02B209F101092046984757
:1043A0001AF8013F84F82530CB4504F12C04D5DC04
:1043B00008F10108B8F10C0F07F5C67706F10906F8
:1043C00005F10405BFD105B0BDE8F08F0EDBFFFF9E
:1043D00000002D4000F5805393EDAF7A00F5215396
:1043E00000F5225014330430D3ED007A77EE877A4B
:1043F000E3EC017A8342F7D170470000000000002F
:10440000D0B5BB4B1B882DED048B08EE903AB94B11
:104410009FEDB99A1B8808EE103AB8EEC88AF8EEFC
:10442000E88A38EE498A78EEC98A68EE087A044646
:10443000E8EEA87A04F5005417EE900AFCF794F819
:1044400041EC100B1FF029FC94F8E038012B57ECDD
:10445000106B18D0022B00F006818BB9F1EE047AB4
:10446000B4EEE78AF1EE10FA03DD012384F8E038B8
:1044700006E004F50F6204F6F404002313602360E1
:10448000BDEC048BD0BDF5EEC08AF1EE10FA4CBF46
:10449000B1EE687AB0EE687AF1EE047AB4EEE77ABB
:1044A000F1EE10FA7DD8B5EEC08AF1EE10FA73D5B0
:1044B000F9EE047AB4EEE78AF1EE10FAE0DB8F4B06
:1044C0001B8808EE903A8E4B1B8808EE103AF8EEE7
:1044D000E88AB8EEC88A78EEC98A38EE498AC8EE0A
:1044E000287AF5EEC07AF1EE10FA01D5F1EE677A8E
:1044F00017EE900AFCF738F87BA3D3E90023FCF70A
:10450000FDFA002800F09780F5EEC08AF1EE10FA6F
:10451000B3EE098A40F19680DFED7A8A68EE087A78
:10452000B1EE488AE8EEA87AF1EE688A17EE900AB2
:10453000FCF71AF841EC100B1FF0AFFB51EC100B1D
:10454000FCF742FB07EE900A88EEA77A04F50F63AA
:10455000C8EE278A9FED6C8A83ED007A67EE087AB1
:1045600004F6F40317EE900AC3ED008AFBF7FCFF94
:10457000664B0022FBF79AFEFCF7FEFADFED647A49
:10458000C4F80009E8EE887AFDEEE77A17EE903A73
:10459000C4F80439022369E7B4EEE78AF1EE10FAB1
:1045A0008DD9B5EEC08AF1EE10FA7FF769AFC8EE8B
:1045B000287AF5EEC07AF1EE10FA48BFF1EE677A8C
:1045C00017EE900AFBF7D0FF47A3D3E90023FCF7CF
:1045D00095FAD0BB30463946FCF7F6FA07EE900A5A
:1045E000F1EE688A88EEA77A04F50F63B1EE488A87
:1045F000C8EE278A9FED448A83ED007A67EE087A39
:1046000004F6F40317EE900AC3ED008AFBF7ACFF43
:104610003E4B0022FBF74AFEFCF7AEFADFED3C7A98
:10462000C4F80009E8EE887AFDEEE77A17EE903AD2
:10463000C4F8043924E7B5EEC08AF1EE10FA3FF66B
:104640006DAF1DE7DFED338A68E7F5EEC08AF1EE66
:1046500010FA4CBFDFED2B8ADFED2E8ADFED2E7ACC
:10466000B3EE098ABCE704F6E80393ED008A18EE7E
:10467000100AFBF779FF294B002206460F46FBF78D
:1046800015FE274B0022FCF74DFA50B9234B0022B0
:1046900030463946FBF708FE00220023FCF738FAC3
:1046A00038B104F50F63D3ED007AF1EE677AC3ED0C
:1046B000007A04F6F80393ED007A04F50F63D3ED66
:1046C000007AA7EE878A04F6E80383ED008A04F6F1
:1046D000F40304F6EC04D3ED006AD4ED007AE7EEBF
:1046E000267AC4ED007ACBE6ABAAAAAAAAAACA3F48
:1046F0001A000020180000200000FF4216000020D1
:10470000140000200000F0C20000164300005E40CC
:10471000008093430000F0422C27F54200002A401D
:1047200000006E40F7B500F5005400F5225508353D
:10473000B4F8E238ADF8043001A9284609F0BCFF0E
:1047400004F6E80304F6EC041868FBF70DFF124BBF
:104750000022FBF7A9FD41EC100B1FF08FFC206835
:1047600057EC106BFBF700FF0C4B0022FBF79CFD96
:1047700041EC100B1FF082FC51EC100BFCF7FCF924
:10478000394604B23046FCF7F7F9224601B2284612
:10479000FDF7C7FA03B0F0BD00002A4000002D402D
:1047A00007B500F5005300F52250B3F8E438ADF832
:1047B000043001A9343009F07FFF03B05DF804FB39
:1047C00000F5005393F8E028013A012A09D8D3F8FC
:1047D0000429D3F800195201490100F5D07009F0FD
:1047E000C8B97047034B1A8801EB81011144198045
:1047F000704700BF9A3E0020044A054B11881B8871
:104800008B4238BF0B461380704700BF983E002094
:104810009A3E002010B5094B094A1B880446142112
:1048200000F25C4010F0D8F8012384F8493204F516
:104830000970BDE810400DF001BD00BF9A3E002098
:104840003A70020838B50D4D0D4B04462A461B88B8
:10485000142100F2844010F0BFF80A4B2A461B884E
:1048600004F58E60142110F0B7F8012384F8953216
:1048700004F51C70BDE838400DF0E0BC3A70020849
:104880009A3E0020983E002000F5005210B5D2F864
:104890008839032B0FDC08490C8803F65E2150F899
:1048A00021108C4207DD0133C2F88839D2F814395F
:1048B0000133C2F8143910BD9A3E002010B500F53E
:1048C0008054D4EDB17A9FED080AF8EE677A27EEAE
:1048D000800A1FF011FA9FED057AF7EE007AE0EEFC
:1048E000477AC4EDAF7A10BDACC527B7EC51783F1D
:1048F0002DE9F04F99B001F50053079303F6EC034F
:10490000824618688B46FBF72FFE0022984BFBF778
:10491000CBFC079BD3F88438019303F614230BEBED
:104920008303804658688946FBF71EFE904B0022A1
:10493000FBF7BCFC02460B4640464946FCF7FCF838
:1049400040B18C4B93E803008AE80300504619B04D
:10495000BDE8F08F6FF02A0303FB0BF31593079B61
:10496000019C03F50F63179304F00103002B0293DE
:1049700014BF092308230D9314BF082309230C93A4
:1049800004EBC40303F515531F335B4406930D9BDF
:10499000082B0CBF0723082314934FF0FF33009319
:1049A0000123039304F614230BEB83031693009B5C
:1049B000049301330093069B5B78002B00F0BC81CD
:1049C000069B009D2C225343A3F5CB23159AA3F5F8
:1049D000C073985EFBF7B6FD674B0022FBF766FCE1
:1049E000FCF7F2F8169B0A90D3ED017A179BCDEDF8
:1049F000087AD3ED007AF5EEC07AF1EE10FA00F203
:104A00000A81079B03F6E8031868FBF7ADFD024631
:104A10000B46CDE91023584B0022FBF745FC064618
:104A20000A980F46FBF7A0FD02460B46CDE90A2384
:104A3000514B0022FBF738FCCDE90E0102460B4634
:104A400030463946FCF778F8002800F099804A4B48
:104A50000022DDE90A01FBF729FC02460B4630463D
:104A60003946FCF74BF8002800F08A800898FBF7DD
:104A70007BFD06460F4602460B4640464946FCF77C
:104A80005BF8B0B13C4B002230463946FBF70EFCD8
:104A900002460B4640464946FCF730F848B1DDE98E
:104AA0000223002A08BF1D460C9B9D4280F24481D0
:104AB0009CE0314B002230463946FBF7F5FBCDE94F
:104AC000040102460B4640464946FCF735F8C0B1A2
:104AD00032463B4640464946FCF710F8002800F0B5
:104AE0002B810D9B039A934240F32681069B9B7872
:104AF000002B40F02181CAF800401346CAF8043068
:104B000024E7DDE9042340464946FBF7F7FF002888
:104B100000F01281194B002230463946FBF7C4FBE6
:104B200002460B4640464946FCF706F8002800F0CE
:104B30000381DDE90213009D002CD4BF04F10B02B8
:104B400004F1FF32002908BF1D460C9B9D4280F2F4
:104B5000F38002EBC2035B442B4442F260515B5C86
:104B6000002B40F0E980CAF80020CAF80450EDE6B6
:104B700000002D40DC64020800002A400080434011
:104B80008C4B0022DDE91001FBF790FB06460F4637
:104B900002460B46DDE90E01FBF7B0FF002800F0EE
:104BA000CB80844B0022DDE90A01FBF77FFB024644
:104BB0000B4630463946FBF7A1FF002800F0BC80C9
:104BC0000898FBF7D1FC7C4B0022FBF76FFB0246F9
:104BD0000B4640464946FBF791FF002800F0AC80A9
:104BE000029B1BB1049D6A1C00F0A6800C22631C72
:104BF00093FBF2F102FB113303EBC3025A442A4444
:104C000042F26051525C1AB1019AA24240F0948083
:104C1000CAF80030A9E740F38F80079B03F6E8034A
:104C20001868FBF7A1FC02460B46CDE91223614B45
:104C30000022FBF73BFBCDE90E010A98FBF794FC41
:104C40005C4B002206460F46FBF72EFB594BCDE985
:104C50000A01002230463946FBF728FBDDE90A232A
:104C6000CDE91001DDE90E01FBF766FF002878D0E1
:104C7000DDE91023DDE90E01FBF740FF002870D0CD
:104C80000898FBF771FC06460F4602460B46404665
:104C90004946FBF751FF68B1464B00223046394682
:104CA000FBF704FB02460B4640464946FBF726FF4E
:104CB000002895D13F4B002230463946FBF7F4FAE5
:104CC000CDE9080102460B4640464946FBF734FF52
:104CD00080B132463B4640464946FBF70FFF48B19C
:104CE000049B013328D0069B1B782BBB049BCAF87E
:104CF000004003E7314B002230463946FBF7D4FA37
:104D000002460B4640464946FBF716FFA0B1DDE9D7
:104D1000082340464946FBF7F1FE68B1029B002C90
:104D2000D4BF04F10B0204F1FF32002B3FF411AFAA
:104D3000049D6B1C7FF40DAF039B009A013303931A
:104D4000069B01330693149B93427FF430AE631E9F
:104D500058BF1C46019B48BF0B34A3427FF404AEEE
:104D6000EFE5144B0022DDE91201FBF79DFA064640
:104D70000F4602460B46DDE91001FBF7DDFE002879
:104D8000DAD0DDE90A0132463B46FBF7B7FE0028E0
:104D9000D2D00898FBF7E8FB074B0022FBF786FA16
:104DA00002460B4640464946FBF7A8FE0028C3D002
:104DB000009D74E600002A4000002D400080434022
:104DC00000F50050074AB0F8E438A0F8E2380023B4
:104DD00080F8E03800F6E80300F6EC001A60024BB9
:104DE000036070470000F0420080934300F5805359
:104DF0000549D3F8CC2243F2390001FB020020F030
:104E00000040C3F8CC0270476D4EC64110B5044651
:104E1000FFF7ECFF04F50053D3F81439B0FBF3F2BD
:104E200002FB130303F5A453043334F8130010BD3D
:104E300073B500F5005505F6E8061B4B336005F623
:104E4000EC031A4A1A6005F6F8034FF080421A6024
:104E5000002385F8E0380446FFF7D8FF04F5225414
:104E60000834A5F8E208ADF8040001A9204609F0CD
:104E700023FC3068FBF778FB0D4B0022FBF714FA9C
:104E800041EC100B1FF0FAF851EC100BFBF774FE1D
:104E900040F2191201B22046FEF738FC012385F8D2
:104EA000AD3802B070BD00BF0000F04200809343F7
:104EB00000002A4038B50446FFF7A8FF04F5005566
:104EC0004FF48C72A5F8E40804F522500A2134301E
:104ED000FEF71CFC012385F8D93838BD13B504460C
:104EE000FFF794FF04F50053ADF80400A3F8E408BD
:104EF00004F5225001A9343009F0DEFB02B010BDE8
:104F00002DE9F04F2DED048B00F58053474A9FEDBE
:104F1000488A85B000F5005AC3F8BC22454BDAF840
:104F200084581B1A0646F0EE488AB3EE0D9A019398
:104F3000B4EE688AF1EE10FA74D1DAF884381D20E4
:104F40005843FBF7FFFA3C4B0022FBF7AFF9FBF7A6
:104F50003BFE08EE100A06EB850909F5005909F633
:104F6000540383ED008A4FF4C67405F0010305EB8A
:104F7000C507002B04FB056407F515570CBF082374
:104F8000092304F5965407F11F07009304F1100458
:104F90000CBF4FF010084FF0030837444FF0000BE0
:104FA0003046FFF733FF019BADF80C0023F81700E4
:104FB000236820461B6E03A9984709F65403186816
:104FC000FBF7D2FA1C4B0022FBF76EF941EC100BF9
:104FD0001FF054F851EC100BFBF7CEFD236802B222
:104FE0009B6D0FFA88F120469847012307F8013F8F
:104FF0009B4484F82530009B08F11A089B4504F176
:105000002C041FFA88F8CBD16B1E58BF1D46DAF866
:10501000843848BF0B35AB428AD105B0BDEC048B58
:10502000BDE8F08F38EE498A95E700BF8FC2F53CA6
:10503000008093430EDBFFFF00002D4070B500267B
:10504000044680F8956200F51C7004F580550DF05B
:10505000F5F82046FFF7DEFB012385F8C03204F5A2
:1050600000530422C3F884280E4A16800322C3F892
:1050700014290D4AC5F8BC22C5F8C462C3F8886972
:1050800003F016FBC5F8CC022046FFF739FF204697
:10509000FFF7CEFE2046FFF70DFF03F009FBC5F832
:1050A000C80270BD9A3E00208FC2F53CD0E9B432F0
:1050B00093421FBF01335A2293FBF2F102FB1133DB
:1050C0001ABFC0F8D032012000207047D0F8D43287
:1050D000D0F8D0025A22013393FBF2F102FB1133D4
:1050E0001B1A58425841704737B56D4685E806008F
:1050F0000446FFF7EBFF90B9D4F8D43295E80300EB
:1051000004EBC30282E8030001335A2293FBF2F15D
:1051100002FB1133C4F8D432012003B030BD0020AB
:10512000FBE700002DE9F04F2DED028B00F5005A52
:10513000ADF26C6DBAF8E23801930DF1100801EB95
:10514000C10388E8060016469A1802F59752043201
:1051500000EB42020D46CF0001999180C218324403
:10516000044642F2605001211154DAF884284FF0CD
:105170000C0C511891FBFCFE0CFB1E11A94223D113
:1051800015F0010F03444FF000010CBF4FF0080C65
:105190004FF0090C234408468E4218BF5854013181
:1051A0008C45F9DC02F6142204EB8202D2ED017A7E
:1051B000B3EE0D7A77EE877A05F6142304EB8303BA
:1051C000C3ED017ACAF884586C22002115A820F09A
:1051D0001CF92F4415AB1F440123BB55E4AF002637
:1051E00098E806003846C7E9B466FFF77DFFD7E9BF
:1051F000B43293423CD1B7B2022F40F2F180002189
:105200003E4630A842F260558C46D0E9003203EBAE
:10521000C3032344134401318E4203F805C000F157
:105220000800F2DCDAF8845842F25F512E4606EBB1
:10523000C60316F0010F0B440CBF082009202344BD
:10524000002213F801CFBCF1000F40F09A80013228
:105250009042F6DC731E48BF06F10B03AB4240F0F0
:105260008E8038460DF26C6DBDEC028BBDE8F08F80
:1052700057F83320009207EBC30338465B6802936C
:10528000FFF714FFB2B230AB009943F8321003EBD2
:10529000C203029A5A600B46DB075DD404F524531F
:1052A00003F1480C09AD1833186859682A4603C23F
:1052B000083363451546F7D10DF124084FF0000B74
:1052C000D8F80050009B5D1955D50C35D8F804303E
:1052D000029A02EB030905F001030833994532D223
:1052E00005F6142304EB83035868FBF73DF93D4BA7
:1052F0000022FAF7DBFF00220023FBF71DFC10B3AE
:1053000005EBC502A3184B4442F260515B5CD3B17C
:1053100015AB134413F80910A9B94A4402F5975282
:10532000043204EB4202019992888A420BD1CDE902
:10533000075907AA06CAE4A80393FFF7D5FE039B03
:10534000012203F809200BF1010BBBF1060F08F154
:105350000808B5D101364AE704F5255303F1380CA6
:1053600009AD0833186859682A4603C208336345F3
:105370001546F7D1A0E70B2DC8BF0C3DA6E71E468A
:1053800055E7AE423FF46DAF6B1C0C2293FBF2F17C
:1053900002FB113303F6142304EB830393ED018A1C
:1053A000F3EE0D8A42F2605805F6142305EBC500B2
:1053B00038EE688A04EB830305F00102404483ED74
:1053C000018AC2F109020121204420F01EF86B1E5F
:1053D0004CBF0B351D46AE42E6D1CAF8846840E7A3
:1053E00000273EE700002D4000F50052034692F8EA
:1053F000E028013A012A94BF0122002200F5D07072
:1054000083F8C52108F0A4B873B5044603F057F932
:1054100004F58055D5F8B832B0FBF3F603F048F93F
:10542000D5F8C832C01AB04222D995F8C0323BB97B
:105430002046FFF7E1F902B0BDE87040FFF702BA7D
:1054400004F50056D6F8843803F6142304EB8303DE
:105450005868FBF789F82E4B0022FAF727FF2AA39A
:10546000D3E90023FBF768FB20B1002385F8C032A5
:1054700002B070BD2046FEF7ADFF2046FEF7C0FF2C
:105480002046FFF79DF92046FFF718FA96F8E03816
:10549000022B1BD16E4621463046FFF729FA009BAE
:1054A000013313D0019B013310D096E8060020464B
:1054B000FFF738FE01462046FFF794F9FFF780FC1E
:1054C0002046FFF70BFD2046FFF7DEF92046FEF7EA
:1054D00029FF2046FFF726F92046FFF761F920460D
:1054E000FFF782FF2046FFF795F9201D0CF0A6FE7E
:1054F000D5F8C4320133C5F8C43203F0D9F8C5F881
:10550000C802B5E7AFF300800000000000E0704083
:1055100000002D402DE9F84F0446261D04F51C78A7
:1055200004F52257FEF709F808374146304605F0E2
:10553000F8F904F500593946304605F0B1F900256F
:10554000384604F52257343789F8AD580CF076FE0A
:105550003946304605F0A4F989F8D95838460CF098
:105560006DFE04F5965A0AF1100A41F2902B0AEBEF
:105570000509002749463046013705F091F9092F02
:1055800009F12C09F6D105F5C6755D45EFD1002569
:1055900004F5D07084F8C55107F0DAFF04F50970FE
:1055A00084F849520CF04AFE41463046BDE8F84FB7
:1055B00005F076B9F02070474FF4A07070472920AD
:1055C000FDF740B92820FDF73DB908B5FDF70EF904
:1055D000CA20FDF737F9C320FDF718F90820FDF7B9
:1055E00015F95020FDF712F9CF20FDF72BF9002017
:1055F000FDF70CF9C120FDF709F93020FDF706F998
:10560000ED20FDF71FF96420FDF700F90320FDF7F9
:10561000FDF81220FDF7FAF88120FDF7F7F8E820F1
:10562000FDF710F98520FDF7F1F80020FDF7EEF801
:105630007820FDF7EBF8CB20FDF704F93920FDF7D2
:10564000E5F82C20FDF7E2F80020FDF7DFF8342024
:10565000FDF7DCF80220FDF7D9F8F720FDF7F2F8A6
:105660002020FDF7D3F8EA20FDF7ECF80020FDF745
:10567000CDF80020FDF7CAF8B120FDF7E3F80020CF
:10568000FDF7C4F81B20FDF7C1F8B620FDF7DAF8E6
:105690000A20FDF7BBF8A220FDF7B8F8C020FDF7FF
:1056A000D1F81020FDF7B2F8C120FDF7CBF810209B
:1056B000FDF7ACF8C520FDF7C5F84520FDF7A6F8C5
:1056C0001520FDF7A3F8C720FDF7BCF89020FDF7E3
:1056D0009DF83620FDF7B6F8C820FDF797F8F220C0
:1056E000FDF7B0F80020FDF791F8B020FDF7AAF81B
:1056F000C220FDF78BF8B620FDF7A4F80A20FDF7CD
:1057000085F8A720FDF782F82720FDF77FF8042011
:10571000FDF77CF82A20FDF795F80020FDF776F8D4
:105720000020FDF773F80020FDF770F8EF20FDF77B
:105730006DF82B20FDF786F80020FDF767F80020B4
:10574000FDF764F80120FDF761F83F20FDF75EF8F2
:10575000F620FDF777F80120FDF758F80020FDF757
:1057600055F80620FDF752F82C20FDF76BF8C820FD
:10577000FDF7B6F82620FDF765F80120FDF746F89D
:10578000E020FDF75FF80F20FDF740F82920FDF736
:105790003DF82420FDF73AF80C20FDF737F80E20ED
:1057A000FDF734F80920FDF731F84E20FDF72EF80B
:1057B0007820FDF72BF83C20FDF728F80920FDF7AD
:1057C00025F81320FDF722F80520FDF71FF8172014
:1057D000FDF71CF81120FDF719F80020FDF716F869
:1057E000E120FDF72FF80020FDF710F81620FDF757
:1057F0000DF81B20FDF70AF80420FDF707F811202B
:10580000FDF704F80720FDF701F83120FCF7FEFF53
:105810003320FCF7FBFF4220FCF7F8FF0520FCF7E4
:10582000F5FF0C20FCF7F2FF0A20FCF7EFFF282021
:10583000FCF7ECFF2F20FCF7E9FF0F20FCF7E6FF59
:105840001120FCF7FFFFC820FDF74AF82920FCF7DC
:10585000F9FFBDE808402C20FCF7F4BF08B5FCF7C1
:10586000C5FF0321D320FDF709F880B208BD10B5AC
:10587000C4B2022203212046FCF76EFF0A20FCF787
:10588000B3FF204600220321FCF766FFBDE810406D
:105890000220FCF7A9BF38B50446E4B2FCF75AFF72
:1058A00000212046FCF770FF012105462046FCF749
:1058B0006BFF40EA052080B238BD10B5C4B240216C
:1058C0002046FCF761FF030607D54C212046FCF774
:1058D0005BFF003818BF012010BD01224B2120467C
:1058E000FCF73AFF204600224B21FCF735FF002051
:1058F000F2E773B50423C4B20E461546D7210DEB6B
:1059000003022046FCF75AFF019B1BBA1A0DC3F392
:105910000B23328020462B8001224B21FCF71CFFF9
:1059200000224B212046FCF717FF02B070BD00009B
:1059300010B50A4A1378984204460DD0517888422F
:105940000AD00BB141B90123D454FCF703FF204620
:10595000BDE81040FFF78BBF10BD00BF984200208C
:1059600010B5C4B209212046FCF70EFF40F0010239
:10597000D2B220460921BDE81040FCF7EDBE10B5BB
:10598000C4B209212046FCF7FFFE092100F0FE0207
:105990002046BDE81040FCF7DFBE38B5C4B20D4666
:1059A00020460A21FCF7F0FE40EA0502D2B220466A
:1059B0000A21BDE83840FCF7CFBE10B50446FCF71D
:1059C000CAFE20461F21FFF7E8FF2046BDE8104031
:1059D000FFF7C6BF38B5C4B20D4620460A21FCF712
:1059E000D3FE20EA0502D2B220460A21BDE83840A3
:1059F000FCF7B2BE10B50446FFF7C1FF20461F21D9
:105A0000BDE81040FFF7E6BF10B5C0B20C460B2151
:105A1000FCF7BAFE204010BD1F21FFF7F5BF0A4674
:105A2000C0B20B21FCF798BE1F21FFF7F8BF38B5B5
:105A3000C4B20D4620461721FCF7A6FE20EA050257
:105A4000D2B220461721BDE83840FCF785BE70B5BC
:105A5000C4B2064604212046FCF796FE042100F05D
:105A6000FB0205462046FCF777FE3046F021FFF7A3
:105A7000DEFF05F0F80220460421FCF76DFE492206
:105A800020212046FCF768FE0220FCF7ADFE2046F0
:105A900001222121FCF760FE20469A224121FCF7D9
:105AA0005BFE204601224A21FCF756FE20460122D9
:105AB0004B21FCF751FE204600224B21FCF74CFE07
:105AC000204601225621FCF747FE2046012258219C
:105AD000FCF742FE204601224021FCF73DFE204615
