:020000040800F2
:1000000000000320E50F0008192E00081B2E000831
:100010001D2E00081F2E0008212E000800000000E1
:10002000000000000000000000000000C183000884
:10003000232E00080000000051840008C77C00083F
:10004000351000083510000835100008351000087C
:10005000351000083510000835100008351000086C
:10006000351000083510000835100008351000085C
:10007000351000083510000835100008351000084C
:10008000351000083510000835100008351000083C
:10009000351000083510000835100008351000082C
:1000A000351000083510000835100008351000081C
:1000B000351000083510000835100008351000080C
:1000C00035100008351000083510000835100008FC
:1000D00035100008351000083510000835100008EC
:1000E00035100008351000083510000835100008DC
:1000F00035100008351000083510000835100008CC
:1001000035100008351000083510000835100008BB
:100110003510000835100008252E0008351000089D
:10012000351000083510000835100008351000089B
:10013000351000083510000835100008351000088B
:10014000351000083510000835100008351000087B
:10015000351000083510000835100008351000086B
:10016000351000083510000835100008351000085B
:100170003510000835100008351000080000000098
:10018000351000083510000835100008351000083B
:10019000351000083510000835100008351000082B
:0C01A000312E0008351000083D2E00082C
:1001B00010B5054C237833B9044B13B10448AFF3A1
:1001C00000800123237010BD800300200000000088
:1001D0003451020808B5034B1BB103490348AFF380
:1001E000008008BD00000000840300203451020894
:1001F000034613F8012B002AFBD1181A0138704767
:1002000001F0FF01102A2BDB10F0070F08D010F8C7
:10021000013B013A8B422DD010F0070F42B3F6D1CB
:10022000F0B441EA012141EA014122F007047FF0E4
:1002300000070023F0E80256083C85EA010586EA3B
:10024000010685FA47F5A3FA87F586FA47F6A5FA77
:1002500087F68EB9EED1F0BC01F0FF0102F0070283
:1002600032B110F8013B013A83EA010313B1F8D12E
:100270000020704701387047002D06BF354603380F
:10028000073815F0010F07D1013015F4807F02BF48
:10029000013015F4C03F0130F0BC0138704700BF99
:1002A00081F0004102E000BF83F0004330B54FEA27
:1002B00041044FEA430594EA050F08BF90EA020F94
:1002C0001FBF54EA000C55EA020C7FEA645C7FEA27
:1002D000655C00F0E2804FEA5454D4EB5555B8BF4A
:1002E0006D420CDD2C4480EA020281EA030382EABB
:1002F000000083EA010180EA020281EA0303362D4D
:1003000088BF30BD11F0004F4FEA01314FF4801C1F
:100310004CEA113102D0404261EB410113F0004F31
:100320004FEA03334CEA133302D0524263EB4303E8
:1003300094EA050F00F0A780A4F10104D5F1200E86
:100340000DDB02FA0EFC22FA05F2801841F10001E1
:1003500003FA0EF2801843FA05F359410EE0A5F1B5
:1003600020050EF1200E012A03FA0EFC28BF4CF0E6
:10037000020C43FA05F3C01851EBE37101F000459C
:1003800007D54FF0000EDCF1000C7EEB00006EEBA9
:100390000101B1F5801F1BD3B1F5001F0CD3490833
:1003A0005FEA30004FEA3C0C04F101044FEA44528A
:1003B00012F5800F80F09A80BCF1004F08BF5FEA11
:1003C000500C50F1000041EB045141EA050130BDF1
:1003D0005FEA4C0C404141EB0101013C28BFB1F503
:1003E000801FE9D291F0000F04BF01460020B1FA4E
:1003F00081F308BF2033A3F10B03B3F120020CDA21
:100400000C3208DD02F1140CC2F10C0201FA0CF0FE
:1004100021FA02F10CE002F11402D8BFC2F1200C63
:1004200001FA02F120FA0CFCDCBF41EA0C01904019
:10043000E41AA2BF01EB0451294330BD6FEA040462
:100440001F3C1CDA0C340EDC04F11404C4F120024D
:1004500020FA04F001FA02F340EA030021FA04F35F
:1004600045EA030130BDC4F10C04C4F1200220FAB6
:1004700002F001FA04F340EA0300294630BD21FAF4
:1004800004F0294630BD94F0000F83F4801306BFBA
:1004900081F480110134013D4EE77FEA645C18BFAE
:1004A0007FEA655C29D094EA050F08BF90EA020F45
:1004B00005D054EA000C04BF1946104630BD91EA3D
:1004C000030F1EBF0021002030BD5FEA545C05D140
:1004D0004000494128BF41F0004130BD14F580047F
:1004E0003CBF01F5801130BD01F0004545F0FE41F3
:1004F00041F470014FF0000030BD7FEA645C1ABF28
:10050000194610467FEA655C1CBF0B46024650EA5E
:10051000013406BF52EA033591EA030F41F400218A
:1005200030BD00BF90F0000F04BF0021704730B510
:100530004FF4806404F132044FF000054FF00001E5
:1005400050E700BF90F0000F04BF0021704730B5A6
:100550004FF4806404F1320410F0004548BF40427B
:100560004FF000013EE700BF42004FEAE2014FEAD0
:1005700031014FEA02701FBF12F07F4393F07F4FAB
:1005800081F06051704732F07F4208BF704793F0AE
:100590007F4F04BF41F40021704730B54FF46074C1
:1005A00001F0004521F000411CE700BF50EA0102C4
:1005B00008BF704730B54FF000050AE050EA01026D
:1005C00008BF704730B511F0004502D5404261EBDD
:1005D00041014FF4806404F132045FEA915C3FF41E
:1005E000D8AE4FF003025FEADC0C18BF03325FEABB
:1005F000DC0C18BF033202EBDC02C2F1200300FA6C
:1006000003FC20FA02F001FA03FE40EA0E0021FA90
:1006100002F11444BDE600BF70B54FF0FF0C4CF47E
:10062000E06C1CEA11541DBF1CEA135594EA0C0F30
:1006300095EA0C0F00F0DEF82C4481EA030621EA6B
:100640004C5123EA4C5350EA013518BF52EA0335A6
:1006500041F4801143F4801338D0A0FB02CE4FF058
:100660000005E1FB02E506F00042E0FB03E54FF088
:100670000006E1FB03569CF0000F18BF4EF0010E80
:10068000A4F1FF04B6F5007F64F5407404D25FEA7C
:100690004E0E6D4146EB060642EAC62141EA55512F
:1006A0004FEAC52040EA5E504FEACE2EB4F1FD0C71
:1006B00088BFBCF5E06F1ED8BEF1004F08BF5FEAEF
:1006C000500E50F1000041EB045170BD06F00046A1
:1006D00046EA010140EA020081EA0301B4EB5C044E
:1006E000C2BFD4EB0C0541EA045170BD41F4801146
:1006F0004FF0000E013C00F3AB8014F1360FDEBF6B
:10070000002001F0004170BDC4F10004203C35DA46
:100710000C341BDC04F11404C4F1200500FA05F3C9
:1007200020FA04F001FA05F240EA020001F000426A
:1007300021F0004110EBD37021FA04F642EB0601E0
:100740005EEA430E08BF20EAD37070BDC4F10C040A
:10075000C4F1200500FA04F320FA05F001FA04F2CE
:1007600040EA020001F0004110EBD37041F10001BA
:100770005EEA430E08BF20EAD37070BDC4F12005C5
:1007800000FA05F24EEA020E20FA04F301FA05F22D
:1007900043EA020321FA04F001F0004121FA04F2D5
:1007A00020EA020000EBD3705EEA430E08BF20EAA5
:1007B000D37070BD94F0000F0FD101F000464000DF
:1007C00041EB010111F4801F08BF013CF7D041EA61
:1007D000060195F0000F18BF704703F00046520065
:1007E00043EB030313F4801F08BF013DF7D043EA36
:1007F0000603704794EA0C0F0CEA135518BF95EAEC
:100800000C0F0CD050EA410618BF52EA4306D1D172
:1008100081EA030101F000414FF0000070BD50EA91
:10082000410606BF1046194652EA430619D094EA1B
:100830000C0F02D150EA013613D195EA0C0F05D105
:1008400052EA03361CBF104619460AD181EA030159
:1008500001F0004141F0FE4141F470014FF0000011
:1008600070BD41F0FE4141F4780170BD70B54FF0AC
:10087000FF0C4CF4E06C1CEA11541DBF1CEA13552C
:1008800094EA0C0F95EA0C0F00F0A7F8A4EB05040E
:1008900081EA030E52EA03354FEA013100F0888005
:1008A0004FEA03334FF0805545EA131343EA1263CE
:1008B0004FEA022245EA111545EA10654FEA002683
:1008C0000EF000419D4208BF964244F1FD0404F53C
:1008D000407402D25B084FEA3202B61A65EB030598
:1008E0005B084FEA32024FF480104FF4002CB6EB55
:1008F000020E75EB030E22BFB61A754640EA0C00D5
:100900005B084FEA3202B6EB020E75EB030E22BF14
:10091000B61A754640EA5C005B084FEA3202B6EB55
:10092000020E75EB030E22BFB61A754640EA9C0014
:100930005B084FEA3202B6EB020E75EB030E22BFE4
:10094000B61A754640EADC0055EA060E18D04FEAA2
:10095000051545EA16754FEA06164FEAC30343EA42
:1009600052734FEAC2025FEA1C1CC0D111F4801F0F
:100970000BD141EA00014FF000004FF0004CB6E708
:1009800011F4801F04BF01430020B4F1FD0C88BFA7
:10099000BCF5E06F3FF6AFAEB5EB030C04BFB6EBB2
:1009A000020C5FEA500C50F1000041EB045170BDA5
:1009B0000EF0004E4EEA113114EB5C04C2BFD4EBD2
:1009C0000C0541EA045170BD41F480114FF0000E56
:1009D000013C90E645EA060E8DE60CEA135594EAD2
:1009E0000C0F08BF95EA0C0F3FF43BAF94EA0C0FD5
:1009F0000AD150EA01347FF434AF95EA0C0F7FF44A
:100A000025AF104619462CE795EA0C0F06D152EA9D
:100A100003353FF4FDAE1046194622E750EA410681
:100A200018BF52EA43067FF4C5AE50EA41047FF492
:100A30000DAF52EA43057FF4EBAE12E74FF0FF3CF7
:100A400006E000BF4FF0010C02E000BF4FF0010CC8
:100A50004DF804CD4FEA410C7FEA6C5C4FEA430C41
:100A600018BF7FEA6C5C1BD001B050EA410C0CBF90
:100A700052EA430C91EA030F02BF90EA020F0020F2
:100A8000704710F1000F91EA030F58BF994208BF59
:100A900090422CBFD8176FEAE37040F00100704716
:100AA0004FEA410C7FEA6C5C02D150EA013C07D16D
:100AB0004FEA430C7FEA6C5CD6D152EA033CD3D0B8
:100AC0005DF8040B704700BF8446104662468C46B2
:100AD0001946634600E000BF01B5FFF7B7FF0028E5
:100AE00048BF10F1000F01BD4DF808EDFFF7F4FF0E
:100AF0000CBF012000205DF808FB00BF4DF808ED99
:100B0000FFF7EAFF34BF012000205DF808FB00BFBB
:100B10004DF808EDFFF7E0FF94BF012000205DF8DD
:100B200008FB00BF4DF808EDFFF7CEFF94BF012092
:100B300000205DF808FB00BF4DF808EDFFF7C4FF8B
:100B400034BF012000205DF808FB00BF4FEA410CD4
:100B50007FEA6C5C02D150EA013C0AD14FEA430CB7
:100B60007FEA6C5C02D152EA033C02D14FF00000F4
:100B700070474FF0010070474FEA4102B2F1E04385
:100B800024BFB3F5001CDCF1FE5C0DD901F0004C74
:100B90004FEAC0024CEA5070B2F1004F40EB8300C4
:100BA00008BF20F00100704711F0804F21D113F1F0
:100BB0003872BCBF01F00040704741F480114FEA29
:100BC0005252C2F11802C2F1200C10FA0CF320FAB2
:100BD00002F018BF40F001004FEAC1234FEAD323CF
:100BE00003FA0CFC40EA0C0023FA02F34FEA430339
:100BF000CCE77FEA625307D150EA01331EBF4FF0C2
:100C0000FE4040F44000704701F0004040F0FE40DC
:100C100040F40000704700BF7BB972B90029BEBF25
:100C200000204FF0004106E008BF00281CBF6FF015
:100C300000414FF0FF3000F0D3B9ADF1080C6DE981
:100C400004CE002909DB002B1ADB00F04DF8DDF89B
:100C500004E0DDE9022304B07047404261EB41014A
:100C6000002B1BDB00F040F8DDF804E0DDE9022397
:100C700004B0404261EB4101524263EB43037047D1
:100C8000524263EB430300F02FF8DDF804E0DDE9A6
:100C9000022304B0404261EB41017047524263EBD2
:100CA000430300F021F8DDF804E0DDE9022304B09D
:100CB000524263EB4303704753B94AB9002908BF56
:100CC00000281CBF4FF0FF314FF0FF3000F088B913
:100CD000ADF1080C6DE904CE00F006F8DDF804E093
:100CE000DDE9022304B070472DE9F047089D8E46E8
:100CF00004468846002B4AD18A42174662D9B2FA86
:100D000082F64EB1C6F1200301FA06F820FA03F389
:100D1000B74043EA0808B4404FEA174E1FFA87FC71
:100D2000B8FBFEF1230C0EFB118843EA084301FBDC
:100D30000CF29A4209D9FB1801F1FF3080F0EA80E9
:100D40009A4240F2E78002393B449A1AA3B2B2FBBE
:100D5000FEF00EFB102243EA024300FB0CFC9C4514
:100D600009D9FB1800F1FF3280F0D6809C4540F293
:100D7000D3803B44023840EA0140A3EB0C0300213E
:100D80001DB1F3400022C5E90032BDE8F0878B4277
:100D900005D90DB1C5E9000100210846F5E7B3FA10
:100DA00083F1002946D1734502D3824200F20581C6
:100DB000841A6EEB030201209046002DE5D0C5E9B0
:100DC0000048E2E7002A00F09080B2FA82F6002E96
:100DD00040F0A4808A1A030C4FEA174E80B2BCB2CE
:100DE0000121B2FBFEFC0EFB1C2243EA024304FB82
:100DF0000CF29A4207D9FB180CF1FF3802D29A4242
:100E000000F2E080C4469B1AB3FBFEF20EFB1233E5
:100E100040EA034302FB04F49C4207D9FB1802F1A9
:100E2000FF3002D29C4200F2CA8002461B1B42EAFB
:100E30000C40A5E7C1F120068B4022FA06F71F43BC
:100E40000EFA01F420FA06F32EFA06FE4FEA1749CD
:100E5000234300FA01F81FFA87FCBEFBF9F01C0CD3
:100E600009FB10EE44EA0E4400FB0CFEA64502FA14
:100E700001F209D93C1900F1FF3A80F09C80A645A7
:100E800040F2998002383C44A4EB0E041FFA83FE22
:100E9000B4FBF9F309FB13444EEA044403FB0CFCD6
:100EA000A44508D93C1903F1FF3E80F08280A44597
:100EB0007FD9023B3C4443EA0040A4EB0C04A0FB76
:100EC00002EC64457346E14662D35FD05DB1B8EB96
:100ED000030264EB090404FA06F622FA01F31E4346
:100EE000CC40C5E9006400214FE7B1FBF2FC010CE6
:100EF00041EA0E4180B240EA01423B4638463C4658
:100F0000B846BE462026B1FBF7F1A2EB080241EA43
:100F10000C4166E7014618E710462CE7C6F12002AF
:100F20002EFA02F3B740B14020FA02F24FEA174E10
:100F30000A43B3FBFEF8BCB20EFB1833110C41EAB6
:100F4000034108FB04F9B04089454FEA104380B2E1
:100F50003ED9791808F1FF3C01D289451FD8A1EB91
:100F60000901B1FBFEF909FB04F80EFB191192B25D
:100F700042EA0142424529D2BA1809F1FF31C4D2EE
:100F80004245C2D2A9F102013A44BEE7F0459DD2E2
:100F9000BEEB02036CEB070C0138E14696E7A7EBCA
:100FA00009094944A8F1020CB1FBFEF909FB04F858
:100FB000DBE773467FE7504666E70846FDE63B44BD
:100FC000023A33E7ACF1020C3B441CE749469CE78C
:100FD000A1EB0901C446B1FBFEF909FB04F8C4E723
:100FE000704700BFDFF834D0002103E00C4B5B58A2
:100FF000435004310B480C4B42189A42F6D30B4A2B
:1010000002E0002342F8043B094B9A42F9D304F072
:10101000B5F823F079F901F0ADF87047000003202E
:10102000CC971308000000206C01002080030020F2
:101030002C580120FEE7704708B500F0BFFDBDE861
:10104000084000F041BD00F0BBBD704710B5042161
:10105000044621F0C6FD204610BD000038B50C4BFB
:101060000C4C18800C4B822019806368984740F61E
:10107000110398420AD1094D23682C6082209847B9
:101080002B688220DB689847002038BD0120FCE7F0
:10109000A603002054000020A4030020A803002081
:1010A0004FF4A071F020FFF7D9BF0000F7B5394D1C
:1010B0002B6804461B6982209847208000284ED068
:1010C0002B680DF106025B6901A982209847324B1B
:1010D0001B78002B4BD0BDF8062040F674639A4273
:1010E0003FD9ADF80630BDF806209B1A9BB20A2BFB
:1010F00042D90B22B3FBF2F3284A1288934201D95A
:10110000013A93B2BDF80420254840F6B8318A422E
:1011100034D8C2F571620E32016892B20F25B2FB6B
:10112000F5F2204D2D88AA4284BF05F1FF35AAB201
:101130008A4215468EB22AD9921B91B21A4E37684E
:10114000BB42BAB28CBF9A1AD21A92B21144052984
:10115000C4BF05603360036863803368A38003B055
:10116000F0BDB32A9CBFB422ADF80620BBE7BDF8A2
:101170000630A3F5B473B9E70023C3E7C2F56D6287
:10118000083292B20E2A0168C8D800252A46891A68
:1011900089B2D3E7A803002038390020A403002037
:1011A000A0030020A60300209C03002037B568465A
:1011B0000D461446FFF77AFFBDF8000030B1BDF8C8
:1011C00002302B60BDF804302360012003B030BD35
:1011D000032821D8DFE800F0020B12190F4B1A6820
:1011E000B2FA82F2520904210D4804F071BC0B4B93
:1011F0005A68B2FA82F252090821F5E7074B9A6859
:10120000B2FA82F252091021EEE7044BDA68B2FA20
:1012100082F252092021E7E7704700BFAC030020AB
:1012200000100240032821D8DFE800F0020B121959
:101230000F4B1A68003A18BF012204210D4804F030
:1012400047BC0B4B5A68003A18BF01220821F5E74A
:10125000074B9A68003A18BF01221021EEE7044BB1
:10126000DA68003A18BF01222021E7E7704700BF83
:10127000AC0300200010024003280DD8DFE800F086
:101280000206080A0421054804F027BC0821FAE7F1
:101290001021F8E72021F6E7704700BF0010024058
:1012A00008B5032811D8DFE800F0020A0C0E04216B
:1012B000074804F007FC431E5842584108BD082166
:1012C000F6E71021F4E72021F2E70020F3E700BF62
:1012D0000010024070B5084D00240126E0B2FFF76F
:1012E000DFFF18B12B68012B18BF2E600134052CCD
:1012F00005F10405F2D170BDAC030020012380F894
:10130000781080F8793070477047002070470000EF
:10131000034B4164003918BF01211970704700BFA9
:10132000EB4A0120704700207047836B0BB10846E1
:10133000184770474FF6FF707047406803689B6915
:1013400018477047704770477047704710B504469C
:1013500000F04CFD23680349D3F890302046BDE8E7
:1013600010401847000000D008B503680446D3F8C1
:101370008430984723682046DB6F984700F0ECF8EC
:10138000236820465B6F9847292001F0D7F900F0C9
:10139000E3F8236820465B6F9847F8E710B50446EA
:1013A00009F02EFE23682046D3F8BC30BDE810407B
:1013B000184700F0FFBC00F003BD00F035BD00F0A1
:1013C000D5BC00F045BD00F04DBD00F0D9BC09F022
:1013D00045B810B58421044621F003FC204610BD19
:1013E00010B590F8341090F878400C4B8C421A7875
:1013F00009D03AB90A4A0B491488088810800C8031
:1014000001221A7010BD002AFCD0054A0549148833
:10141000088810800C800022F3E700BFE44A012016
:10142000E04A0120E24A012070B50D46194635B95F
:10143000094B0A4A0A4840F2FF2122F035FCC0E974
:101440000F52084B003A18BF01221A700368BDE81A
:101450007040D3F890301847145202084C520208DA
:101460009A520208EA4A012008B5094B1B888B42B0
:1014700003D8084B1B88934205D9074B074A0848F5
:10148000A32122F011FC074B1980074B1A8008BDDD
:10149000E04A0120E24A0120DF52020842530208DA
:1014A0009A520208E64A0120E84A0120034690F8D1
:1014B0007A0018B1586803681B6818477047000025
:1014C000012108B50022084606F090FC0A4B18607E
:1014D00028B90A4B0A4A28210A4822F0E5FB0022D3
:1014E0000421012006F021FD074B186018B9074BB5
:1014F000034A2C21F0E708BDC003002085530208F1
:10150000CE530208FD530208BC0300203E540208DB
:10151000024B4FF0FF31186806F0B2BCC003002048
:10152000014B186806F0D8BCC0030020024B002114
:10153000186806F0A5BC00BFC0030020FFF7F0BF8D
:1015400003480449006800231A4606F029BD00BF7D
:10155000BC0300200400002013B5084C00231A46E9
:1015600001A9206806F04DFD20684FF0FF330022EE
:1015700001A906F046FD02B010BD00BFBC0300206B
:1015800003685B6C18470120704703689B6A184723
:10159000FEE740F2EF307047054B0360054B4FF01C
:1015A0008062C3F88820BFF34F8FBFF36F8F7047FF
:1015B000305E020800E100E010B504464FF45A61C5
:1015C000FFF7EAFF204621F00CFB204610BD00008B
:1015D00082B0002301930E4B1A6B42F400021A638F
:1015E0001A6B02F400020192019A1A6942F4000295
:1015F0001A611A6922F400021A61064B064A1A613E
:10160000064A5A61064B4FF080629A6002B07047FA
:1016100000380240183B002071180008911500089E
:1016200000E100E008B50A2809D8DFE800F006105C
:101630000E080808081010101000022008BD054B05
:10164000054A0648902122F02FFB0020F6E70120F2
:10165000F4E700BF805402089B540208E6540208D5
:1016600038B50C46887FFFF7DDFFA58AE28A164B66
:101670002169586342EA05425A64628BD963521B5E
:101680001A642568082D0ED19A611A615862207F6C
:101690000E4A42EA0062DA61E2681A620C4A596153
:1016A000D9601A6038BD0022D8611A61E1680A0A5F
:1016B000480902F4784200F4FC600243C1F3C4011B
:1016C0000A439A63034AECE700B0024009000100B4
:1016D000012302000123030008B50B280BD8DFE823
:1016E00000F00612100A0A0A0A0808080808022070
:1016F00008BD0520FCE7054B054A06486F2122F08E
:10170000D3FA0020F4E70120F2E700BF805402087A
:1017100025550208E65402082DE9F04191F81D8094
:101720000C464046FFF7D8FFA77F05463846FFF72F
:10173000D3FF06463846FFF775FFA18A628B444BFC
:10174000521A1A649A61228B521A1A61E28A5863F9
:1017500042EA01425A6421696268D963DA6020680A
:10176000802828D0227F0FD8202867D0402865D035
:1017700004281AD0364B45EA026545F40035B845D1
:10178000DD6161D0334A44E0B0F5807F04D0B0F52C
:10179000007FEFD1304800E0304840EA0262DA6171
:1017A000E2681A625E62596132E045EA026242F41E
:1017B0000032DA61F6E7A068021DDA62227F45EAAC
:1017C000026545F40035DD615E625961017841B121
:1017D000012921D0224B234A23484FF48D7122F056
:1017E00063FADA69418822F47F42013922F010025B
:1017F00042EA0122DA610121154BDA6942F0200246
:10180000DA61DA699206FCD410229A600029B9D014
:10181000164A1A60BDE8F081B2F1FF01DA6940882A
:1018200022F47F4200F1FF3022F0100242EA00224F
:1018300042F0100218BF0121DA61DDE745EA0262D9
:10184000034B42F40032B4E742F20132E1E700BF59
:1018500000B0024001230100090002000A0002005A
:101860006F55020889550208E65402080123020058
:10187000024B1B68586803685B691847EC4A0120F3
:1018800070B5044625460A4B0C300026606026726F
:10189000667245F8203B6022294609F007FD04F5F1
:1018A0005A63EE6024359D42FBD1204670BD00BFD7
:1018B000305E0208034B1A68D207FCD423229A60D8
:1018C000704700BF00B002407047000030B50F4CB9
:1018D0002568ED07FCD423250904A56041F001012A
:1018E0000225FF2B65636164E0630AD008496562E5
:1018F00041EA0363E361074B22626061E0602360B9
:1019000030BDE561039BA363034BF8E700B00240E1
:1019100009000100010002000100030030B50E4C77
:101920002568ED07FCD423251204A56042F00102CE
:101930000225FF2B65636264E063E16008D01B064B
:1019400043F00213E361054B65626061236030BDC3
:10195000034BE3610123F9E700B0024001000200FC
:10196000020002FF30B50B4C2568ED07FCD423259F
:1019700012041B06A56043F40033022542F0010265
:1019800065636264E063E160E361034B656260612B
:10199000236030BD00B0024001000200012070470A
:1019A0000C2070470C2303FB0100083070470C2308
:1019B00003FB0100083070470120704742F22C40C1
:1019C000704742F22C4303FB01000830704742F29B
:1019D0002C4303FB010008307047012070471020A2
:1019E000704700EB01100830704700EB0110083021
:1019F0007047084601F022BC10B5034B0360044653
:101A000008F083FA204610BDE85E020810B50446CF
:101A1000FFF7F2FF2046142121F0E3F8204610BD25
:101A200010B5034B0360044608F06FFA204610BD62
:101A3000B45E020810B50446FFF7F2FF204642F2FA
:101A4000344121F0CEF8204610BD000010B5034B04
:101A50000360044608F059FA204610BD805E020873
:101A600010B50446FFF7F2FF2046182121F0B9F81F
:101A7000204610BD10B5094B0360044600F5115017
:101A80002030FFF7B9FF04F12C00FFF7C9FF04F184
:101A90001400FFF7DBFF204610BD00BF1C5F0208EB
:101AA00008B50248FFF7E6FF08BD00BF9C12002002
:101AB00010B50446FFF7DEFF204642F2D45121F074
:101AC00090F8204610BD00002DE9F34101F02CFAFA
:101AD000054601F02DFA00240146234628462246F9
:101AE000009411F0EBFF274B274A1A60204602F0C2
:101AF000C3F9264D264B274A27489A6011F046FF26
:101B00002B68BFF35B8FDB0736D4284621F06BF8D8
:101B100090B3224C224F234B236007F1180604F1A7
:101B2000140004F12C086060C4F80880E7602661A6
:101B300008F0ECF91C4B6361404608F0E7F91B4BD9
:101B4000E362384608F0E2F904F5005303F274400A
:101B5000174AC3F8602402F013FA224607F1140171
:101B6000304602F003FA304601F068FB114822F0DB
:101B7000B9F8284621F043F80F4802B0BDE8F0411B
:101B8000FFF7E4BB504B01204804002098120020CE
:101B9000680400204C040020080000209C12002053
:101BA000FC3600201C5F0208805E0208B45E02085A
:101BB000E85E0208A11A0008C40300207047000074
:101BC0000148FFF7D1BB00BFC403002070B5264E0B
:101BD000264C274D274B23603046FFF751FE284601
:101BE00017F072F824480FF027FF244B2448DC60DC
:101BF00000224FF48071C3E9121222491A86C3E908
:101C00001A12214983F85820C3E91E011F49C3F85D
:101C100080101F491F480B60F021C3E90422C3E96B
:101C20000622C3E90822C3E90A22C3E90E22C3E956
:101C30001022C3E91422C3E917225A6683F87020E0
:101C40005A67C3E9016501801348018013484FF4C6
:101C5000A07101801248018012490A70012283F8A4
:101C60003420114A1A6070BDF40400209412002040
:101C700068040020045202084C040020C403002021
:101C80000000010101000001000450001A001400CE
:101C9000EC4A0120E04A0120E64A0120E24A012004
:101CA000E84A0120E44A0120445D02080148FFF7A8
:101CB00073BC00BFF404002000207047818070478F
:101CC000C1807047018170474181704770477047FC
:101CD00070477047704710B4C4880368121B84882B
:101CE0005B6D091B12B25DF8044B09B218474FF641
:101CF000FF7383814FF0FF3303621368C361106089
:101D00007047002070478B888380012070477047A0
:101D100080F82610704790F82600704710B5002212
:101D2000B1F90840B1F90A10028042808480C18074
:101D300010BD0022028042808280C28070470177FD
:101D4000704780ED080A704780F82410704780F8CB
:101D50002510704701207047983070478C307047CD
:101D6000843070477047704770470000034B9022E3
:101D700083F85A2383F85823704700BF00E100E03E
:101D8000094A0A49D3680A48C3F30A03013B9BB2D4
:101D90000B801169C1F30A01013901801364536B8F
:101DA00043F001035363704700680140723800201C
:101DB00070380020014BD3F8AC0070470068014038
:101DC000024B0122C3F8AC105A6270470068014010
:101DD00010B52C21044620F004FF204610BD10B59C
:101DE000BC21044620F0FDFE204610BD70B504461F
:101DF00008F089FB23689D6E0EF0B6FB0146204675
:101E0000A8472368054AD3F88C502046AC460023E7
:101E1000BDE87040A2F51631604700BF00B004D0A5
:101E200008F058BB08F062BB08F01EBB08F08DBC80
:101E300090F8252012B103685B691847704790F845
:101E400025201AB190F8242002B1186070470000D4
:101E5000034B4FF080629A604FF080729A60704737
:101E600000E100E0084B4FF08062C3F88820BFF328
:101E70004F8FBFF36F8F4FF08072C3F88820BFF38E
:101E80004F8FBFF36F8F704700E100E070B5002304
:101E9000124E8380124B0360336893F85820054636
:101EA0000AB1D86C00B998680368DB6A9847336850
:101EB000B0FA80F4D86C640930B10368DB6A9847E3
:101EC000002808BF44F001042CB9064B064A074815
:101ED0002C2121F0E9FE284670BD00BFEC4A01200C
:101EE000305F0208C7550208255602085E560208F0
:101EF00070B5254E3568BFF35B8F15F0010540D1F5
:101F0000304620F070FE00283BD0204C204B25614D
:101F100004F13400C4E90035C4E90255E584A56242
:101F2000A58510F06EF804F158000AF075FE194B03
:101F3000A3652046184B40F8843BFFF7A7FF174BDB
:101F4000C4F884302433C4F88C304FF4C803C4E997
:101F500028350023C4F8AC30C4F8B030C4F8B4302D
:101F6000C4F8B8300E480F4BC4F89050C4F89C50D9
:101F7000C4F8A850C4F8983021F0B4FE304620F0E0
:101F80003EFE024870BD00BF743800207838002043
:101F900040660208505F0208C85F0208F465020844
:101FA000691D0008D465020838B5184C23685BB376
:101FB000174B184A1B6C11888B4216D1164B198887
:101FC00004F08EFB236893F86A200025013283F821
:101FD0006A2083F87C50FFF7B3FA206809F010F804
:101FE0002846BDE83840FFF7F3B804F079FB2468D1
:101FF000236820461B6A9847012384F87C30002020
:10200000BDE83840FFF70EB938BD00BFEC4A0120EB
:1020100000680140723800207038002007B5064B78
:10202000ADF806001B68054801220DF1060105F018
:10203000CDF803B05DF804FB0C000020C43900208B
:1020400008B5642005F0C6FEFBE70000BFB51B4ED7
:102050001B4D1C4C1C4F304603F084F9284603F0FE
:1020600081F90121304603F0FBF90121284603F0F4
:10207000F7F9164B22881A80154B3A881A80304699
:1020800003F041FA2080284603F03DFA22881149E6
:10209000388083B201A821F0CBFF01A8FEF7A8F891
:1020A0000A2382B201A90C4805F027FD322003F073
:1020B0009FF8012005F08EFECBE700BFA83B002073
:1020C000603B00201A0000201800002016000020AD
:1020D00014000020C05602087C39002030B595B0AD
:1020E000102200210AA822F008F81422002103A8D7
:1020F00022F003F800241D4B01941A6C42F0805228
:102100001A641B6C03F080530193019B184B0294DB
:102110001A6842F440421A601B6803F44043029379
:102120000122029B4FF48033CDE9082302254FF4AE
:102130008003CDE90E5308214FF4A873CDE91013A5
:1021400008A804231393129504F0E8FA0F23CDE9AD
:1021500003354FF4A0504FF48053CDE90603052119
:1021600003A8059404F0B6FC15B030BD0038024059
:10217000007000402DE980489BB003F00DF8FFF798
:10218000ADFF142200210DA821F0B7FF0024C84B99
:1021900000941A6BC748C84D42F010021A631A6BBC
:1021A00002F010020092009A01941A6B42F0200291
:1021B0001A631A6B02F020020192019A02941A6BC0
:1021C00042F080021A631A6B02F080020292029AB5
:1021D00003941A6B42F004021A631A6B02F00402B1
:1021E0000392039A04941A6B42F001021A631A6B69
:1021F00002F001020492049A05941A6B42F0020262
:102200001A631A6B02F002020592059A06941A6B81
:1022100042F040021A631A6B02F040020692069ADC
:1022200007941A6B42F008021A631B6B03F0080351
:10223000224607933C21079B03F04AFC9F4801225A
:10224000022103F045FC22469C48042103F040FC97
:1022500022469B484FF4405103F03AFC01263C23B0
:10226000CDE90D3693480F9403230DA9022710934F
:1022700003F044FB91480DA9CDE90D76CDE90F445B
:1022800003F03CFB04238D480DA9CDE90D36CDE9C3
:102290000F4703F033FB0DA94FF440538848CDE9B5
:1022A0000D36CDE90F4703F029FB8648864B0360C6
:1022B00003F01AFADFF838C2844B2C62C5E900C378
:1022C00028464FF48043C5E90434C5E90244C5E912
:1022D000064403F00BFE1021284604F04FF8214677
:1022E000284604F06AF87A4DDFF808E2AC624FF451
:1022F0008273C5E900E34FF400781823C5E906832B
:1023000028460A23C5E90244C5E90444C5E908444E
:10231000EB6204F0FFFE8F232246394667488DF8B2
:1023200024308DF8344003F0D3FB32464FF47A73F7
:1023300009A9284604F04AFF4FF47A7332460DA9E2
:10234000284605F0EFF8324639465C48614D03F007
:10235000BFFB9DF83430D32B04BF5F4B1E705F4B27
:102360000126C5E900364FF0100840230024C5E9D6
:1023700004834FF4C073C5E906344FF40063C5E924
:1023800008344FF4005302274FF0040A4FF0030BB8
:10239000AB620DA907232846CDE90D73CDE90FA344
:1023A0004FF00809C5E9024ACDE911B7139704F0C7
:1023B00095FD4FF6FF7209A92846CDE90A960894C3
:1023C00009960C9404F0AAFD304602F011FF4FF676
:1023D000FF7209A92846CDE90979CDE90B6404F01B
:1023E0009DFD4FF6FF7209A92846CDE909B9CDE94F
:1023F0000BA404F093FD4FF40C730893089B0C930B
:102400004FF6FF7209A92846CDE909A90B9604F0F9
:1024100085FD40F26A51284604F09EFD3422214693
:102420000DEB020021F069FE2D4D2E4B2C61C5E90C
:1024300000340923C5E905361D23C5E9073B40F2F1
:102440000D1240F24313C5E9092340F2171140F27F
:1024500047132846C5E90B13C5E90244AC8685F845
:10246000364004F045F8FF21F022CDE912144FF078
:1024700005094FF480614FF4A073CDE90E24CDE936
:102480001419CDE916420DA922462846CDE9103788
:10249000154D18930D94ADF864408DF8664004F026
:1024A000F2F8124B2B601B6898472B6824E000BFA2
:1024B0000038024000100240C43A002000080240E8
:1024C000000C0240583B002000300240A086010072
:1024D000C43900204839002038390020400100A0CC
:1024E0001C3A002000680140343900201C00002004
:1024F000005C004000500140424DDB689847424B71
:102500002846C5E90034C5E90274C5E90A47C5E9AA
:102510000C4403F0F9F83146284603F0ABF93B4D83
:102520003B4F424621460DA821F0E7FD394B2C6177
:102530004FF4003B4FF0007A2846C5E9003BC5F850
:1025400008A02C7685F82040EC62AF62EC60EE616A
:1025500085F830406E6102F05FFE0D230DA928461C
:10256000CDE90D362C4D0F9402F0D0FF42462146A6
:102570000DA821F0C2FD294BC5F808A02846C5E9E1
:10258000003BC5E90A742C612C7685F82040EC608C
:10259000EE6185F830406E6102F03EFE0DA92846DE
:1025A000CDE90D961E4D0F9402F0B0FF1D484FF47B
:1025B000E133C0E900530C23C0E90534C0E902440B
:1025C0000461C46105F06AFAFEF736FDFEF733FDDB
:1025D00005F086FB144A1548214605F0B7FB144B5D
:1025E000144A18602146144805F0B0FB134B144AF6
:1025F00018602146134805F0A9FB134B186005F03D
:1026000081FBFEE7183B002000B00240A83B002001
:102610000100000F00200140603B0020002101402C
:10262000001001407C39002054600208412000085D
:10263000443900203060020847100008403900206B
:102640000C6002084D2000083C390020704770479C
:102650007FB5094B8DF817201B6802930DF1170207
:102660000123009201930A460146044803F0E6FC68
:1026700007B05DF804FB00BF10000020C43A002042
:102680007FB500238DF81730084B1B6802930A466C
:1026900001230DF11701009101930146044803F055
:1026A0005DFD9DF8170007B05DF804FB10000020E9
:1026B000C43A00201FB5084C24680092CDE90134CB
:1026C0000A4601230146054803F048FD003818BFBB
:1026D000012004B010BD00BF10000020C43A00204B
:1026E00002F086BD10B5064C00222046042103F0FE
:1026F000EFF920460122BDE81040042103F0E8B9BB
:102700000008024038B50B4D044601220A484FF438
:10271000005103F0DDF900220421284603F0D8F926
:102720002046FFF77BFC28460122BDE83840042103
:1027300003F0CEB900080240000C024038B50B4D42
:10274000044600220A484FF4005103F0C1F9002268
:102750000421284603F0BCF92046FFF75FFC284619
:102760000122BDE83840042103F0B2B9000802405C
:10277000000C0240F7B5144E144F05460C46304687
:102780000022042103F0A4F900224FF4005138463E
:1027900003F09EF92846FFF741FC0D4B0D481B68DE
:1027A000224601A904F0BEFE384601224FF4005132
:1027B000019C03F08DF930460122042103F088F9D1
:1027C000204603B0F0BD00BF00080240000C0240EC
:1027D0000C000020C439002002F00ABD0268034B3F
:1027E0009A4201D102F0F2BC704700BF00100040D5
:1027F0007047000082B00E4B00220092596C41F4E9
:1028000080415964596C01F4804100910099019212
:10281000196C41F0805119641B6C03F080530193D3
:10282000019B0F216FF0010002B002F01DBF00BF3D
:102830000038024010B514228AB0044600210DEB86
:10284000020021F05AFC2368214A93421FD1214BF8
:102850002148002101915A6C42F480725A645A6CEA
:1028600002F480720192019A02911A6B42F0040202
:102870001A631B6B03F0040302930821029B0323DA
:10288000CDE9051305A903F039F80AB010BD134AC4
:102890009342FAD10F4B1248002103915A6C42F433
:1028A00000725A645A6C02F400720392039A049103
:1028B0001A6B42F001021A631B6B03F001030493CD
:1028C000049B20220323CDE9052305A9DBE700BFF4
:1028D0000020014000380240000802400021014071
:1028E000000002400268094B9A4282B00BD10023DB
:1028F0000193074B1A6B42F480521A631B6B03F46B
:1029000080530193019B02B0704700BF003002402A
:102910000038024007B50F4B02689A4216D10022D8
:10292000A3F5F0430192196B41F4000119631B6B8D
:1029300003F40003019305215A20019B02F094FE49
:102940005A2003B05DF804EB02F0C0BE03B05DF89E
:1029500004FB00BF00B002402DE9F043044689B0FB
:102960001422002103A821F0C8FB2268244B9A42BC
:1029700043D1244C244800250095236B43F00403E5
:102980002363236B03F004030093009B0195236BE7
:1029900043F001032363236B03F001030193019BC5
:1029A0004FF012094FF400734FF00108032704267B
:1029B00003A9CDE90339CDE90587079602F09EFF0B
:1029C0004FF480731148079603A9CDE90339CDE987
:1029D000058702F093FF0295236C43F40003236400
:1029E000236C03F400030293029B236A43F4000365
:1029F0002362236A23F40003236209B0BDE8F08355
:102A0000005C004000380240000802400000024024
:102A1000F0B599B004461422002107A821F06DFBFF
:102A200030220DEB0200002121F067FB22685E4B93
:102A30009A4240F0B78008230C93C02310930423DC
:102A400012930CA84FF40033159304F01BF908B14E
:102A5000FFF7CEFE554B5648002400945A6C42F0C6
:102A600080625A645A6C02F080620092009A01946B
:102A70001A6B42F020021A631A6B02F020020192D4
:102A8000019A02941A6B42F001021A631A6B02F067
:102A900001020292029A03941A6B42F002021A6334
:102AA0001A6B02F002020392039A04941A6B42F02A
:102AB00040021A631A6B02F040020492049A0594D1
:102AC0001A6B42F004021A631A6B02F004020592B8
:102AD000059A06941A6B42F008021A631B6B03F006
:102AE0000803069302250E26069B0B964FF480637F
:102AF00007A9CDE90735CDE9094502F0FFFE41F60A
:102B000058032C480B9607A9CDE907350927CDE9CD
:102B1000094502F0F3FE032327480B9707A9CDE9E7
:102B20000735CDE9094502F0E9FE4FF4706322480C
:102B30000B9607A9CDE90735CDE9094502F0DEFE80
:102B40004FF40C631D480B9607A9CDE90735CDE975
:102B5000094502F0D3FEC02319480B9607A9CDE919
:102B60000735CDE9094502F0C9FE082315480B9643
:102B700007A9CDE90735CDE9094502F0BFFE4FF4BD
:102B8000A0530E480B9707A9CDE90735CDE90945B4
:102B900002F0B4FE58202246052102F065FD5820BF
:102BA00002F094FD19B0F0BD006801400038024009
:102BB00000140240000002400004024000180240DD
:102BC00000080240000C024010B5044688B01422F0
:102BD000002103A821F091FA2268144B9A4223D1D4
:102BE00003F56843002101915A6C114842F48012A8
:102BF0005A645A6C02F480120192019A02911A6B83
:102C000042F020021A631B6B03F020030293029B25
:102C10004FF4607202230321CDE903230523CDE99C
:102C2000061303A902F06AFE08B010BD005001406F
:102C30000014024010B5044688B01422002103A8F5
:102C400021F05BFA2268144B9A4223D103F59433A6
:102C5000002101915A6C114842F010025A645A6CDA
:102C600002F010020192019A02911A6B42F00102E5
:102C70001A631B6B03F001030293029B4FF4C062C3
:102C800002230321CDE903230723CDE9061303A97A
:102C900002F034FE08B010BD0010014000000240F8
:102CA0002DE9F04186B0002303932B4B1C68002CC8
:102CB0004FD14FF00108C3F80080284B00949A6B65
:102CC000274842EA08029A639B6B03EA08030093D1
:102CD000022703260C25009B01A94FF63F03CDE9EF
:102CE0000137CDE9046502F009FE1E48059501A9EA
:102CF000CDE90187CDE9034602F000FE48F2331327
:102D00001948059501A9CDE90137CDE9034602F03F
:102D1000F5FD4FF683731548059501A9CDE90137F7
:102D2000CDE9034602F0EAFD4CF203731048059525
:102D300001A9CDE90137CDE9034602F0DFFD6023AB
:102D40000C48059501A9CDE90137CDE9034602F00C
:102D5000D5FD06B0BDE8F081F03B00200038024010
:102D60000014024000080240001802400010024017
:102D7000000C02400004024070B588B000230293AA
:102D8000204B1A6C42F010021A641B6C03F0100303
:102D90000293054601A903A8029B03F055FF069B79
:102DA0004BBB03F031FF184E184B336040F2E73352
:102DB000F360174BB0FBF3F3013B73603046002325
:102DC0003361B360B36104F07DFD044680B93046E1
:102DD00004F04EFC044658B9362002F077FC0F2D63
:102DE0000DD822462946362002F03EFC094B1D60D4
:102DF000204608B070BD03F007FF4000D3E7012470
:102E0000F6E700BF00380240F43B0020001000400D
:102E100040420F00840000207047FEE7FEE7FEE717
:102E2000FEE77047014804F061BC00BFF43B00209E
:102E3000014803F0CBBB00BF1C3A0020014802F060
:102E40008FBC00BF183B00200120704708B521F05F
:102E500055FA162303604FF0FF3008BD08B521F086
:102E60004DFA16230360FEE770B50D4614460E4674
:102E7000731B9C4201DC204670BDAFF3008006F856
:102E8000010BF5E770B50D4614460E46731B9C42C8
:102E900001DC204670BD16F8010BAFF30080F5E7AA
:102EA0004FF0FF3070474FF400534B6000207047E5
:102EB00001207047002070470A4A116808B5034690
:102EC00009B9094911601068694603448B4206D963
:102ED00021F014FA0C2303604FF0FF3008BD13609B
:102EE000FCE700BF3C3C002030580120704710B583
:102EF000042104461FF075FE204610BD08B50329C5
:102F00000FD8DFE801F00A02060A01F001F8406874
:102F100008BD00F0FDFF8068FAE700F0F9FF0068E7
:102F2000F6E70020F4E70000004870478C600208D4
:102F30000C20704713B5002451B1036801948DF83B
:102F4000034001AA9C680DF10303A04702B010BD25
:102F50000846FBE7C0897047008A7047C088704701
:102F600080887047807A00F07F007047807AC009BF
:102F700070470020704700009FED010A704700BFB6
:102F800000000000704710B5082104461FF029FE1C
:102F9000204610BD7047704700F59873086849686F
:102FA00003C3704770477047416070477047704770
:102FB000064BC0F84C310023C0F8503100F5A27325
:102FC000C0F84801C0F84031704700BF71300008B8
:102FD000012303727047704710B4C26841685410EF
:102FE000034601EB6200D20748BF0A599B685DF8AF
:102FF000044B48BFD35818470346406830B19A681D
:103000001AB9D86800F0010070470120704710B568
:103010000C2104461FF0E5FD204610BD10B510211F
:1030200004461FF0DEFD204610BD10B54FF4AE7112
:1030300004461FF0D6FD204610BD10B50DF094FAE1
:103040000368BDE81040DB6B184710B50446D0F8A4
:10305000400158B10368DB68984738B1D4F84001A3
:1030600003689B6898470023C4F8403110BD0000F6
:103070002DE9F14FD0E9556A0746B06803681B6A2D
:10308000984742F22B43984205D8444B444AA32127
:10309000444820F009FE706803681B6A98470F28AF
:1030A00003D8414B3E4AA421F2E7F06803681B6A4B
:1030B00098470B2803D83D4B394AA521E8E70DF086
:1030C00053FADFF8F09004300DF073FAD9F80000ED
:1030D00010B10368DB689847D9F8000010B10368A5
:1030E0001B689847DFF8D080D8F8000010B103685B
:1030F0005B699847D7F83C0110B103685B68984753
:10310000D8F8000010B103681B689847D7F83C0155
:1031100010B103689B689847F068036800215B6AF8
:1031200098474FF0000B224BC0F804B0044680F8DB
:1031300008B00360B068036859465B6A9847054663
:1031400000F060FF7068036859465B6A984729463B
:10315000064600F027FF331DC7F83C61C9F8004060
:10316000C8F80050CAF800302B68C6F808A02846F6
:10317000DB68EE639847336830461B689847214602
:1031800028460FF06FFC236820461B699847236888
:103190005B69204601B0BDE8F04F1847ED560208C4
:1031A0007B5702084D580208945802083759020804
:1031B00000620208344B0120304B0120044B1B6895
:1031C00093F858200AB1D86C00B99868704700BFCE
:1031D000EC4A0120F8B5174604460E460DF086FA73
:1031E000124B1C60124B2360124B0025C4E9513571
:1031F000114BC4E953551868036801219B68C4E961
:103200004F55C4E955769847284600F035FEFFF73C
:10321000D5FF17F002FCFFF7D1FF17F079FCFFF79D
:10322000CDFF17F081FC2046F8BD00BF404B0120C8
:10323000AC61020894610208EC4A0120064BC0F818
:103240004C310023C0F8503100F5A273C0F848019A
:10325000C0F84031704700BF71300008406A7047C5
:10326000806A704770478A880B8810B5D20A4C88EC
:10327000C1699BB251F8220043EA0443184410BDCF
:1032800010B50446BAB1107B68B1537BD27A1B02E9
:1032900003F4E0631A43236A03EB82031A888A4229
:1032A00002D193F9020010BD05D8013880B2043371
:1032B0000028F3D1F7E70020F5E710B52C210446EC
:1032C0001FF08FFC204610BD30B58BB00446BDF812
:1032D00060500895BDF85C5007959DF850500695D4
:1032E0009DF84C5005959DF8485004959DF8445024
:1032F00003959DF8405002959DF83C500195BDF80E
:10330000385000950EF03AFF064B2360159BE361A1
:10331000169B2362199B63621A9BA36220460BB023
:1033200030BD00BF24620208806A70477047704752
:1033300070477047704730B5036885B06D460181AE
:10334000D3F88430014604462846984795E807009C
:103350003C3484E8070005B030BD30B5036885B063
:103360006D464181D3F8843001460446284698478B
:1033700095E807003C3484E8070005B030BD002222
:10338000028042808280C280704780F83610704789
:1033900070B5036804461B6B154698472368294699
:1033A00020465B6EBDE87040184700207047806C77
:1033B00070477047704770477047704730B4C268B5
:1033C00044685510034604EB6200D20748BF6259B7
:1033D0009B6830BC48BFD35818470346406830B19B
:1033E0009A681AB9D86800F0010070470120704748
:1033F00090F82D3080F85C3070470146343091F8F9
:103400002C3013B162310AF09FBC6031FBE710B57C
:103410004C2104461FF0E5FB204610BD10B5642189
:1034200004461FF0DEFB204610BD10B510210446F7
:103430001FF0D7FB204610BD10B5034B03600446B8
:103440000BF098FB204610BDD463020810B5064B64
:10345000036004460BF08EFB204641F27C211FF0F6
:10346000C0FB204610BD00BFD463020808B5FEF7BC
:10347000DFFC08BD10B50446006B50B10368DB6883
:10348000984730B1206B036821469B68BDE8104027
:10349000184710BD00F57E728A4202D10368DB6ACC
:1034A00018477047036870B55E6B124B1B68044683
:1034B0008DB22BB9104B114A6C21114820F0F4FB4E
:1034C0001049828D0988914203D80F4B0B4A6D2118
:1034D000F3E713F812200D4B1B6853F82200036822
:1034E0001B6B9847291A3346204609B2BDE8704045
:1034F000184700BF444B0120DA5902081C5A020841
:10350000575A0208484B01209E5A02084C4B012092
:103510000B7970B590F82C6004460D460BB916B1C6
:1035200070BD002EFCD0B3FA83F35B0984F82C3015
:1035300023682046D3F88C309847236820465B697F
:103540009847002EECD02B79012BE9D12368204637
:10355000D3F88830BDE87040184700224FF0FF31A3
:10356000C0E9002182607047074A02600022C0E97A
:103570000122C0E90322C0E90522C0E907224FF475
:1035800080728284704700BFC06A020870B5036809
:1035900004461B6B154698472368294620465B6BFB
:1035A000BDE87040184770B5036804469B6B15462C
:1035B0009847236829462046DB6BBDE870401847D2
:1035C00038B504461D46FFF7E1FFBDF91020294636
:1035D0002046FFF7E8FF38BD0B8870B5A0F86030D3
:1035E0000546138825F8623F0446284610F07AFA0B
:1035F0000646284610F0AAFA314602462046FFF752
:10360000D2FF23682046D3F88C30BDE870401847BD
:1036100010B526220446002120F06FFD2046FFF75A
:10362000A3FF044B2360FF2384F826300023A3620A
:10363000204610BD2069020838B5262204460D46F2
:10364000002120F05AFD2046FFF78EFF064B236035
:103650002B88E384FF23204684F8283029460AF08B
:1036600073FB204638BD00BFF069020810B5262262
:103670000446002120F041FD2046FFF775FF0A4B6C
:1036800023600A4BA3624FF6FF73A3854FF47F02BA
:103690000023C4E90C3223874FF0FF32C4E9102322
:1036A000E363204610BD00BF9068020884610208F1
:1036B0002DE9F04F044699B00FF028F82246002576
:1036C000DB4BE56342F8403B10460C92FFF7A0FF4E
:1036D00004F16C034FF6FF7616A918460793ADF870
:1036E0005860FFF7A9FF04F1980316A9184608933C
:1036F000ADF85860FFF7A0FF04F1C40316A91846FF
:103700000993ADF85860FFF797FF04F1F00316A98D
:1037100004F58E791846C74F0A93ADF85860FFF745
:103720008BFF484609F04CFC04F5C67307F1240AE8
:10373000184604F5D0780F93FEF7A8FBC4F88C71F7
:10374000C4F894A1C4F89851404609F039FC04F536
:10375000047318460E93FEF799FB04F50973184697
:10376000C4F81072C4F818A2C4F81C52DFF8E8A21A
:10377000049304F51C77FFF779FFC4F824A2C4F87A
:103780006C523846FFF7F0FEAB4BC4F8703204F5CC
:1037900027731846C4F898520D93FFF739FFA74BCB
:1037A000C4F89C3204F534731846C4F8C852A4F81F
:1037B000CC5204F5467B0293FFF758FF5846FFF7BB
:1037C00055FF04F55973C4F818A31846C4F860539C
:1037D0000593FFF74BFF04F56C73C4F864A3184618
:1037E000C4F8AC530393FFF741FF04F57E7318460A
:1037F0000693FFF7B9FE4FF47F43A4F82434904BAF
:10380000C4F8F8334FF0010A04F22C43184616A905
:10381000C4F82054C4F8285484F81CA40B93ADF8C1
:103820005860FFF709FF2A460B98A4F85864A4F8DB
:103830005A642946FFF7AAFE0B99069806F078FB12
:10384000804A04F58053C3E99B247F4A4FF46161A9
:10385000C3E99D2504F25C400BF082F94FF4A0739C
:103860002A460C9800932946F023FFF7A9FE261D4F
:103870004FF07F43A3660C99304606F059FB2A4669
:1038800007982946FFF782FE0798ADF8585016A909
:103890000AF05AFA0799304606F04AFB2A46089879
:1038A0002946FFF773FE0898ADF858A016A90AF04C
:1038B0004BFA0899304606F03BFB2A460998294600
:1038C000FFF764FE02230998ADF8583016A90AF0F4
:1038D0003BFA0999304606F02BFB2A460A982946FE
:1038E000FFF754FE03230A98ADF8583016A90AF0E2
:1038F0002BFA0A99304606F01BFB4FF4A073009395
:103900002A46F02329464846FFF75AFE4F4BC4F893
:1039100098314FF47843A4F89C310F9BC4F844319C
:103920004FF407522946484609F060FC4FF407520D
:103930004FF4F051484609F064FCD4F85831402B5C
:1039400005D04023C4F85831484609F059FB0121FD
:10395000484609F061FC7F2384F8423149463046ED
:1039600006F0E6FA00224FF4A07311460093404699
:10397000F023FFF725FE364BC4F81C324FF2E0531C
:10398000A4F820320E9BC4F8C83142F2E0424FF452
:103990007061404609F02AFC4FF4B46200214046B1
:1039A00009F02FFCD4F8DC31402B05D04023C4F8BB
:1039B000DC31404609F024FB4046012109F02CFC93
:1039C0004146304606F0B4FA0498DFF890A04FF470
:1039D0009872D121FFF7DAFD1E4BC4F85432D4F8A7
:1039E00024320499D3F8843010AD4FF000082846F3
:1039F000A4F85882984795E80700049BCDF858A092
:103A00003C3383E807000498ADF85C8016A90AF0FF
:103A10003FF84FF0E5090499304606F089FACDF8F1
:103A200000903846B22323221F21FFF7C9FD17E07B
:103A3000D4630208F4650208146502088869020864
:103A40001C630208BC630208953400080000FFFFF5
:103A500000BCF0FF00BCEBFF8C620208846102082E
:103A60000D98CDF8009042464146B223FFF7A8FDDD
:103A7000664A674B0D99C4E9B1230623A4F8CC32FA
:103A8000384606F055FA02984E221721FFF77EFDC0
:103A9000604B0299C4F800332846A4F8048309F067
:103AA0005DFD95E80700029BCDF858A03C3383E804
:103AB000070001230298ADF85C3016A909F0E8FF71
:103AC0000299384606F034FA2C2258462E21FFF788
:103AD0005DFD514BC4F84833D4F81833A4F84C8337
:103AE00059462846D3F88430984795E807000BF1EB
:103AF0003C094FF0040389E8070084F85133D4F8F7
:103B0000183359462846D3F88430984795E807007B
:103B10004FF0040389E8070016A95846ADF85C3059
:103B2000CDF858A009F0B4FF5946384606F000FA1F
:103B3000059869222E21FFF729FD384BC4F89433EC
:103B4000D4F864330599D3F88430A4F898832846D0
:103B5000984795E80700059BCDF858A03C3383E8CB
:103B6000070003230598ADF85C3016A909F090FF13
:103B70000599384606F0DCF9039811223621FFF743
:103B800005FD274B0399C4F8E0332846A4F8E483E5
:103B900009F0E4FC95E80700039BCDF858A03C33FE
:103BA00083E8070002230398ADF85C3016A909F0FA
:103BB0006FFF0399384606F0BBF905230698ADF868
:103BC000543016AA092315A9ADF85830FFF704FDA3
:103BD0000B9842464146FFF7D9FC04F593530C334A
:103BE000C4F828343C2300938F2206983B21FFF72A
:103BF000E7FC0699384606F09BF93046394606F050
:103C000097F9204619B0BDE8F08F00BF69A3B2FF55
:103C1000456C8CFF2D2DB5FF00C431FF0000CFFF98
:103C20000A8A0AFF7047000030B5164D2C6814F060
:103C300001048FB0BFF35B8F20D128461EF0D3FF65
:103C4000E0B13F230993104B0893104B10491148E2
:103C50000A940122CDE906430423CDE903320A2365
:103C60000093CDE90B44CDE901440594FFF72CFB0B
:103C7000094820F037F828461EF0C1FF05480FB06C
:103C800030BD00BF403C0020207802082C7802089C
:103C900074770208443C0020253C0008704700006F
:103CA00030B5164D2C6814F001048FB0BFF35B8F54
:103CB00021D128461EF097FFE8B13F230993104B0E
:103CC0000893104B104911480A94CDE9064301228C
:103CD0000423CDE90332142300930A22CDE90B44D7
:103CE000CDE901440594FFF7EFFA09481FF0FAFF08
:103CF00028461EF084FF05480FB030BD703C002000
:103D0000247802083078020884770208743C002086
:103D10009D3C00087047000030B5164D2C6814F02B
:103D200001048FB0BFF35B8F20D128461EF05BFFEC
:103D3000E0B13F230993104B0893104B10491148F1
:103D40000A940122CDE906430423CDE90332282356
:103D50000093CDE90B44CDE901440594FFF7B4FA93
:103D600009481FF0BFFF28461EF049FF05480FB065
:103D700030BD00BFA03C002028780208347802083B
:103D800010780208A43C0020153D00080020704770
:103D9000002070470EB403B503AB002153F8042B89
:103DA00001930DF069FC02B05DF804EB03B07047BD
:103DB0000CB407B504AB53F8042B01930DF05CFC75
:103DC00003B05DF804EB02B070470000436C10B51F
:103DD000044673B3038F2BB9184B194AC5211948F0
:103DE0001FF062FFC38E00EB43035B8C0BB30FF03D
:103DF00092FB238F012B03D8134B144ACB21EEE700
:103E0000E28E531C9BB2092B194688BFA3F10A010D
:103E100004EB410140F63F10498C814209D10A2B45
:103E200004EB420228BF002304EB4303508C588468
:103E300051842046BDE810400FF070BADC5A0208E9
:103E4000E55A0208905B0208DA5B0208E85B0208A8
:103E50000FF02BBA10B586B002AC84E806001A4603
:103E60000AAB05930193099B00932146089B0BF035
:103E700019FF06B010BD000038B518BB124B13482F
:103E80001C681349B4B1226822440260626822446B
:103E90000A60A26814440F4B00221A8000F038F820
:103EA000054600F033F80C4B1C600C4B1D600C4BAE
:103EB000188007E00B4B03600B4B0B600B4B1C682F
:103EC000002CE8D138BD00BFDC3C0020D43C0020F1
:103ED000D03C0020D83C0020444B01204C4B01201A
:103EE000484B01204C7802083878020868780208AC
:103EF000044B1B6853F82100034B1B6803EB400085
:103F0000704700BFD03C0020D43C00200520704703
:103F100000487047E03C002010B5FFF7C1FE044C9C
:103F20002060FFF7F9FE6060FFF77EFEA06010BD25
:103F3000E03C002010B5002404600C6014601C609C
:103F400010BD704710B54FF4AE7104461EF049FE27
:103F5000204610BD10B50446D0F8580100F013F803
:103F60002046BDE810400CF081BB000010B50446AF
:103F7000FFF730F9014B2360204610BD0C640208A6
:103F800000220260704770477047043870477047DE
:103F900010B5102104461EF024FE204610BDA0F1ED
:103FA0000400F5E700228260024A02601832426093
:103FB000C160704760640208704700000A4B70B52A
:103FC0000446036042F2DC1541F26426B54205D096
:103FD000635960191B6898472C3DF7E72046FFF7A7
:103FE0002BFA204670BD00BF8864020810B5044655
:103FF000FFF7E4FF204642F22C411EF0F2FD20467E
:1040000010BD00002DE9F743074607F58058FFF77C
:104010004FFB364B3B6007F594541E2307F50856BB
:10402000C8F87C32103408364FF6FF7504F5C679AF
:10403000204601A92C34ADF80450FFF7FDFA4C4599
:10404000F6D1B442F2D107F50D5001A90430284C45
:10405000ADF80450FFF7F0FA07F50D5001A9303024
:10406000ADF80450FFF7E8FA07F5005C20686168D6
:104070000CF56E7303C304F10C06A06818600FCE34
:104080000CF572750FC50FCE0FC596E80F003C34C6
:1040900085E80F000FCC0CF57E750FC50FCC0FC552
:1040A00094E80F0085E80F00FA23CCF82834114A71
:1040B0000423CCF84033C8F880220023032288F878
:1040C0008432CCF8C4230C4AC8F88C220B4ACCF8B2
:1040D000A4230B4ACCF8A82338464FF08042CCF8F2
:1040E000B4238CF89C3303B0BDE8F08388640208E5
:1040F000505102088FC2F53C15CD5B070000D64237
:1041000000008C432DE9F84F00F50C5700F50856D8
:1041100000F594541837073610344FF0000818F0A3
:10412000010F0CBF4FF0080B4FF0090B2546B246AC
:104130004FF000091AF8013F83B1D7ED007A2B68E0
:10414000B5F904109B6DFDEEE77A284617EE902A2C
:1041500012B298472B6828465B69984709F1010914
:10416000D94505F12C05E5DB08F10108B8F10A0F86
:1041700007F1040706F1090604F5C674CFD1BDE8BE
:10418000F88F00F5805393EDA07A00F50C531833A7
:1041900000F50D50D3ED007A77EE877AE3EC017AE3
:1041A0008342F7D1704700002DE9F04700F5005A2F
:1041B0002DED048B9AF89C33012B0DD0022B75D07A
:1041C00033B9534B1B88872B02D901238AF89C33C0
:1041D000BDEC048BBDE8F0874D4B1B88783B9BB250
:1041E0000F2BF5D84B4B1B88783B9BB20F2BEFD88E
:1041F00002238AF89C33484BDFED487A1B8808EE8F
:10420000903A474B1B88F8EEE88A08EE103A78EEB1
:10421000E78AB8EEC88A38EE678AF1EE687A17EE58
:10422000900AFCF7A1F968EE087A0646E8EEA87A4B
:104230000F4617EE900AFCF797F941EC190BB0EE18
:10424000490AF0EE690A1EF0F4FCDAF8B40359ECFE
:10425000108BFCF789F9424604460D464B46304622
:104260003946FCF703FB22462B46FCF7D5F9FCF751
:1042700083FCB0EE490AF0EE690ACAF8AC031EF0FE
:10428000D8FCF1EE487A57EC106B17EE900AFCF769
:104290006BF932463B46FCF7E9FA22462B46FCF71F
:1042A000BBF9FCF769FCCAF8B00391E79AEDE98A1B
:1042B00018EE100AFCF758F91A4B002204460D4676
:1042C000FBF7F4FF184B0022FCF72CFC50B9154B00
:1042D000002220462946FBF7E7FF00220023FCF7D7
:1042E00017FC28B1DAEDEB7AF1EE677ACAEDEB7ADA
:1042F000DAEDEB7A9AEDEC7A77EE887ACAEDE97A24
:10430000DAEDEA7A77EE877ACAEDEA7A60E700BFFB
:10431000180000201A000020160000200000FF42B4
:104320001400002000002A4000006E4038B500F55F
:1043300000542DED028B94EDE90A00F50D551EF0A9
:1043400029FEB0EE408A94EDEA0A1EF023FEBDEE8F
:10435000C00ABDEEC88A10EE103A1AB218EE103A32
:104360000435284619B2FDF7B6FCBDEC028B284691
:10437000BDE838400DF0AABA31EE426A70EEE27A3A
:1043800031EEE27A70EE426A67EEC67A32EE432A86
:10439000E6EE877A88B030EE437AF5EEC07A70EEBA
:1043A000E37A72EEE32A67EEC27AF1EE10FAE7EEF4
:1043B000227A4CBF01230023F5EEC07AF1EE10FA09
:1043C0004CBF01220022934217D130EE410A73EE16
:1043D000E13A70EEE10A33EE413A20EE230AA3EE11
:1043E000600AB5EEC00AF1EE10FA4CBF01200020C1
:1043F000C31A5842584108B070470020FBE700003C
:104400002DE9F04F01F5005A2DED068B9AEDEAAA41
:10441000DAF840738BB005461AEE100A0C46FCF72A
:10442000A3F800227E4BFBF73FFF07F6C60304EB21
:104430008303804618688946FCF796F8784B00227B
:10444000FBF734FF02460B4640464946FCF774FB37
:1044500048B14FF0FF33C5E9003328460BB0BDEC3F
:10446000068BBDE8F08F6FF02A0363430193B946D2
:10447000F2EE0D9AF2EE0A8A09EBC90109F0010683
:1044800001F5085106F10803073109F6C608009343
:1044900021444FF0000B04EB880811F8010F0028AD
:1044A00000F0AD802C2303FB01F0A0F5B820A0F2B2
:1044B000CC60019BD8ED005AC35E9AEDE98ACDED40
:1044C000055A05EE103AB8EEC55A75EEA94A3AEE0D
:1044D000694A35EE289AF0EE643AB0EE493AB0EE09
:1044E000452AF0EE642AB0EE451AF0EE651AB0EEF9
:1044F000480AF0EE440A20468DED028A8DED034A0B
:104500008DED045ACDED094AFFF736FF90B109F160
:1045100001030A2193FBF1F001FB103916B90BF1ED
:10452000010B04E0BBF1080F08BF4FF0070BC5E912
:10453000009B92E775EEE95A38EE680AB0EE493A08
:10454000F0EE643AB0EE492AF0EE652AF0EE440A45
:104550002046FFF711FF80B1009B082B0CBF0721FD
:1045600008218B45DBD109F101030A22C6F1080BB2
:1045700093FBF2F102FB1139D9E735EE689AF0EEC0
:10458000643AB0EE493AB0EE452AF0EE642AB0EE55
:10459000480AF0EE440A20468DED089AFFF7ECFE3B
:1045A00070B109F101030A2193FBF1F001FB10390D
:1045B000002EBCD0BBF1000FB9D00BF1FF3BB6E72A
:1045C00038EE280AB0EE493AF0EE643AB0EE492AE5
:1045D000F0EE652AF0EE440A20468DED069ACDED08
:1045E000075AFFF7C9FE50B1BBF1000FE5D109F141
:1045F00001030A2193FBF1F001FB103997E7009BBF
:104600000BF1010B5B453FF748AFB9F101024CBF1D
:1046100009F1090991464F457FF42EAF19E700BF14
:1046200000002D4013B500F5005400F50D50B4F80E
:10463000A033ADF8043001A9043009F085FB002354
:1046400084F89C33034BC4F8A433034BC4F8A83359
:1046500002B010BD0000D64200008C4300F580532C
:104660000549D3F88C2243F2390001FB020020F007
:104670000040C3F88C0270476D4EC64110B5044629
:10468000FFF7ECFF04F50053D3F8C433B0FBF3F2AB
:1046900002FB130303F58E531C3334F8130010BDD3
:1046A00013B50446FFF7EAFF04F50053ADF8040024
:1046B000A3F8A00304F50D5001A9303009F044FB24
:1046C00002B010BDD0E9B43293421FBF01335A2269
:1046D00093FBF2F102FB11331ABFC0F8D032012074
:1046E00000207047D0F8D432D0F8D0025A220133DB
:1046F00093FBF2F102FB11331B1A584258417047E9
:1047000037B56D4685E806000446FFF7EBFF90B924
:10471000D4F8D4325A22013393FBF2F102FB113365
:1047200095E80300C4F8D43204EBC30484E8030022
:10473000012003B030BD0020FBE700002DE9F04F61
:10474000ADF25C6D0DF110082C2388E806001646CA
:1047500053434FF4C672044602FB013341F29022E8
:104760009818234404F500599B58B9F89E231B6EF2
:10477000ADF88023E0AF0D4620443946984705EB5D
:10478000C502A318334442F2082001211954D9F874
:1047900040334FF00A0C591891FBFCFE0CFB1E1124
:1047A000A94224D1024415F0010F04EB02014FF09D
:1047B00000020CBF4FF0080C4FF0090C1046964257
:1047C00018BF885401326245F9DB03F6C60304EBD7
:1047D0008303D3ED007AB3EE0D7A77EE877A05F690
:1047E000C60204EB8202C2ED007AC9F840530026EB
:1047F0005A223146C7E9B46615A81FF07EFC98E836
:1048000006003846FFF77CFF0DF1B00AD346D7E922
:10481000B43293421FD10022504642F20825174677
:10482000964200F1080040F09A80022E0FDD00222F
:1048300042F208201546DAE9003103EBC3032344B2
:104840000B44013296421D540AF1080AF3D10DF2CD
:104850005C6DBDE8F08F57F83320CBF8002007EBF4
:10486000C30338465B680293029BCBF80430019285
:10487000FFF728FF019B13F0010F06F1010604F575
:104880000F5309AD5BD103F1380C08331868596830
:104890002A4603C2083363451546F7D10DF12408B3
:1048A000D8F80050019B5D1955D50A35D8F8043069
:1048B000029A02EB030905F001030833994536D249
:1048C00005EBC503E2184A4442F20821525C72B378
:1048D00015AA1A44039212F8092042BB4B4403F56F
:1048E0008953103304EB430304F500525988B2F89E
:1048F0009E3399421BD105F6C60304EB8303186867
:10490000FBF732FE1A4B0022FBF7D0FC00220023FB
:10491000FCF712F958B1CDE9075907AB93E8060047
:10492000E0A8FFF7EDFE039A012302F8093008F131
:10493000080815AB9845B3D10BF1080B67E703F1F5
:10494000680C3833186859682A4603C2083363452F
:104950001546F7D1A2E7092DC8BF0A3DA6E750E9E1
:10496000023103EBC30323440B4401325F5557E785
:1049700000002D402DE97343044603F0E4F904F5EB
:104980008055D5F87C32B0FBF3F603F0D5F9D5F8B5
:104990008832C01AB0422BD995F884324BB9012322
:1049A00004F51C7084F8953202B0BDE870430CF039
:1049B0008DBF04F50056D6F8403303F6C60304EB6A
:1049C00083031868FBF7D0FD234B0022FBF76EFC36
:1049D0008046D6F828048946FBF7B4FD02460B460C
:1049E00040464946FCF7A8F828B1002385F88432F0
:1049F00002B0BDE870832046FFF7C3FB2046FFF7F7
:104A0000D3FB96F89C33022B15D16E4621463046D7
:104A1000FFF7F6FC009B01330DD0019B01330AD058
:104A200096E806002046FFF789FE2046FFF7FAFDCC
:104A30002046FFF735FE2046FFF764FB2046FFF7D0
:104A400075FC04F50D5030300CF040FF03F074F9A4
:104A5000C5F88802CCE700BF00002D40FEF7ADBCD2
:104A60002DE9F04F3D4A00F5005387B0121AD3F8F4
:104A70004053029206464FF0FF34621C03BFD3F846
:104A800040231D214A431D3C0CBF07EE902A07EE30
:104A9000904A05F00102F8EEE77A06EB850A002A53
:104AA0000AF5005A0CBF10220322CAEDC67A05EBA4
:104AB000C507FDEEE77A019207F508570CBF0822FB
:104AC0000922009207374FF4C67241F2902917EE7F
:104AD000904A374402FB05994FF000083046039393
:104AE000FFF7CCFD029B56F8092023F8170006EBD0
:104AF000090B126EADF8140005A958469047DAED7F
:104B0000C67A019BFDEEE77A08EB480108EB8101CC
:104B100003EB410117EE903A09B21AB25846FEF77C
:104B200035FD4FF0010307F8013F5946301D05F0F0
:104B3000FFF9009B08F10108984509F12C09039B36
:104B4000CCD16A1E58BF1546D3F8402348BF09355B
:104B5000AA4292D107B0BDE8F08F00BF54DEFFFF3C
:104B600070B52DED028B82B00446FFF787FD04F58A
:104B7000005604F50D55043501A9A6F89E03ADF8BD
:104B80000400284609F0E0F896EDE90A1EF002FA62
:104B9000B0EE408A96EDEA0A1EF0FCF9BDEEC00ABE
:104BA000BDEEC88A10EE103A1AB218EE103A284636
:104BB00019B2FEF7EBFC2946201D02B0BDEC028BBA
:104BC000BDE8704005F0B4B937B50446FFF756FDAF
:104BD00004F50D5504F500533035A3F8A003ADF8E6
:104BE000040001A9284609F0AFF828464FF48C725A
:104BF0000A21FEF7CBFC2946201D03B0BDE830405A
:104C000005F096B938B50446002380F8953204F5CE
:104C1000805500F51C700CF059FE012385F8843294
:104C20002046FFF71DFF2046FFF79AFF2046FFF7BB
:104C3000CBFF03F081F8C5F8880238BDF02070473B
:104C40004FF4A07070472920FDF778BD2820FDF7AC
:104C500075BD08B5FDF746FDCA20FDF76FFDC32001
:104C6000FDF750FD0820FDF74DFD5020FDF74AFDF2
:104C7000CF20FDF763FD0020FDF744FDC120FDF7C7
:104C800041FD3020FDF73EFDED20FDF757FD64208E
:104C9000FDF738FD0320FDF735FD1220FDF732FD4D
:104CA0008120FDF72FFDE820FDF748FD8520FDF769
:104CB00029FD0020FDF726FD7820FDF723FDCB2000
:104CC000FDF73CFD3920FDF71DFD2C20FDF71AFDF9
:104CD0000020FDF717FD3420FDF714FD0220FDF73D
:104CE00011FDF720FDF72AFD2020FDF70BFDEA203E
:104CF000FDF724FD0020FDF705FD0020FDF702FD76
:104D0000B120FDF71BFD0020FDF7FCFC1B20FDF78B
:104D1000F9FCB620FDF712FD0A20FDF7F3FCA220F6
:104D2000FDF7F0FCC020FDF709FD1020FDF7EAFCBF
:104D3000C120FDF703FD1020FDF7E4FCC520FDF7C1
:104D4000FDFC4520FDF7DEFC1520FDF7DBFCC72050
:104D5000FDF7F4FC9020FDF7D5FC3620FDF7EEFCC6
:104D6000C820FDF7CFFCF220FDF7E8FC0020FDF79E
:104D7000C9FCB020FDF7E2FCC220FDF7C3FCB62061
:104D8000FDF7DCFC0A20FDF7BDFCA720FDF7BAFC0F
:104D90002720FDF7B7FC0420FDF7B4FC2A20FDF71F
:104DA000CDFC0020FDF7AEFC0020FDF7ABFC0020A1
:104DB000FDF7A8FCEF20FDF7A5FC2B20FDF7BEFCBE
:104DC0000020FDF79FFC0020FDF79CFC0120FDF773
:104DD00099FC3F20FDF796FCF620FDF7AFFC012083
:104DE000FDF790FC0020FDF78DFC0620FDF78AFC06
:104DF0002C20FDF7A3FCC820FDF7EEFC2620FDF7D4
:104E00009DFC0120FDF77EFCE020FDF797FC0F20C4
:104E1000FDF778FC2920FDF775FC2420FDF772FCD6
:104E20000C20FDF76FFC0E20FDF76CFC0920FDF750
:104E300069FC4E20FDF766FC7820FDF763FC3C2002
:104E4000FDF760FC0920FDF75DFC1320FDF75AFC1F
:104E50000520FDF757FC1720FDF754FC1120FDF746
:104E600051FC0020FDF74EFCE120FDF767FC00201F
:104E7000FDF748FC1620FDF745FC1B20FDF742FC22
:104E80000420FDF73FFC1120FDF73CFC0720FDF757
:104E900039FC3120FDF736FC3320FDF733FC42208E
:104EA000FDF730FC0520FDF72DFC0C20FDF72AFC5A
:104EB0000A20FDF727FC2820FDF724FC2F20FDF712
:104EC00021FC0F20FDF71EFC1120FDF737FCC82048
:104ED000FDF782FC2920FDF731FCBDE808402C20BD
:104EE000FDF72CBC08B5FDF7FDFB0321D320FDF732
:104EF00041FC80B208BD10B5C4B202220321204695
:104F0000FDF7A6FB0A20FDF7EBFB2046002203215C
:104F1000FDF79EFBBDE810400220FDF7E1BB38B570
:104F20000446E4B2FDF792FB00212046FDF7A8FB02
:104F3000012105462046FDF7A3FB40EA052080B28B
:104F400038BD10B5C4B240212046FDF799FB0306D9
:104F500007D54C212046FDF793FB003818BF0120F0
:104F600010BD01224B212046FDF772FB2046002296
:104F70004B21FDF76DFB0020F2E773B50423C4B2AB
:104F80000E461546D7210DEB03022046FDF792FB96
:104F9000019B1BBA1A0DC3F30B23328020462B80D2
:104FA00001224B21FDF754FB00224B212046FDF747
:104FB0004FFB02B070BD000010B50A4A137898424A
:104FC00004460DD0517888420AD00BB141B9012373
:104FD000D454FDF73BFB2046BDE81040FFF78BBFE4
:104FE00010BD00BFEC3C002010B5C4B20921204622
:104FF000FDF746FB40F00102D2B220460921BDE890
:105000001040FDF725BB10B5C4B209212046FDF7BD
:1050100037FB092100F0FE022046BDE81040FDF7F5
:1050200017BB38B5C4B20D4620460A21FDF728FB50
:1050300040EA0502D2B220460A21BDE83840FDF719
:1050400007BB10B50446FDF702FB20461F21FFF702
:10505000E8FF2046BDE81040FFF7C6BF38B5C4B230
:105060000D4620460A21FDF70BFB20EA0502D2B2CD
:1050700020460A21BDE83840FDF7EABA10B50446DB
:10508000FFF7C1FF20461F21BDE81040FFF7E6BF34
:1050900010B5C0B20C460B21FDF7F2FA204010BD4E
:1050A0001F21FFF7F5BF0A46C0B20B21FDF7D0BAAA
:1050B0001F21FFF7F8BF38B5C4B20D4620461721AF
:1050C000FDF7DEFA20EA0502D2B220461721BDE83C
:1050D0003840FDF7BDBA70B5C4B20646042120467B
:1050E000FDF7CEFA042100F0FB0205462046FDF74D
:1050F000AFFA3046F021FFF7DEFF05F0F802204658
:105100000421FDF7A5FA492220212046FDF7A0FA47
:105110000220FDF7E5FA204601222121FDF798FA49
:1051200020469A224121FDF793FA204601224A2186
:10513000FDF78EFA204601224B21FDF789FA204621
:1051400000224B21FDF784FA204601225621FDF76B
:105150007FFA204601225821FDF77AFA20460122E3
:105160004021FDF775FA2046FF220B21FDF770FA6A
:10517000BDE870400220FDF7B3BA0000054BD3F83C
:10518000882042F47002C3F888204FF000629A60D1
:10519000704700BF00ED00E008B50B4B1A6842F401
:1051A00000721A601A6842F480621A601A6842F447
:1051B00080721A60032000F045FA0020FDF7DCFD44
:1051C000FDF718FB002008BD003C0240034A044BD9
:1051D00011681B780B441360704700BFF03C00203F
:1051E00080000020014B1868704700BFF03C002091
:1051F00038B50446FFF7F6FF631C1CBF054B1B7850
:10520000054618BFE418FFF7EDFF431BA342FAD38E
:1052100038BD00BF8000002038B50446002800F0EB
:105220009B80056C25B9FDF705FB656484F83C504F
:10523000236CDB0600F18E80236C23F4885323F06B
:10524000020343F002032364444B5A6822F44032C1
:105250005A605A6861680A435A60236821695A682B
:1052600022F480725A605A6842EA01225A605A68EF
:10527000A16822F040725A605A680A435A609A68DC
:10528000E16822F400629A609A680A439A6034499D
:10529000A26A8A4252D0996821F070619960996837
:1052A0000A439A609A68E16A22F040529A609A68CA
:1052B0000A439A609A6822F002029A609A68217EF4
:1052C00042EA41029A6094F82020002A3ED05A68AF
:1052D000616A42F400625A605A6822F460425A607D
:1052E0005A68013942EA41325A60DA6AE16922F4C5
:1052F0007002DA62DA6A013942EA0152DA629A68C5
:1053000022F400729A609A6894F8301042EA4122BE
:105310009A609A68616922F480629A609A680020B3
:1053200042EA81229A606064236C23F0030343F015
:1053300001032364002384F83C3038BD9A6822F0CE
:1053400070629A609A6822F04052B2E75A6822F47A
:105350000062C9E70120EDE70120EEE700230140EC
:105360000100000F82B00023019390F83C30012B24
:1053700069D0012380F83C3003689A68D2070BD5C6
:105380009A68D1071AD4036C43F010030364436C8A
:1053900043F0010343644CE09A682C4942F0010257
:1053A0009A602B4A1268B2FBF1F202EB42020192C0
:1053B000019A002AE4D0019A013AF8E7026C22F43B
:1053C000E06222F0010242F4807202645A685205DF
:1053D00041BF026C22F4405242F480520264026CDB
:1053E00012F480521CBF426C22F00602426400227A
:1053F00080F83C206FF022021A60164A516811F0C2
:105400001F0F15491CD18B4207D001F580718B42CB
:105410000CD1526812F01F0F0BD19A6812F0405F46
:1054200007D19A6842F080429A6002E00B498B42B1
:1054300002D0002002B07047526812F0100FEBE764
:105440008B42F6D1E9E70220F4E700BF40420F00AB
:105450007C00002000230140002001400022014088
:1054600003689A68520570B504460D460BD59B68D3
:10547000DE0508D5036C43F020030364002380F8A5
:105480003C30012070BDFFF7ADFE064623681A6868
:1054900091070CD56FF012021A60226C42F4007270
:1054A00022649A6812F0405F17D00020EAE7681C77
:1054B000EDD065B923681B6813F00203E6D1226CB6
:1054C00084F83C3042F0040222640320DAE7FFF75C
:1054D00089FE801BA842EDD8D8E7227E002AE4D1BD
:1054E000DA6A12F4700F02D09B685A05DDD4236C7F
:1054F00023F480732364236CDB04D6D4236C43F041
:1055000001032364D1E70368D86C7047F7B5002323
:10551000019390F83C30012B054600F08680012372
:1055200080F83C3008682B688E68092884B233D92B
:1055300004EB4402DF681E3A4FF0070C0CFA02FC41
:1055400027EA0C07DF60DF6806FA02F23A43DA6006
:105550004968062901EB81022DD8596B053A1F26AF
:10556000964021EA06015963596B04FA02F20A4394
:105570005A632F4A93420AD1122837D12D4B5A68C9
:1055800022F400025A605A6842F480025A600020F5
:1055900085F83C0003B0F0BD1A6900EB400C07270A
:1055A00007FA0CF722EA07021A611A6906FA0CF6E2
:1055B00016431E61CCE70C294FF01F010BD81E6B60
:1055C000233A914026EA01011963196B04FA02F2A9
:1055D0000A431A63CDE7DE6A413A914026EA0101A7
:1055E000D962D96A94400C43DC62C2E7124B9842FC
:1055F00001D01128CBD10F4B5A6822F480025A6097
:105600005A6842F400025A600B4B9842BFD10B4BD0
:105610000B4A1B68B3FBF2F30A2253430193019B2D
:10562000002BB4D0019B013BF8E70220B2E700BF9A
:105630000020014000230140120000107C000020E7
:1056400040420F000749CA6822F4E06203021204D4
:1056500003F4E063120C134343F0BF6343F40033DD
:10566000CB60704700ED00E0164B30B5DC68C4F34A
:105670000224C4F10703251D042B28BF0423062D93
:105680004FF0FF358CBF033C002405FA03F321EAF9
:105690000303A54022EA0502A340002843EA0203CF
:1056A000ACBF00F16040084A4FEA0313B8BF00F0F6
:1056B0000F00DBB2AABF00F56140135480F800333D
:1056C00030BD00BF00ED00E014ED00E0002807DB76
:1056D000044A4109012300F01F00834042F82130B1
:1056E000704700BF00E100E010B5044650B14379B7
:1056F00003F0FF0213B90271FDF7F4F8012363719F
:10570000002010BD0120FCE710B5044620B390F83E
:10571000393003F0FF021BB980F83820FDF7FAF8A2
:10572000022384F83930236861681A6822F4403211
:105730000A431A605A6BA16822F007020A435A63AF
:105740001A6CE1686FF30D020A431A64002001230A
:10575000E06384F8393010BD0120FCE770477047E2
:10576000036870B55E681D68F207044614D5E90544
:1057700012D51A6822F480721A60C26B42F00102DC
:10578000C26301229A60042380F83930002380F834
:105790003830436903B19847B20616D5AB0414D527
:1057A00023681A6822F400521A6020229A60E36B80
:1057B00043F00203E363042384F83930002384F8C0
:1057C000383063690BB120469847300716D5290554
:1057D00014D523681A6822F400621A6008229A60BD
:1057E000E36B43F00403E363042384F839300023BC
:1057F00084F8383063690BB12046984772070BD59F
:105800006B0509D523681A6822F480621A600422A5
:105810009A602046FFF7A2FFB00714D5A90512D55C
:1058200023681A6822F400721A6002229A60E36BFD
:10583000E363012384F83930002384F83830236986
:105840000BB120469847F20613D5EB0411D5236817
:105850001A6822F480521A6010229A60E36BE363A4
:10586000012384F83930002384F838302046FFF7CC
:1058700076FF70BDF0B590F83820012A03464FF04E
:1058800002002BD0012283F8382083F8390003EB83
:105890000112D2E90740556A174F44EA0040093C1B
:1058A000012C9CBF05F07F4210434FEA01161A6895
:1058B00088BF40EA056091B9516A3940014351629D
:1058C000012C9969916103D8596A21F07F41916255
:1058D0000122002083F8392083F83800F0BDD16917
:1058E00039400143D1619919012C896911619CBF2B
:1058F00025F07F451562EBE7F0FFFC002DE9F74F3F
:10590000DFF8BC916C4A00230D6801249C4004EA36
:105910000506AC4340F0B7804D68032705F003044B
:105920004FEA430807FA08FC671E012F6FEA0C0CC8
:1059300034D8876807EA0C0ECF6807FA08F747EAF9
:105940000E078760476827EA060EC5F300179F40D9
:1059500047EA0E074760C76807EA0C0E8F6807FA28
:1059600008F747EA0E07022CC76019D14FEAD30A9D
:1059700000EB8A0A03F0070BDAF820704FEA8B0B72
:105980004FF00F0E0EFA0BFE27EA0E0E0F6907FA04
:105990000BF747EA0E07CAF8207001E0032CDAD1B2
:1059A000076804FA08F407EA0C073C4315F4403F83
:1059B000046068D000240194D9F8444044F4804441
:1059C000C9F84440D9F8444023F0030707F1804761
:1059D00004F4804407F59C37019403F0030C019C08
:1059E000D7F808E04FEA8C0C0F2404FA0CF42EEAE6
:1059F000040E324CA0424DD004F58064A0424BD03E
:105A000004F58064A04249D004F58064A04247D0E8
:105A100004F58064A04245D004F58064A04243D0E0
:105A200004F58064A04241D004F58064A0423FD0D8
:105A300004F58064A0423DD004F58064A04214BF08
:105A40000A24092404FA0CF444EA0E04BC609468A5
:105A5000F74315F4801F0CBF3C4034439460D46876
:105A600015F4001F0CBF3C403443D460546815F457
:105A7000003F0CBF3C40344354601468ED0354BFF6
:105A80003C40344314600133102B7FF43DAF03B02E
:105A9000BDE8F08F0024D5E70124D3E70224D1E745
:105AA0000324CFE70424CDE70524CBE70624C9E788
:105AB0000724C7E70824C5E7003C01400000024076
:105AC000003802400369194214BF012000207047CA
:105AD0000AB1816170470904FBE7436901EA0302E7
