:020000040800F2
:100000000000032035100008692E00086B2E000840
:100010006D2E00086F2E0008712E000800000000F1
:10002000000000000000000000000000B18900088E
:10003000732E000800000000418A0008BB820008FF
:10004000851000088510000885100008851000083C
:10005000851000088510000885100008851000082C
:10006000851000088510000885100008851000081C
:10007000851000088510000885100008851000080C
:1000800085100008851000088510000885100008FC
:1000900085100008851000088510000885100008EC
:1000A00085100008851000088510000885100008DC
:1000B00085100008851000088510000885100008CC
:1000C00085100008851000088510000885100008BC
:1000D00085100008851000088510000885100008AC
:1000E000851000088510000885100008851000089C
:1000F000851000088510000885100008851000088C
:10010000851000088510000885100008851000087B
:100110008510000885100008752E0008851000085D
:10012000851000088510000885100008851000085B
:10013000851000088510000885100008851000084B
:10014000851000088510000885100008851000083B
:10015000851000088510000885100008851000082B
:10016000851000088510000885100008851000081B
:1001700085100008851000088510000800000000A8
:1001800085100008851000088510000885100008FB
:1001900085100008851000088510000885100008EB
:0C01A000812E0008851000088D2E00083C
:1001B00010B5054C237833B9044B13B10448AFF3A1
:1001C00000800123237010BD800300200000000088
:1001D0006857020808B5034B1BB103490348AFF346
:1001E000008008BD0000000084030020685702085A
:1001F000034613F8012B002AFBD1181A0138704767
:1002000001F0FF01102A2BDB10F0070F08D010F8C7
:10021000013B013A8B422DD010F0070F42B3F6D1CB
:10022000F0B441EA012141EA014122F007047FF0E4
:1002300000070023F0E80256083C85EA010586EA3B
:10024000010685FA47F5A3FA87F586FA47F6A5FA77
:1002500087F68EB9EED1F0BC01F0FF0102F0070283
:1002600032B110F8013B013A83EA010313B1F8D12E
:100270000020704701387047002D06BF354603380F
:10028000073815F0010F07D1013015F4807F02BF48
:10029000013015F4C03F0130F0BC0138704700BF99
:1002A00081F0004102E000BF83F0004330B54FEA27
:1002B00041044FEA430594EA050F08BF90EA020F94
:1002C0001FBF54EA000C55EA020C7FEA645C7FEA27
:1002D000655C00F0E2804FEA5454D4EB5555B8BF4A
:1002E0006D420CDD2C4480EA020281EA030382EABB
:1002F000000083EA010180EA020281EA0303362D4D
:1003000088BF30BD11F0004F4FEA01314FF4801C1F
:100310004CEA113102D0404261EB410113F0004F31
:100320004FEA03334CEA133302D0524263EB4303E8
:1003300094EA050F00F0A780A4F10104D5F1200E86
:100340000DDB02FA0EFC22FA05F2801841F10001E1
:1003500003FA0EF2801843FA05F359410EE0A5F1B5
:1003600020050EF1200E012A03FA0EFC28BF4CF0E6
:10037000020C43FA05F3C01851EBE37101F000459C
:1003800007D54FF0000EDCF1000C7EEB00006EEBA9
:100390000101B1F5801F1BD3B1F5001F0CD3490833
:1003A0005FEA30004FEA3C0C04F101044FEA44528A
:1003B00012F5800F80F09A80BCF1004F08BF5FEA11
:1003C000500C50F1000041EB045141EA050130BDF1
:1003D0005FEA4C0C404141EB0101013C28BFB1F503
:1003E000801FE9D291F0000F04BF01460020B1FA4E
:1003F00081F308BF2033A3F10B03B3F120020CDA21
:100400000C3208DD02F1140CC2F10C0201FA0CF0FE
:1004100021FA02F10CE002F11402D8BFC2F1200C63
:1004200001FA02F120FA0CFCDCBF41EA0C01904019
:10043000E41AA2BF01EB0451294330BD6FEA040462
:100440001F3C1CDA0C340EDC04F11404C4F120024D
:1004500020FA04F001FA02F340EA030021FA04F35F
:1004600045EA030130BDC4F10C04C4F1200220FAB6
:1004700002F001FA04F340EA0300294630BD21FAF4
:1004800004F0294630BD94F0000F83F4801306BFBA
:1004900081F480110134013D4EE77FEA645C18BFAE
:1004A0007FEA655C29D094EA050F08BF90EA020F45
:1004B00005D054EA000C04BF1946104630BD91EA3D
:1004C000030F1EBF0021002030BD5FEA545C05D140
:1004D0004000494128BF41F0004130BD14F580047F
:1004E0003CBF01F5801130BD01F0004545F0FE41F3
:1004F00041F470014FF0000030BD7FEA645C1ABF28
:10050000194610467FEA655C1CBF0B46024650EA5E
:10051000013406BF52EA033591EA030F41F400218A
:1005200030BD00BF90F0000F04BF0021704730B510
:100530004FF4806404F132044FF000054FF00001E5
:1005400050E700BF90F0000F04BF0021704730B5A6
:100550004FF4806404F1320410F0004548BF40427B
:100560004FF000013EE700BF42004FEAE2014FEAD0
:1005700031014FEA02701FBF12F07F4393F07F4FAB
:1005800081F06051704732F07F4208BF704793F0AE
:100590007F4F04BF41F40021704730B54FF46074C1
:1005A00001F0004521F000411CE700BF50EA0102C4
:1005B00008BF704730B54FF000050AE050EA01026D
:1005C00008BF704730B511F0004502D5404261EBDD
:1005D00041014FF4806404F132045FEA915C3FF41E
:1005E000D8AE4FF003025FEADC0C18BF03325FEABB
:1005F000DC0C18BF033202EBDC02C2F1200300FA6C
:1006000003FC20FA02F001FA03FE40EA0E0021FA90
:1006100002F11444BDE600BF70B54FF0FF0C4CF47E
:10062000E06C1CEA11541DBF1CEA135594EA0C0F30
:1006300095EA0C0F00F0DEF82C4481EA030621EA6B
:100640004C5123EA4C5350EA013518BF52EA0335A6
:1006500041F4801143F4801338D0A0FB02CE4FF058
:100660000005E1FB02E506F00042E0FB03E54FF088
:100670000006E1FB03569CF0000F18BF4EF0010E80
:10068000A4F1FF04B6F5007F64F5407404D25FEA7C
:100690004E0E6D4146EB060642EAC62141EA55512F
:1006A0004FEAC52040EA5E504FEACE2EB4F1FD0C71
:1006B00088BFBCF5E06F1ED8BEF1004F08BF5FEAEF
:1006C000500E50F1000041EB045170BD06F00046A1
:1006D00046EA010140EA020081EA0301B4EB5C044E
:1006E000C2BFD4EB0C0541EA045170BD41F4801146
:1006F0004FF0000E013C00F3AB8014F1360FDEBF6B
:10070000002001F0004170BDC4F10004203C35DA46
:100710000C341BDC04F11404C4F1200500FA05F3C9
:1007200020FA04F001FA05F240EA020001F000426A
:1007300021F0004110EBD37021FA04F642EB0601E0
:100740005EEA430E08BF20EAD37070BDC4F10C040A
:10075000C4F1200500FA04F320FA05F001FA04F2CE
:1007600040EA020001F0004110EBD37041F10001BA
:100770005EEA430E08BF20EAD37070BDC4F12005C5
:1007800000FA05F24EEA020E20FA04F301FA05F22D
:1007900043EA020321FA04F001F0004121FA04F2D5
:1007A00020EA020000EBD3705EEA430E08BF20EAA5
:1007B000D37070BD94F0000F0FD101F000464000DF
:1007C00041EB010111F4801F08BF013CF7D041EA61
:1007D000060195F0000F18BF704703F00046520065
:1007E00043EB030313F4801F08BF013DF7D043EA36
:1007F0000603704794EA0C0F0CEA135518BF95EAEC
:100800000C0F0CD050EA410618BF52EA4306D1D172
:1008100081EA030101F000414FF0000070BD50EA91
:10082000410606BF1046194652EA430619D094EA1B
:100830000C0F02D150EA013613D195EA0C0F05D105
:1008400052EA03361CBF104619460AD181EA030159
:1008500001F0004141F0FE4141F470014FF0000011
:1008600070BD41F0FE4141F4780170BD70B54FF0AC
:10087000FF0C4CF4E06C1CEA11541DBF1CEA13552C
:1008800094EA0C0F95EA0C0F00F0A7F8A4EB05040E
:1008900081EA030E52EA03354FEA013100F0888005
:1008A0004FEA03334FF0805545EA131343EA1263CE
:1008B0004FEA022245EA111545EA10654FEA002683
:1008C0000EF000419D4208BF964244F1FD0404F53C
:1008D000407402D25B084FEA3202B61A65EB030598
:1008E0005B084FEA32024FF480104FF4002CB6EB55
:1008F000020E75EB030E22BFB61A754640EA0C00D5
:100900005B084FEA3202B6EB020E75EB030E22BF14
:10091000B61A754640EA5C005B084FEA3202B6EB55
:10092000020E75EB030E22BFB61A754640EA9C0014
:100930005B084FEA3202B6EB020E75EB030E22BFE4
:10094000B61A754640EADC0055EA060E18D04FEAA2
:10095000051545EA16754FEA06164FEAC30343EA42
:1009600052734FEAC2025FEA1C1CC0D111F4801F0F
:100970000BD141EA00014FF000004FF0004CB6E708
:1009800011F4801F04BF01430020B4F1FD0C88BFA7
:10099000BCF5E06F3FF6AFAEB5EB030C04BFB6EBB2
:1009A000020C5FEA500C50F1000041EB045170BDA5
:1009B0000EF0004E4EEA113114EB5C04C2BFD4EBD2
:1009C0000C0541EA045170BD41F480114FF0000E56
:1009D000013C90E645EA060E8DE60CEA135594EAD2
:1009E0000C0F08BF95EA0C0F3FF43BAF94EA0C0FD5
:1009F0000AD150EA01347FF434AF95EA0C0F7FF44A
:100A000025AF104619462CE795EA0C0F06D152EA9D
:100A100003353FF4FDAE1046194622E750EA410681
:100A200018BF52EA43067FF4C5AE50EA41047FF492
:100A30000DAF52EA43057FF4EBAE12E74FF0FF3CF7
:100A400006E000BF4FF0010C02E000BF4FF0010CC8
:100A50004DF804CD4FEA410C7FEA6C5C4FEA430C41
:100A600018BF7FEA6C5C1BD001B050EA410C0CBF90
:100A700052EA430C91EA030F02BF90EA020F0020F2
:100A8000704710F1000F91EA030F58BF994208BF59
:100A900090422CBFD8176FEAE37040F00100704716
:100AA0004FEA410C7FEA6C5C02D150EA013C07D16D
:100AB0004FEA430C7FEA6C5CD6D152EA033CD3D0B8
:100AC0005DF8040B704700BF8446104662468C46B2
:100AD0001946634600E000BF01B5FFF7B7FF0028E5
:100AE00048BF10F1000F01BD4DF808EDFFF7F4FF0E
:100AF0000CBF012000205DF808FB00BF4DF808ED99
:100B0000FFF7EAFF34BF012000205DF808FB00BFBB
:100B10004DF808EDFFF7E0FF94BF012000205DF8DD
:100B200008FB00BF4DF808EDFFF7CEFF94BF012092
:100B300000205DF808FB00BF4DF808EDFFF7C4FF8B
:100B400034BF012000205DF808FB00BF4FEA410CD4
:100B50007FEA6C5C02D150EA013C0AD14FEA430CB7
:100B60007FEA6C5C02D152EA033C02D14FF00000F4
:100B700070474FF0010070474FEA410212F5001232
:100B800015D211D56FF47873B3EB625212D94FEAD4
:100B9000C12343F0004343EA505311F0004F23FABE
:100BA00002F018BF404270474FF00000704750EA13
:100BB000013005D111F0004008BF6FF000407047D0
:100BC0004FF00000704700BF4FEA4102B2F1E0432E
:100BD00024BFB3F5001CDCF1FE5C0DD901F0004C24
:100BE0004FEAC0024CEA5070B2F1004F40EB830074
:100BF00008BF20F00100704711F0804F21D113F1A0
:100C00003872BCBF01F00040704741F480114FEAD8
:100C10005252C2F11802C2F1200C10FA0CF320FA61
:100C200002F018BF40F001004FEAC1234FEAD3237E
:100C300003FA0CFC40EA0C0023FA02F34FEA4303E8
:100C4000CCE77FEA625307D150EA01331EBF4FF071
:100C5000FE4040F44000704701F0004040F0FE408C
:100C600040F40000704700BF7BB972B90029BEBFD5
:100C700000204FF0004106E008BF00281CBF6FF0C5
:100C800000414FF0FF3000F0D3B9ADF1080C6DE931
:100C900004CE002909DB002B1ADB00F04DF8DDF84B
:100CA00004E0DDE9022304B07047404261EB4101FA
:100CB000002B1BDB00F040F8DDF804E0DDE9022347
:100CC00004B0404261EB4101524263EB4303704781
:100CD000524263EB430300F02FF8DDF804E0DDE956
:100CE000022304B0404261EB41017047524263EB82
:100CF000430300F021F8DDF804E0DDE9022304B04D
:100D0000524263EB4303704753B94AB9002908BF05
:100D100000281CBF4FF0FF314FF0FF3000F088B9C2
:100D2000ADF1080C6DE904CE00F006F8DDF804E042
:100D3000DDE9022304B070472DE9F047089D8E4697
:100D400004468846002B4AD18A42174662D9B2FA35
:100D500082F64EB1C6F1200301FA06F820FA03F339
:100D6000B74043EA0808B4404FEA174E1FFA87FC21
:100D7000B8FBFEF1230C0EFB118843EA084301FB8C
:100D80000CF29A4209D9FB1801F1FF3080F0EA8099
:100D90009A4240F2E78002393B449A1AA3B2B2FB6E
:100DA000FEF00EFB102243EA024300FB0CFC9C45C4
:100DB00009D9FB1800F1FF3280F0D6809C4540F243
:100DC000D3803B44023840EA0140A3EB0C030021EE
:100DD0001DB1F3400022C5E90032BDE8F0878B4227
:100DE00005D90DB1C5E9000100210846F5E7B3FAC0
:100DF00083F1002946D1734502D3824200F2058176
:100E0000841A6EEB030201209046002DE5D0C5E95F
:100E10000048E2E7002A00F09080B2FA82F6002E45
:100E200040F0A4808A1A030C4FEA174E80B2BCB27D
:100E30000121B2FBFEFC0EFB1C2243EA024304FB31
:100E40000CF29A4207D9FB180CF1FF3802D29A42F1
:100E500000F2E080C4469B1AB3FBFEF20EFB123395
:100E600040EA034302FB04F49C4207D9FB1802F159
:100E7000FF3002D29C4200F2CA8002461B1B42EAAB
:100E80000C40A5E7C1F120068B4022FA06F71F436C
:100E90000EFA01F420FA06F32EFA06FE4FEA17497D
:100EA000234300FA01F81FFA87FCBEFBF9F01C0C83
:100EB00009FB10EE44EA0E4400FB0CFEA64502FAC4
:100EC00001F209D93C1900F1FF3A80F09C80A64557
:100ED00040F2998002383C44A4EB0E041FFA83FED2
:100EE000B4FBF9F309FB13444EEA044403FB0CFC86
:100EF000A44508D93C1903F1FF3E80F08280A44547
:100F00007FD9023B3C4443EA0040A4EB0C04A0FB25
:100F100002EC64457346E14662D35FD05DB1B8EB45
:100F2000030264EB090404FA06F622FA01F31E43F5
:100F3000CC40C5E9006400214FE7B1FBF2FC010C95
:100F400041EA0E4180B240EA01423B4638463C4607
:100F5000B846BE462026B1FBF7F1A2EB080241EAF3
:100F60000C4166E7014618E710462CE7C6F120025F
:100F70002EFA02F3B740B14020FA02F24FEA174EC0
:100F80000A43B3FBFEF8BCB20EFB1833110C41EA66
:100F9000034108FB04F9B04089454FEA104380B291
:100FA0003ED9791808F1FF3C01D289451FD8A1EB41
:100FB0000901B1FBFEF909FB04F80EFB191192B20D
:100FC00042EA0142424529D2BA1809F1FF31C4D29E
:100FD0004245C2D2A9F102013A44BEE7F0459DD292
:100FE000BEEB02036CEB070C0138E14696E7A7EB7A
:100FF00009094944A8F1020CB1FBFEF909FB04F808
:10100000DBE773467FE7504666E70846FDE63B446C
:10101000023A33E7ACF1020C3B441CE749469CE73B
:10102000A1EB0901C446B1FBFEF909FB04F8C4E7D2
:10103000704700BFDFF834D0002103E00C4B5B5851
:10104000435004310B480C4B42189A42F6D30B4ADA
:1010500002E0002342F8043B094B9A42F9D304F022
:1010600087FB23F06BFC01F0ADF870470000032014
:101070000C9E1308000000206C010020800300205B
:101080009C590120FEE7704708B500F0BFFDBDE8A0
:10109000084000F041BD00F0BBBD704710B5042111
:1010A000044622F096F8204610BD000038B50C4BDF
:1010B0000C4C18800C4B822019806368984740F6CE
:1010C000110398420AD1094D23682C608220984769
:1010D0002B688220DB689847002038BD0120FCE7A0
:1010E000A603002054000020A4030020A803002031
:1010F0004FF4A071F020FFF7D9BF0000F7B5394DCC
:101100002B6804461B6982209847208000284ED017
:101110002B680DF106025B6901A982209847324BCA
:101120001B78002B4BD0BDF8062040F674639A4222
:101130003FD9ADF80630BDF806209B1A9BB20A2BAA
:1011400042D90B22B3FBF2F3284A1288934201D909
:10115000013A93B2BDF80420254840F6B8318A42DE
:1011600034D8C2F571620E32016892B20F25B2FB1B
:10117000F5F2204D2D88AA4284BF05F1FF35AAB2B1
:101180008A4215468EB22AD9921B91B21A4E3768FE
:10119000BB42BAB28CBF9A1AD21A92B21144052934
:1011A000C4BF05603360036863803368A38003B005
:1011B000F0BDB32A9CBFB422ADF80620BBE7BDF852
:1011C0000630A3F5B473B9E70023C3E7C2F56D6237
:1011D000083292B20E2A0168C8D800252A46891A18
:1011E00089B2D3E7A8030020AA3A0020A403002074
:1011F000A0030020A60300209C03002037B568460A
:101200000D461446FFF77AFFBDF8000030B1BDF877
:1012100002302B60BDF804302360012003B030BDE4
:10122000032821D8DFE800F0020B12190F4B1A68CF
:10123000B2FA82F2520904210D4804F043BF0B4B6D
:101240005A68B2FA82F252090821F5E7074B9A6808
:10125000B2FA82F252091021EEE7044BDA68B2FAD0
:1012600082F252092021E7E7704700BFAC0300205B
:1012700000100240032821D8DFE800F0020B121909
:101280000F4B1A68003A18BF012204210D4804F0E0
:1012900019BF0B4B5A68003A18BF01220821F5E725
:1012A000074B9A68003A18BF01221021EEE7044B61
:1012B000DA68003A18BF01222021E7E7704700BF33
:1012C000AC0300200010024003280DD8DFE800F036
:1012D0000206080A0421054804F0F9BE0821FAE7CD
:1012E0001021F8E72021F6E7704700BF0010024008
:1012F00008B5032811D8DFE800F0020A0C0E04211B
:10130000074804F0D9FE431E5842584108BD082141
:10131000F6E71021F4E72021F2E70020F3E700BF11
:101320000010024070B5084D00240126E0B2FFF71E
:10133000DFFF18B12B68012B18BF2E600134052C7C
:1013400005F10405F2D170BDAC030020012380F843
:10135000781080F87930704770470020704700009F
:10136000034B4164003918BF01211970704700BF59
:101370005B4C0120704700207047836B0BB108461F
:10138000184770474FF6FF707047406803689B69C5
:1013900018477047704770477047704710B504464C
:1013A00000F04CFD23680349D3F890302046BDE897
:1013B00010401847000000D008B503680446D3F871
:1013C0008430984723682046DB6F984700F0ECF89C
:1013D000236820465B6F9847292001F0D7F900F079
:1013E000E3F8236820465B6F9847F8E710B504469A
:1013F0000AF0FEF823682046D3F8BC30BDE8104060
:10140000184700F0FFBC00F003BD00F035BD00F050
:10141000D5BC00F045BD00F04DBD00F0D9BC09F0D1
:1014200015BB10B58421044621F0D3FE204610BD23
:1014300010B590F8341090F878400C4B8C421A7824
:1014400009D03AB90A4A0B491488088810800C80E0
:1014500001221A7010BD002AFCD0054A05491488E3
:10146000088810800C800022F3E700BF544C012054
:10147000504C0120524C012070B50D46194635B92B
:10148000094B0A4A0A4840F2FF2122F027FFC0E92F
:101490000F52084B003A18BF01221A700368BDE8CA
:1014A0007040D3F8903018474C580208845802080E
:1014B000D25802085A4C012008B5094B1B888B42B0
:1014C00003D8084B1B88934205D9074B074A0848A5
:1014D000A32122F003FF074B1980074B1A8008BD98
:1014E000504C0120524C0120175902087A59020829
:1014F000D2580208564C0120584C0120034690F85F
:101500007A0018B1586803681B68184770470000D4
:10151000012108B50022084606F062FF0A4B186058
:1015200028B90A4B0A4A28210A4822F0D7FE00228D
:101530000421012006F0F3FF074B186018B9074B90
:10154000034A2C21F0E708BDC0030020BD59020862
:10155000065A0208355A0208BC0300207B5A0208CA
:10156000024B4FF0FF31186806F084BFC003002023
:10157000014B186806F0AABFC0030020024B0021EF
:10158000186806F077BF00BFC0030020FFF7F0BF68
:1015900003480449006800231A4606F0FBBF00BF59
:1015A000BC0300200400002013B5084C00231A4699
:1015B00001A9206807F01FF820684FF0FF330022D0
:1015C00001A907F018F802B010BD00BFBC0300204D
:1015D00003685B6C18470120704703689B6A1847D3
:1015E000FEE740F2EF307047054B0360054B4FF0CC
:1015F0008062C3F88820BFF34F8FBFF36F8F7047AF
:101600007464020800E100E010B504464FF45A612A
:10161000FFF7EAFF204621F0DCFD204610BD000068
:1016200082B0002301930E4B1A6B42F400021A633E
:101630001A6B02F400020192019A1A6942F4000244
:101640001A611A6922F400021A61064B064A1A61ED
:10165000064A5A61064B4FF080629A6002B07047AA
:1016600000380240883C0020C1180008E11500083D
:1016700000E100E008B50A2809D8DFE800F006100C
:101680000E080808081010101000022008BD054BB5
:10169000054A0648902122F021FE0020F6E70120AD
:1016A000F4E700BFBD5A0208D85A0208235B0208BB
:1016B00038B50C46887FFFF7DDFFA58AE28A164B16
:1016C0002169586342EA05425A64628BD963521B0E
:1016D0001A642568082D0ED19A611A615862207F1C
:1016E0000E4A42EA0062DA61E2681A620C4A596103
:1016F000D9601A6038BD0022D8611A61E1680A0A0F
:10170000480902F4784200F4FC600243C1F3C401CA
:101710000A439A63034AECE700B002400900010063
:10172000012302000123030008B50B280BD8DFE8D2
:1017300000F00612100A0A0A0A080808080802201F
:1017400008BD0520FCE7054B054A06486F2122F03D
:10175000C5FD0020F4E70120F2E700BFBD5A0208F2
:10176000675B0208235B02082DE9F04191F81D80B8
:101770000C464046FFF7D8FFA77F05463846FFF7DF
:10178000D3FF06463846FFF775FFA18A628B444BAC
:10179000521A1A649A61228B521A1A61E28A5863A9
:1017A00042EA01425A6421696268D963DA602068BA
:1017B000802828D0227F0FD8202867D0402865D0E5
:1017C00004281AD0364B45EA026545F40035B84581
:1017D000DD6161D0334A44E0B0F5807F04D0B0F5DC
:1017E000007FEFD1304800E0304840EA0262DA6121
:1017F000E2681A625E62596132E045EA026242F4CE
:101800000032DA61F6E7A068021DDA62227F45EA5B
:10181000026545F40035DD615E625961017841B1D0
:10182000012921D0224B234A23484FF48D7122F005
:1018300055FDDA69418822F47F42013922F0100215
:1018400042EA0122DA610121154BDA6942F02002F5
:10185000DA61DA699206FCD410229A600029B9D0C4
:10186000164A1A60BDE8F081B2F1FF01DA694088DA
:1018700022F47F4200F1FF3022F0100242EA0022FF
:1018800042F0100218BF0121DA61DDE745EA026289
:10189000034B42F40032B4E742F20132E1E700BF09
:1018A00000B0024001230100090002000A0002000A
:1018B000B15B0208CB5B0208235B02080123020034
:1018C000024B1B68586803685B6918475C4C012031
:1018D00070B5044625460A4B0C300026606026721F
:1018E000667245F8203B6022294609F0D7FF04F5CF
:1018F0005A63EE6024359D42FBD1204670BD00BF87
:1019000074640208034B1A68D207FCD423229A603D
:10191000704700BF00B002407047000030B50F4C68
:101920002568ED07FCD423250904A56041F00101D9
:101930000225FF2B65636164E0630AD00849656294
:1019400041EA0363E361074B22626061E060236068
:1019500030BDE561039BA363034BF8E700B0024091
:1019600009000100010002000100030030B50E4C27
:101970002568ED07FCD423251204A56042F001027E
:101980000225FF2B65636264E063E16008D01B06FB
:1019900043F00213E361054B65626061236030BD73
:1019A000034BE3610123F9E700B0024001000200AC
:1019B000020002FF30B50B4C2568ED07FCD423254F
:1019C00012041B06A56043F40033022542F0010215
:1019D00065636264E063E160E361034B65626061DB
:1019E000236030BD00B002400100020001207047BA
:1019F0000C2070470C2303FB0100083070470C23B8
:101A000003FB0100083070470120704742F29C50F0
:101A1000704742F29C5303FB01000830704742F2CA
:101A20009C5303FB010008307047012070471020D1
:101A3000704700EB01100830704700EB01100830D0
:101A40007047084601F022BC10B5034B0360044602
:101A500008F053FD204610BD2C65020810B5044661
:101A6000FFF7F2FF2046142121F0B3FB204610BD02
:101A700010B5034B0360044608F03FFD204610BD3F
:101A8000F864020810B50446FFF7F2FF204642F260
:101A9000A45121F09EFB204610BD000010B5034B61
:101AA0000360044608F029FD204610BDC464020806
:101AB00010B50446FFF7F2FF2046182121F089FBFC
:101AC000204610BD10B5094B0360044600F51750C1
:101AD0001030FFF7B9FF04F12C00FFF7C9FF04F144
:101AE0001400FFF7DBFF204610BD00BF6065020851
:101AF00008B50248FFF7E6FF08BD00BF9C120020B2
:101B000010B50446FFF7DEFF204642F2447121F093
:101B100060FB204610BD00002DE9F34101F02CFAD6
:101B2000054601F02DFA00240146234628462246A8
:101B3000009412F0BBFA274B274A1A60204602F0A5
:101B4000C3F9264D264B274A27489A6012F016FA09
:101B50002B68BFF35B8FDB0736D4284621F03BFBB5
:101B600090B3224C224F234B236007F1180604F157
:101B7000140004F12C086060C4F80880E760266156
:101B800008F0BCFC1C4B6361404608F0B7FC1B4BE3
:101B9000E362384608F0B2FC04F5005303F2E45067
:101BA000174AC3F8D02502F013FA224607F11401B0
:101BB000304602F003FA304601F068FB114822F08B
:101BC000ABFB284621F013FB0F4802B0BDE8F04103
:101BD000FFF7E4BBC04C012048040020981200200D
:101BE000680400204C040020080000209C12002003
:101BF0006C38002060650208C4640208F8640208BA
:101C00002C650208F11A0008C40300207047000088
:101C10000148FFF7D1BB00BFC403002070B5264EBA
:101C2000264C274D274B23603046FFF751FE2846B0
:101C300017F042FB244810F0F7F9244B2448DC60ED
:101C400000224FF48071C3E9121222491A86C3E9B7
:101C50001A12214983F85820C3E91E011F49C3F80D
:101C600080101F491F480B60F021C3E90422C3E91B
:101C70000622C3E90822C3E90A22C3E90E22C3E906
:101C80001022C3E91422C3E917225A6683F8702090
:101C90005A67C3E9016501801348018013484FF476
:101CA000A07101801248018012490A70012283F854
:101CB0003420114A1A6070BDF404002094120020F0
:101CC000680400203C5802084C040020C403002093
:101CD0000000010101000001000450001A0014007E
:101CE0005C4C0120504C0120564C0120524C0120EC
:101CF000584C0120544C0120886302080148FFF72A
:101D000073BC00BFF404002000207047818070473E
:101D1000C1807047018170474181704770477047AB
:101D200070477047704710B4C4880368121B8488DA
:101D30005B6D091B12B25DF8044B09B218474FF6F0
:101D4000FF7383814FF0FF3303621368C361106038
:101D50007047002070478B88838001207047704750
:101D600080F82610704790F82600704710B50022C2
:101D7000B1F90840B1F90A10028042808480C18024
:101D800010BD0022028042808280C28070470177AD
:101D9000704780ED080A704780F82410704780F87B
:101DA0002510704701207047983070478C3070477D
:101DB000843070477047704770470000034B902293
:101DC00083F85A2383F85823704700BF00E100E0EE
:101DD000094A0A49D3680A48C3F30A03013B9BB284
:101DE0000B801169C1F30A01013901801364536B3F
:101DF00043F001035363704700680140E23900205B
:101E0000E0390020014BD3F8AC0070470068014076
:101E1000024B0122C3F8AC105A62704700680140BF
:101E200010B52C21044621F0D4F9204610BD10B580
:101E3000BC21044621F0CDF9204610BD70B5044602
:101E400008F059FE23689D6E0EF086FE014620467E
:101E5000A8472368054AD3F88C502046AC46002397
:101E6000BDE87040A2F51631604700BF00B004D055
:101E700008F028BE08F032BE08F0EEBD08F05DBFE5
:101E800090F8252012B103685B691847704790F8F5
:101E900025201AB190F8242002B118607047000084
:101EA000034B4FF080629A604FF080729A607047E7
:101EB00000E100E0084B4FF08062C3F88820BFF3D8
:101EC0004F8FBFF36F8F4FF08072C3F88820BFF33E
:101ED0004F8FBFF36F8F704700E100E070B50023B4
:101EE000124E8380124B0360336893F858200546E6
:101EF0000AB1D86C00B998680368DB6A9847336800
:101F0000B0FA80F4D86C640930B10368DB6A984792
:101F1000002808BF44F001042CB9064B064A0748C4
:101F20002C2122F0DBF9284670BD00BF5C4C01205B
:101F300074650208095C0208675C0208A05C02087C
:101F400070B5254E3568BFF35B8F15F0010540D1A4
:101F5000304621F040F900283BD0204C204B256131
:101F600004F13400C4E90035C4E90255E584A562F2
:101F7000A58510F03EFB04F158000BF045F9194B14
:101F8000A3652046184B40F8843BFFF7A7FF174B8B
:101F9000C4F884302433C4F88C304FF4C803C4E947
:101FA00028350023C4F8AC30C4F8B030C4F8B430DD
:101FB000C4F8B8300E480F4BC4F89050C4F89C5089
:101FC000C4F8A850C4F8983022F0A6F9304621F0A1
:101FD0000EF9024870BD00BFE4390020E839002046
:101FE000846C0208946502080C660208386C0208CA
:101FF000B91D0008186C020838B5184C23685BB38B
:10200000174B184A1B6C11888B4216D1164B198836
:1020100004F060FE236893F86A200025013283F8FB
:102020006A2083F87C50FFF7B3FA206809F0E0FAE1
:102030002846BDE83840FFF7F3B804F04BFE2468AB
:10204000236820461B6A9847012384F87C300020CF
:10205000BDE83840FFF70EB938BD00BF5C4C012029
:1020600000680140E2390020E039002007B5064B46
:10207000ADF806001B68054801220DF1060105F0C8
:102080009FFB03B05DF804FB0C000020343B0020F4
:1020900008B5642006F098F9FBE70000BFB51B4EB9
:1020A0001B4D1C4C1C4F304603F056FC284603F0D9
:1020B00053FC0121304603F0CDFC0121284603F0FA
:1020C000C9FC164B22881A80154B3A881A80304674
:1020D00003F013FD2080284603F00FFD22881149EC
:1020E000388083B201A822F0BDFA01A8FEF780F87B
:1020F0000A2382B201A90C4805F0F9FF322003F04F
:1021000071FB012006F060F9CBE700BF183D00200D
:10211000D03C00201A0000201800002016000020EB
:1021200014000020025D0208EC3A002030B595B0A2
:10213000102200210AA822F0FAFA1422002103A892
:1021400022F0F5FA00241D4B01941A6C42F08052E3
:102150001A641B6C03F080530193019B184B02948B
:102160001A6842F440421A601B6803F44043029329
:102170000122029B4FF48033CDE9082302254FF45E
:102180008003CDE90E5308214FF4A873CDE9101355
:1021900008A804231393129504F0BAFD0F23CDE988
:1021A00003354FF4A0504FF48053CDE906030521C9
:1021B00003A8059404F088FF15B030BD0038024034
:1021C000007000402DE980489BB003F0DFFAFFF774
:1021D000ADFF142200210DA822F0A9FA0024C84B5B
:1021E00000941A6BC748C84D42F010021A631A6B6C
:1021F00002F010020092009A01941A6B42F0200241
:102200001A631A6B02F020020192019A02941A6B6F
:1022100042F080021A631A6B02F080020292029A64
:1022200003941A6B42F004021A631A6B02F0040260
:102230000392039A04941A6B42F001021A631A6B18
:1022400002F001020492049A05941A6B42F0020211
:102250001A631A6B02F002020592059A06941A6B31
:1022600042F040021A631A6B02F040020692069A8C
:1022700007941A6B42F008021A631B6B03F0080301
:10228000224607933C21079B03F01CFF9F48012235
:10229000022103F017FF22469C48042103F012FF9D
:1022A00022469B484FF4405103F00CFF01263C238B
:1022B000CDE90D3693480F9403230DA902271093FF
:1022C00003F016FE91480DA9CDE90D76CDE90F4436
:1022D00003F00EFE04238D480DA9CDE90D36CDE99E
:1022E0000F4703F005FE0DA94FF440538848CDE990
:1022F0000D36CDE90F4703F0FBFD8648864B0360A2
:1023000003F0ECFCDFF838C2844B2C62C5E900C353
:1023100028464FF48043C5E90434C5E90244C5E9C1
:10232000064404F0DDF81021284604F021FB214684
:10233000284604F03CFB7A4DDFF808E2AC624FF42B
:102340008273C5E900E34FF400781823C5E90683DA
:1023500028460A23C5E90244C5E90444C5E90844FE
:10236000EB6205F0D1F98F232246394667488DF894
:1023700024308DF8344003F0A5FE32464FF47A73D2
:1023800009A9284605F01CFA4FF47A7332460DA9C4
:10239000284605F0C1FB324639465C48614D03F0E2
:1023A00091FE9DF83430D32B04BF5F4B1E705F4B02
:1023B0000126C5E900364FF0100840230024C5E986
:1023C00004834FF4C073C5E906344FF40063C5E9D4
:1023D00008344FF4005302274FF0040A4FF0030B68
:1023E000AB620DA907232846CDE90D73CDE90FA3F4
:1023F0004FF00809C5E9024ACDE911B7139705F076
:1024000067F84FF6FF7209A92846CDE90A960894A5
:1024100009960C9405F07CF8304603F0E3F94FF68A
:10242000FF7209A92846CDE90979CDE90B6405F0C9
:102430006FF84FF6FF7209A92846CDE909B9CDE931
:102440000BA405F065F84FF40C730893089B0C93EC
:102450004FF6FF7209A92846CDE909A90B9605F0A8
:1024600057F840F26A51284605F070F834222146A8
:102470000DEB020022F05BF92D4D2E4B2C61C5E9CE
:1024800000340923C5E905361D23C5E9073B40F2A1
:102490000D1240F24313C5E9092340F2171140F22F
:1024A00047132846C5E90B13C5E90244AC8685F8F5
:1024B000364004F017FBFF21F022CDE912144FF053
:1024C00005094FF480614FF4A073CDE90E24CDE9E6
:1024D0001419CDE916420DA922462846CDE9103738
:1024E000154D18930D94ADF864408DF8664004F0D6
:1024F000C4FB124B2B601B6898472B6824E000BF7D
:102500000038024000100240343C00200008024025
:10251000000C0240C83C002000300240A0860100B0
:10252000343B0020B83A0020AA3A0020400100A025
:102530008C3B002000680140A43A00201C000020D1
:10254000005C004000500140424DDB689847424B20
:102550002846C5E90034C5E90274C5E90A47C5E95A
:102560000C4403F0CBFB3146284603F07DFC3B4D89
:102570003B4F424621460DA822F0D9F8394B2C6139
:102580004FF4003B4FF0007A2846C5E9003BC5F800
:1025900008A02C7685F82040EC62AF62EC60EE611A
:1025A00085F830406E6103F031F90D230DA92846FE
:1025B000CDE90D362C4D0F9403F0A2FA4246214688
:1025C0000DA822F0B4F8294BC5F808A02846C5E9A3
:1025D000003BC5E90A742C612C7685F82040EC603C
:1025E000EE6185F830406E6103F010F90DA92846C0
:1025F000CDE90D961E4D0F9403F082FA1D484FF45D
:10260000E133C0E900530C23C0E90534C0E90244BA
:102610000461C46105F03CFDFEF736FDFEF733FDB5
:1026200005F058FE144A1548214605F089FE144B62
:10263000144A18602146144805F082FE134B144AD0
:1026400018602146134805F07BFE134B186005F017
:1026500053FEFEE7883C002000B00240183D0020F9
:102660000100000F00200140D03C0020002101406B
:1026700000100140EC3A0020986602089120000802
:10268000B43A00207466020897100008B03A00209F
:10269000506602089D200008AC3A00207047704741
:1026A0007FB5094B8DF817201B6802930DF11702B7
:1026B0000123009201930A460146044803F0B8FF43
:1026C00007B05DF804FB00BF10000020343C002080
:1026D0007FB500238DF81730084B1B6802930A461C
:1026E00001230DF11701009101930146044804F004
:1026F0002FF89DF8170007B05DF804FB10000020CC
:10270000343C00201FB5084C24680092CDE9013408
:102710000A4601230146054804F01AF8003818BF9C
:10272000012004B010BD00BF10000020343C002088
:1027300003F058B810B5064C00222046042103F0DF
:10274000C1FC20460122BDE81040042103F0BABCC0
:102750000008024038B50B4D044601220A484FF4E8
:10276000005103F0AFFC00220421284603F0AAFC2C
:102770002046FFF77BFC28460122BDE838400421B3
:1027800003F0A0BC00080240000C024038B50B4D1D
:10279000044600220A484FF4005103F093FC002243
:1027A0000421284603F08EFC2046FFF75FFC2846F4
:1027B0000122BDE83840042103F084BC0008024037
:1027C000000C0240F7B5144E144F05460C46304637
:1027D0000022042103F076FC00224FF40051384619
:1027E00003F070FC2846FFF741FC0D4B0D481B68B9
:1027F000224601A905F090F9384601224FF4005114
:10280000019C03F05FFC30460122042103F05AFCD6
:10281000204603B0F0BD00BF00080240000C02409B
:102820000C000020343B002002F0DCBF0268034BA8
:102830009A4201D102F0C4BF704700BF00100040AF
:102840007047000082B00E4B00220092596C41F498
:1028500080415964596C01F48041009100990192C2
:10286000196C41F0805119641B6C03F08053019383
:10287000019B0F216FF0010002B003F0EFB900BF20
:102880000038024010B514228AB0044600210DEB36
:10289000020021F04CFF2368214A93421FD1214BB3
:1028A0002148002101915A6C42F480725A645A6C9A
:1028B00002F480720192019A02911A6B42F00402B2
:1028C0001A631B6B03F0040302930821029B03238A
:1028D000CDE9051305A903F00BFB0AB010BD134A9F
:1028E0009342FAD10F4B1248002103915A6C42F4E3
:1028F00000725A645A6C02F400720392039A0491B3
:102900001A6B42F001021A631B6B03F0010304937C
:10291000049B20220323CDE9052305A9DBE700BFA3
:102920000020014000380240000802400021014020
:10293000000002400268094B9A4282B00BD100238A
:102940000193074B1A6B42F480521A631B6B03F41A
:1029500080530193019B02B0704700BF00300240DA
:102960000038024007B50F4B02689A4216D1002288
:10297000A3F5F0430192196B41F4000119631B6B3D
:1029800003F40003019305215A20019B03F066F92B
:102990005A2003B05DF804EB03F092B903B05DF880
:1029A00004FB00BF00B002402DE9F043044689B0AB
:1029B0001422002103A821F0BAFE2268244B9A4277
:1029C00043D1244C244800250095236B43F0040395
:1029D0002363236B03F004030093009B0195236B97
:1029E00043F001032363236B03F001030193019B75
:1029F0004FF012094FF400734FF00108032704262B
:102A000003A9CDE90339CDE90587079603F070FAEC
:102A10004FF480731148079603A9CDE90339CDE936
:102A2000058703F065FA0295236C43F400032364E1
:102A3000236C03F400030293029B236A43F4000314
:102A40002362236A23F40003236209B0BDE8F08304
:102A5000005C0040003802400008024000000240D4
:102A6000F0B599B004461422002107A821F05FFEBA
:102A700030220DEB0200002121F059FE22685E4B4E
:102A80009A4240F0B78008230C93C023109304238C
:102A900012930CA84FF40033159304F0EDFB08B12A
:102AA000FFF7CEFE554B5648002400945A6C42F076
:102AB00080625A645A6C02F080620092009A01941B
:102AC0001A6B42F020021A631A6B02F02002019284
:102AD000019A02941A6B42F001021A631A6B02F017
:102AE00001020292029A03941A6B42F002021A63E4
:102AF0001A6B02F002020392039A04941A6B42F0DA
:102B000040021A631A6B02F040020492049A059480
:102B10001A6B42F004021A631A6B02F00402059267
:102B2000059A06941A6B42F008021A631B6B03F0B5
:102B30000803069302250E26069B0B964FF480632E
:102B400007A9CDE90735CDE9094503F0D1F941F6EB
:102B500058032C480B9607A9CDE907350927CDE97D
:102B6000094503F0C5F9032327480B9707A9CDE9C9
:102B70000735CDE9094503F0BBF94FF470632248EE
:102B80000B9607A9CDE90735CDE9094503F0B0F962
:102B90004FF40C631D480B9607A9CDE90735CDE925
:102BA000094503F0A5F9C02319480B9607A9CDE9FB
:102BB0000735CDE9094503F09BF9082315480B9625
:102BC00007A9CDE90735CDE9094503F091F94FF49F
:102BD000A0530E480B9707A9CDE90735CDE9094564
:102BE00003F086F958202246052103F037F85820D3
:102BF00003F066F819B0F0BD0068014000380240EB
:102C0000001402400000024000040240001802408C
:102C100000080240000C024010B5044688B014229F
:102C2000002103A821F083FD2268144B9A4223D18E
:102C300003F56843002101915A6C114842F4801257
:102C40005A645A6C02F480120192019A02911A6B32
:102C500042F020021A631B6B03F020030293029BD5
:102C60004FF4607202230321CDE903230523CDE94C
:102C7000061303A903F03CF908B010BD0050014051
:102C80000014024010B5044688B01422002103A8A5
:102C900021F04DFD2268144B9A4223D103F5943361
:102CA000002101915A6C114842F010025A645A6C8A
:102CB00002F010020192019A02911A6B42F0010295
:102CC0001A631B6B03F001030293029B4FF4C06273
:102CD00002230321CDE903230723CDE9061303A92A
:102CE00003F006F908B010BD0010014000000240DA
:102CF0002DE9F04186B0002303932B4B1C68002C78
:102D00004FD14FF00108C3F80080284B00949A6B14
:102D1000274842EA08029A639B6B03EA0803009380
:102D2000022703260C25009B01A94FF63F03CDE99E
:102D30000137CDE9046503F0DBF81E48059501A9CC
:102D4000CDE90187CDE9034603F0D2F848F2331309
:102D50001948059501A9CDE90137CDE9034603F0EE
:102D6000C7F84FF683731548059501A9CDE90137DA
:102D7000CDE9034603F0BCF84CF203731048059507
:102D800001A9CDE90137CDE9034603F0B1F860238D
:102D90000C48059501A9CDE90137CDE9034603F0BB
:102DA000A7F806B0BDE8F081603D00200038024081
:102DB00000140240000802400018024000100240C7
:102DC000000C02400004024070B588B0002302935A
:102DD000204B1A6C42F010021A641B6C03F01003B3
:102DE0000293054601A903A8029B04F027FA069B5B
:102DF0004BBB04F003FA184E184B336040F2E73334
:102E0000F360174BB0FBF3F3013B736030460023D4
:102E10003361B360B36105F04FF8044680B93046C2
:102E200004F020FF044658B9362002F049FF0F2D68
:102E30000DD822462946362002F010FF094B1D60AE
:102E4000204608B070BD04F0D9F94000D3E7012452
:102E5000F6E700BF00380240643D0020001000404B
:102E600040420F00840000207047FEE7FEE7FEE7C7
:102E7000FEE77047014804F033BF00BF643D002007
:102E8000014803F09DBE00BF8C3B0020014802F0CA
:102E900061BF00BF883C00200120704708B521F0C9
:102EA00047FD162303604FF0FF3008BD08B521F041
:102EB0003FFD16230360FEE770B50D4614460E462F
:102EC000731B9C4201DC204670BDAFF3008006F806
:102ED000010BF5E770B50D4614460E46731B9C4278
:102EE00001DC204670BD16F8010BAFF30080F5E75A
:102EF0004FF0FF3070474FF400534B600020704795
:102F000001207047002070470A4A116808B503463F
:102F100009B9094911601068694603448B4206D912
:102F200021F006FD0C2303604FF0FF3008BD136055
:102F3000FCE700BFAC3D0020A0590120704710B550
:102F40000421044620F045F9204610BD08B50329A8
:102F50000FD8DFE801F00A02060A01F001F8406824
:102F600008BD00F0FDFF8068FAE700F0F9FF006897
:102F7000F6E70020F4E7000000487047D06602083A
:102F80000C20704713B5002451B1036801948DF8EB
:102F9000034001AA9C680DF10303A04702B010BDD5
:102FA0000846FBE7C0897047008A7047C0887047B1
:102FB00080887047807A00F07F007047807AC0096F
:102FC00070470020704700009FED010A704700BF66
:102FD00000000000704710B50821044620F0F9F801
:102FE000204610BD7047704700F59873086849681F
:102FF00003C3704770477047416070477047704720
:10300000064BC0F84C310023C0F8503100F5A273D4
:10301000C0F84801C0F84031704700BFC130000817
:10302000012303727047704710B4C268416854109E
:10303000034601EB6200D20748BF0A599B685DF85E
:10304000044B48BFD35818470346406830B19A68CC
:103050001AB9D86800F0010070470120704710B518
:103060000C21044620F0B5F8204610BD10B5102103
:10307000044620F0AEF8204610BD10B54FF4AE71F6
:10308000044620F0A6F8204610BD10B50DF064FDF2
:103090000368BDE81040DB6B184710B50446D0F854
:1030A000400158B10368DB68984738B1D4F8400153
:1030B00003689B6898470023C4F8403110BD0000A6
:1030C0002DE9F14FD0E9556A0746B06803681B6ADD
:1030D000984742F29B53984205D8444B444AA32157
:1030E000444821F0FBF8706803681B6A98470F2872
:1030F00003D8414B3E4AA421F2E7F06803681B6AFB
:1031000098470B2803D83D4B394AA521E8E70DF035
:1031100023FDDFF8F09004300DF043FDD9F80000F6
:1031200010B10368DB689847D9F8000010B1036854
:103130001B689847DFF8D080D8F8000010B103680A
:103140005B699847D7F83C0110B103685B68984702
:10315000D8F8000010B103681B689847D7F83C0105
:1031600010B103689B689847F068036800215B6AA8
:1031700098474FF0000B224BC0F804B0044680F88B
:1031800008B00360B068036859465B6A9847054613
:1031900000F060FF7068036859465B6A98472946EB
:1031A000064600F027FF331DC7F83C61C9F8004010
:1031B000C8F80050CAF800302B68C6F808A02846A6
:1031C000DB68EE639847336830461B6898472146B2
:1031D00028460FF03FFF236820461B699847236865
:1031E0005B69204601B0BDE8F04F18472F5D02082B
:1031F000BD5D02088F5E0208D65E0208795F020894
:1032000044680208A44C0120A04C0120044B1B6818
:1032100093F858200AB1D86C00B99868704700BF7D
:103220005C4C0120F8B5174604460E460DF056FDDD
:10323000124B1C60124B2360124B0025C4E9513520
:10324000114BC4E953551868036801219B68C4E910
:103250004F55C4E955769847284600F035FEFFF7EC
:10326000D5FF17F0D2FEFFF7D1FF17F049FFFFF7A8
:10327000CDFF17F051FF2046F8BD00BFB04C012034
:10328000F0670208D86702085C4C0120064BC0F8C2
:103290004C310023C0F8503100F5A273C0F848014A
:1032A000C0F84031704700BFC1300008406A704725
:1032B000806A704770478A880B8810B5D20A4C889C
:1032C000C1699BB251F8220043EA0443184410BD7F
:1032D00010B50446BAB1107B68B1537BD27A1B0299
:1032E00003F4E0631A43236A03EB82031A888A42D9
:1032F00002D193F9020010BD05D8013880B2043321
:103300000028F3D1F7E70020F5E710B52C2104469B
:103310001FF05FFF204610BD30B58BB00446BDF8EE
:1033200060500895BDF85C5007959DF85050069583
:103330009DF84C5005959DF8485004959DF84450D3
:1033400003959DF8405002959DF83C500195BDF8BD
:10335000385000950FF00AFA064B2360159BE36185
:10336000169B2362199B63621A9BA36220460BB0D3
:1033700030BD00BF68680208806A704770477047B8
:1033800070477047704730B5036885B06D4601815E
:10339000D3F88430014604462846984795E807004C
:1033A0003C3484E8070005B030BD30B5036885B013
:1033B0006D464181D3F8843001460446284698473B
:1033C00095E807003C3484E8070005B030BD0022D2
:1033D000028042808280C280704780F83610704739
:1033E00070B5036804461B6B154698472368294649
:1033F00020465B6EBDE87040184700207047806C27
:1034000070477047704770477047704730B4C26864
:1034100044685510034604EB6200D20748BF625966
:103420009B6830BC48BFD35818470346406830B14A
:103430009A681AB9D86800F00100704701207047F7
:1034400090F82D3080F85C3070470146343091F8A8
:103450002C3013B162310AF06FBF6031FBE710B559
:103460004C2104461FF0B5FE204610BD10B5642166
:1034700004461FF0AEFE204610BD10B510210446D4
:103480001FF0A7FE204610BD10B5034B0360044695
:103490000BF068FE204610BD186A020810B5064BF6
:1034A000036004460BF05EFE204641F27C211FF0D3
:1034B00090FE204610BD00BF186A020808B5FEF74E
:1034C000DFFC08BD10B50446006B50B10368DB6833
:1034D000984730B1206B036821469B68BDE81040D7
:1034E000184710BD00F57E728A4202D10368DB6A7C
:1034F00018477047036870B55E6B124B1B68044633
:103500008DB22BB9104B114A6C21114820F0E6FE08
:103510001049828D0988914203D80F4B0B4A6D21C7
:10352000F3E713F812200D4B1B6853F822000368D1
:103530001B6B9847291A3346204609B2BDE87040F4
:10354000184700BFB44C01201C6002085E600208EE
:1035500099600208B84C0120E0600208BC4C0120D0
:103560000B7970B590F82C6004460D460BB916B176
:1035700070BD002EFCD0B3FA83F35B0984F82C30C5
:1035800023682046D3F88C309847236820465B692F
:103590009847002EECD02B79012BE9D123682046E7
:1035A000D3F88830BDE87040184700224FF0FF3153
:1035B000C0E9002182607047074A02600022C0E92A
:1035C0000122C0E90322C0E90522C0E907224FF425
:1035D00080728284704700BF0471020870B503686E
:1035E00004461B6B154698472368294620465B6BAB
:1035F000BDE87040184770B5036804469B6B1546DC
:103600009847236829462046DB6BBDE87040184781
:1036100038B504461D46FFF7E1FFBDF910202946E5
:103620002046FFF7E8FF38BD0B8870B5A0F8603082
:103630000546138825F8623F0446284610F04AFDE7
:103640000646284610F07AFD314602462046FFF72E
:10365000D2FF23682046D3F88C30BDE8704018476D
:1036600010B526220446002121F061F82046FFF71C
:10367000A3FF044B2360FF2384F826300023A362BA
:10368000204610BD646F020838B5262204460D4658
:10369000002121F04CF82046FFF78EFF064B2360F7
:1036A0002B88E384FF23204684F8283029460AF03B
:1036B00043FE204638BD00BF3470020810B52622F4
:1036C0000446002121F033F82046FFF775FF0A4B2E
:1036D00023600A4BA3624FF6FF73A3854FF47F026A
:1036E0000023C4E90C3223874FF0FF32C4E91023D2
:1036F000E363204610BD00BFD46E0208C86702080D
:103700002DE9F04F044699B00FF0F8FA2246002553
:10371000DB4BE56342F8403B10460C92FFF7A0FFFD
:1037200004F16C034FF6FF7616A918460793ADF81F
:103730005860FFF7A9FF04F1980316A918460893EB
:10374000ADF85860FFF7A0FF04F1C40316A91846AE
:103750000993ADF85860FFF797FF04F1F00316A93D
:1037600004F58E791846C74F0A93ADF85860FFF7F5
:103770008BFF484609F01CFF04F5C67307F1240AC5
:10378000184604F5D0780F93FEF7A8FBC4F88C71A7
:10379000C4F894A1C4F89851404609F009FF04F513
:1037A000047318460E93FEF799FB04F50973184647
:1037B000C4F81072C4F818A2C4F81C52DFF8E8A2CA
:1037C000049304F51C77FFF779FFC4F824A2C4F82A
:1037D0006C523846FFF7F0FEAB4BC4F8703204F57C
:1037E00027731846C4F898520D93FFF739FFA74B7B
:1037F000C4F89C3204F534731846C4F8C852A4F8CF
:10380000CC5204F5467B0293FFF758FF5846FFF76A
:1038100055FF04F55973C4F818A31846C4F860534B
:103820000593FFF74BFF04F56C73C4F864A31846C7
:10383000C4F8AC530393FFF741FF04F57E731846B9
:103840000693FFF7B9FE4FF47F43A4F82434904B5E
:10385000C4F8F8334FF0010A04F22C43184616A9B5
:10386000C4F82054C4F8285484F81CA40B93ADF871
:103870005860FFF709FF2A460B98A4F85864A4F88B
:103880005A642946FFF7AAFE0B99069806F048FEEF
:10389000804A04F58053C3E99B247F4A4FF4616159
:1038A000C3E99D2504F25C400BF052FC4FF4A07379
:1038B0002A460C9800932946F023FFF7A9FE261DFF
:1038C0004FF07F43A3660C99304606F029FE2A4646
:1038D00007982946FFF782FE0798ADF8585016A9B9
:1038E0000AF02AFD0799304606F01AFE2A46089883
:1038F0002946FFF773FE0898ADF858A016A90AF0FC
:103900001BFD0899304606F00BFE2A460998294609
:10391000FFF764FE02230998ADF8583016A90AF0A3
:103920000BFD0999304606F0FBFD2A460A98294608
:10393000FFF754FE03230A98ADF8583016A90AF091
:10394000FBFC0A99304606F0EBFD4FF4A0730093A0
:103950002A46F02329464846FFF75AFE4F4BC4F843
:1039600098314FF47843A4F89C310F9BC4F844314C
:103970004FF407522946484609F030FF4FF40752EA
:103980004FF4F051484609F034FFD4F85831402B39
:1039900005D04023C4F85831484609F029FE0121DA
:1039A000484609F031FF7F2384F8423149463046CA
:1039B00006F0B6FD00224FF4A07311460093404676
:1039C000F023FFF725FE364BC4F81C324FF2E053CC
:1039D000A4F820320E9BC4F8C83142F2E0424FF402
:1039E0007061404609F0FAFE4FF4B462002140468F
:1039F00009F0FFFED4F8DC31402B05D04023C4F899
:103A0000DC31404609F0F4FD4046012109F0FCFE9E
:103A10004146304606F084FD0498DFF890A04FF44C
:103A20009872D121FFF7DAFD1E4BC4F85432D4F856
:103A300024320499D3F8843010AD4FF000082846A2
:103A4000A4F85882984795E80700049BCDF858A041
:103A50003C3383E807000498ADF85C8016A90AF0AF
:103A60000FFB4FF0E5090499304606F059FDCDF8FB
:103A700000903846B22323221F21FFF7C9FD17E02B
:103A8000186A0208386C0208586B0208CC6F0208EA
:103A900060690208006A0208E53400080000FFFFC0
:103AA00000BCF0FF00BCEBFFD0680208C86702084A
:103AB0000D98CDF8009042464146B223FFF7A8FD8D
:103AC000664A674B0D99C4E9B1230623A4F8CC32AA
:103AD000384606F025FD02984E221721FFF77EFD9D
:103AE000604B0299C4F800332846A4F804830AF016
:103AF0002DF895E80700029BCDF858A03C3383E8E9
:103B0000070001230298ADF85C3016A90AF0B8FA54
:103B10000299384606F004FD2C2258462E21FFF764
:103B20005DFD514BC4F84833D4F81833A4F84C83E6
:103B300059462846D3F88430984795E807000BF19A
:103B40003C094FF0040389E8070084F85133D4F8A6
:103B5000183359462846D3F88430984795E807002B
:103B60004FF0040389E8070016A95846ADF85C3009
:103B7000CDF858A00AF084FA5946384606F0D0FC31
:103B8000059869222E21FFF729FD384BC4F894339C
:103B9000D4F864330599D3F88430A4F89883284680
:103BA000984795E80700059BCDF858A03C3383E87B
:103BB000070003230598ADF85C3016A90AF060FAF7
:103BC0000599384606F0ACFC039811223621FFF720
:103BD00005FD274B0399C4F8E0332846A4F8E48395
:103BE00009F0B4FF95E80700039BCDF858A03C33DB
:103BF00083E8070002230398ADF85C3016A90AF0A9
:103C00003FFA0399384606F08BFC05230698ADF879
:103C1000543016AA092315A9ADF85830FFF704FD52
:103C20000B9842464146FFF7D9FC04F593530C33F9
:103C3000C4F828343C2300938F2206983B21FFF7D9
:103C4000E7FC0699384606F06BFC3046394606F02C
:103C500067FC204619B0BDE8F08F00BF69A3B2FF32
:103C6000456C8CFF2D2DB5FF00C431FF0000CFFF48
:103C70000A8A0AFF7047000030B5164D2C6814F010
:103C800001048FB0BFF35B8F20D128461FF0A3FA49
:103C9000E0B13F230993104B0893104B1049114892
:103CA0000A940122CDE906430423CDE903320A2315
:103CB0000093CDE90B44CDE901440594FFF72CFBBB
:103CC000094820F029FB28461FF091FA05480FB05B
:103CD00030BD00BFB03D0020607E02086C7E02084F
:103CE000B47D0208B43D0020753C00087047000018
:103CF00030B5164D2C6814F001048FB0BFF35B8F04
:103D000021D128461FF067FAE8B13F230993104BF1
:103D10000893104B104911480A94CDE9064301223B
:103D20000423CDE90332142300930A22CDE90B4486
:103D3000CDE901440594FFF7EFFA094820F0ECFAC9
:103D400028461FF054FA05480FB030BDE03D002072
:103D5000647E0208707E0208C47D0208E43D0020F3
:103D6000ED3C00087047000030B5164D2C6814F08B
:103D700001048FB0BFF35B8F20D128461FF02BFAD0
:103D8000E0B13F230993104B0893104B10491148A1
:103D90000A940122CDE906430423CDE90332282306
:103DA0000093CDE90B44CDE901440594FFF7B4FA43
:103DB000094820F0B1FA28461FF019FA05480FB05B
:103DC00030BD00BF103E0020687E0208747E0208ED
:103DD000507E0208143E0020653D00080020704718
:103DE000002070470EB403B503AB002153F8042B39
:103DF00001930DF039FF02B05DF804EB03B070479A
:103E00000CB407B504AB53F8042B01930DF02CFF51
:103E100003B05DF804EB02B070470000436C10B5CE
:103E2000044673B3038F2BB9184B194AC52119489F
:103E300020F054FAC38E00EB43035B8C0BB30FF0FE
:103E400062FE238F012B03D8134B144ACB21EEE7DC
:103E5000E28E531C9BB2092B194688BFA3F10A01BD
:103E600004EB410140F63F10498C814209D10A2BF5
:103E700004EB420228BF002304EB4303508C588418
:103E800051842046BDE810400FF040BD1E6102087D
:103E900027610208D26102081C6202082A62020835
:103EA0000FF0FBBC10B586B002AC84E806001A46E1
:103EB0000AAB05930193099B00932146089B0CF0E4
:103EC000E9F906B010BD000038B518BB124B134815
:103ED0001C681349B4B1226822440260626822441B
:103EE0000A60A26814440F4B00221A8000F038F8D0
:103EF000054600F033F80C4B1C600C4B1D600C4B5E
:103F0000188007E00B4B03600B4B0B600B4B1C68DE
:103F1000002CE8D138BD00BF4C3E0020443E0020BC
:103F2000403E0020483E0020B44C0120BC4C012003
:103F3000B84C01208C7E0208787E0208A87E020818
:103F4000044B1B6853F82100034B1B6803EB400034
:103F5000704700BF403E0020443E002005207047CF
:103F600000487047503E002010B5FFF7C1FE044CDA
:103F70002060FFF7F9FE6060FFF77EFEA06010BDD5
:103F8000503E002010B5002404600C6014601C60DA
:103F900010BD704710B54FF4AE7104461FF019F90B
:103FA000204610BD10B50446D0F8580100F013F8B3
:103FB0002046BDE810400CF051BE000010B504468C
:103FC000FFF730F9014B2360204610BD506A02080C
:103FD000002202607047704770470438704770478E
:103FE00010B5102104461FF0F4F8204610BDA0F1D2
:103FF0000400F5E700228260024A02601832426043
:10400000C1607047A46A0208704700000A4B70B58F
:104010000446036042F2DC1541F26426B54205D045
:10402000635960191B6898472C3DF7E72046FFF756
:104030002BFA204670BD00BFCC6A020810B50446BA
:10404000FFF7E4FF204642F29C511FF0C2F82046E1
:1040500010BD00002DE9F743074607F58058FFF72C
:104060004FFB2C4B3B6007F594541E2307F5085675
:10407000C8F87C32103408364FF6FF7504F5C6795F
:10408000204601A92C34ADF80450FFF7FDFA4C4549
:10409000F6D1B442F2D107F5125001A92C301E4CD2
:1040A000ADF80450FFF7F0FA07F5135001A91830E6
:1040B000ADF80450FFF7E8FA07F5005C2068616886
:1040C0000CF22C5303C304F10C06A06818600FCE49
:1040D0000CF23C550FC50FCE0FC596E80F003C34CF
:1040E00085E80F000FCC0CF26C550FC50FCC0FC537
:1040F00094E80F0085E80F00002388F8843203233A
:10410000CCF8383538460123C8F88C3203B0BDE806
:10411000F08300BFCC6A0208805702082DE9F04FF7
:10412000274B85B000F5945600F508551B1A10363C
:10413000073500F512580027019317F0010F0CBF47
:104140004FF0080B4FF0090BAA4634464FF0000918
:10415000019A236832F81A201B6EADF80C20204615
:1041600003A99847D8F80000FCF7FEF9154B002288
:10417000FCF79AF841EC100B1FF004FA51EC100B0D
:10418000FCF7FAFC2368B4F904109B6D02B209F144
:104190000109204698471AF8013F84F82530CB459D
:1041A00004F12C04D4DC01370A2F06F5C67605F19C
:1041B000090508F10408C0D105B0BDE8F08F00BFC3
:1041C00054DEFFFF00002D4000F5805393EDA07AF0
:1041D00000F5125318462830D3ED007A77EE877A2F
:1041E000E3EC017A8342F7D1704700000000000041
:1041F000D0B5B74B1B882DED048B08EE903AB54B2C
:104200009FEDB59A1B8808EE103AB8EEC88AF8EE12
:10421000E88A38EE498A78EEC98A68EE087A044658
:10422000E8EEA87A04F5005417EE900AFCF79CF922
:1042300041EC100B1EF0F5FF94F80435012B57EC00
:10424000106B18D0022B00F0FB808BB9F1EE047AD2
:10425000B4EEE78AF1EE10FA03DD012384F80435A9
:1042600006E004F2145204F5A364002313602360F3
:10427000BDEC048BD0BDF5EEC08AF1EE10FA4CBF58
:10428000B1EE687AB0EE687AF1EE047AB4EEE77ACD
:10429000F1EE10FA7CD8B5EEC08AF1EE10FA72D5C4
:1042A000F9EE047AB4EEE78AF1EE10FAE0DB8B4B1C
:1042B0001B8808EE103A8A4B1B8808EE903AB8EE3D
:1042C000C88AF8EEE88A38EE498A78EEC98AC8EEDC
:1042D000887AF5EEC07AF1EE10FA01D5F1EE677A40
:1042E00017EE900AFCF740F977A3D3E90023FCF717
:1042F00005FC50B1B5EEC08AF1EE10FA4CBF9FED4F
:10430000798A9FED798AF3EE098A68EEA87AF1EE50
:10431000688AE8EE087AB1EE488A17EE900AFCF750
:1043200023F941EC100B1EF07CFF51EC100BFCF755
:104330004BFC07EE900A88EE277A04F2145388EEBD
:10434000A79A9FED6A8A83ED007A67EE087A04F5F2
:10435000A36317EE900A83ED009AFCF705F9644B0E
:104360000022FBF7A3FFFCF707FCDFED627AC4F83D
:104370002405E9EE087AFDEEE77A17EE903AC4F8E4
:10438000283502236AE7B4EEE78AF1EE10FA8ED9F7
:10439000B5EEC08AF1EE10FA7FF76AAFC8EE287A60
:1043A000F5EEC07AF1EE10FA48BFF1EE677A17EE3B
:1043B000900AFCF7D9F844A3D3E90023FCF79EFB4D
:1043C00080BB30463946FCF7FFFB07EE900AF1EE62
:1043D000688A88EEA77A04F21453B1EE488AC8EED0
:1043E000278A9FED428A83ED007A67EE087A04F50A
:1043F000A36317EE900AC3ED008AFCF7B5F83C4BB7
:104400000022FBF753FFFCF7B7FBDFED3A7AC4F865
:104410002405E8EE887AFDEEE77A17EE903AC4F8C4
:10442000283525E7F5EEC08AF1EE10FA4CBFDFED36
:104430002D8ADFED2D8ADFED307AB3EE098AC6E7EB
:1044400004F20C5393ED008A18EE100AFCF78CF876
:104450002A4B002206460F46FBF728FF284B002276
:10446000FCF760FB50B9254B002230463946FBF77C
:104470001BFF00220023FCF74BFB38B104F214535E
:10448000D3ED007AF1EE677AC3ED007A04F21C53A3
:1044900093ED007A04F21453D3ED007AA7EE878AE5
:1044A00004F20C5383ED008A04F5A36304F5A264BF
:1044B000D3ED006AD4ED007AE7EE267AC4ED007AF7
:1044C000D6E600BFAFF30080ABAAAAAAAAAACA3F49
:1044D0001A000020180000200000FF4216000020F3
:1044E000140000200000F0C20000F042000016435B
:1044F00000005E40008093432C27F54200002A40D4
:1045000000006E40F7B500F5005400F512552C354B
:10451000B4F80635ADF8043001A9284609F00CFFBF
:1045200004F20C5304F5A2641868FCF71DF8124B52
:104530000022FBF7B9FE41EC100B1FF023F82068B6
:1045400057EC106BFCF710F80C4B0022FBF7ACFE9D
:1045500041EC100B1FF016F851EC100BFCF70CFBA4
:10456000394604B23046FCF707FB224601B2284622
:10457000FDF7D9FB03B0F0BD00002A4000002D403C
:1045800007B500F5005300F51350B3F80835ADF842
:10459000043001A9183009F0CFFE03B05DF804FB28
:1045A00000F5005393F80425013A012A09D8D3F8FD
:1045B0002825D3F824155201490100F5D07009F0DF
:1045C00018B970472DE9F04F99B001F500530793E2
:1045D00003F5A263824618688B46FBF7C5FF0022ED
:1045E000984BFBF761FE079BD3F8A834019303F5C2
:1045F00012630BEB8303804618688946FBF7B4FF10
:10460000904B0022FBF752FE02460B4640464946BD
:10461000FCF792FA40B18C4B93E803008AE8030060
:10462000504619B0BDE8F08F6FF02A0303FB0BF37F
:104630001593079B019C03F21453179304F0010395
:10464000002B029314BF092308230D9314BF0823E2
:1046500009230C9304EBC40303F5085307335B44AD
:1046600006930D9B082B0CBF0723082314934FF0D0
:10467000FF3300930123039304F512630BEB8303D1
:104680001693009B049301330093069B5B78002BE9
:1046900000F0BC81069B009D2C225343A3F5B82358
:1046A000159AA3F5D463985EFBF74CFF674B002285
:1046B000FBF7FCFDFCF788FA169B0A90D3ED007A15
:1046C000179BCDED087AD3ED007AF5EEC07AF1EEC6
:1046D00010FA00F20A81079B03F20C531868FBF7EB
:1046E00043FF02460B46CDE91023584B0022FBF74F
:1046F000DBFD06460A980F46FBF736FF02460B46DF
:10470000CDE90A23514B0022FBF7CEFDCDE90E0186
:1047100002460B4630463946FCF70EFA002800F0F8
:1047200099804A4B0022DDE90A01FBF7BFFD0246F2
:104730000B4630463946FCF7E1F9002800F08A8044
:104740000898FBF711FF06460F4602460B46404607
:104750004946FCF7F1F9B0B13C4B002230463946EE
:10476000FBF7A4FD02460B4640464946FCF7C6F956
:1047700048B1DDE90223002A08BF1D460C9B9D427B
:1047800080F244819CE0314B002230463946FBF7F1
:104790008BFDCDE9040102460B4640464946FCF735
:1047A000CBF9C0B132463B4640464946FCF7A6F934
:1047B000002800F02B810D9B039A934240F3268141
:1047C000069B9B78002B40F02181CAF800401346DD
:1047D000CAF8043024E7DDE9042340464946FCF7E3
:1047E0008DF9002800F01281194B0022304639461D
:1047F000FBF75AFD02460B4640464946FCF79CF93A
:10480000002800F00381DDE90213009D002CD4BFD5
:1048100004F1090204F1FF32002908BF1D460C9B78
:104820009D4280F2F38002EBC2035B442B4442F2D0
:1048300008215B5C002B40F0E980CAF80020CAF830
:104840000450EDE600002D40EC57020800002A401D
:10485000008043408C4B0022DDE91001FBF726FD70
:1048600006460F4602460B46DDE90E01FCF746F907
:10487000002800F0CB80844B0022DDE90A01FBF721
:1048800015FD02460B4630463946FCF737F900283D
:1048900000F0BC800898FBF767FE7C4B0022FBF71A
:1048A00005FD02460B4640464946FCF727F900281D
:1048B00000F0AC80029B1BB1049D6A1C00F0A68036
:1048C0000A22631C93FBF2F102FB113303EBC302D8
:1048D0005A442A4442F20821525C1AB1019AA24277
:1048E00040F09480CAF80030A9E740F38F80079B1E
:1048F00003F20C531868FBF737FE02460B46CDE96E
:104900001223614B0022FBF7D1FCCDE90E010A987E
:10491000FBF72AFE5C4B002206460F46FBF7C4FC61
:10492000594BCDE90A01002230463946FBF7BEFC5F
:10493000DDE90A23CDE91001DDE90E01FCF7FCF801
:10494000002878D0DDE91023DDE90E01FCF7D6F868
:10495000002870D00898FBF707FE06460F4602466F
:104960000B4640464946FCF7E7F868B1464B002243
:1049700030463946FBF79AFC02460B46404649460C
:10498000FCF7BCF8002895D13F4B00223046394651
:10499000FBF78AFCCDE9080102460B464046494632
:1049A000FCF7CAF880B132463B4640464946FCF720
:1049B000A5F848B1049B013328D0069B1B782BBB7C
:1049C000049BCAF8004003E7314B002230463946C9
:1049D000FBF76AFC02460B4640464946FCF7ACF83A
:1049E000A0B1DDE9082340464946FCF787F868B1E5
:1049F000029B002CD4BF04F1090204F1FF32002B0A
:104A00003FF411AF049D6B1C7FF40DAF039B009A24
:104A100001330393069B01330693149B93427FF467
:104A200030AE631E58BF1C46019B48BF0934A342E9
:104A30007FF404AEEFE5144B0022DDE91201FBF731
:104A400033FC06460F4602460B46DDE91001FCF733
:104A500073F80028DAD0DDE90A0132463B46FCF75C
:104A60004DF80028D2D00898FBF77EFD074B0022B6
:104A7000FBF71CFC02460B4640464946FCF73EF855
:104A80000028C3D0009D74E600002A4000002D409D
:104A90000080434000F50050074AB0F80835A0F800
:104AA0000635002380F8043500F20C5300F5A260AF
:104AB0001A60024B036070470000F042008093438D
:104AC00000F580530549D3F88C2243F2390001FBED
:104AD000020020F00040C3F88C0270476D4EC641C2
:104AE00010B50446FFF7ECFF04F50053D3F8383552
:104AF000B0FBF3F202FB130303F59453143304EBFE
:104B00004304A08810BD000073B500F5005505F200
:104B10000C561B4B336005F5A2631A4A1A6005F266
:104B20001C534FF080421A60002385F80435044678
:104B3000FFF7D6FF04F512542C34A5F80605ADF89E
:104B4000040001A9204609F0F7FB3068FBF70CFDD3
:104B50000D4B0022FBF7A8FB41EC100B1EF012FDE1
:104B600051EC100BFCF708F840F2191201B2204684
:104B7000FEF734FD012385F8D13402B070BD00BFCB
:104B80000000F0420080934300002A4038B50446FC
:104B9000FFF7A6FF04F500554FF48C72A5F8080541
:104BA00004F513500A211830FEF718FD012385F88B
:104BB000FD3438BD13B50446FFF792FF04F50053EA
:104BC000ADF80400A3F8080504F5135001A9183046
:104BD00009F0B2FB02B010BD2DE9F04F2DED048BB2
:104BE000444B9FED458A00F5005A85B01B1ADAF850
:104BF000A85401930746F0EE488AB3EE0D9AB4EE3E
:104C0000688AF1EE10FA71D1DAF8A8341D20584301
:104C1000FBF798FC394B0022FBF748FBFBF7D4FF6E
:104C200008EE100A05F001034FF4C67405EBC50643
:104C3000002B07EB850904FB057406F5085609F5FA
:104C400012590CBF0823092304F5945406F10706F2
:104C500089ED008A009304F110040CBF4FF0100896
:104C60004FF003083E444FF0000B3846FFF738FF83
:104C7000019BADF80C0023F81600236820461B6E3C
:104C800003A99847D9F80000FBF76EFC1B4B0022E4
:104C9000FBF70AFB41EC100B1EF074FC51EC100BFF
:104CA000FBF76AFF236802B29B6D0FFA88F120467A
:104CB0009847012306F8013F9B4484F82530009B68
:104CC00008F11A089B4504F12C041FFA88F8CCD18E
:104CD0006B1E58BF1D46DAF8A83448BF0935AB42F1
:104CE0008DD105B0BDEC048BBDE8F08F38EE498A5C
:104CF00098E700BF54DEFFFF0080934300002D4083
:104D000070B50446002680F8956204F5805500F5DC
:104D10001C700DF0D3F8012385F8843204F500539C
:104D20000422C3F8A824094B1E80094BC5F8803221
:104D30002046FFF751FF2046FFF7E6FE2046FFF72B
:104D400025FF03F0F3FAC5F8880270BDA83A0020E9
:104D50008FC2F53CD0E9B43293421FBF01335A22CF
:104D600093FBF2F102FB11331ABFC0F8D0320120DD
:104D700000207047D0F8D432D0F8D0025A22013344
:104D800093FBF2F102FB11331B1A58425841704752
:104D900037B56D4685E806000446FFF7EBFF90B98E
:104DA000D4F8D43295E8030004EBC30282E8030090
:104DB00001335A2293FBF2F102FB1133C4F8D432CF
:104DC000012003B030BD0020FBE700002DE9F04FCB
:104DD0002DED028BADF2646D06AF0D4687E806003F
:104DE00000F500511646B1F80635039305EBC503EF
:104DF0009A1802F58952103200EB420204460398D9
:104E00005080E218324442F2082C012002F80C00D3
:104E1000D1F8A8244FF00A0E101890FBFEF90EFBF3
:104E20001900A8424FEAC50824D115F0010F6344C8
:104E30004FF000000CBF4FF0080E4FF0090E234456
:104E40008446864218BF03F800C001308645F8DC6E
:104E500002F5126204EB8202D2ED007AB3EE0D7A13
:104E600077EE877A05F5126304EB8303C3ED007ACE
:104E7000C1F8A8545A22002117A81FF058FCA844D2
:104E800017AB9844012308F80630E2AE002597E8F6
:104E900006003046C6E9B455FFF77AFF0DF1B809B0
:104EA000CA46AB46D6E9B432934239D1BBF1020FC0
:104EB00030DD002242F208201546D9E9003103EB2B
:104EC000C30323440B44013293451D5409F10809DF
:104ED000F3D104F5005742F20721D7F8A8542E4623
:104EE00006EBC60316F0010F0B440CBF0820092087
:104EF0002344002213F801CFBCF1000F40F096804C
:104F000001328242F6DB731E48BF06F10903AB4251
:104F100040F08A800DF2646DBDEC028BBDE8F08F2D
:104F200056F83320019206EBC30330465B680493C6
:104F3000FFF710FF019BCAF80030049BCAF8043049
:104F4000019BDB070BF1010B5BD404F5145303F158
:104F50006C070BAD3C33186859682A4603C2083306
:104F6000BB421546F7D100230BAF02933D68019B6E
:104F70005D1955D50A357B68049A02EB030805F0E4
:104F800001030833984532D205F5126304EB83031D
:104F90001868FBF7E9FA3D4B0022FBF787F900227E
:104FA0000023FBF7C9FD10B305EBC502A31843446A
:104FB00042F208215B5CD3B117AB134413F808101D
:104FC000A9B9424402F58952103204EB4202039916
:104FD00052888A420BD1CDE9095809AA06CAE2A82B
:104FE0000593FFF7D5FE059B012203F80820029BDD
:104FF0000133062B029307F10807B7D10AF1080A1B
:1050000050E704F5155303F15C070BAD2C3318681A
:1050100059682A4603C20833BB421546F7D1A2E7B6
:10502000092DC8BF0A3DA6E71E4659E7AE423FF428
:1050300071AF6B1C0A2293FBF2F102FB113303F5F3
:10504000126304EB830393ED008AF3EE0D8A42F2C0
:10505000082805F5126305EBC50038EE688A04EBF5
:10506000830305F00102404483ED008AC2F1090286
:10507000012120441FF05BFB6B1E4CBF09351D4610
:10508000AE42E6D1C7F8A86444E700BF00002D4057
:1050900000F50052034692F80425013A012A94BF14
:1050A0000122002200F5D07083F8C52108F090B8E5
:1050B00073B5044603F041F904F58055D5F87C3208
:1050C000B0FBF3F603F032F9D5F88832C01AB042DB
:1050D00024D995F884324BB9012304F51C7084F867
:1050E000953202B0BDE870400CF0E8BE04F5005601
:1050F000D6F8A83403F5126304EB83031868FBF7B2
:1051000033FA254B0022FBF7D1F821A3D3E9002382
:10511000FBF712FD20B1002385F8843202B070BD88
:105120002046FFF751F82046FFF762F82046FFF7C8
:1051300037FA96F80435022B15D16E4621463046D3
:10514000FFF740FA009B01330DD0019B01330AD0D9
:1051500096E806002046FFF739FE2046FFF79AFC46
:105160002046FFF727FD2046FEF7D8FF2046FFF731
:10517000C9F92046FFF704FA2046FFF789FF201DF2
:105180000CF09CFE03F0D2F8C5F88802C6E700BF19
:105190000000000000E0704000002D402DE9F84FB5
:1051A0000446261D04F51C7804F51257FEF72DF968
:1051B0002C374146304605F0F4F904F500593946DC
:1051C000304605F0ADF90025384604F51357183779
:1051D00089F8D1540CF072FE3946304605F0A0F93A
:1051E00089F8FD5438460CF069FE04F5945A0AF12A
:1051F000100A40F6787B0AEB05090027494630463D
:10520000013705F08DF9092F09F12C09F6D105F5C3
:10521000C6755D45EFD1002304F5D07084F8C53123
:1052200007F0D6FF41463046BDE8F84F05F078B9A3
:10523000F02070474FF4A07070472920FDF7A6BA00
:105240002820FDF7A3BA08B5FDF774FACA20FDF7C8
:105250009DFAC320FDF77EFA0820FDF77BFA502067
:10526000FDF778FACF20FDF791FA0020FDF772FAEA
:10527000C120FDF76FFA3020FDF76CFAED20FDF745
:1052800085FA6420FDF766FA0320FDF763FA122021
:10529000FDF760FA8120FDF75DFAE820FDF776FA68
:1052A0008520FDF757FA0020FDF754FA7820FDF726
:1052B00051FACB20FDF76AFA3920FDF74BFA2C2082
:1052C000FDF748FA0020FDF745FA3420FDF742FAD1
:1052D0000220FDF73FFAF720FDF758FA2020FDF7EE
:1052E00039FAEA20FDF752FA0020FDF733FA0020E0
:1052F000FDF730FAB120FDF749FA0020FDF72AFA50
:105300001B20FDF727FAB620FDF740FA0A20FDF72B
:1053100021FAA220FDF71EFAC020FDF737FA10206F
:10532000FDF718FAC120FDF731FA1020FDF712FA47
:10533000C520FDF72BFA4520FDF70CFA1520FDF7E7
:1053400009FAC720FDF722FA9020FDF703FA36206C
:10535000FDF71CFAC820FDF7FDF9F220FDF716FA5B
:105360000020FDF7F7F9B020FDF710FAC220FDF795
:10537000F1F9B620FDF70AFA0A20FDF7EBF9A720AC
:10538000FDF7E8F92720FDF7E5F90420FDF7E2F93C
:105390002A20FDF7FBF90020FDF7DCF90020FDF7DE
:1053A000D9F90020FDF7D6F9EF20FDF7D3F92B202E
:1053B000FDF7ECF90020FDF7CDF90020FDF7CAF963
:1053C0000120FDF7C7F93F20FDF7C4F9F620FDF7EE
:1053D000DDF90120FDF7BEF90020FDF7BBF906203D
:1053E000FDF7B8F92C20FDF7D1F9C820FDF71CFA1C
:1053F0002620FDF7CBF90120FDF7ACF9E020FDF701
:10540000C5F90F20FDF7A6F92920FDF7A3F92420FF
:10541000FDF7A0F90C20FDF79DF90E20FDF79AF994
:105420000920FDF797F94E20FDF794F97820FDF754
:1054300091F93C20FDF78EF90920FDF78BF9132037
:10544000FDF788F90520FDF785F91720FDF782F9AA
:105450001120FDF77FF90020FDF77CF9E120FDF731
:1054600095F90020FDF776F91620FDF773F91B205A
:10547000FDF770F90420FDF76DF91120FDF76AF9C9
:105480000720FDF767F93120FDF764F93320FDF7B8
:1054900061F94220FDF75EF90520FDF75BF90C206C
:1054A000FDF758F90A20FDF755F92820FDF752F9C4
:1054B0002F20FDF74FF90F20FDF74CF91120FDF7D4
:1054C00065F9C820FDF7B0F92920FDF75FF9BDE8BF
:1054D00008402C20FDF75AB908B5FDF72BF9032138
:1054E000D320FDF76FF980B208BD10B5C4B2022217
:1054F00003212046FDF7D4F80A20FDF719F92046CC
:1055000000220321FDF7CCF8BDE810400220FDF792
:105510000FB938B50446E4B2FDF7C0F800212046C3
:10552000FDF7D6F8012105462046FDF7D1F840EAFF
:10553000052080B238BD10B5C4B240212046FDF729
:10554000C7F8030607D54C212046FDF7C1F80038FF
:1055500018BF012010BD01224B212046FDF7A0F805
:10556000204600224B21FDF79BF80020F2E773B59F
:105570000423C4B20E461546D7210DEB0302204684
:10558000FDF7C0F8019B1BBA1A0DC3F30B23328041
:1055900020462B8001224B21FDF782F800224B216F
:1055A0002046FDF77DF802B070BD000010B50A4A34
:1055B0001378984204460DD0517888420AD00BB136
:1055C00041B90123D454FDF769F82046BDE81040E5
:1055D000FFF78BBF10BD00BF5C3E002010B5C4B20A
:1055E00009212046FDF774F840F00102D2B22046AE
:1055F0000921BDE81040FDF753B810B5C4B2092128
:105600002046FDF765F8092100F0FE022046BDE8BE
:105610001040FDF745B838B5C4B20D4620460A2102
:10562000FDF756F840EA0502D2B220460A21BDE84D
:105630003840FDF735B810B50446FDF730F8204680
:105640001F21FFF7E8FF2046BDE81040FFF7C6BF67
:1056500038B5C4B20D4620460A21FDF739F820EAD4
:105660000502D2B220460A21BDE83840FDF718B83D
:1056700010B50446FFF7C1FF20461F21BDE81040CA
:10568000FFF7E6BF10B5C0B20C460B21FDF720F8BE
:10569000204010BD1F21FFF7F5BF0A46C0B20B2105
:1056A000FCF7FEBF1F21FFF7F8BF38B5C4B20D46A7
:1056B00020461721FDF70CF820EA0502D2B2204659
:1056C0001721BDE83840FCF7EBBF70B5C4B2064601
:1056D00004212046FCF7FCFF042100F0FB020546F4
:1056E0002046FCF7DDFF3046F021FFF7DEFF05F036
:1056F000F80220460421FCF7D3FF4922202120464E
:10570000FCF7CEFF0220FDF713F8204601222121ED
:10571000FCF7C6FF20469A224121FCF7C1FF204634
:1057200001224A21FCF7BCFF204601224B21FCF755
:10573000B7FF204600224B21FCF7B2FF2046012292
:105740005621FCF7ADFF204601225821FCF7A8FFA7
:10575000204601224021FCF7A3FF2046FF220B2117
:10576000FCF79EFFBDE870400220FCF7E1BF00009F
:10577000054BD3F8882042F47002C3F888204FF01C
:1057800000629A60704700BF00ED00E008B50B4B67
:105790001A6842F400721A601A6842F480621A6051
:1057A0001A6842F480721A60032000F045FA002063
:1057B000FDF70AFBFDF746F8002008BD003C02405B
:1057C000034A044B11681B780B441360704700BFF9
:1057D000603E002080000020014B1868704700BF29
:1057E000603E002038B50446FFF7F6FF631C1CBF7F
:1057F000054B1B78054618BFE418FFF7EDFF431B68
:10580000A342FAD338BD00BF8000002038B504465B
:10581000002800F09B80056C25B9FDF733F865641E
:1058200084F83C50236CDB0600F18E80236C23F45B
:10583000885323F0020343F002032364444B5A6865
:1058400022F440325A605A6861680A435A602368F9
:1058500021695A6822F480725A605A6842EA012229
:105860005A605A68A16822F040725A605A680A4326
:105870005A609A68E16822F400629A609A680A4362
:105880009A603449A26A8A4252D0996821F07061C4
:10589000996099680A439A609A68E16A22F04052D6
:1058A0009A609A680A439A609A6822F002029A60A3
:1058B0009A68217E42EA41029A6094F82020002AE8
:1058C0003ED05A68616A42F400625A605A6822F413
:1058D00060425A605A68013942EA41325A60DA6AD3
:1058E000E16922F47002DA62DA6A013942EA0152AD
:1058F000DA629A6822F400729A609A6894F830101A
:1059000042EA41229A609A68616922F480629A6050
:105910009A68002042EA81229A606064236C23F036
:10592000030343F001032364002384F83C3038BDB3
:105930009A6822F070629A609A6822F04052B2E748
:105940005A6822F40062C9E70120EDE70120EEE782
:10595000002301400100000F82B00023019390F862
:105960003C30012B69D0012380F83C3003689A68F1
:10597000D2070BD59A68D1071AD4036C43F01003F1
:105980000364436C43F0010343644CE09A682C4980
:1059900042F001029A602B4A1268B2FBF1F202EB6C
:1059A00042020192019A002AE4D0019A013AF8E7F2
:1059B000026C22F4E06222F0010242F4807202647E
:1059C0005A68520541BF026C22F4405242F48052A0
:1059D0000264026C12F480521CBF426C22F0060278
:1059E0004264002280F83C206FF022021A60164ABE
:1059F000516811F01F0F15491CD18B4207D001F5DA
:105A000080718B420CD1526812F01F0F0BD19A6833
:105A100012F0405F07D19A6842F080429A6002E03B
:105A20000B498B4202D0002002B07047526812F03E
:105A3000100FEBE78B42F6D1E9E70220F4E700BF55
:105A400040420F007C000020002301400020014064
:105A50000022014003689A68520570B504460D465D
:105A60000BD59B68DE0508D5036C43F02003036467
:105A7000002380F83C30012070BDFFF7ADFE0646E4
:105A800023681A6891070CD56FF012021A60226C15
:105A900042F4007222649A6812F0405F17D000202E
:105AA000EAE7681CEDD065B923681B6813F00203B0
:105AB000E6D1226C84F83C3042F0040222640320D8
:105AC000DAE7FFF789FE801BA842EDD8D8E7227EEF
:105AD000002AE4D1DA6A12F4700F02D09B685A05EA
