:020000040800F2
:1000000000000320D50F0008792B00087B2B000887
:100010007D2B00087F2B0008812B000800000000CA
:10002000000000000000000000000000C174000893
:10003000832B00080000000051750008D16D0008F6
:1000400025100008251000082510000825100008BC
:1000500025100008251000082510000825100008AC
:10006000251000082510000825100008251000089C
:10007000251000082510000825100008251000088C
:10008000251000082510000825100008251000087C
:10009000251000082510000825100008251000086C
:1000A000251000082510000825100008251000085C
:1000B000251000082510000825100008251000084C
:1000C000251000082510000825100008251000083C
:1000D000251000082510000825100008251000082C
:1000E000251000082510000825100008251000081C
:1000F000251000082510000825100008251000080C
:1001000025100008251000082510000825100008FB
:100110002510000825100008852B00082510000870
:1001200025100008251000082510000825100008DB
:1001300025100008251000082510000825100008CB
:1001400025100008251000082510000825100008BB
:1001500025100008251000082510000825100008AB
:10016000251000082510000825100008251000089B
:1001700025100008251000082510000800000000C8
:10018000251000082510000825100008251000087B
:10019000251000082510000825100008251000086B
:0C01A000912B0008251000089D2B000882
:1001B00010B5054C237833B9044B13B10448AFF3A1
:1001C00000800123237010BD800300200000000088
:1001D000342E020808B5034B1BB103490348AFF3A3
:1001E000008008BD0000000084030020342E0208B7
:1001F00001F0FF01102A2BDB10F0070F08D010F8D8
:10020000013B013A8B422DD010F0070F42B3F6D1DB
:10021000F0B441EA012141EA014122F007047FF0F4
:1002200000070023F0E80256083C85EA010586EA4B
:10023000010685FA47F5A3FA87F586FA47F6A5FA87
:1002400087F68EB9EED1F0BC01F0FF0102F0070293
:1002500032B110F8013B013A83EA010313B1F8D13E
:100260000020704701387047002D06BF354603381F
:10027000073815F0010F07D1013015F4807F02BF58
:10028000013015F4C03F0130F0BC0138704700BFA9
:1002900081F0004102E000BF83F0004330B54FEA37
:1002A00041044FEA430594EA050F08BF90EA020FA4
:1002B0001FBF54EA000C55EA020C7FEA645C7FEA37
:1002C000655C00F0E2804FEA5454D4EB5555B8BF5A
:1002D0006D420CDD2C4480EA020281EA030382EACB
:1002E000000083EA010180EA020281EA0303362D5D
:1002F00088BF30BD11F0004F4FEA01314FF4801C30
:100300004CEA113102D0404261EB410113F0004F41
:100310004FEA03334CEA133302D0524263EB4303F8
:1003200094EA050F00F0A780A4F10104D5F1200E96
:100330000DDB02FA0EFC22FA05F2801841F10001F1
:1003400003FA0EF2801843FA05F359410EE0A5F1C5
:1003500020050EF1200E012A03FA0EFC28BF4CF0F6
:10036000020C43FA05F3C01851EBE37101F00045AC
:1003700007D54FF0000EDCF1000C7EEB00006EEBB9
:100380000101B1F5801F1BD3B1F5001F0CD3490843
:100390005FEA30004FEA3C0C04F101044FEA44529A
:1003A00012F5800F80F09A80BCF1004F08BF5FEA21
:1003B000500C50F1000041EB045141EA050130BD01
:1003C0005FEA4C0C404141EB0101013C28BFB1F513
:1003D000801FE9D291F0000F04BF01460020B1FA5E
:1003E00081F308BF2033A3F10B03B3F120020CDA31
:1003F0000C3208DD02F1140CC2F10C0201FA0CF00F
:1004000021FA02F10CE002F11402D8BFC2F1200C73
:1004100001FA02F120FA0CFCDCBF41EA0C01904029
:10042000E41AA2BF01EB0451294330BD6FEA040472
:100430001F3C1CDA0C340EDC04F11404C4F120025D
:1004400020FA04F001FA02F340EA030021FA04F36F
:1004500045EA030130BDC4F10C04C4F1200220FAC6
:1004600002F001FA04F340EA0300294630BD21FA04
:1004700004F0294630BD94F0000F83F4801306BFCA
:1004800081F480110134013D4EE77FEA645C18BFBE
:100490007FEA655C29D094EA050F08BF90EA020F55
:1004A00005D054EA000C04BF1946104630BD91EA4D
:1004B000030F1EBF0021002030BD5FEA545C05D150
:1004C0004000494128BF41F0004130BD14F580048F
:1004D0003CBF01F5801130BD01F0004545F0FE4103
:1004E00041F470014FF0000030BD7FEA645C1ABF38
:1004F000194610467FEA655C1CBF0B46024650EA6F
:10050000013406BF52EA033591EA030F41F400219A
:1005100030BD00BF90F0000F04BF0021704730B520
:100520004FF4806404F132044FF000054FF00001F5
:1005300050E700BF90F0000F04BF0021704730B5B6
:100540004FF4806404F1320410F0004548BF40428B
:100550004FF000013EE700BF42004FEAE2014FEAE0
:1005600031014FEA02701FBF12F07F4393F07F4FBB
:1005700081F06051704732F07F4208BF704793F0BE
:100580007F4F04BF41F40021704730B54FF46074D1
:1005900001F0004521F000411CE700BF50EA0102D4
:1005A00008BF704730B54FF000050AE050EA01027D
:1005B00008BF704730B511F0004502D5404261EBED
:1005C00041014FF4806404F132045FEA915C3FF42E
:1005D000D8AE4FF003025FEADC0C18BF03325FEACB
:1005E000DC0C18BF033202EBDC02C2F1200300FA7C
:1005F00003FC20FA02F001FA03FE40EA0E0021FAA1
:1006000002F11444BDE600BF70B54FF0FF0C4CF48E
:10061000E06C1CEA11541DBF1CEA135594EA0C0F40
:1006200095EA0C0F00F0DEF82C4481EA030621EA7B
:100630004C5123EA4C5350EA013518BF52EA0335B6
:1006400041F4801143F4801338D0A0FB02CE4FF068
:100650000005E1FB02E506F00042E0FB03E54FF098
:100660000006E1FB03569CF0000F18BF4EF0010E90
:10067000A4F1FF04B6F5007F64F5407404D25FEA8C
:100680004E0E6D4146EB060642EAC62141EA55513F
:100690004FEAC52040EA5E504FEACE2EB4F1FD0C81
:1006A00088BFBCF5E06F1ED8BEF1004F08BF5FEAFF
:1006B000500E50F1000041EB045170BD06F00046B1
:1006C00046EA010140EA020081EA0301B4EB5C045E
:1006D000C2BFD4EB0C0541EA045170BD41F4801156
:1006E0004FF0000E013C00F3AB8014F1360FDEBF7B
:1006F000002001F0004170BDC4F10004203C35DA57
:100700000C341BDC04F11404C4F1200500FA05F3D9
:1007100020FA04F001FA05F240EA020001F000427A
:1007200021F0004110EBD37021FA04F642EB0601F0
:100730005EEA430E08BF20EAD37070BDC4F10C041A
:10074000C4F1200500FA04F320FA05F001FA04F2DE
:1007500040EA020001F0004110EBD37041F10001CA
:100760005EEA430E08BF20EAD37070BDC4F12005D5
:1007700000FA05F24EEA020E20FA04F301FA05F23D
:1007800043EA020321FA04F001F0004121FA04F2E5
:1007900020EA020000EBD3705EEA430E08BF20EAB5
:1007A000D37070BD94F0000F0FD101F000464000EF
:1007B00041EB010111F4801F08BF013CF7D041EA71
:1007C000060195F0000F18BF704703F00046520075
:1007D00043EB030313F4801F08BF013DF7D043EA46
:1007E0000603704794EA0C0F0CEA135518BF95EAFC
:1007F0000C0F0CD050EA410618BF52EA4306D1D183
:1008000081EA030101F000414FF0000070BD50EAA1
:10081000410606BF1046194652EA430619D094EA2B
:100820000C0F02D150EA013613D195EA0C0F05D115
:1008300052EA03361CBF104619460AD181EA030169
:1008400001F0004141F0FE4141F470014FF0000021
:1008500070BD41F0FE4141F4780170BD70B54FF0BC
:10086000FF0C4CF4E06C1CEA11541DBF1CEA13553C
:1008700094EA0C0F95EA0C0F00F0A7F8A4EB05041E
:1008800081EA030E52EA03354FEA013100F0888015
:100890004FEA03334FF0805545EA131343EA1263DE
:1008A0004FEA022245EA111545EA10654FEA002693
:1008B0000EF000419D4208BF964244F1FD0404F54C
:1008C000407402D25B084FEA3202B61A65EB0305A8
:1008D0005B084FEA32024FF480104FF4002CB6EB65
:1008E000020E75EB030E22BFB61A754640EA0C00E5
:1008F0005B084FEA3202B6EB020E75EB030E22BF25
:10090000B61A754640EA5C005B084FEA3202B6EB65
:10091000020E75EB030E22BFB61A754640EA9C0024
:100920005B084FEA3202B6EB020E75EB030E22BFF4
:10093000B61A754640EADC0055EA060E18D04FEAB2
:10094000051545EA16754FEA06164FEAC30343EA52
:1009500052734FEAC2025FEA1C1CC0D111F4801F1F
:100960000BD141EA00014FF000004FF0004CB6E718
:1009700011F4801F04BF01430020B4F1FD0C88BFB7
:10098000BCF5E06F3FF6AFAEB5EB030C04BFB6EBC2
:10099000020C5FEA500C50F1000041EB045170BDB5
:1009A0000EF0004E4EEA113114EB5C04C2BFD4EBE2
:1009B0000C0541EA045170BD41F480114FF0000E66
:1009C000013C90E645EA060E8DE60CEA135594EAE2
:1009D0000C0F08BF95EA0C0F3FF43BAF94EA0C0FE5
:1009E0000AD150EA01347FF434AF95EA0C0F7FF45A
:1009F00025AF104619462CE795EA0C0F06D152EAAE
:100A000003353FF4FDAE1046194622E750EA410691
:100A100018BF52EA43067FF4C5AE50EA41047FF4A2
:100A20000DAF52EA43057FF4EBAE12E74FF0FF3C07
:100A300006E000BF4FF0010C02E000BF4FF0010CD8
:100A40004DF804CD4FEA410C7FEA6C5C4FEA430C51
:100A500018BF7FEA6C5C1BD001B050EA410C0CBFA0
:100A600052EA430C91EA030F02BF90EA020F002002
:100A7000704710F1000F91EA030F58BF994208BF69
:100A800090422CBFD8176FEAE37040F00100704726
:100A90004FEA410C7FEA6C5C02D150EA013C07D17D
:100AA0004FEA430C7FEA6C5CD6D152EA033CD3D0C8
:100AB0005DF8040B704700BF8446104662468C46C2
:100AC0001946634600E000BF01B5FFF7B7FF0028F5
:100AD00048BF10F1000F01BD4DF808EDFFF7F4FF1E
:100AE0000CBF012000205DF808FB00BF4DF808EDA9
:100AF000FFF7EAFF34BF012000205DF808FB00BFCC
:100B00004DF808EDFFF7E0FF94BF012000205DF8ED
:100B100008FB00BF4DF808EDFFF7CEFF94BF0120A2
:100B200000205DF808FB00BF4DF808EDFFF7C4FF9B
:100B300034BF012000205DF808FB00BF4FEA410CE4
:100B40007FEA6C5C02D150EA013C0AD14FEA430CC7
:100B50007FEA6C5C02D152EA033C02D14FF0000004
:100B600070474FF0010070474FEA4102B2F1E04395
:100B700024BFB3F5001CDCF1FE5C0DD901F0004C84
:100B80004FEAC0024CEA5070B2F1004F40EB8300D4
:100B900008BF20F00100704711F0804F21D113F100
:100BA0003872BCBF01F00040704741F480114FEA39
:100BB0005252C2F11802C2F1200C10FA0CF320FAC2
:100BC00002F018BF40F001004FEAC1234FEAD323DF
:100BD00003FA0CFC40EA0C0023FA02F34FEA430349
:100BE000CCE77FEA625307D150EA01331EBF4FF0D2
:100BF000FE4040F44000704701F0004040F0FE40ED
:100C000040F40000704700BF7BB972B90029BEBF35
:100C100000204FF0004106E008BF00281CBF6FF025
:100C200000414FF0FF3000F0D3B9ADF1080C6DE991
:100C300004CE002909DB002B1ADB00F04DF8DDF8AB
:100C400004E0DDE9022304B07047404261EB41015A
:100C5000002B1BDB00F040F8DDF804E0DDE90223A7
:100C600004B0404261EB4101524263EB43037047E1
:100C7000524263EB430300F02FF8DDF804E0DDE9B6
:100C8000022304B0404261EB41017047524263EBE2
:100C9000430300F021F8DDF804E0DDE9022304B0AD
:100CA000524263EB4303704753B94AB9002908BF66
:100CB00000281CBF4FF0FF314FF0FF3000F088B923
:100CC000ADF1080C6DE904CE00F006F8DDF804E0A3
:100CD000DDE9022304B070472DE9F047089D8E46F8
:100CE00004468846002B4AD18A42174662D9B2FA96
:100CF00082F64EB1C6F1200301FA06F820FA03F39A
:100D0000B74043EA0808B4404FEA174E1FFA87FC81
:100D1000B8FBFEF1230C0EFB118843EA084301FBEC
:100D20000CF29A4209D9FB1801F1FF3080F0EA80F9
:100D30009A4240F2E78002393B449A1AA3B2B2FBCE
:100D4000FEF00EFB102243EA024300FB0CFC9C4524
:100D500009D9FB1800F1FF3280F0D6809C4540F2A3
:100D6000D3803B44023840EA0140A3EB0C0300214E
:100D70001DB1F3400022C5E90032BDE8F0878B4287
:100D800005D90DB1C5E9000100210846F5E7B3FA20
:100D900083F1002946D1734502D3824200F20581D6
:100DA000841A6EEB030201209046002DE5D0C5E9C0
:100DB0000048E2E7002A00F09080B2FA82F6002EA6
:100DC00040F0A4808A1A030C4FEA174E80B2BCB2DE
:100DD0000121B2FBFEFC0EFB1C2243EA024304FB92
:100DE0000CF29A4207D9FB180CF1FF3802D29A4252
:100DF00000F2E080C4469B1AB3FBFEF20EFB1233F6
:100E000040EA034302FB04F49C4207D9FB1802F1B9
:100E1000FF3002D29C4200F2CA8002461B1B42EA0B
:100E20000C40A5E7C1F120068B4022FA06F71F43CC
:100E30000EFA01F420FA06F32EFA06FE4FEA1749DD
:100E4000234300FA01F81FFA87FCBEFBF9F01C0CE3
:100E500009FB10EE44EA0E4400FB0CFEA64502FA24
:100E600001F209D93C1900F1FF3A80F09C80A645B7
:100E700040F2998002383C44A4EB0E041FFA83FE32
:100E8000B4FBF9F309FB13444EEA044403FB0CFCE6
:100E9000A44508D93C1903F1FF3E80F08280A445A7
:100EA0007FD9023B3C4443EA0040A4EB0C04A0FB86
:100EB00002EC64457346E14662D35FD05DB1B8EBA6
:100EC000030264EB090404FA06F622FA01F31E4356
:100ED000CC40C5E9006400214FE7B1FBF2FC010CF6
:100EE00041EA0E4180B240EA01423B4638463C4668
:100EF000B846BE462026B1FBF7F1A2EB080241EA54
:100F00000C4166E7014618E710462CE7C6F12002BF
:100F10002EFA02F3B740B14020FA02F24FEA174E20
:100F20000A43B3FBFEF8BCB20EFB1833110C41EAC6
:100F3000034108FB04F9B04089454FEA104380B2F1
:100F40003ED9791808F1FF3C01D289451FD8A1EBA1
:100F50000901B1FBFEF909FB04F80EFB191192B26D
:100F600042EA0142424529D2BA1809F1FF31C4D2FE
:100F70004245C2D2A9F102013A44BEE7F0459DD2F2
:100F8000BEEB02036CEB070C0138E14696E7A7EBDA
:100F900009094944A8F1020CB1FBFEF909FB04F868
:100FA000DBE773467FE7504666E70846FDE63B44CD
:100FB000023A33E7ACF1020C3B441CE749469CE79C
:100FC000A1EB0901C446B1FBFEF909FB04F8C4E733
:100FD000704700BFDFF834D0002103E00C4B5B58B2
:100FE000435004310B480C4B42189A42F6D30B4A3B
:100FF00002E0002342F8043B094B9A42F9D303F084
:1010000069FC21F0A9F901F067F87047000003209E
:101010009C6E130800000020640100208003002063
:10102000B4450120FEE7704708B500F0BFFDBDE8FC
:10103000084000F041BD00F0BBBD704710B5042171
:1010400004461FF076FE204610BD000038B50C4B5C
:101050000C4C18800C4B822019806368984740F62E
:10106000110398420AD1094D23682C6082209847C9
:101070002B688220DB689847002038BD0120FCE700
:10108000A60300204C000020A4030020A803002099
:101090004FF4A071F020FFF7D9BF0000F7B5394D2C
:1010A0002B6804461B6982209847208000284ED078
:1010B0002B680DF106025B6901A982209847324B2B
:1010C0001B78002B4BD0BDF8062040F674639A4283
:1010D0003FD9ADF80630BDF806209B1A9BB20A2B0B
:1010E00042D90B22B3FBF2F3284A1288934201D96A
:1010F000013A93B2BDF80420254840F6B8318A423F
:1011000034D8C2F571620E32016892B20F25B2FB7B
:10111000F5F2204D2D88AA4284BF05F1FF35AAB211
:101120008A4215468EB22AD9921B91B21A4E37685E
:10113000BB42BAB28CBF9A1AD21A92B21144052994
:10114000C4BF05603360036863803368A38003B065
:10115000F0BDB32A9CBFB422ADF80620BBE7BDF8B2
:101160000630A3F5B473B9E70023C3E7C2F56D6297
:10117000083292B20E2A0168C8D800252A46891A78
:1011800089B2D3E7A803002034280020A40300205C
:10119000A0030020A60300209C03002037B568466A
:1011A0000D461446FFF77AFFBDF8000030B1BDF8D8
:1011B00002302B60BDF804302360012003B030BD45
:1011C000032821D8DFE800F0020B12190F4B1A6830
:1011D000B2FA82F2520904210D4803F00FBE0B4B04
:1011E0005A68B2FA82F252090821F5E7074B9A6869
:1011F000B2FA82F252091021EEE7044BDA68B2FA31
:1012000082F252092021E7E7704700BFAC030020BB
:1012100000100240032821D8DFE800F0020B121969
:101220000F4B1A68003A18BF012204210D4803F041
:10123000E5BD0B4B5A68003A18BF01220821F5E7BB
:10124000074B9A68003A18BF01221021EEE7044BC1
:10125000DA68003A18BF01222021E7E7704700BF93
:10126000AC0300200010024003280DD8DFE800F096
:101270000206080A0421054803F0C5BD0821FAE763
:101280001021F8E72021F6E7704700BF0010024068
:1012900008B5032811D8DFE800F0020A0C0E04217B
:1012A000074803F0A5FD431E5842584108BD0821D8
:1012B000F6E71021F4E72021F2E70020F3E700BF72
:1012C0000010024070B5084D00240126E0B2FFF77F
:1012D000DFFF18B12B68012B18BF2E600134052CDD
:1012E00005F10405F2D170BDAC030020012380F8A4
:1012F000781080F879307047704700207047000000
:10130000034B4164003918BF01211970704700BFB9
:1013100073380120704700207047836B0BB108467B
:10132000184770474FF6FF707047406803689B6925
:1013300018477047704770477047704710B50446AC
:1013400000F04CFD23680349D3F890302046BDE8F7
:1013500010401847000000D008B503680446D3F8D1
:101360008430984723682046DB6F984700F0ECF8FC
:10137000236820465B6F9847292001F01DF900F093
:10138000E3F8236820465B6F9847F8E710B50446FA
:1013900008F094FE23682046D3F8BC30BDE8104026
:1013A000184700F0FFBC00F003BD00F035BD00F0B1
:1013B000D5BC00F045BD00F04DBD00F0D9BC08F033
:1013C000ABB810B5842104461FF0B3FC204610BD15
:1013D00010B590F8341090F878400C4B8C421A7885
:1013E00009D03AB90A4A0B491488088810800C8041
:1013F00001221A7010BD002AFCD0054A0549148844
:10140000088810800C800022F3E700BF6C380120B0
:10141000683801206A38012070B50D46194635B983
:10142000094B0A4A0A4840F2FF2120F0E5FCC0E9D6
:101430000F52084B003A18BF01221A700368BDE82A
:101440007040D3F890301847082F0208402F020848
:101450008E2F02087238012008B5094B1B888B4279
:1014600003D8084B1B88934205D9074B074A084805
:10147000A32120F0C1FC074B1980074B1A8008BD3F
:10148000683801206A380120D32F0208363002085C
:101490008E2F02086E38012070380120034690F824
:1014A0007A0018B1586803681B6818477047000035
:1014B000012108B50022084605F01EFD0A4B186000
:1014C00028B90A4B0A4A28210A4820F095FC002234
:1014D0000421012005F0AFFD074B186018B9074B38
:1014E000034A2C21F0E708BDC00300207930020830
:1014F000C2300208F1300208BC0300203731020874
:10150000024B4FF0FF31186805F040BDC0030020CA
:10151000014B186805F066BDC0030020024B002196
:10152000186805F033BD00BFC0030020FFF7F0BF0F
:1015300003480449006800231A4605F0B7BD00BF00
:10154000BC0300200400002013B5084C00231A46F9
:1015500001A9206805F0DBFD20684FF0FF33002271
:1015600001A905F0D4FD02B010BD00BFBC030020EE
:1015700003685B6C18470120704703689B6A184733
:10158000FEE740F2EF307047054B0360054B4FF02C
:101590008062C3F88820BFF34F8FBFF36F8F70470F
:1015A000183B020800E100E010B504464FF45A6110
:1015B000FFF7EAFF20461FF0BCFB204610BD0000ED
:1015C00082B0002301930E4B1A6B42F400021A639F
:1015D0001A6B02F400020192019A1A6942F40002A5
:1015E0001A611A6922F400021A61064B064A1A614E
:1015F000064A5A61064B4FF080629A6002B070470B
:1016000000380240C8290020611800088115000830
:1016100000E100E008B50A2809D8DFE800F006106C
:101620000E080808081010101000022008BD054B15
:10163000054A0648902120F0DFFB0020F6E7012054
:10164000F4E700BF7931020894310208DF31020863
:1016500038B50C46887FFFF7DDFFA58AE28A164B76
:101660002169586342EA05425A64628BD963521B6E
:101670001A642568082D0ED19A611A615862207F7C
:101680000E4A42EA0062DA61E2681A620C4A596163
:10169000D9601A6038BD0022D8611A61E1680A0A6F
:1016A000480902F4784200F4FC600243C1F3C4012B
:1016B0000A439A63034AECE700B0024009000100C4
:1016C000012302000123030008B50B280BD8DFE833
:1016D00000F00612100A0A0A0A0808080808022080
:1016E00008BD0520FCE7054B054A06486F2120F0A0
:1016F00083FB0020F4E70120F2E700BF7931020804
:1017000023320208DF3102082DE9F04191F81D80F3
:101710000C464046FFF7D8FFA77F05463846FFF73F
:10172000D3FF06463846FFF775FFA18A628B444B0C
:10173000521A1A649A61228B521A1A61E28A586309
:1017400042EA01425A6421696268D963DA6020681A
:10175000802828D0227F0FD8202867D0402865D045
:1017600004281AD0364B45EA026545F40035B845E1
:10177000DD6161D0334A44E0B0F5807F04D0B0F53C
:10178000007FEFD1304800E0304840EA0262DA6181
:10179000E2681A625E62596132E045EA026242F42E
:1017A0000032DA61F6E7A068021DDA62227F45EABC
:1017B000026545F40035DD615E625961017841B131
:1017C000012921D0224B234A23484FF48D7120F068
:1017D00013FBDA69418822F47F42013922F01002BA
:1017E00042EA0122DA610121154BDA6942F0200256
:1017F000DA61DA699206FCD410229A600029B9D025
:10180000164A1A60BDE8F081B2F1FF01DA6940883A
:1018100022F47F4200F1FF3022F0100242EA00225F
:1018200042F0100218BF0121DA61DDE745EA0262E9
:10183000034B42F40032B4E742F20132E1E700BF69
:1018400000B0024001230100090002000A0002006A
:101850006D32020887320208DF31020801230200DC
:10186000024B1B68586803685B691847743801208D
:1018700070B5044625460A4B0C300026606026727F
:10188000667245F8203B6022294608F06DFD04F59C
:101890005A63EE6024359D42FBD1204670BD00BFE7
:1018A000183B0208034B1A68D207FCD423229A6023
:1018B000704700BF00B002407047000030B50F4CC9
:1018C0002568ED07FCD423250904A56041F001013A
:1018D0000225FF2B65636164E0630AD008496562F5
:1018E00041EA0363E361074B22626061E0602360C9
:1018F00030BDE561039BA363034BF8E700B00240F2
:1019000009000100010002000100030030B50E4C87
:101910002568ED07FCD423251204A56042F00102DE
:101920000225FF2B65636264E063E16008D01B065B
:1019300043F00213E361054B65626061236030BDD3
:10194000034BE3610123F9E700B00240010002000C
:10195000020002FF30B50B4C2568ED07FCD42325AF
:1019600012041B06A56043F40033022542F0010275
:1019700065636264E063E160E361034B656260613B
:10198000236030BD00B0024001000200012070471A
:101990000C2070470C2303FB0100083070470C2318
:1019A00003FB010008307047012070474FF4995045
:1019B00070474FF4995303FB0100083070474FF410
:1019C000995303FB01000830704701207047102035
:1019D000704700EB01100830704700EB0110083031
:1019E0007047084601F0D8BA10B5034B03600446AF
:1019F00007F0E9FA204610BDD03B020810B50446B6
:101A0000FFF7F2FF204614211FF093F9204610BD86
:101A100010B5034B0360044607F0D5FA204610BD0D
:101A20009C3B020810B50446FFF7F2FF204641F246
:101A300028311FF07EF9204610BD000010B5034B81
:101A40000360044607F0BFFA204610BD683B020859
:101A500010B50446FFF7F2FF204618211FF069F980
:101A6000204610BD10B5094B0360044600F59A509E
:101A70001430FFF7B9FF04F12C00FFF7C9FF04F1A0
:101A80001400FFF7DBFF204610BD00BF043C020836
:101A900008B50248FFF7E6FF08BD00BF9C12002012
:101AA00010B50446FFF7DEFF204641F2C8411FF0A3
:101AB00040F9204610BD00002DE9F34101F0E2F8A5
:101AC000054601F0E3F80024014623462846224655
:101AD000009410F09BF8284B284A1A60204601F029
:101AE000E5FE274D274B284A28489A600FF0F6FF5D
:101AF0002B68BFF35B8FDB0737D428461FF01BF939
:101B000098B3234C234B236004F1140000F59A573B
:101B100007F1180604F12C086060C4F80880E7603B
:101B2000266107F051FA1C4B6361404607F04CFAFE
:101B30001A4BE362384607F047FA04F5805303F581
:101B40005A70174AC3F8542301F034FF224607F1B4
:101B50001401304601F024FF304601F01DFA11480F
:101B600020F068F928461FF0F2F80F4802B0BDE8EF
:101B7000F041FFF7E3BB00BFD83801204804002044
:101B800098120020680400204C0400200800002067
:101B90009C120020043C0208683B02089C3B02089F
:101BA000D03B0208911A0008C403002070470000CF
:101BB0000148FFF7D1BB00BFC403002070B5264E1B
:101BC000264C274D274B23603046FFF751FE284611
:101BD00015F022F924480EF0BFF8244B2448DC60AD
:101BE00000224FF48071C3E9121222491A86C3E918
:101BF0001A12214983F85820C3E91E011F49C3F86E
:101C000080101F491F480B60F021C3E90422C3E97B
:101C10000622C3E90822C3E90A22C3E90E22C3E966
:101C20001022C3E91422C3E917225A6683F87020F0
:101C30005A67C3E9016501801348018013484FF4D6
:101C4000A07101801248018012490A70012283F8B4
:101C50003420114A1A6070BDF40400209412002050
:101C600068040020F82E02084C040020C403002061
:101C70000000010101000001000450001A001400DE
:101C800074380120683801206E3801206A3801203C
:101C9000703801206C3801202C3A02080148FFF707
:101CA00073BC00BFF404002000207047818070479F
:101CB000C18070470181704741817047704770470C
:101CC00070477047704710B4C4880368121B84883B
:101CD0005B6D091B12B25DF8044B09B218474FF651
:101CE000FF7383814FF0FF3303621368C361106099
:101CF0007047002070478B888380012070477047B1
:101D000080F82610704790F82600704710B5002222
:101D1000B1F90840B1F90A10028042808480C18084
:101D200010BD0022028042808280C280704701770D
:101D3000704780ED080A704780F82410704780F8DB
:101D40002510704701207047983070478C307047DD
:101D5000843070477047704770470000034B9022F3
:101D600083F85A2383F85823704700BF00E100E04E
:101D7000094A0A49D3680A48C3F30A03013B9BB2E4
:101D80000B801169C1F30A01013901801364536B9F
:101D900043F0010353637047006801406627002049
:101DA00064270020014BD3F8AC0070470068014065
:101DB000024B0122C3F8AC105A6270470068014020
:101DC00010B52C2104461EF0B4FF204610BD10B5FE
:101DD000BC2104461EF0ADFF204610BD70B5044680
:101DE00007F0EFFB23689D6E0CF04EFD0146204688
:101DF000A8472368054AD3F88C502046AC460023F8
:101E0000BDE87040A2F51631604700BF00B004D0B5
:101E100007F0BEBB07F0C8BB07F084BB07F0F3BCFC
:101E200090F8252012B103685B691847704790F855
:101E300025201AB190F8242002B1186070470000E4
:101E4000034B4FF080629A604FF080729A60704747
:101E500000E100E0084B4FF08062C3F88820BFF338
:101E60004F8FBFF36F8F4FF08072C3F88820BFF39E
:101E70004F8FBFF36F8F704700E100E070B5002314
:101E8000124E8380124B0360336893F85820054646
:101E90000AB1D86C00B998680368DB6A9847336860
:101EA000B0FA80F4D86C640930B10368DB6A9847F3
:101EB000002808BF44F001042CB9064B064A074825
:101EC0002C211FF099FF284670BD00BF74380120F7
:101ED000183C0208C5320208233302085C330208AA
:101EE00070B5254E3568BFF35B8F15F0010540D105
:101EF00030461EF020FF00283BD0204C204B2561AF
:101F000004F13400C4E90035C4E90255E584A56252
:101F1000A5850EF006FA04F1580009F0D9FE194B18
:101F2000A3652046184B40F8843BFFF7A7FF174BEB
:101F3000C4F884302433C4F88C304FF4C803C4E9A7
:101F400028350023C4F8AC30C4F8B030C4F8B4303D
:101F5000C4F8B8300E480F4BC4F89050C4F89C50E9
:101F6000C4F8A850C4F898301FF064FF30461EF043
:101F7000EEFE024870BD00BF682700206C270020DD
:101F80006C430208383C0208B03C020820430208B7
:101F9000591D00080043020838B5184C23685BB38C
:101FA000174B184A1B6C11888B4216D1164B198897
:101FB00003F02CFD236893F86A200025013283F892
:101FC0006A2083F87C50FFF7B3FA206808F076F8AF
:101FD0002846BDE83840FFF7F3B803F017FD246842
:101FE000236820461B6A9847012384F87C30002030
:101FF000BDE83840FFF70EB938BD00BF7438012086
:1020000000680140662700206427002007B5064BC2
:10201000ADF806001B68054801220DF1060104F029
:1020200095FA03B05DF804FB0C0000207428002032
:1020300008B5642004F054FFFBE7000030B595B00C
:10204000102200210AA820F0DEF81422002103A8A3
:1020500020F0D9F800241E4B01941A6C42F08052F3
:102060001A641B6C03F080530193019B194B02947B
:102070001A6842F440421A601B6803F4404302931A
:102080000122029B4FF48033CDE9082302254FF44F
:1020900080030821CDE90E534FF4B473CDE910133A
:1020A00008A804231393129503F008FD03F0CCFC59
:1020B0000F23CDE903354FF4A0504FF48053CDE901
:1020C0000603052103A8059403F0D4FE15B030BD26
:1020D000003802400070004080B59AB002F008FC61
:1020E000FFF7ACFF142200210DA820F08CF800248B
:1020F000C74B00941A6BC748C74DDFF8588342F0AE
:1021000010021A631A6B02F010020092009A0194F6
:102110001A6B42F020021A631A6B02F0200201923D
:10212000019A02941A6B42F080021A631A6B02F051
:1021300080020292029A03941A6B42F004021A631C
:102140001A6B02F004020392039A04941A6B42F091
:1021500001021A631A6B02F001020492049A0594B8
:102160001A6B42F002021A631A6B02F00202059225
:10217000059A06941A6B42F040021A631A6B02F039
:1021800040020692069A07941A6B42F008021A63FC
:102190001B6B03F00803224607933C21079B02F0C8
:1021A0002DFE9E480122022102F028FE22469B4875
:1021B000042102F023FE224699484FF4405102F0D8
:1021C0001DFE01263C23CDE90D3692480F940323D2
:1021D0000DA90227109302F027FD90480DA9CDE923
:1021E0000D76CDE90F4402F01FFD04238B480DA9A5
:1021F000CDE90D36CDE90F4702F016FD0DA94FF4DC
:1022000040538748CDE90D36CDE90F4702F00CFD6C
:102210008448854B036002F0FDFBDFF83CE2834B12
:102220002C62C5E900E328464FF48043C5E9043435
:10223000C5E90244C5E9064402F0EEFF1021284634
:1022400003F032FA21462846794D03F04CFA4FF458
:102250008273C5E900834FF400791823C5E906931A
:1022600028460A23C5E90244C5E90444C5E90844EF
:10227000AC62EB6204F00EF98F23224639466748C0
:102280008DF824308DF8344002F0B8FD32464FF41A
:102290007A7309A9284604F059F94FF47A73324643
:1022A0000DA9284604F0FEFA324639465B48614DD6
:1022B00002F0A4FD9DF83430D32B04BF5E4B1E709A
:1022C0005E4B0126C5E90036102240230024C5E9F3
:1022D00004234FF4C073C5E906344FF40063C5E925
:1022E00008344FF4005302274FF00409AB624FF05B
:1022F000030A07230DA92846CDE90D73CDE90F93F5
:102300004FF00808C5E90249CDE911A7139703F07A
:10231000A5FF4FF6FF7209A92846CDE90A86089461
:1023200009960C9403F0BAFF304602F00DFB4FF60D
:10233000FF7209A92846CDE90978CDE90B6403F0BD
:10234000ADFF4FF6FF7209A92846CDE909A8CDE9EE
:102350000B9403F0A3FF4FF40C730893089B0C93AA
:102360004FF6FF7209A92846CDE909980B9603F0AC
:1023700095FF40F26A51284603F0AEFF34220DEB80
:10238000020021461FF03FFF2D4D2E4B2C61C5E969
:1023900000340923C5E905361D23C5E9073A40F293
:1023A0000D1140F24313C5E9091340F2171040F232
:1023B0004713C5E90B032846C5E90244AC8685F8F6
:1023C000364003F02BFAFF214FF4806CF022CDE968
:1023D00012140521CDE914C14FF4A0730DA9CDE964
:1023E0000E24CDE9164228462246174D1893CDE912
:1023F00010370D94ADF864408DF8664003F0D9FABB
:10240000124B2B601B6898472B68114DDB6825E049
:1024100000380240001002407429002000080240E9
:10242000000C0240082A002000300240A086010073
:10243000742800204028002034280020400100A0FB
:10244000CC2800200068014028280020140000202B
:10245000C829002000500140005C00409847134B01
:102460002846C5E90034C5E90274C5E90A47C5E94B
:102470000C4402F0DFFA3146284602F091FBFEF7E9
:10248000D3FDFEF7D0FD04F0B1FC094A094821460E
:1024900004F0E2FC084B094A18602146084804F0A1
:1024A000DBFC084B186004F0B3FCFEE700B0024010
:1024B000183D0208312000083C280020F43C0208A6
:1024C0003710000838280020704770477FB5094B47
:1024D0008DF817201B6802930DF11702012300925B
:1024E00001930A460146044802F03EFF07B05DF83A
:1024F00004FB00BF10000020742900207FB50023DA
:102500008DF81730084B1B6802930A4601230DF122
:102510001701009101930146044802F0B5FF9DF8B0
:10252000170007B05DF804FB10000020742900209C
:102530001FB5084C24680092CDE901340A460123F6
:102540000146054802F0A0FF003818BF012004B082
:1025500010BD00BF100000207429002002F0F4B963
:1025600010B5064C00222046042102F047FC20460C
:102570000122BDE81040042102F040BC00080240E6
:1025800038B50B4D044601220A484FF4005102F0C1
:1025900035FC00220421284602F030FC2046FFF7DB
:1025A00035FD28460122BDE83840042102F026BC52
:1025B00000080240000C024038B50B4D04460022D2
:1025C0000A484FF4005102F019FC00220421284669
:1025D00002F014FC2046FFF719FD28460122BDE851
:1025E0003840042102F00ABC00080240000C0240FE
:1025F000F7B5144E144F05460C4630460022042110
:1026000002F0FCFB00224FF40051384602F0F6FBCA
:102610002846FFF7FBFC0D4B0D481B68224601A91D
:1026200004F040F9384601224FF40051019C02F0B9
:10263000E5FB30460122042102F0E0FB204603B016
:10264000F0BD00BF00080240000C02400C0000205A
:102650007428002002F078B90268034B9A4201D135
:1026600002F060B9704700BF0010004070470000E2
:1026700082B00E4B00220092596C41F480415964A3
:10268000596C01F48041009100990192196C41F05C
:10269000805119641B6C03F080530193019B0F213F
:1026A0006FF0010002B002F075B900BF00380240BF
:1026B0000268094B9A4282B00BD100230193074B69
:1026C0001A6B42F480521A631B6B03F4805301931C
:1026D000019B02B0704700BF00300240003802404A
:1026E00007B50F4B02689A4216D10022A3F5F043BA
:1026F0000192196B41F4000119631B6B03F4000391
:10270000019305215A20019B02F044F95A2003B09D
:102710005DF804EB02F070B903B05DF804FB00BF94
:1027200000B002402DE9F043044689B01422002194
:1027300003A81FF068FD2268244B9A4243D1244C21
:10274000244800250095236B43F004032363236B87
:1027500003F004030093009B0195236B43F00103F6
:102760002363236B03F001030193019B4FF01209D4
:102770004FF400734FF001080327042603A9CDE9A5
:102780000339CDE90587079602F04EFA4FF48073BE
:102790001148079603A9CDE90339CDE9058702F071
:1027A00043FA0295236C43F400032364236C03F47F
:1027B00000030293029B236A43F400032362236A0B
:1027C00023F40003236209B0BDE8F083005C0040FD
:1027D000003802400008024000000240F0B599B005
:1027E00004461422002107A81FF00DFD30220DEB36
:1027F000020000211FF007FD22685E4B9A4240F064
:10280000B78008230C93C0231093042312930CA8C1
:102810004FF40033159303F0F5FB08B1FFF726FFE3
:10282000554B5648002400945A6C42F080625A641A
:102830005A6C02F080620092009A01941A6B42F086
:1028400020021A631A6B02F020020192019A02948C
:102850001A6B42F001021A631A6B02F00102029233
:10286000029A03941A6B42F002021A631A6B02F086
:1028700002020392039A04941A6B42F040021A6314
:102880001A6B02F040020492049A05941A6B42F00B
:1028900004021A631A6B02F004020592059A069468
:1028A0001A6B42F008021A631B6B03F008030693CD
:1028B00002250E26069B0B964FF4806307A9CDE9EF
:1028C0000735CDE9094502F0AFF941F658032C4828
:1028D0000B9607A9CDE907350927CDE9094502F08F
:1028E000A3F9032327480B9707A9CDE90735CDE9BD
:1028F000094502F099F94FF4706322480B9607A935
:10290000CDE90735CDE9094502F08EF94FF40C63A6
:102910001D480B9607A9CDE90735CDE9094502F019
:1029200083F9C02319480B9607A9CDE90735CDE9EE
:10293000094502F079F9082315480B9607A9CDE956
:102940000735CDE9094502F06FF94FF4A0530E4861
:102950000B9707A9CDE90735CDE9094502F064F9E0
:1029600058202246052102F015F8582002F044F8BC
:1029700019B0F0BD00680140003802400014024068
:10298000000002400004024000180240000802401B
:10299000000C024010B5044688B01422002103A8A0
:1029A0001FF031FC2268144B9A4223D103F568438F
:1029B000002101915A6C114842F480125A645A6CF9
:1029C00002F480120192019A02911A6B42F02002E5
:1029D0001A631B6B03F020030293029B4FF4607297
:1029E00002230321CDE903230523CDE9061303A91F
:1029F00002F01AF908B010BD005001400014024066
:102A00002DE9F04186B0002303932B4B1C68002C6A
:102A10004FD14FF00108C3F80080284B00949A6B07
:102A2000274842EA08029A639B6B03EA0803009373
:102A3000022703260C25009B01A94FF63F03CDE991
:102A40000137CDE9046502F0EFF81E48059501A9AC
:102A5000CDE90187CDE9034602F0E6F848F23313E9
:102A60001948059501A9CDE90137CDE9034602F0E2
:102A7000DBF84FF683731548059501A9CDE90137B9
:102A8000CDE9034602F0D0F84CF2037310480595E7
:102A900001A9CDE90137CDE9034602F0C5F860236D
:102AA0000C48059501A9CDE90137CDE9034602F0AF
:102AB000BBF806B0BDE8F081102A002000380240C3
:102AC00000140240000802400018024000100240BA
:102AD000000C02400004024070B588B0002302934D
:102AE000204B1A6C42F010021A641B6C03F01003A6
:102AF0000293054601A903A8029B03F065FA069B11
:102B00004BBB03F051FA184E184B336040F2E733D9
:102B1000F360174BB0FBF3F3013B736030460023C7
:102B20003361B360B36104F08DF8044680B9304678
:102B300003F05EFF044658B9362001F05DFF0F2D0B
:102B40000DD822462946362001F024FF094B1D608E
:102B5000204608B070BD03F027FA4000D3E70124F7
:102B6000F6E700BF00380240142A002000100040A1
:102B700040420F007C0000207047FEE7FEE7FEE7C2
:102B8000FEE77047014803F071BF00BF142A002020
:102B9000014802F0B1BE00BFCC280020014801F07E
:102BA00075BF00BFC82900200120704708B51FF07D
:102BB000CDFB162303604FF0FF3008BD08B51FF0B2
:102BC000C5FB16230360FEE770B50D4614460E469E
:102BD000731B9C4201DC204670BDAFF3008006F8F9
:102BE000010BF5E770B50D4614460E46731B9C426B
:102BF00001DC204670BD16F8010BAFF30080F5E74D
:102C00004FF0FF3070474FF400534B600020704787
:102C100001207047002070470A4A116808B5034632
:102C200009B9094911601068694603448B4206D905
:102C30001FF08CFB0C2303604FF0FF3008BD1360C6
:102C4000FCE700BF5C2A0020B8450120704710B5A2
:102C5000042104461EF06DF8204610BD012908B578
:102C600006D0022908D059B900F06CFE006808BDF2
:102C700000F068FE4068FAE700F064FE8068F6E75E
:102C80000020F4E700487047503D02080C207047D0
:102C900013B5002451B1036801948DF8034001AAD3
:102CA0009C680DF10303A04702B010BD0846FBE786
:102CB000C0897047008A7047C08870478088704715
:102CC000807A00F07F007047807AC009704700204A
:102CD000704700009FED010A704700BF0000000030
:102CE000704710B5082104461EF023F8204610BD99
:102CF0007047704700F598730868496803C37047C8
:102D0000704770474160704770477047064BC0F886
:102D10004C310023C0F8503100F5A273C0F84801CF
:102D2000C0F84031704700BFCD2D00080123037269
:102D30007047704710B4C26841685410034601EBF5
:102D40006200D20748BF0A599B685DF8044B48BF30
:102D5000D35818470346406830B19A681AB9D86802
:102D600000F0010070470120704710B50C210446A7
:102D70001DF0DFFF204610BD10B5102104461DF0E8
:102D8000D8FF204610BD10B54FF4AE7104461DF0BB
:102D9000D0FF204610BD10B50BF076FD0368BDE8EE
:102DA0001040DB6B184710B50446D0F8400158B10D
:102DB0000368DB68984738B1D4F8400103689B6822
:102DC00098470023C4F8403110BD00002DE9F14FB1
:102DD000D0E9556A0746B06803681B6A9847B0F5A2
:102DE000995F05D2444B454AA32145481FF004F89A
:102DF000706803681B6A98470F2803D8414B3F4A05
:102E0000A421F2E7F06803681B6A98470B2803D8EF
:102E10003D4B3A4AA521E8E70BF036FDDFF8F0908C
:102E200004300BF056FDD9F8000010B10368DB68E0
:102E30009847D9F8000010B103681B689847DFF87D
:102E4000D480D8F8000010B103685B699847D7F8C0
:102E50003C0110B103685B689847D8F8000010B1D6
:102E600003681B689847D7F83C0110B103689B685A
:102E70009847F068036800215B6A98474FF0000BA1
:102E8000224BC0F804B0044680F808B00360B06874
:102E9000036859465B6A9847054600F0CBFD7068A9
:102EA000036859465B6A98472946064600F094FD38
:102EB000331DC7F83C61C9F80040C8F80050CAF893
:102EC00000302B68C6F808A02846DB68EE639847F8
:102ED000336830461B689847214628460DF084FE2B
:102EE000236820461B69984723685B69204601B028
:102EF000BDE8F04F184700BFD33302086134020821
:102F0000333502087A3502081D360208C43E02082D
:102F1000BC380120B8380120044B1B6893F85820B6
:102F20000AB1D86C00B99868704700BF74380120A6
:102F3000F8B5174604460E460BF068FD124B1C60B0
:102F4000124B2360124B0025C4E95135114BC4E9E3
:102F500053551868036801219B68C4E94F55C4E9BB
:102F600055769847284600F0A1FCFFF7D5FF15F0ED
:102F7000FCFDFFF7D1FF15F073FEFFF7CDFF15F055
:102F80007BFE2046F8BD00BFC8380120703E020815
:102F9000583E020874380120064BC0F84C3100231B
:102FA000C0F8503100F5A273C0F84801C0F84031B4
:102FB000704700BFCD2D0008406A7047806A704797
:102FC00070478A880B8810B5D20A4C88C1699BB2B9
:102FD00051F8220043EA0443184410BD10B50446DA
:102FE000BAB1107B68B1537BD27A1B0203F4E06361
:102FF0001A43236A03EB82031A888A4202D193F9A7
:10300000020010BD05D8013880B204330028F3D186
:10301000F7E70020F5E710B52C2104461DF089FEE6
:10302000204610BD30B58BB00446BDF86050089501
:10303000BDF85C5007959DF8505006959DF84C5092
:1030400005959DF8485004959DF8445003959DF8CA
:10305000405002959DF83C500195BDF838500095C0
:103060000DF01CFA064B2360159BE361169B23624F
:10307000199B63621A9BA36220460BB030BD00BF50
:10308000E83E0208806A7047704770477047704793
:10309000704730B5036885B06D460181D3F8843040
:1030A000014604462846984795E807003C3484E8E2
:1030B000070005B030BD30B5036885B06D4641816D
:1030C000D3F88430014604462846984795E807001F
:1030D0003C3484E8070005B030BD00220280428005
:1030E0008280C280704780F83610704770B50368E0
:1030F00004461B6B154698472368294620465B6E9D
:10310000BDE87040184700207047806C70477047DA
:103110007047704770477047704730B4C268446862
:103120005510034604EB6200D20748BF62599B6802
:1031300030BC48BFD35818470346406830B19A683E
:103140001AB9D86800F0010070470120704790F864
:103150002D3080F85C3070470146343091F82C30C7
:1031600013B1623108F095BF6031FBE710B56421FF
:1031700004461DF0DEFD204610BD10B54C2104466E
:103180001DF0D7FD204610BD10B5102104461DF0DE
:10319000D0FD204610BD10B54FF40A7104461DF055
:1031A000C8FD204610BD08B5FEF73AFE08BD10B5B3
:1031B0000446006B50B10368DB68984730B1206B60
:1031C000036821469B68BDE81040184710BD00F514
:1031D0008E728A4202D10368DB6A184770470B7906
:1031E00070B590F82C6004460D460BB916B170BD51
:1031F000002EFCD0B3FA83F35B0984F82C302368EB
:103200002046D3F88C309847236820465B6998475E
:10321000002EECD02B79012BE9D123682046D3F87E
:103220008830BDE870401847036870B55E6B124B7C
:103230001B6804468DB22BB9104B114A6C21114802
:103240001EF0DAFD1049828D0988914203D80F4B98
:103250000B4A6D21F3E713F812200D4B1B6853F84E
:10326000220003681B6B9847291A3346204609B28F
:10327000BDE87040184700BFCC380120C0360208B6
:10328000023702083D370208D0380120843702088F
:10329000D438012000224FF0FF31C0E900218260C4
:1032A000704770B5036804461B6B15469847236842
:1032B000294620465B6BBDE87040184770B503682F
:1032C00004469B6B15469847236829462046DB6BCE
:1032D000BDE8704018470B8870B5A0F8603005460F
:1032E000138825F8623F044628460EF0A3FC0646E4
:1032F00028460EF0D3FC314602462046FFF7DEFF9B
:1033000023682046D3F88C30BDE870401847000091
:103310000022C0E90122C0E90322C0E90522C0E978
:1033200007224FF480728284014A0260704700BF16
:10333000503F020838B5262204460D4600211EF0F3
:1033400062FF2046FFF7E4FF064B23602B88E384EF
:10335000FF23204684F82830294608F09AFE2046AC
:1033600038BD00BF9844020810B52622044600214B
:103370001EF049FF2046FFF7CBFF0A4BA3624FF632
:10338000FF73A3854FF47F020023C4E90C32064A81
:10339000226023874FF0FF32C4E91023E363A36464
:1033A000204610BD483E0208B83F0208F7B54FF46A
:1033B0007F430646838540F2011300258384134B27
:1033C0008562C0E90155C0E90355C0E90555C0E96A
:1033D0000755056346F8343B04464FF6FF7701A9CD
:1033E0003046ADF80470FFF7A5FF2A46294630465F
:1033F000A4F86070A4F86270FFF753FF20463146CE
:1034000005F0F4FD204603B0F0BD00BF48400208BF
:103410002DE9F04F04468DB0274600250DF038FA0F
:10342000884BE56347F8403B2622294638461EF084
:10343000EAFE3846FFF76CFF834B236404F16C0B04
:10344000FF234FF6FF7684F866300AA9A566584632
:10345000ADF82860FFF76EFF04F198030AA918463B
:103460000193ADF82860FFF765FF04F1C4030AA9D2
:1034700018460293ADF82860FFF75CFF04F1F003F3
:1034800004F58E7A0AA91846039304F5C079ADF8BD
:103490002860FFF74FFF5046FFF788FF04F5E678F6
:1034A0004846FFF761FF4046FFF75EFF674BC4E900
:1034B0008634674B2A46C4E9883529463846FFF7E3
:1034C000F0FE4FF4A0723846F021FFF7F7FE261DFC
:1034D0004FF07F43A3663946304605F087FD2A4604
:1034E00029465846FFF7DDFE0AA95846ADF8285090
:1034F00008F0CFFD5946304605F078FD2A46019880
:10350000DFF850B12946FFF7CCFE01270198ADF84E
:1035100028700AA908F0BDFD0199304605F066FD46
:1035200002982A462946FFF7BCFE02220298ADF80F
:1035300028200AA908F0ADFD0299304605F056FD95
:1035400003982A462946FFF7ACFE03220398ADF8FC
:1035500028200AA908F09DFD0399304605F046FD94
:103560000522ADF824200922ADF8282009A90AAACD
:103570005046FFF7B0FE2A46294604F5A870FFF72B
:1035800090FE04F50672C4F84C215046C8225A2118
:10359000FFF787FE3C2211465046FFF78FFE51464B
:1035A000304605F023FD48466A224A21FFF779FE9E
:1035B000D4F88021A4F8B4514FF07F430DF1100AE4
:1035C000C4F8B03149465046D2F8842090479AE872
:1035D000070004F5DE7C8CE807000AA94846CDF810
:1035E00028B0ADF82C7008F08DFC4946304605F047
:1035F000FDFC8C2240464A21FFF753FE4FF07F43EB
:10360000C4F8FC31D4F8CC31A4F8005241465046FD
:10361000D3F8843098479AE8070004F5027383E8EA
:1036200007000AA94046CDF828B0ADF82C5008F0A4
:1036300069FC3046414605F0D9FC20460DB0BDE896
:10364000F08F00BF0041020830440208E840020841
:10365000CF310008483E02087047000030B5164DD3
:103660002C6814F001048FB0BFF35B8F20D1284683
:103670001DF061FBE0B13F230993104B0893104B01
:10368000104911480A940122CDE906430423CDE9EB
:1036900003320A230093CDE90B44CDE9014405949C
:1036A000FFF7C0FC09481EF0C5FB28461DF04FFB84
:1036B00005480FB030BD00BF602A00201C4F020833
:1036C000284F0208EC4E0208642A002059360008F0
:1036D0007047000030B5164D2C6814F001048FB00F
:1036E000BFF35B8F20D128461DF025FBE0B13F23BF
:1036F0000993104B0893104B104911480A9401226A
:10370000CDE906430423CDE9033214230093CDE928
:103710000B44CDE901440594FFF784FC09481EF0F1
:1037200089FB28461DF013FB05480FB030BD00BFD4
:10373000902A0020204F02082C4F0208FC4E02085D
:10374000942A0020D13600087047000030B5164D8D
:103750002C6814F001048FB0BFF35B8F20D1284692
:103760001DF0E9FAE0B13F230993104B0893104B89
:10377000104911480A940122CDE906430423CDE9FA
:10378000033228230093CDE90B44CDE9014405948D
:10379000FFF748FC09481EF04DFB28461DF0D7FAFC
:1037A00005480FB030BD00BFC02A0020244F0208DA
:1037B000304F02080C4F0208C42A00204937000885
:1037C00000207047002070470EB403B503AB002102
:1037D00053F8042B01930CF0DFF802B05DF804EB12
:1037E00003B070470CB407B504AB53F8042B019336
:1037F0000CF0D2F803B05DF804EB02B070470000A3
:10380000436C10B5044673B3038F2BB9184B194A98
:10381000C52119481EF0F0FAC38E00EB43035B8C00
:103820000BB30DF020FF238F012B03D8134B144A49
:10383000CB21EEE7E28E531C9BB2092B194688BFC1
:10384000A3F10A0104EB410140F63F10498C81428B
:1038500009D10A2B04EB420228BF002304EB4303E7
:10386000508C588451842046BDE810400DF0FEBDB8
:10387000C2370208CB37020876380208C03802087F
:10388000CE3802080DF0B9BD10B586B002AC84E8A0
:1038900006001A460AAB05930193099B0093214643
:1038A000089B0AF08FFB06B010BD000038B518BBAE
:1038B000124B13481C681349B4B1226822440260B9
:1038C000626822440A60A26814440F4B00221A80E6
:1038D00000F038F8054600F033F80C4B1C600C4B38
:1038E0001D600C4B188007E00B4B03600B4B0B600B
:1038F0000B4B1C68002CE8D138BD00BFFC2A00200F
:10390000F42A0020F02A0020F82A0020CC380120D8
:10391000D4380120D03801203C4F0208344F02082F
:10392000404F0208044B1B6853F82100034B1B68EF
:1039300003EB4000704700BFF02A0020F42A00206B
:103940000220704700487047002B002010B5FFF799
:10395000C1FE044C2060FFF7F9FE6060FFF77EFEB9
:10396000A06010BD002B002010B5002404600C6086
:1039700014601C6010BD704710B54FF4AE71044662
:103980001DF0D7F9204610BD10B50446D0F85801F7
:1039900000F013F82046BDE810400AF0F7BF000021
:1039A00010B50446FFF7C4FA014B2360204610BD52
:1039B000384102080022026070477047704704389F
:1039C0007047704710B5102104461DF0B2F920462B
:1039D00010BDA0F10400F5E700228260024A0260F7
:1039E00018324260C16070478C4102087047000085
:1039F00038B5094B0360044641F28C15B5F5057FD7
:103A000005D0635960191B6898472C3DF6E720469E
:103A1000FFF781FB204638BDB441020810B50446CB
:103A2000FFF7E6FF20464FF499511DF082F920463A
:103A300010BD00002DE9F3410646FFF7E9FC324BCB
:103A400033601E24012306F58D57C6E98A431837D3
:103A500006F510744FF6FF7504F5C678204601A9E7
:103A60002C34ADF80450FFF765FC4445F6D1BC4258
:103A7000F2D101A906F59250ADF80450234CFFF79E
:103A800059FC06F5935001A90C30ADF80450FFF72E
:103A900051FC0FCC06F5805707F52F750FC50FCCDD
:103AA0000FC594E80F00103485E80F000FCC07F520
:103AB0003B750FC50FCC0FC594E80F0085E80F00CC
:103AC000FA23C7F81C331248124A0423C7F83C32C1
:103AD0000A210023C6E98C13C7E9AB0202F10312E5
:103AE000C7F8B4220322C7F8B8220B4AC6F83C2212
:103AF0000A4AC7F89C220A4AC7F8A022304687F82B
:103B0000983202B0BDE8F081B4410208502E02089C
:103B1000040006000700080015CD5B070000D64230
:103B200000008C432DE9F74F00F58D5600F59058B5
:103B300007461736002508F1140815F0010F4FF459
:103B4000C6740CBF4FF0080B4FF0090B04FB057453
:103B5000B2464FF000091AF8013F7BB1D4F8403269
:103B600038F925209B6DB4F9441204F510700190CA
:103B70009847D4F8403201985B69984709F10109E8
:103B8000D94504F12C04E6DB01350A2D06F10906BE
:103B9000D3D103B0BDE8F08F00F5905300F59150FC
:103BA0001033183053F8042F013283421A60F9D1D0
:103BB000704700002DE9F04300F580542DED028B95
:103BC00094F8983283B0032B12D8DFE803F0021682
:103BD0006E7F484B1B887E3B9BB2032B05D8464B20
:103BE0001B887E3B9BB2032B02D9012384F89832B9
:103BF00003B0BDEC028BBDE8F0833E4B1B887E3BDF
:103C00009BB2032BF4D83C4B1B887E3B9BB2032B0F
:103C1000EED8022384F89832384B9FED397A1B880E
:103C200007EE903AF8EEE77A364B77EEC77A1B88C4
:103C3000FDEEE77A17EE906A07EE903AF8EEE77A33
:103C400077EEC77AFDEEE77A17EE905A05FB05F09E
:103C500006FB0600FCF76EFC41EC180BB0EE480AC0
:103C6000F0EE680A1DF08DF859EC108B7042FCF7ED
:103C700061FC42464B46FCF7F1FDFCF775FFB0EEE8
:103C8000480AF0EE680AC4F8A4021DF07AF857EC6E
:103C9000106B6842FCF74EFC32463B46FCF7DEFDFB
:103CA000FCF762FFC4F8A802A2E7D4EDA77A94ED6E
:103CB000A97A77EE877A94EDAA7AC4EDA77AD4ED43
:103CC000A87A77EE877AC4EDA87A91E7002384F882
:103CD000983201A9B4F89232ADF8043000F5925050
:103CE00008F0D7F9084BC4F89C32084BC4F8A0324E
:103CF0007EE700BF30280020322800202E28002038
:103D00000000FF422C2800200000D64200008C4317
:103D100038B500F580542DED028B94EDA70A00F51F
:103D200092551DF0DFF9B0EE408A94EDA80A1DF01F
:103D3000D9F9BDEEC00ABDEEC88A10EE103A1AB22B
:103D400018EE103A284619B2FDF7BDFFBDEC028B04
:103D50002846BDE838400BF049BF31EE426A70EEAC
:103D6000E27A31EEE27A70EE426A67EEC67A32EEBD
:103D7000432AE6EE877A88B030EE437AF5EEC07AD1
:103D800070EEE37A72EEE32A67EEC27AF1EE10FA91
:103D9000E7EE227A4CBF01230023F5EEC07AF1EE64
:103DA00010FA4CBF01220022934217D130EE410A93
:103DB00073EEE13A70EEE10A33EE413A20EE230A67
:103DC000A3EE600AB5EEC00AF1EE10FA4CBF012076
:103DD0000020C31A5842584108B070470020FBE742
:103DE0002DE9F04F01F5805A2DED068BDAEDA8AAEA
:103DF000DAF83C728BB005461AEE900A0C46FCF7D6
:103E0000ABFB0022804BFCF747FA07F2844304EB3C
:103E10008303804658688946FCF78CFB7A4B002266
:103E2000FCF73CFA02460B4640464946FCF77CFE4E
:103E300048B14FF0FF33C5E9003328460BB0BDEC65
:103E4000068BBDE8F08F6FF02A0363430193B946F8
:103E5000F2EE0A8AF2EE0D9A09EBC90109F00106A9
:103E600001F58D5106F10803173109F284480093DA
:103E700021444FF0000B04EB880811F8010F0028D3
:103E800000F0B1802C2303FB01F0A0F54230A0F537
:103E9000AE70019BD8ED017AC35E9AEDA74A01EEA0
:103EA000103AF8EEE75AB8EEC11A35EEA95A34EED8
:103EB00068AA7AEEE94A31EE688A31EE289AF0EE85
:103EC000453AB0EE493AB0EE482AF0EE452AF0EE17
:103ED000651AB0EE4A0AF0EE640A20468DED02AA99
:103EE000CDED034A8DED041ACDED055A8DED095A3D
:103EF000FFF733FF90B109F101030A2193FBF1F0C1
:103F000001FB103916B90BF1010B04E0BBF1080FEE
:103F100008BF4FF0070BC5E9009B8EE775EEE95A25
:103F2000B0EE493AF0EE453AB0EE492AF0EE652A95
:103F3000B0EE4A0AF0EE640A2046FFF70EFF80B1A9
:103F4000009B082B0CBF072108218B45DBD109F111
:103F500001030A22C6F1080B93FBF2F102FB1139AF
:103F6000D9E734EE284AB0EE483AF0EE453AB0EEE2
:103F7000492AF0EE452AB0EE440AF0EE640A2046E3
:103F80008DED088AFFF7E9FE70B109F101030A21FE
:103F900093FBF1F001FB1039002EBCD0BBF1000FF8
:103FA000B9D00BF1FF3BB6E7B0EE483AF0EE453A38
:103FB000B0EE482AF0EE652AB0EE440AF0EE640A4C
:103FC00020468DED068ACDED075AFFF7C6FE50B1AB
:103FD000BBF1000FE5D109F101030A2193FBF1F0D8
:103FE00001FB103997E7009B0BF1010B5B453FF795
:103FF00044AFB9F101024CBF09F1090991464F459F
:104000007FF42AAF15E700BF00002D40F0B585B062
:104010006B4683E806004FF4C67316464B432C22CA
:10402000044602FB063303F51070234404F5805761
:10403000D3F84032B7F866221B6EADF80C200D465F
:10404000204403A9984705EBC503E218324441F226
:10405000B81001211154D7F83C124FF00A0C4A1C39
:1040600092FBFCFE0CFB1E22AA421FD1034415F05A
:10407000010F04EB03024FF000030CBF4FF0080CDC
:104080004FF0090C18469E4218BFD05401336345C7
:10409000F9DB05F2844301F2844104EB830304EB72
:1040A000810462681D325A60C7F83C5205B0F0BD09
:1040B00013B500F5805401A9B4F89232ADF804307C
:1040C00000F5925007F0E5FF034BC4F89C32034B18
:1040D000C4F8A03202B010BD0000D64200008C43EC
:1040E000D0F83C120246054843F2390300FB013385
:1040F00023F00040C2F83C02704700BF6D4EC6413D
:1041000010B50446FFF7ECFF04F58053D3F8B8323E
:10411000B0FBF3F202FB130000F6541004EB400472
:10412000A08810BD13B50446FFF7EAFFADF8040000
:1041300004F5935001A90C3007F0ABFF02B010BD9D
:10414000F7B5044602F085FED4F82832B0FBF3F54B
:1041500002F078FED4F83832C01AA84252D904F5D9
:104160008055D5F83C3203F2844304EB830358684E
:10417000FCF7E0F9244B0022FCF790F80646D5F84E
:104180001C030F46FCF7D6F902460B46304639466B
:10419000FCF7CAFC0146A8BBD4F834325A1CC4F858
:1041A0003422D4F83022934204D12046FFF7F4FCA5
:1041B000C4F8341220466D46FFF7FCFC2146284621
:1041C000FFF70EFE009B01330DD0019B01330AD097
:1041D00095E806002046FFF719FF2046FFF768FF25
:1041E0002046FFF79FFF2046FFF79CFC2046FFF785
:1041F0008FFD04F593500C300BF0F8FC02F022FE1A
:10420000C4F8380203B0F0BD00002D402DE9F04F96
:1042100000F5805A87B0DAF83C4205464FF0FF3689
:10422000731C02BFDAF83C621D235E4304F00103F5
:1042300018BF1D3E002B0CBF0823092301934FF428
:10424000C67303FB045804EBC40305EB840903F5B0
:104250008D5309F5805903F117032B440093C9F8D6
:1042600014620CBF102703270023D8F840220393C1
:10427000126E02922846FFF743FF08F5107B029A60
:10428000ADF8140005A95846904739B2B9F914227F
:104290005846FFF706F8009B4FF0010203F8012F84
:1042A0005946281D009304F0A1FE039B019A013397
:1042B0001A37934208F12C08BFB2D6D1631E58BFFB
:1042C0001C46DAF83C3248BF0934A342A8D107B0F3
:1042D000BDE8F08F70B52DED028B82B000F59255E0
:1042E0000446FFF70DFF04F5805601A9ADF8040060
:1042F000284607F0CEFE96EDA70A1CF0F3FEB0EEBE
:10430000408A96EDA80A1CF0EDFEBDEEC00ABDEE97
:10431000C88A10EE103A1AB218EE103A284619B2AE
:10432000FEF7BFFF2946201D02B0BDEC028BBDE8A1
:10433000704004F05BBE37B5054600F59354FFF7B7
:10434000DFFE0C34ADF8040001A9204607F0A1FE01
:1043500020464FF48C720A21FEF7A3FF2146281D48
:1043600003B0BDE8304004F041BE10B50446FEF78E
:10437000D3FE2046FFF74AFF2046FFF7ABFF20465B
:10438000FFF7D9FF002384F8413102F05BFDC4F848
:10439000380210BDF02070474FF4A07070472920FC
:1043A000FEF70AB92820FEF707B908B5FEF7D8F8D6
:1043B000CA20FEF701F9C320FEF7E2F80820FEF755
:1043C000DFF85020FEF7DCF8CF20FEF7F5F80020EC
:1043D000FEF7D6F8C120FEF7D3F83020FEF7D0F86C
:1043E000ED20FEF7E9F86420FEF7CAF80320FEF797
:1043F000C7F81220FEF7C4F88120FEF7C1F8E820C4
:10440000FEF7DAF88520FEF7BBF80020FEF7B8F8D3
:104410007820FEF7B5F8CB20FEF7CEF83920FEF76E
:10442000AFF82C20FEF7ACF80020FEF7A9F83420F6
:10443000FEF7A6F80220FEF7A3F8F720FEF7BCF877
:104440002020FEF79DF8EA20FEF7B6F80020FEF7E0
:1044500097F80020FEF794F8B120FEF7ADF80020A1
:10446000FEF78EF81B20FEF78BF8B620FEF7A4F8B7
:104470000A20FEF785F8A220FEF782F8C020FEF79A
:104480009BF81020FEF77CF8C120FEF795F810206D
:10449000FEF776F8C520FEF78FF84520FEF770F896
:1044A0001520FEF76DF8C720FEF786F89020FEF77E
:1044B00067F83620FEF780F8C820FEF761F8F22092
:1044C000FEF77AF80020FEF75BF8B020FEF774F8EC
:1044D000C220FEF755F8B620FEF76EF80A20FEF768
:1044E0004FF8A720FEF74CF82720FEF749F80420E4
:1044F000FEF746F82A20FEF75FF80020FEF740F8A6
:104500000020FEF73DF80020FEF73AF8EF20FEF716
:1045100037F82B20FEF750F80020FEF731F8002086
:10452000FEF72EF80120FEF72BF83F20FEF728F8C3
:10453000F620FEF741F80120FEF722F80020FEF7F2
:104540001FF80620FEF71CF82C20FEF735F8C820CF
:10455000FEF780F82620FEF72FF80120FEF710F86E
:10456000E020FEF729F80F20FEF70AF82920FEF7D1
:1045700007F82420FEF704F80C20FEF701F80E20BF
:10458000FDF7FEFF0920FDF7FBFF4E20FDF7F8FFCA
:104590007820FDF7F5FF3C20FDF7F2FF0920FDF73D
:1045A000EFFF1320FDF7ECFF0520FDF7E9FF1720D3
:1045B000FDF7E6FF1120FDF7E3FF0020FDF7E0FF28
:1045C000E120FDF7F9FF0020FDF7DAFF1620FDF7E7
:1045D000D7FF1B20FDF7D4FF0420FDF7D1FF1120EA
:1045E000FDF7CEFF0720FDF7CBFF3120FDF7C8FF19
:1045F0003320FDF7C5FF4220FDF7C2FF0520FDF780
:10460000BFFF0C20FDF7BCFF0A20FDF7B9FF2820F3
:10461000FDF7B6FF2F20FDF7B3FF0F20FDF7B0FF2A
:104620001120FDF7C9FFC820FEF714F82920FDF777
:10463000C3FFBDE808402C20FDF7BEBF08B5FDF75D
:104640008FFF0321D320FDF7D3FF80B208BD10B543
:10465000C4B2022203212046FDF738FF0A20FDF7ED
:104660007DFF204600220321FDF730FFBDE810400A
:104670000220FDF773BF38B50446E4B2FDF724FF0E
:1046800000212046FDF73AFF012105462046FDF7AF
:1046900035FF40EA052080B238BD10B5C4B24021D4
:1046A0002046FDF72BFF030607D54C212046FDF7DA
:1046B00025FF003818BF012010BD01224B212046E4
:1046C000FDF704FF204600224B21FDF7FFFE0020EE
:1046D000F2E773B50423C4B20E461546D7210DEB9D
:1046E00003022046FDF724FF019B1BBA1A0DC3F3FA
:1046F0000B23328020462B8001224B21FDF7E6FE62
:1047000000224B212046FDF7E1FE02B070BD000003
:1047100010B50A4A1378984204460DD05178884261
:104720000AD00BB141B90123D454FDF7CDFE204688
:10473000BDE81040FFF78BBF10BD00BF0C2B002061
:1047400010B5C4B209212046FDF7D8FE40F00102A1
:10475000D2B220460921BDE81040FDF7B7BE10B522
:10476000C4B209212046FDF7C9FE092100F0FE026E
:104770002046BDE81040FDF7A9BE38B5C4B20D46CD
:1047800020460A21FDF7BAFE40EA0502D2B22046D1
:104790000A21BDE83840FDF799BE10B50446FDF783
:1047A00094FE20461F21FFF7E8FF2046BDE8104099
:1047B000FFF7C6BF38B5C4B20D4620460A21FDF743
:1047C0009DFE20EA0502D2B220460A21BDE838400B
:1047D000FDF77CBE10B50446FFF7C1FF20461F2140
:1047E000BDE81040FFF7E6BF10B5C0B20C460B2184
:1047F000FDF784FE204010BD1F21FFF7F5BF0A46DC
:10480000C0B20B21FDF762BE1F21FFF7F8BF38B51C
:10481000C4B20D4620461721FDF770FE20EA0502BE
:10482000D2B220461721BDE83840FDF74FBE70B523
:10483000C4B2064604212046FDF760FE042100F0C4
:10484000FB0205462046FDF741FE3046F021FFF70A
:10485000DEFF05F0F80220460421FDF737FE49226D
:1048600020212046FDF732FE0220FDF777FE20468C
:1048700001222121FDF72AFE20469A224121FDF73F
:1048800025FE204601224A21FDF720FE2046012276
:104890004B21FDF71BFE204600224B21FDF716FEA3
:1048A000204601225621FDF711FE20460122582103
:1048B000FDF70CFE204601224021FDF707FE2046B1
:1048C000FF220B21FDF702FEBDE870400220FDF73C
:1048D00045BE0000054BD3F8882042F47002C3F8AF
:1048E00088204FF000629A60704700BF00ED00E042
:1048F00008B50B4B1A6842F400721A601A6842F449
:1049000080621A601A6842F480721A60032000F014
:104910002FF80020FEF7E0F8FDF7AAFE002008BD02
:10492000003C0240034A044B11681B780B4413609F
:10493000704700BF102B002078000020014B186842
:10494000704700BF102B002038B50446FFF7F6FF74
:10495000631C1CBF054B1B78054618BFE418FFF706
:10496000EDFF431BA342FAD338BD00BF78000020FF
:104970000749CA6822F4E0620302120403F4E06308
:10498000120C134343F0BF6343F40033CB60704712
:1049900000ED00E0164B30B5DC68C4F30224C4F12E
:1049A0000703251D042B28BF0423062D4FF0FF35D8
:1049B0008CBF033C002405FA03F321EA0303A5405E
:1049C00022EA0502A340002843EA0203ACBF00F13B
:1049D0006040084A4FEA0313B8BF00F00F00DBB293
:1049E000AABF00F56140135480F8003330BD00BF0A
:1049F00000ED00E014ED00E0002807DB044A410967
:104A0000012300F01F00834042F82130704700BFAF
:104A100000E100E010B5044650B1437903F0FF0215
:104A200013B90271FDF744FE01236371002010BD2C
:104A30000120FCE710B5044620B390F8393003F0AC
:104A4000FF021BB980F83820FDF74AFE022384F8E4
:104A50003930236861681A6822F440320A431A60C8
:104A60005A6BA16822F007020A435A631A6CE16884
:104A70006FF30D020A431A6400200123E06384F8F7
:104A8000393010BD0120FCE770477047036870B5EE
:104A90005E681D68F207044614D5E90512D51A6848
:104AA00022F480721A60C26B42F00102C2630122DA
:104AB0009A60042380F83930002380F83830436945
:104AC00003B19847B20616D5AB0414D523681A680B
:104AD00022F400521A6020229A60E36B43F0020332
:104AE000E363042384F83930002384F838306369A1
:104AF0000BB120469847300716D5290514D52368F1
:104B00001A6822F400621A6008229A60E36B43F08C
:104B10000403E363042384F83930002384F8383035
:104B200063690BB12046984772070BD56B0509D511
:104B300023681A6822F480621A6004229A60204670
:104B4000FFF7A2FFB00714D5A90512D523681A688C
:104B500022F400721A6002229A60E36BE36301237D
:104B600084F83930002384F8383023690BB12046AB
:104B70009847F20613D5EB0411D523681A6822F47E
:104B800080521A6010229A60E36BE363012384F879
:104B90003930002384F838302046FFF776FF70BDA7
:104BA000F0B590F83820012A03464FF002002BD0D0
:104BB000012283F8382083F8390003EB0112D2E98F
:104BC0000740556A174F44EA0040093C012C9CBF3E
:104BD00005F07F4210434FEA01161A6888BF40EA89
:104BE000056091B9516A394001435162012C9969BC
:104BF000916103D8596A21F07F419162012200201E
:104C000083F8392083F83800F0BDD1693940014379
:104C1000D1619919012C896911619CBF25F07F45EB
:104C20001562EBE7F0FFFC002DE9F74FDFF8BC91D0
:104C30006C4A00230D6801249C4004EA0506AC433D
:104C400040F0B7804D68032705F003044FEA43089E
:104C500007FA08FC671E012F6FEA0C0C34D887682E
:104C600007EA0C0ECF6807FA08F747EA0E078760D5
:104C7000476827EA060EC5F300179F4047EA0E076C
:104C80004760C76807EA0C0E8F6807FA08F747EA1B
:104C90000E07022CC76019D14FEAD30A00EB8A0A2B
:104CA00003F0070BDAF820704FEA8B0B4FF00F0E72
:104CB0000EFA0BFE27EA0E0E0F6907FA0BF747EA0A
:104CC0000E07CAF8207001E0032CDAD1076804FA55
:104CD00008F407EA0C073C4315F4403F046068D031
:104CE00000240194D9F8444044F48044C9F8444075
:104CF000D9F8444023F0030707F1804704F48044C7
:104D000007F59C37019403F0030C019CD7F808E0E9
:104D10004FEA8C0C0F2404FA0CF42EEA040E324CE9
:104D2000A0424DD004F58064A0424BD004F58064CD
:104D3000A04249D004F58064A04247D004F58064C5
:104D4000A04245D004F58064A04243D004F58064BD
:104D5000A04241D004F58064A0423FD004F58064B5
:104D6000A0423DD004F58064A04214BF0A24092467
:104D700004FA0CF444EA0E04BC609468F74315F49A
:104D8000801F0CBF3C4034439460D46815F4001F6E
:104D90000CBF3C403443D460546815F4003F0CBF52
:104DA0003C40344354601468ED0354BF3C403443EA
:104DB00014600133102B7FF43DAF03B0BDE8F08FDA
:104DC0000024D5E70124D3E70224D1E70324CFE769
:104DD0000424CDE70524CBE70624C9E70724C7E769
:104DE0000824C5E7003C01400000024000380240B2
:104DF0000369194214BF0120002070470AB1816184
:104E000070470904FBE7436901EA030221EA030151
:104E100041EA02418161704701684B6913F4806384
:104E20004FF0000210D06FF480634B6120230263C7
:104E300080F83D3080F83E20036C80F83C2043F041
:104E40000403036401207047184670472DE9F846B3
:104E500006460F4691461D464FEA114A3368BAF19D
:104E6000010F0CBF5C699C6927EA0404A4B2B4FA80
:104E700084F46409A14501D0002025E06A1CEED02D
:104E8000FFF75CFD089BC01AA84201D8002DE5D1B0
:104E90003368BAF1010F0CBF5B699B6927EA030312
:104EA0009BB2B3FA83F35B099945D7D10023202243
:104EB000336386F83D2086F83E30326C86F83C300D
:104EC00042F0200232640120BDE8F8862DE9F0416D
:104ED00004460F46164698462568686927EA00008A
:104EE00080B2C0B16B695A0517D52B6843F40073C3
:104EF0002B606FF480636B6120220023236384F8AE
:104F00003D2084F83E30236C43F0040323640023E7
:104F100084F83C300120BDE8F081731CDDD0FFF740
:104F20000DFDA0EB0800B04201D8002ED4D12368BB
:104F30005A6927EA020292B2002ACDD00023202229
:104F4000236384F83D2084F83E30236C1343DDE76F
:104F500070B504460D46164623685B691B0601D5ED
:104F600000201EE02046FFF757FFC8B96A1CF3D0A7
:104F7000FFF7E4FC801BA84201D8002DECD1236888
:104F80005B6913F08003E7D12022236384F83D207E
:104F900084F83E30226C84F83C3042F020022264D7
:104FA000012070BD2DE9F0431546026885B0DDE9AA
:104FB0000C789946136843F4807313600E463B46A1
:104FC000CDF8008000224FF001110446FFF73EFFAC
:104FD000236838B11B68DB0502D54FF400732364E6
:104FE000032620E006F0FE061E611A4943463A46B3
:104FF0002046FFF76BFFA8B9236803905A69039214
:105000009B690393424639462046039BFFF7A0FF66
:10501000064660B1236C042B01BF2268136843F479
:10502000007313600126304605B0BDE8F083B9F186
:10503000010F236802D1EDB21D61F4E72A0A1A615B
:10504000394642462046FFF783FF0028E2D1236815
:10505000F1E700BF020001002DE9FF479A4603680F
:1050600015461A6842F480621A601A68DDE90C7805
:1050700042F480721A600E463B46CDF80080002252
:105080004FF001110446FFF7E1FE236838B11B68B9
:10509000DB0544BF4FF400732364032021E05FFA73
:1050A00086F906F0FE061E612B4943463A46204625
:1050B000FFF70CFFA0B9236803905A6903929B691C
:1050C0000393424639462046039BFFF741FF58B100
:1050D000236C042B01BF2268136843F40073136030
:1050E000012004B0BDE8F087BAF1010F23681AD19E
:1050F000EDB242461D6139462046FFF729FF0246C0
:105100000028E5D121680B6843F480730B602046CA
:10511000CDF800803B464FF00111FFF797FE226863
:1051200060B11368B4E72A0A1A613946424620463C
:10513000FFF70EFF0028CBD12368D9E749F0010320
:105140001361054943463A462046FFF7BFFE003843
:1051500018BF0120C5E700BF0200010070B504467A
:105160000D46164623685B695B0701D500201EE0EB
:105170002046FFF751FEC8B96A1CF3D0FFF7DEFBEB
:10518000801BA84201D8002DECD123685B6913F085
:105190000403E7D12022236384F83D2084F83E30C5
:1051A000226C84F83C3042F020022264012070BD61
:1051B00070B504460D46164621684B6913F040034E
:1051C00001D0002011E04A69D2060FD56FF010021D
:1051D0004A612022236384F83D2084F83E30236C0A
:1051E0002364002384F83C30012070BDFFF7A6FB48
:1051F000801BA84201D8002DDED123685B6913F023
:105200004003D9D12022236384F83D2084F83E3026
:10521000236C1343E4E7000070B5044608B901208D
:1052200070BD90F83D3003F0FF021BB980F83C20C0
:10523000FDF778FA242384F83D3023681A6822F0B9
:1052400001021A601A6842F400421A601A6822F4D5
:1052500000421A6000F0A8FE3F4B65689D4294BF73
:105260003E4B3F4B98428CBF00230123002BD6D1ED
:105270002268394E51683B4BB0FBF3F321F03F01FC
:105280001943B542516088BF4FF49676116A88BFC2
:10529000734321F03F0184BF4FF47A76B3FBF6F3FA
:1052A00001330B431362D169431E2B4821F44F4154
:1052B000854221F0FF0132D86D0040F6FC70B3FB4F
:1052C000F5F30133034242D0C3F30B031943D16119
:1052D000D4E907301168034321F0C0010B43136088
:1052E0009168D4E9030321F40341034321F0FF0152
:1052F0000B439360D4E90530D168034321F0FF01EB
:105300000B43D360136843F0010313600020202394
:10531000206484F83D30206384F83E0080E7A06874
:1053200050B905EB4505B3FBF5F30133C3F30B03AC
:105330007BB143F40043C9E719206843B3FBF0F3A2
:105340000133C3F30B0323B143F44043BEE704230B
:10535000BCE70123BAE700BFA08601007F841E00DE
:10536000FF083D0040420F002DE9F74304469946EF
:105370000C9E0F469046FFF7E1FA94F83D30202B43
:10538000054603D0022003B0BDE8F08300903C49FD
:10539000192301222046FFF759FD0028F2D194F885
:1053A0003C30012BEED02068012384F83C300368A8
:1053B000D9075EBF036843F001030360036823F469
:1053C00000630360212384F83D30402384F83E309D
:1053D000002323640A9B6362BDF82C306385638DD0
:1053E0002385284BE3624246CDE900654B463946AA
:1053F0002046FFF7D7FD00282AD00120C3E7FFF79A
:10540000A7FD40B1236C042B01BF2268136843F44D
:1054100000731360F1E7636A27681A4612F8011BEC
:1054200039616262628D218D013A92B262857A6938
:10543000481E80B2520720850AD548B15A783A6191
:1054400002336362638D013B02399BB22185638520
:10545000238D2A4631462046002BD0D1FFF77EFE11
:105460000028CFD12268136843F40073136020230F
:1054700084F83D3084F83C0084F83E0083E700BFA8
:10548000020010000000FFFF2DE9F043044687B042
:105490009946109F0D469046FFF750FA94F83D301C
:1054A000202B064604D00225284607B0BDE8F0832D
:1054B00000907A49192301222046FFF7C7FC0028F3
:1054C000F1D194F83C30012BEDD02068012384F811
:1054D0003C300368DB075EBF036843F001030360F1
:1054E000036823F400630360222384F83D304023E3
:1054F00084F83E30002323640E9B6362BDF83C3089
:105500006385638D2385664BE3622946CDE900768A
:105510004B4642462046FFF79FFD054608B1012550
:10552000C2E7228D2368B2B902905A6902929A6941
:105530000292029A1A6842F400721A60DFF86481DB
:10554000238D002B2CD1202284F83D2084F83C3080
:1055500084F83E30A8E7012A0AD11A6822F4806252
:105560001A6003905A6903929A690392039AE1E7D9
:10557000022A0ED11A6822F480621A601A6842F474
:1055800000621A6004905A6904929B690493049B18
:10559000D4E705905A6905929B690593059BCDE771
:1055A000032B56D8012B15D1324639462046FFF73A
:1055B000FFFD0028B3D123681A69636A1A70636A11
:1055C00001336362238D013B2385638D013B9BB2D5
:1055D0006385B5E7022B00963B464FF0000241463B
:1055E000204619D1FFF732FC002898D123681A68A9
:1055F00042F400721A601A69636A1A70626A531C74
:105600006362238D013B2385638D013B9BB26385E0
:1056100023681B695370D2E7FFF718FC0246002885
:105620007FF47DAF2368196821F4806119601969DE
:10563000636A1970636A01336362238D013B2385BA
:10564000638D013B9BB26385414600963B462046F5
:10565000C8E7324639462046FFF7AAFD00287FF406
:105660005EAF23681A69636A1A70628D616A013AD3
:1056700092B24B1C628522686362238D5069013BA4
:105680009BB2400723857FF55BAF032B02BF1368F6
:1056900023F48063136013694B7090E702001000DD
:1056A0000000FFFF0400010010B590F83D30202BF2
:1056B000DCB216D1242380F83D3003681A6822F04A
:1056C00001021A605A6A22F010025A625A6A1143A1
:1056D00059621A6842F001021A6080F83D400020C9
:1056E00010BD0220FCE730B590F83D30202BDCB235
:1056F00016D10268242380F83D30136823F001039B
:105700001360556A4FF6F0732B400B439BB2536204
:10571000136843F00103136080F83D40002030BD62
:105720000220FCE70068D1F800C0D201843283185F
:105730002DE9F043C6685D684C68D1F8189005F40F
:1057400070455D60C5680CF10107C5F30B45C6F3F4
:105750000B4626443D4445EA06455D60C668CD6873
:10576000C6F30A062E449D6805F470459D60C7681F
:105770008D68C7F30A0701353D4445EA06459D603B
:105780001D690E6925F007051D614FF0000E1E61B1
:1057900091F832709D6991F83180C3F818E091F862
:1057A000305045EA096545EA082545EA07459D6107
:1057B0005D6925F0FF055D614D695D61DD6925F479
:1057C000E06525F00705DD61D1E907573D43DD615F
:1057D0009D6A4D6AC3F828E0072E9D629CBF0E4D5E
:1057E000AE5DDD6A05F0E025DD6288BF01268D6AC9
:1057F000C96AA4EB0C0474437543033444EA0544BA
:10580000DC621C6B6FF30A041C631963835843F05A
:1058100001038350BDE8F083FC41020838B504461B
:10582000002863D090F8A13003F0FF021BB980F884
:10583000A020FCF7D3FF022384F8A13023689A69E3
:1058400022F070429A61D4E901200243E06899692C
:105850000243206902430A439A619A6824496069B5
:105860000A409A609A6842EA0042A06902439A603C
:10587000DA68E0690A40DA60DA6842EA0042206ADF
:105880000243DA601A69606A0A401A611A6942EAD8
:105890000042A06A02431A615A690A405A615A6971
:1058A000E16A42EA0142216B0A435A61DA6A94F8DA
:1058B000350094F8361002F07F42DA62DD6A94F81F
:1058C00034202A4342EA002242EA0142DA625A6B59
:1058D00042F006025A639A6942F001029A6100207E
:1058E0000123C4F8A40084F8A13038BD0120FCE7EE
:1058F00000F800F070477047036870B59E6B5D6BF1
:105900007207044614D5690712D55A6B22F00402B7
:105910005A630422DA63D0F8A43043F00103C0F8DC
:10592000A430002380F8A12080F8A030FFF7E2FF28
:10593000B20716D5AB0714D523685A6B22F00202C2
:105940005A630222DA63D4F8A4301343C4F8A430B3
:10595000042384F8A130002384F8A0302046FFF708
:10596000C9FFF00710D5E9070ED523685A6B22F05E
:1059700001025A630122DA63002384F8A12084F82B
:10598000A0302046FCF708FB320711D52B070FD5B6
:1059900023685A6B22F008025A630822DA63012353
:1059A00084F8A130002384F8A0302046FFF7A3FF3D
:1059B00070BD2DE9F04190F8A030012B06460F464E
:1059C00094464FF002001FD04FF0010886F8A080E7
:1059D00086F8A10034240D4604FB02640FCD383450
:1059E0000FC40FCD0FC40FCD0FC42B6823603046FA
:1059F00062463946FFF796FE33680020C3F82480DC
:105A000086F8A18086F8A000BDE8F08190F8A0207B
:105A1000012A03464FF0020012D01A6883F8A10051
:105A2000506B20F00100506306480164516B41F057
:105A3000010151630020012283F8A12083F8A00016
:105A4000704700BF0068014037B500230193184B31
:105A5000184D1A6C42F080521A641B6C03F080538C
:105A60000193019B144B01221A64FEF767FF044661
:105A70006B68DA030BD5104B0E4D01225A64FEF70A
:105A80005DFF04466B689B030AD5002006E0FEF725
:105A900055FF001BB0F57A7FEAD9032003B030BD73
:105AA000FEF74CFF001BB0F57A7FEBD9F5E700BF9E
:105AB000003802400070004000000E422DE9F34122
:105AC000044640B30368DE0710D423689D075BD407
:105AD0002368190700F19D8023685A0700F1BD80F3
