:020000040800F2
:1000000000000320990F0008552C0008572C000809
:10001000592C00085B2C00085D2C00080000000033
:10002000000000000000000000000000217A00082D
:100030005F2C000800000000B17A00082D73000852
:10004000E90F0008E90F0008E90F0008E90F0008B0
:10005000E90F0008E90F0008E90F0008E90F0008A0
:10006000E90F0008E90F0008E90F0008E90F000890
:10007000E90F0008E90F0008E90F0008E90F000880
:10008000E90F0008E90F0008E90F0008E90F000870
:10009000E90F0008E90F0008E90F0008E90F000860
:1000A000E90F0008E90F0008E90F0008E90F000850
:1000B000E90F0008E90F0008E90F0008E90F000840
:1000C000E90F0008E90F0008E90F0008E90F000830
:1000D000E90F0008E90F0008E90F0008E90F000820
:1000E000E90F0008E90F0008E90F0008E90F000810
:1000F000E90F0008E90F0008E90F0008E90F000800
:10010000E90F0008E90F0008E90F0008E90F0008EF
:10011000E90F0008E90F0008612C0008E90F00084A
:10012000E90F0008E90F0008E90F0008E90F0008CF
:10013000E90F0008E90F0008E90F0008E90F0008BF
:10014000E90F0008E90F0008E90F0008E90F0008AF
:10015000E90F0008E90F0008E90F0008E90F00089F
:10016000E90F0008E90F0008E90F0008E90F00088F
:10017000E90F0008E90F0008E90F0008000000007F
:10018000E90F0008E90F0008E90F0008E90F00086F
:10019000E90F0008E90F0008E90F0008E90F00085F
:0C01A0006D2C0008E90F0008792C000805
:1001B00010B5054C237833B9044B13B10448AFF3A1
:1001C00000800123237010BD800300200000000088
:1001D000BC33020808B5034B1BB103490348AFF316
:1001E000008008BD0000000084030020BC3302082A
:1001F00001F0FF01102A2BDB10F0070F08D010F8D8
:10020000013B013A8B422DD010F0070F42B3F6D1DB
:10021000F0B441EA012141EA014122F007047FF0F4
:1002200000070023F0E80256083C85EA010586EA4B
:10023000010685FA47F5A3FA87F586FA47F6A5FA87
:1002400087F68EB9EED1F0BC01F0FF0102F0070293
:1002500032B110F8013B013A83EA010313B1F8D13E
:100260000020704701387047002D06BF354603381F
:10027000073815F0010F07D1013015F4807F02BF58
:10028000013015F4C03F0130F0BC0138704700BFA9
:1002900081F0004102E000BF83F0004330B54FEA37
:1002A00041044FEA430594EA050F08BF90EA020FA4
:1002B0001FBF54EA000C55EA020C7FEA645C7FEA37
:1002C000655C00F0E2804FEA5454D4EB5555B8BF5A
:1002D0006D420CDD2C4480EA020281EA030382EACB
:1002E000000083EA010180EA020281EA0303362D5D
:1002F00088BF30BD11F0004F4FEA01314FF4801C30
:100300004CEA113102D0404261EB410113F0004F41
:100310004FEA03334CEA133302D0524263EB4303F8
:1003200094EA050F00F0A780A4F10104D5F1200E96
:100330000DDB02FA0EFC22FA05F2801841F10001F1
:1003400003FA0EF2801843FA05F359410EE0A5F1C5
:1003500020050EF1200E012A03FA0EFC28BF4CF0F6
:10036000020C43FA05F3C01851EBE37101F00045AC
:1003700007D54FF0000EDCF1000C7EEB00006EEBB9
:100380000101B1F5801F1BD3B1F5001F0CD3490843
:100390005FEA30004FEA3C0C04F101044FEA44529A
:1003A00012F5800F80F09A80BCF1004F08BF5FEA21
:1003B000500C50F1000041EB045141EA050130BD01
:1003C0005FEA4C0C404141EB0101013C28BFB1F513
:1003D000801FE9D291F0000F04BF01460020B1FA5E
:1003E00081F308BF2033A3F10B03B3F120020CDA31
:1003F0000C3208DD02F1140CC2F10C0201FA0CF00F
:1004000021FA02F10CE002F11402D8BFC2F1200C73
:1004100001FA02F120FA0CFCDCBF41EA0C01904029
:10042000E41AA2BF01EB0451294330BD6FEA040472
:100430001F3C1CDA0C340EDC04F11404C4F120025D
:1004400020FA04F001FA02F340EA030021FA04F36F
:1004500045EA030130BDC4F10C04C4F1200220FAC6
:1004600002F001FA04F340EA0300294630BD21FA04
:1004700004F0294630BD94F0000F83F4801306BFCA
:1004800081F480110134013D4EE77FEA645C18BFBE
:100490007FEA655C29D094EA050F08BF90EA020F55
:1004A00005D054EA000C04BF1946104630BD91EA4D
:1004B000030F1EBF0021002030BD5FEA545C05D150
:1004C0004000494128BF41F0004130BD14F580048F
:1004D0003CBF01F5801130BD01F0004545F0FE4103
:1004E00041F470014FF0000030BD7FEA645C1ABF38
:1004F000194610467FEA655C1CBF0B46024650EA6F
:10050000013406BF52EA033591EA030F41F400219A
:1005100030BD00BF90F0000F04BF0021704730B520
:100520004FF4806404F132044FF000054FF00001F5
:1005300050E700BF90F0000F04BF0021704730B5B6
:100540004FF4806404F1320410F0004548BF40428B
:100550004FF000013EE700BF42004FEAE2014FEAE0
:1005600031014FEA02701FBF12F07F4393F07F4FBB
:1005700081F06051704732F07F4208BF704793F0BE
:100580007F4F04BF41F40021704730B54FF46074D1
:1005900001F0004521F000411CE700BF50EA0102D4
:1005A00008BF704730B54FF000050AE050EA01027D
:1005B00008BF704730B511F0004502D5404261EBED
:1005C00041014FF4806404F132045FEA915C3FF42E
:1005D000D8AE4FF003025FEADC0C18BF03325FEACB
:1005E000DC0C18BF033202EBDC02C2F1200300FA7C
:1005F00003FC20FA02F001FA03FE40EA0E0021FAA1
:1006000002F11444BDE600BF70B54FF0FF0C4CF48E
:10061000E06C1CEA11541DBF1CEA135594EA0C0F40
:1006200095EA0C0F00F0DEF82C4481EA030621EA7B
:100630004C5123EA4C5350EA013518BF52EA0335B6
:1006400041F4801143F4801338D0A0FB02CE4FF068
:100650000005E1FB02E506F00042E0FB03E54FF098
:100660000006E1FB03569CF0000F18BF4EF0010E90
:10067000A4F1FF04B6F5007F64F5407404D25FEA8C
:100680004E0E6D4146EB060642EAC62141EA55513F
:100690004FEAC52040EA5E504FEACE2EB4F1FD0C81
:1006A00088BFBCF5E06F1ED8BEF1004F08BF5FEAFF
:1006B000500E50F1000041EB045170BD06F00046B1
:1006C00046EA010140EA020081EA0301B4EB5C045E
:1006D000C2BFD4EB0C0541EA045170BD41F4801156
:1006E0004FF0000E013C00F3AB8014F1360FDEBF7B
:1006F000002001F0004170BDC4F10004203C35DA57
:100700000C341BDC04F11404C4F1200500FA05F3D9
:1007100020FA04F001FA05F240EA020001F000427A
:1007200021F0004110EBD37021FA04F642EB0601F0
:100730005EEA430E08BF20EAD37070BDC4F10C041A
:10074000C4F1200500FA04F320FA05F001FA04F2DE
:1007500040EA020001F0004110EBD37041F10001CA
:100760005EEA430E08BF20EAD37070BDC4F12005D5
:1007700000FA05F24EEA020E20FA04F301FA05F23D
:1007800043EA020321FA04F001F0004121FA04F2E5
:1007900020EA020000EBD3705EEA430E08BF20EAB5
:1007A000D37070BD94F0000F0FD101F000464000EF
:1007B00041EB010111F4801F08BF013CF7D041EA71
:1007C000060195F0000F18BF704703F00046520075
:1007D00043EB030313F4801F08BF013DF7D043EA46
:1007E0000603704794EA0C0F0CEA135518BF95EAFC
:1007F0000C0F0CD050EA410618BF52EA4306D1D183
:1008000081EA030101F000414FF0000070BD50EAA1
:10081000410606BF1046194652EA430619D094EA2B
:100820000C0F02D150EA013613D195EA0C0F05D115
:1008300052EA03361CBF104619460AD181EA030169
:1008400001F0004141F0FE4141F470014FF0000021
:1008500070BD41F0FE4141F4780170BD70B54FF0BC
:10086000FF0C4CF4E06C1CEA11541DBF1CEA13553C
:1008700094EA0C0F95EA0C0F00F0A7F8A4EB05041E
:1008800081EA030E52EA03354FEA013100F0888015
:100890004FEA03334FF0805545EA131343EA1263DE
:1008A0004FEA022245EA111545EA10654FEA002693
:1008B0000EF000419D4208BF964244F1FD0404F54C
:1008C000407402D25B084FEA3202B61A65EB0305A8
:1008D0005B084FEA32024FF480104FF4002CB6EB65
:1008E000020E75EB030E22BFB61A754640EA0C00E5
:1008F0005B084FEA3202B6EB020E75EB030E22BF25
:10090000B61A754640EA5C005B084FEA3202B6EB65
:10091000020E75EB030E22BFB61A754640EA9C0024
:100920005B084FEA3202B6EB020E75EB030E22BFF4
:10093000B61A754640EADC0055EA060E18D04FEAB2
:10094000051545EA16754FEA06164FEAC30343EA52
:1009500052734FEAC2025FEA1C1CC0D111F4801F1F
:100960000BD141EA00014FF000004FF0004CB6E718
:1009700011F4801F04BF01430020B4F1FD0C88BFB7
:10098000BCF5E06F3FF6AFAEB5EB030C04BFB6EBC2
:10099000020C5FEA500C50F1000041EB045170BDB5
:1009A0000EF0004E4EEA113114EB5C04C2BFD4EBE2
:1009B0000C0541EA045170BD41F480114FF0000E66
:1009C000013C90E645EA060E8DE60CEA135594EAE2
:1009D0000C0F08BF95EA0C0F3FF43BAF94EA0C0FE5
:1009E0000AD150EA01347FF434AF95EA0C0F7FF45A
:1009F00025AF104619462CE795EA0C0F06D152EAAE
:100A000003353FF4FDAE1046194622E750EA410691
:100A100018BF52EA43067FF4C5AE50EA41047FF4A2
:100A20000DAF52EA43057FF4EBAE12E74FF0FF3C07
:100A300006E000BF4FF0010C02E000BF4FF0010CD8
:100A40004DF804CD4FEA410C7FEA6C5C4FEA430C51
:100A500018BF7FEA6C5C1BD001B050EA410C0CBFA0
:100A600052EA430C91EA030F02BF90EA020F002002
:100A7000704710F1000F91EA030F58BF994208BF69
:100A800090422CBFD8176FEAE37040F00100704726
:100A90004FEA410C7FEA6C5C02D150EA013C07D17D
:100AA0004FEA430C7FEA6C5CD6D152EA033CD3D0C8
:100AB0005DF8040B704700BF8446104662468C46C2
:100AC0001946634600E000BF01B5FFF7B7FF0028F5
:100AD00048BF10F1000F01BD4DF808EDFFF7F4FF1E
:100AE0000CBF012000205DF808FB00BF4DF808EDA9
:100AF000FFF7EAFF34BF012000205DF808FB00BFCC
:100B00004DF808EDFFF7E0FF94BF012000205DF8ED
:100B100008FB00BF4DF808EDFFF7CEFF94BF0120A2
:100B200000205DF808FB00BF4DF808EDFFF7C4FF9B
:100B300034BF012000205DF808FB00BF4FEA410CE4
:100B40007FEA6C5C02D150EA013C0AD14FEA430CC7
:100B50007FEA6C5C02D152EA033C02D14FF0000004
:100B600070474FF0010070474FEA4102B2F1E04395
:100B700024BFB3F5001CDCF1FE5C0DD901F0004C84
:100B80004FEAC0024CEA5070B2F1004F40EB8300D4
:100B900008BF20F00100704711F0804F21D113F100
:100BA0003872BCBF01F00040704741F480114FEA39
:100BB0005252C2F11802C2F1200C10FA0CF320FAC2
:100BC00002F018BF40F001004FEAC1234FEAD323DF
:100BD00003FA0CFC40EA0C0023FA02F34FEA430349
:100BE000CCE77FEA625307D150EA01331EBF4FF0D2
:100BF000FE4040F44000704701F0004040F0FE40ED
:100C000040F40000704700BF7BB972B90029BEBF35
:100C100000204FF0004106E008BF00281CBF6FF025
:100C200000414FF0FF3000F0B5B9ADF1080C6DE9AF
:100C300004CE002909DB002B1ADB00F04DF8DDF8AB
:100C400004E0DDE9022304B07047404261EB41015A
:100C5000002B1BDB00F040F8DDF804E0DDE90223A7
:100C600004B0404261EB4101524263EB43037047E1
:100C7000524263EB430300F02FF8DDF804E0DDE9B6
:100C8000022304B0404261EB41017047524263EBE2
:100C9000430300F021F8DDF804E0DDE9022304B0AD
:100CA000524263EB4303704753B94AB9002908BF66
:100CB00000281CBF4FF0FF314FF0FF3000F06AB941
:100CC000ADF1080C6DE904CE00F006F8DDF804E0A3
:100CD000DDE9022304B070472DE9F047089D0C467A
:100CE000002B4ED194468C458646B2FA82F262D9E8
:100CF0004AB1C2F12003914020FA03F30CFA02FC3E
:100D0000194300FA02FE4FEA1C471FFA8CF6B1FBAA
:100D1000F7F44FEA1E4307FB141143EA014304FBB7
:100D200006F199420AD91CEB030304F1FF3080F06D
:100D30001281994240F20F81023C6344591A1FFA12
:100D40008EF3B1FBF7F007FB101143EA014300FB00
:100D500006F69E420AD91CEB030300F1FF3180F036
:100D6000FC809E4240F2F980634402389B1B40EABB
:100D7000044000211DB1D3400022C5E90032BDE886
:100D8000F0878B4205D90DB1C5E900010021084665
:100D9000F5E7B3FA83F1002946D1A34202D390428A
:100DA000C0F0F080861A64EB03030120002DE6D02A
:100DB000C5E90063E3E7002A40F09080A1EB0C0452
:100DC0004FEA1C481FFA8CF70121B4FBF8F64FEAF2
:100DD0001E4308FB164443EA044307FB06F098420F
:100DE00008D91CEB030306F1FF3402D2984200F24B
:100DF000CD8026461C1A1FFA8EF3B4FBF8F008FBD0
:100E0000104443EA044300FB07F79F4208D91CEB58
:100E1000030300F1FF3402D29F4200F2B08020466B
:100E2000DB1B40EA0640A5E7C1F120068B4022FA11
:100E300006F71F4320FA06FC04FA01F343EA0C0309
:100E4000F44000FA01F8380C4FEA1349B4FBF0FE05
:100E50001FFA87FC00FB1E4449EA04440EFB0CF910
:100E6000A14502FA01F20AD93C190EF1FF3A80F0CD
:100E70008480A14540F28180AEF1020E3C44A4EB97
:100E800009041FFA83F9B4FBF0F300FB134449EAA9
:100E9000044403FB0CFCA44507D93C1903F1FF30C3
:100EA00067D2A44565D9023B3C4443EA0E40A0FB0F
:100EB0000293A4EB0C049C42CE469C4651D34ED0E8
:100EC00055B1B8EB0E0364EB0C0404FA06F6CB4004
:100ED0001E43CC40C5E90064002150E7C2F1200365
:100EE00020FA03F10CFA02FC24FA03F394400C43B9
:100EF0004FEA1C4800FA02FE1FFA8CF7B3FBF8F029
:100F000008FB1031230C43EA014300FB07F199422F
:100F100008D91CEB030300F1FF362CD299422AD9E1
:100F2000023863445B1AA4B2B3FBF8F108FB113337
:100F300044EA034401FB07F3A34208D91CEB040471
:100F400001F1FF3613D2A34211D902396444E41AE5
:100F500041EA004139E70446F0E6084606E7C8459D
:100F6000AED2B9EB020E63EB070C0138A8E73146AD
:100F7000EDE7034699E73046D4E7D6467FE763447A
:100F800002384DE70646234608460FE7023E634413
:100F900030E700BF704700BFDFF834D0002103E026
:100FA0000C4B5B58435004310B480C4B42189A428F
:100FB000F6D30B4A02E0002342F8043B094B9A4265
:100FC000F9D303F0F9FC21F089FC01F095F87047A2
:100FD0000000032030741308000000207801002076
:100FE0008003002048460120FEE7704708B500F066
:100FF000BBFDBDE8084000F03DBD00F0B7BD704747
:1010000010B50421044620F048F9204610BD000028
:1010100038B50C4B0C4C18800C4B8220198063683F
:10102000984740F6110398420AD1094D23682C6075
:10103000822098472B688220DB689847002038BDC3
:101040000120FCE7A60300204C000020A4030020A0
:10105000A80300204FF4A071F020FFF7D9BF0000D3
:10106000F7B5374D2B6804461B69822098472080CE
:1010700000284ED02B680DF106025B6901A9822081
:101080009847304B1B78002B4BD0BDF8063040F60C
:10109000746293423FD9ADF80620BDF80630D21AEB
:1010A00092B20A2A42D90B23B2FBF3F2264B1B88D9
:1010B0009A4201D9013B9AB2BDF8043040F6B831EA
:1010C0008B4235D8C3F571630E339BB20F21B3FB4E
:1010D000F1F31E4909888B4201D901398BB21C4EAC
:1010E0001C4D30682F68834281B28CBF591AC91ACF
:1010F000B8B2BA428CBF101A801A89B280B20144C9
:101100000529C8BF33603368C8BF2A6063802B6875
:10111000A38003B0F0BDB32B9CBFB423ADF8063061
:10112000BBE7BDF80620A2F5B472B9E70022C3E719
:10113000C3F56D6308339BB20E2BC7D80023CEE7EF
:10114000A80300202C280020A4030020A6030020D0
:10115000A00300209C03002037B568460D461446C6
:10116000FFF77EFFBDF8000030B1BDF802302B6004
:10117000BDF804302360012003B030BD032821D81E
:10118000DFE800F0020B12190F4B1A68B2FA82F274
:10119000520904210D4804F0BDB80B4B5A68B2FA4D
:1011A00082F252090821F5E7074B9A68B2FA82F2F7
:1011B00052091021EEE7044BDA68B2FA82F25209C2
:1011C0002021E7E7704700BFAC0300200010024079
:1011D000032821D8DFE800F0020B12190F4B1A6820
:1011E000003A18BF012204210D4804F093B80B4BBC
:1011F0005A68003A18BF01220821F5E7074B9A68A0
:10120000003A18BF01221021EEE7044BDA68003AD9
:1012100018BF01222021E7E7704700BFAC03002080
:101220000010024003280DD8DFE800F00206080A8B
:101230000421054804F073B80821FAE71021F8E703
:101240002021F6E7704700BF0010024008B50328D0
:1012500011D8DFE800F0020A0C0E0421074804F060
:1012600053F8431E5842584108BD0821F6E71021A3
:10127000F4E72021F2E70020F3E700BF001002406E
:1012800070B5084D00240126E0B2FFF7DFFF18B16A
:101290002B68012B18BF2E600134052C05F10405C5
:1012A000F2D170BDAC030020012380F8781080F8E3
:1012B000793070477047002070470000034B41644D
:1012C000003918BF01211970704700BF073901208C
:1012D000704700207047836B0BB108461847704772
:1012E0004FF6FF707047406803689B691847704766
:1012F000704770477047704710B5044600F04CFDCA
:1013000023680349D3F890302046BDE810401847C1
:10131000000000D008B503680446D3F8843098472D
:1013200023682046DB6F984700F0ECF823682046DE
:101330005B6F9847292001F0ADF900F0E3F82368CE
:1013400020465B6F9847F8E710B5044609F068F946
:1013500023682046D3F8BC30BDE81040184700F0A1
:10136000FDBC00F001BD00F035BD00F0D3BC00F0C5
:1013700045BD00F04DBD00F0D7BC08F07FBB10B5F7
:10138000842104461FF089FF204610BD10B590F857
:10139000341090F878400C4B8C421A7809D03AB946
:1013A0000A4A0B491488088810800C8001221A70A0
:1013B00010BD002AFCD0054A054914880888108011
:1013C0000C800022F3E700BF00390120FC38012027
:1013D000FE38012070B50D46194635B9094B0A4A49
:1013E0000A4840F2FF2120F0C9FFC0E90F52084B24
:1013F000003A18BF01221A700368BDE87040D3F8A4
:10140000903018478C340208C434020812350208A0
:101410000639012008B5094B1B888B4203D8084BBD
:101420001B88934205D9074B074A0848A32120F09F
:10143000A5FF074B1980074B1A8008BDFC38012017
:10144000FE38012057350208BA3502081235020865
:101450000239012004390120034690F87A0018B1BE
:10146000586803681B68184770470000012108B5D9
:101470000022084605F0F1FF0A4B186028B90A4B14
:101480000A4A28210A4820F079FF0022042101207D
:1014900006F082F8074B186018B9074B034A2C2155
:1014A000F0E708BDC0030020EC360208353702081B
:1014B00064370208BC030020A0370208024B4FF03B
:1014C000FF31186806F013B8C0030020014B1868FC
:1014D00006F039B8C0030020024B0021186806F05E
:1014E00006B800BFC0030020FFF7F0BF034804495F
:1014F000006800231A4606F08AB800BFBC0300202B
:101500000400002013B5084C00231A4601A92068E6
:1015100006F0AEF820684FF0FF33002201A906F074
:10152000A7F802B010BD00BFBC03002003685B6CCD
:1015300018470120704703689B6A1847FEE740F28E
:10154000EF307047054B0360054B4FF08062C3F8E6
:101550008820BFF34F8FBFF36F8F70472C3902087D
:1015600000E100E010B504464FF45A61FFF7EAFFCE
:1015700020461FF092FE204610BD000082B00023DE
:1015800001930E4B1A6B42F400021A631A6B02F4B9
:1015900000020192019A1A6942F400021A611A6962
:1015A00022F400021A61064B064A1A61064A5A6181
:1015B000064B4FF080629A6002B0704700380240DC
:1015C0005C2A00201D1800083D15000800E100E01D
:1015D00008B50A2809D8DFE800F006100E08080848
:1015E000081010101000022008BD054B054A0648DF
:1015F000902120F0C3FE0020F6E70120F4E700BFB1
:10160000E2370208FD3702084838020838B50C46B0
:10161000887FFFF7DDFFA58AE28A164B21695863B0
:1016200042EA05425A64628BD963521B1A642568E8
:10163000082D0ED19A611A615862207F0E4A42EA43
:101640000062DA61E2681A620C4A5961D9601A6074
:1016500038BD0022D8611A61E1680A0A480902F41B
:10166000784200F4FC600243C1F3C4010A439A6368
:10167000034AECE700B00240090001000123020028
:101680000123030008B50B280BD8DFE800F0061291
:10169000100A0A0A0A0808080808022008BD0520DE
:1016A000FCE7054B054A06486F2120F067FE002045
:1016B000F4E70120F2E700BFE237020882380208AF
:1016C000483802082DE9F04191F81D800C4640464B
:1016D000FFF7D8FFA77F05463846FFF7D3FF06463A
:1016E0003846FFF775FFA18A628B444B521A1A6481
:1016F0009A61228B521A1A61E28A586342EA0142C5
:101700005A6421696268D963DA602068802828D029
:10171000227F0FD8202867D0402865D004281AD00F
:10172000364B45EA026545F40035B845DD6161D0C8
:10173000334A44E0B0F5807F04D0B0F5007FEFD1AC
:10174000304800E0304840EA0262DA61E2681A623A
:101750005E62596132E045EA026242F40032DA61C7
:10176000F6E7A068021DDA62227F45EA026545F4C9
:101770000035DD615E625961017841B1012921D0F6
:10178000224B234A23484FF48D7120F0F7FDDA698C
:10179000418822F47F42013922F0100242EA0122FC
:1017A000DA610121154BDA6942F02002DA61DA6967
:1017B0009206FCD410229A600029B9D0164A1A6009
:1017C000BDE8F081B2F1FF01DA69408822F47F427E
:1017D00000F1FF3022F0100242EA002242F0100233
:1017E00018BF0121DA61DDE745EA0262034B42F4EA
:1017F0000032B4E742F20132E1E700BF00B002403C
:1018000001230100090002000A000200CC3802088E
:10181000E63802084838020801230200024B1B6820
:10182000586803685B6918470839012070B5044699
:1018300025460A4B0C30002660602672667245F819
:10184000203B6022294609F041F804F55A63EE6016
:1018500024359D42FBD1204670BD00BF2C390208C3
:10186000034B1A68D207FCD423229A60704700BF4A
:1018700000B002407047000030B50F4C2568ED07FE
:10188000FCD423250904A56041F001010225FF2BAA
:1018900065636164E0630AD00849656241EA0363F5
:1018A000E361074B22626061E060236030BDE56167
:1018B000039BA363034BF8E700B00240090001005B
:1018C000010002000100030030B50E4C2568ED0751
:1018D000FCD423251204A56042F001020225FF2B4F
:1018E00065636264E063E16008D01B0643F00213A5
:1018F000E361054B65626061236030BD034BE361CA
:101900000123F9E700B0024001000200020002FFDB
:1019100030B50B4C2568ED07FCD4232512041B06BB
:10192000A56043F40033022542F00102656362645E
:10193000E063E160E361034B65626061236030BD99
:1019400000B0024001000200012070470C207047E7
:101950000C2303FB0100083070470C2303FB01003C
:1019600008307047012070474FF4995070474FF48A
:10197000995303FB0100083070474FF4995303FB60
:10198000010008307047012070471020704700EBBD
:1019900001100830704700EB01100830704708460E
:1019A00001F068BB10B5034B0360044607F0BDFDB2
:1019B000204610BDE439020810B50446FFF7F2FFD7
:1019C000204614211FF069FC204610BD10B5034BC2
:1019D0000360044607F0A9FD204610BDB039020897
:1019E00010B50446FFF7F2FF204641F228311FF000
:1019F00054FC204610BD000010B5034B03600446A4
:101A000007F093FD204610BD7C39020810B504464E
:101A1000FFF7F2FF204618211FF03FFC204610BDC3
:101A200010B5094B0360044600F59A501430FFF7D7
:101A3000B9FF04F12C00FFF7C9FF04F11400FFF710
:101A4000DBFF204610BD00BF183A020808B5024867
:101A5000FFF7E6FF08BD00BF9C12002010B504464A
:101A6000FFF7DEFF204641F2C8411FF016FC20467A
:101A700010BD00002DE9F34101F072F9054601F0B7
:101A800073F900240146234628462246009410F0AC
:101A900071FB284B284A1A60204601F075FF274D3C
:101AA000274B284A28489A6010F0CCFA2B68BFF3DD
:101AB0005B8FDB0737D428461FF0F1FB98B3234C2C
:101AC000234B236004F1140000F59A5707F1180620
:101AD00004F12C086060C4F80880E760266107F014
:101AE00025FD1C4B6361404607F020FD1A4BE36265
:101AF000384607F01BFD04F5805303F55A70174A6A
:101B0000C3F8542301F0C4FF224607F11401304604
:101B100001F0B4FF304601F0ADFA114820F04CFC62
:101B200028461FF0C8FB0F4802B0BDE8F041FFF7A0
:101B3000E3BB00BF6C39012048040020981200204C
:101B4000680400204C040020080000209C120020A3
:101B5000183A02087C390208B0390208E439020850
:101B60004D1A0008C4030020704700000148FFF729
:101B7000D1BB00BFC403002070B5264E264C274DB4
:101B8000274B23603046FFF751FE284615F0F8FB3F
:101B900024480EF095FB244B2448DC6000224FF4CF
:101BA0008071C3E9121222491A86C3E91A12214927
:101BB00083F85820C3E91E011F49C3F880101F494C
:101BC0001F480B60F021C3E90422C3E90622C3E9E0
:101BD0000822C3E90A22C3E90E22C3E91022C3E99D
:101BE0001422C3E917225A6683F870205A67C3E9A2
:101BF000016501801348018013484FF4A0710180F2
:101C00001248018012490A70012283F83420114AD7
:101C10001A6070BDF40400209412002068040020B3
:101C20007C3402084C040020C403002000000101A1
:101C300001000001000450001A00140008390120BE
:101C4000FC38012002390120FE380120043901202E
:101C500000390120083602080148FFF773BC00BFB5
:101C6000F40400200020704781807047C1807047D5
:101C700001817047418170477047704770477047D6
:101C8000704710B4C4880368121B84885B6D091BFD
:101C900012B25DF8044B09B218474FF6FF73838107
:101CA0004FF0FF3303621368C36110607047002078
:101CB00070478B88838001207047704780F826101A
:101CC000704790F82600704710B50022B1F908401F
:101CD000B1F90A10028042808480C18010BD0022C8
:101CE000028042808280C28070470177704780ED19
:101CF000080A704780F82410704780F82510704754
:101D000001207047983070478C307047843070479E
:101D100070470000034B902283F85A2383F858231E
:101D2000704700BF00E100E0094A0A49D3680A4849
:101D3000C3F30A03013B9BB20B801169C1F30A0193
:101D4000013901801364536B43F0010353637047FF
:101D5000006801406627002064270020014BD3F86B
:101D6000AC00704700680140024B0122C3F8AC1080
:101D70005A627047006801407047704710B52C21C7
:101D800004461FF08AFA204610BD10B5BC21044657
:101D90001FF083FA204610BD70B5044607F0C3FE5D
:101DA00023689D6E0DF024F801462046A84723685D
:101DB000054AD3F88C502046AC460023BDE870405D
:101DC000A2F51631604700BF00B004D007F092BE04
:101DD00007F09CBE07F058BE07F0C7BF90F825205B
:101DE00012B103685B691847704790F825201AB153
:101DF00090F8242002B1186070470000034B4FF0A8
:101E000080629A604FF080729A60704700E100E053
:101E1000084B4FF08062C3F88820BFF34F8FBFF3A9
:101E20006F8F4FF08072C3F88820BFF34F8FBFF3DE
:101E30006F8F704700E100E070B50023124E838081
:101E4000124B0360336893F8582005460AB1D86CEA
:101E500000B998680368DB6A98473368B0FA80F481
:101E6000D86C640930B10368DB6A9847002808BF62
:101E700044F001042CB9064B064A07482C2120F0F7
:101E80007DFA284670BD00BF08390120283B0208B2
:101E9000243A0208823A0208BB3A020870B5254E7D
:101EA0003568BFF35B8F15F0010540D130461FF058
:101EB000F6F900283BD0204C204B256104F134007A
:101EC000C4E90035C4E90255E584A562A5850EF094
:101ED000DCFC04F158000AF0AFF9194BA365204669
:101EE000184B40F8843BFFF7A7FF174BC4F884302A
:101EF0002433C4F88C304FF4C803C4E928350023D8
:101F0000C4F8AC30C4F8B030C4F8B430C4F8B83059
:101F10000E480F4BC4F89050C4F89C50C4F8A85019
:101F2000C4F8983020F048FA30461FF0C4F902484F
:101F300070BD00BF682700206C270020A44802085D
:101F4000483B0208C03B020858480208111D00081F
:101F50003848020838B5184C23685BB3174B184A49
:101F60001B6C11888B4216D1164B198803F0E4FFC5
:101F7000236893F86A200025013283F86A2083F8E9
:101F80007C50FFF7B3FA206808F04AFB2846BDE80A
:101F90003840FFF7F3B803F0CFFF246823682046EA
:101FA0001B6A9847012384F87C300020BDE8384044
:101FB000FFF70EB938BD00BF0839012000680140A5
:101FC000662700206427002007B5064BADF8060001
:101FD0001B68054801220DF1060104F04DFD03B018
:101FE0005DF804FB0C0000200829002008B56420DF
:101FF00005F027FAFBE7000080B5124D124C134F95
:10200000134E284602F0CEFD204602F0CBFD012102
:10201000284602F045FE0121204602F041FE0D4B0C
:102020003A881A800C4B32881A80284602F08BFEC0
:102030003880204602F087FE3080642005F001FAE7
:10204000DDE700BF8C280020442800204228002023
:10205000402800203E2800203C28002030B595B0C4
:10206000102200210AA820F090FB1422002103A8CE
:1020700020F08BFB00241E4B01941A6C42F080521E
:102080001A641B6C03F080530193019B194B02945B
:102090001A6842F440421A601B6803F440430293FA
:1020A0000122029B4FF48033CDE9082302254FF42F
:1020B00080030821CDE90E534FF4B473CDE910131A
:1020C00008A804231393129503F08EFF03F052FF28
:1020D0000F23CDE903354FF4A0504FF48053CDE9E1
:1020E0000603052103A8059404F05AF915B030BD84
:1020F00000380240007000402DE980489BB002F09B
:1021000069FCFFF7ABFF142200210DA820F03DFB76
:102110000024C74B00941A6BC648C74D42F010020A
:102120001A631A6B02F010020092009A01941A6B63
:1021300042F020021A631A6B02F020020192019A07
:1021400002941A6B42F080021A631A6B02F080024A
:102150000292029A03941A6B42F004021A631A6BF9
:1021600002F004020392039A04941A6B42F00102F3
:102170001A631A6B02F001020492049A05941A6B16
:1021800042F002021A631A6B02F002020592059AEB
:1021900006941A6B42F040021A631A6B02F0400276
:1021A0000692069A07941A6B42F008021A631B6B98
:1021B00003F00803224607933C21079B03F0AAF88B
:1021C0009E480122022103F0A5F822469B480421E3
:1021D00003F0A0F822469A484FF4405103F09AF8D1
:1021E00001263C23CDE90D3692480F9403230DA917
:1021F0000227109302F0A4FF90480DA9CDE90D76B7
:10220000CDE90F4402F09CFF04238C480DA9CDE9D1
:102210000D36CDE90F4702F093FF0DA94FF440535F
:102220008748CDE90D36CDE90F4702F089FF854893
:10223000854B036002F078FE8448854B2C62C5E92B
:1022400000034FF480432846C5E90434C5E902443D
:10225000C5E9064403F06CFA1021284603F0B0FCEF
:102260002146284603F0CBFC7A4DDFF808C2AC6269
:102270004FF48273C5E900C34FF4007E1823C5E90B
:1022800006E328460A23C5E90244C5E90444C5E932
:102290000844EB6204F094FB8F23224639466748DA
:1022A0008DF824308DF8344003F034F832464FF482
:1022B0007A7309A9284604F0DFFB4FF47A7332469B
:1022C0000DA9284604F084FD324639465B48624D2C
:1022D00003F020F89DF83430D32B04BF5F4B1E7001
:1022E0005F4B0126C5E900364FF01008402300245B
:1022F000C5E904834FF4C073C5E906344FF40063A5
:10230000C5E908344FF4005302274FF0040AAB62CA
:102310004FF0030B07230DA92846CDE90D73CDE936
:102320000FA34FF00809C5E9024ACDE911B7139789
:1023300004F02AFA4FF6FF7209A92846CDE90A9659
:10234000089409960C9404F03FFA304602F06EFBB4
:102350004FF6FF7209A92846CDE90979CDE90B644A
:1023600004F032FA4FF6FF7209A92846CDE909B9FF
:10237000CDE90BA404F028FA4FF40C730893089BE2
:102380000C934FF6FF7209A92846CDE909A90B96CF
:1023900004F01AFA40F26A51284604F033FA342263
:1023A00021460DEB020020F0F0F92E4D2E4B2C6152
:1023B000C5E900340923C5E905361D23C5E9073BF6
:1023C00040F20D1240F24313C5E9092340F2171100
:1023D00040F247132846C5E90B13C5E90244AC8611
:1023E00085F8364003F0B0FCFF21F022CDE912144D
:1023F0004FF005094FF480614FF4A073CDE90E242E
:10240000CDE91419CDE916420DA922462846CDE999
:102410001037164D18930D94ADF864408DF8664052
:1024200003F05DFD124B2B601B6898472B6823E07F
:102430000038024000100240082A00200008024034
:10244000000C02409C2A002000300240005C00404A
:10245000A086010008290020D42800202C28002074
:10246000400100A0602900200068014028280020C9
:1024700014000020005001403A4DDB6898473A4B69
:102480002846C5E90034C5E90274C5E90A47C5E92B
:102490000C4402F059FD3146284602F00DFE334D42
:1024A000334FFEF7A3FD424621460DA820F06DF9FB
:1024B000304B2C614FF0007A2846C5E90034C5F84E
:1024C00008A02C7685F82040EC62AF62EC60EE61EB
:1024D00085F830406E6102F0BFFA0D230DA9284641
:1024E000CDE90D36244D0F9402F030FC42462146D2
:1024F0000DA820F04AF9214BC5F808A02846C5E9E7
:102500000034C5E90A742C612C7685F82040EC6013
:10251000EE6185F830406E6102F09EFA0DA9284602
:10252000CDE90D960F9402F011FCFEF75EFD04F06C
:102530000BFF134A1348214604F03CFF124B134A89
:1025400018602146124804F035FF124B124A1860F9
:102550002146124804F02EFF114B186004F006FFCC
:10256000FEE700BF5C2A002000B002408C2800205B
:102570000100000F002001404428002000210140FC
:10258000703C0208ED1F0008382800204C3C02086F
:10259000FB0F000834280020283C0208F91F00081F
:1025A00030280020704770477FB5094B8DF8172001
:1025B0001B6802930DF117020123009201930A4652
:1025C0000146044803F05CF907B05DF804FB00BF66
:1025D00010000020082A00207FB500238DF8173056
:1025E000084B1B6802930A4601230DF11701009165
:1025F00001930146044803F0D3F99DF8170007B092
:102600005DF804FB10000020082A00201FB5084CCC
:1026100024680092CDE901340A46012301460548A9
:1026200003F0BEF9003818BF012004B010BD00BF90
:1026300010000020082A002002F0F8B910B5064C5E
:1026400000222046042102F065FE20460122BDE85A
:102650001040042102F05EBE0008024038B50B4D68
:10266000044601220A484FF4005102F053FE0022B2
:102670000421284602F04EFE2046FFF7A5FC28461E
:102680000122BDE83840042102F044BE00080240A7
:10269000000C024038B50B4D044600220A484FF4A6
:1026A000005102F037FE00220421284602F032FEDB
:1026B0002046FFF789FC28460122BDE83840042166
:1026C00002F028BE00080240000C0240F7B5144E8C
:1026D000144F05460C4630460022042102F01AFE33
:1026E00000224FF40051384602F014FE2846FFF74E
:1026F0006BFC0D4B0D481B68224601A904F068FBDA
:10270000384601224FF40051019C02F003FE30468E
:102710000122042102F0FEFD204603B0F0BD00BFFF
:1027200000080240000C02400C0000200829002094
:1027300002F07CB90268034B9A4201D102F064B9FD
:10274000704700BF001000407047000082B00E4B81
:1027500000220092596C41F480415964596C01F493
:102760008041009100990192196C41F080511964E7
:102770001B6C03F080530193019B0F216FF001004C
:1027800002B002F091BB00BF003802400268094B62
:102790009A4282B00BD100230193074B1A6B42F48B
:1027A00080521A631B6B03F480530193019B02B0A8
:1027B000704700BF003002400038024007B50F4BA1
:1027C00002689A4216D10022A3F5F0430192196BD8
:1027D00041F4000119631B6B03F40003019305210D
:1027E0005A20019B02F060FB5A2003B05DF804EB15
:1027F00002F08CBB03B05DF804FB00BF00B00240E8
:102800002DE9F043044689B01422002103A81FF0EB
:10281000BCFF2268244B9A4243D1244C2448002513
:102820000095236B43F004032363236B03F004033D
:102830000093009B0195236B43F001032363236BFB
:1028400003F001030193019B4FF012094FF4007351
:102850004FF001080327042603A9CDE90339CDE988
:102860000587079602F06CFC4FF4807311480796B9
:1028700003A9CDE90339CDE9058702F061FC029592
:10288000236C43F400032364236C03F400030293DA
:10289000029B236A43F400032362236A23F40003A8
:1028A000236209B0BDE8F083005C004000380240BC
:1028B0000008024000000240F0B599B0044614221E
:1028C000002107A81FF061FF30220DEB020000215C
:1028D0001FF05BFF22685E4B9A4240F0B7800823EE
:1028E0000C93C0231093042312930CA84FF40033CD
:1028F000159303F01DFE08B1FFF726FF554B564810
:10290000002400945A6C42F080625A645A6C02F0BF
:1029100080620092009A01941A6B42F020021A63BE
:102920001A6B02F020020192019A02941A6B42F093
:1029300001021A631A6B02F001020292029A0394D6
:102940001A6B42F002021A631A6B02F0020203923F
:10295000039A04941A6B42F040021A631A6B02F055
:1029600040020492049A05941A6B42F004021A631E
:102970001A6B02F004020592059A06941A6B42F053
:1029800008021A631B6B03F00803069302250E2648
:10299000069B0B964FF4806307A9CDE90735CDE977
:1029A000094502F0CDFB41F658032C480B9607A9C8
:1029B000CDE907350927CDE9094502F0C1FB03231D
:1029C00027480B9707A9CDE90735CDE9094502F05E
:1029D000B7FB4FF4706322480B9607A9CDE9073582
:1029E000CDE9094502F0ACFB4FF40C631D480B9692
:1029F00007A9CDE90735CDE9094502F0A1FBC023C0
:102A000019480B9607A9CDE90735CDE9094502F02C
:102A100097FB082315480B9607A9CDE90735CDE9A3
:102A2000094502F08DFB4FF4A0530E480B9707A900
:102A3000CDE90735CDE9094502F082FB5820224651
:102A4000052102F031FA582002F060FA19B0F0BD09
:102A500000680140003802400014024000000240BB
:102A6000000402400018024000080240000C02402E
:102A700010B5044688B01422002103A81FF085FE7B
:102A80002268144B9A4223D103F568430021019137
:102A90005A6C114842F480125A645A6C02F4801243
:102AA0000192019A02911A6B42F020021A631B6B89
:102AB00003F020030293029B4FF460720223032170
:102AC000CDE903230523CDE9061303A902F038FB62
:102AD00008B010BD00500140001402402DE9F04143
:102AE00086B0002303932B4B1C68002C4FD14FF072
:102AF0000108C3F80080284B00949A6B274842EAEB
:102B000008029A639B6B03EA0803009302270326DB
:102B10000C25009B01A94FF63F03CDE90137CDE914
:102B2000046502F00DFB1E48059501A9CDE901875A
:102B3000CDE9034602F004FB48F23313194805952A
:102B400001A9CDE90137CDE9034602F0F9FA4FF6C4
:102B500083731548059501A9CDE90137CDE90346F1
:102B600002F0EEFA4CF203731048059501A9CDE985
:102B70000137CDE9034602F0E3FA60230C480595DE
:102B800001A9CDE90137CDE9034602F0D9FA06B033
:102B9000BDE8F081A42A0020003802400014024061
:102BA000000802400018024000100240000C0240E1
:102BB0000004024070B588B000230293204B1A6CC9
:102BC00042F010021A641B6C03F0100302930546D6
:102BD00001A903A8029B03F08DFC069B4BBB03F0ED
:102BE00079FC184E184B336040F2E733F360174B13
:102BF000B0FBF3F3013B7360304600233361B360F5
:102C0000B36104F0C9FA044680B9304604F086F98D
:102C1000044658B9362002F079F90F2D0DD8224616
:102C20002946362002F040F9094B1D60204608B0C5
:102C300070BD03F04FFC4000D3E70124F6E700BF6E
:102C400000380240A82A00200010004040420F0037
:102C50007C0000207047FEE7FEE7FEE7FEE77047D6
:102C6000014804F099B900BFA82A0020014803F0E8
:102C7000D9B800BF60290020014802F093B900BF15
:102C80005C2A00200120704708B51FF021FE1623A2
:102C900003604FF0FF3008BD08B51FF019FE162382
:102CA0000360FEE770B50D4614460E46731B9C424A
:102CB00001DC204670BDAFF3008006F8010BF5E79C
:102CC00070B50D4614460E46731B9C4201DC20462F
:102CD00070BD16F8010BAFF30080F5E74FF0FF3041
:102CE00070474FF400534B6000207047012070473D
:102CF000002070470A4A116808B5034609B9094916
:102D000011601068694603448B4206D91FF0E0FD4C
:102D10000C2303604FF0FF3008BD1360FCE700BFD9
:102D2000F02A002048460120704710B504210446CF
:102D30001EF0B3FA204610BD012908B506D00229BD
:102D400008D059B900F06CFE006808BD00F068FEBC
:102D50004068FAE700F064FE8068F6E70020F4E7D8
:102D600000487047A83C02080C20704713B50024A7
:102D700051B1036801948DF8034001AA9C680DF1DC
:102D80000303A04702B010BD0846FBE7C0897047A7
:102D9000008A7047C088704780887047807A00F04A
:102DA0007F007047807AC00970470020704700009C
:102DB0009FED010A704700BF00000000704710B58A
:102DC000082104461EF069FA204610BD704770477E
:102DD00000F598730868496803C3704770477047E7
:102DE0004160704770470000064BC0F84C3100232B
:102DF000C0F8503100F5A273C0F84801C0F8403166
:102E0000704700BFA92E0008012303727047704766
:102E1000704710B4C26841685410034601EB620069
:102E2000D20748BF0A599B685DF8044B48BFD35886
:102E300018470346406830B19A681AB9D86800F05C
:102E4000010070470120704710B50C2104461EF0A8
:102E500024FA204610BD10B5102104461EF01DFABC
:102E6000204610BD10B54FF4AE7104461EF015FAA1
:102E7000204610BD10B50BF0BBFF0368BDE8104045
:102E8000DB6B184710B50446D0F8400158B1036811
:102E9000DB68984738B1D4F8400103689B689847CD
:102EA0000023C4F8403110BD2DE9F14FD0E9556A37
:102EB0000746B06803681B6A9847B0F5995F05D26A
:102EC000444B454AA32145481FF058FA70680368EF
:102ED0001B6A98470F2803D8414B3F4AA421F2E7C9
:102EE000F06803681B6A98470B2803D83D4B3A4AA1
:102EF000A521E8E70BF07CFFDFF8F09004300BF041
:102F00009CFFD9F8000010B10368DB689847D9F836
:102F1000000010B103681B689847DFF8D480D8F828
:102F2000000010B103685B699847D7F83C0110B105
:102F300003685B689847D8F8000010B103681B6805
:102F40009847D7F83C0110B103689B689847F06830
:102F5000036800215B6A98474FF0000B224BC0F8D2
:102F600004B0044680F808B00360B06803685946AE
:102F70005B6A9847054600F0CBFD706803685946C8
:102F80005B6A98472946064600F094FD331DC7F852
:102F90003C61C9F80040C8F80050CAF800302B68FE
:102FA000C6F808A02846DB68EE63984733683046C9
:102FB0001B689847214628460EF0CAF82368204629
:102FC0001B69984723685B69204601B0BDE8F04F54
:102FD000184700BFA83D0208363E0208083F020815
:102FE0004F3F0208F23F02080C410208503901200D
:102FF0004C390120044B1B6893F858200AB1D86C57
:1030000000B99868704700BF08390120F8B5174625
:1030100004460E460BF0AEFF124B1C60124B2360B1
:10302000124B0025C4E95135114BC4E953551868BA
:10303000036801219B68C4E94F55C4E95576984758
:10304000284600F0A1FCFFF7D5FF16F042F8FFF785
:10305000D1FF16F0B9F8FFF7CDFF16F0C1F8204602
:10306000F8BD00BF5C390120B8400208A04002084A
:1030700008390120064BC0F84C310023C0F850310C
:1030800000F5A273C0F84801C0F84031704700BF96
:10309000A92E0008406A7047806A704770478A8886
:1030A0000B8810B5D20A4C88C1699BB251F8220036
:1030B00043EA0443184410BD10B50446BAB1107B6E
:1030C00068B1537BD27A1B0203F4E0631A43236A8C
:1030D00003EB82031A888A4202D193F9020010BDE1
:1030E00005D8013880B204330028F3D1F7E7002077
:1030F000F5E710B52C2104461EF0CFF8204610BD90
:1031000030B58BB00446BDF860500895BDF85C50F2
:1031100007959DF8505006959DF84C5005959DF8E3
:10312000485004959DF8445003959DF840500295F1
:103130009DF83C500195BDF8385000950DF062FCAB
:10314000064B2360159BE361169B2362199B636208
:103150001A9BA36220460BB030BD00BF304102086D
:10316000806A70477047704770477047704730B546
:103170000368018185B06D460146D3F8843004466A
:103180002846984795E807003C3484E8070005B0D6
:1031900030BD30B50368418185B06D460146D3F836
:1031A000843004462846984795E807003C3484E874
:1031B000070005B030BD0022028042808280C280BC
:1031C000704780F83610704770B5036804461B6B73
:1031D000154698472368294620465B6EBDE8704037
:1031E000184700207047806C7047704770477047E1
:1031F00070477047704730B4C26844685510034642
:1032000004EB6200D20748BF62599B6830BC48BFDC
:10321000D35818470346406830B19A681AB9D8683D
:1032200000F0010070470120704790F82D3080F8C1
:103230005C3070470146343091F82C3013B1623164
:1032400009F0DBB96031FBE710B5642104461EF0DC
:1032500024F8204610BD10B54C2104461EF01DF880
:10326000204610BD10B5102104461EF016F8204669
:1032700010BD10B54FF40A7104461EF00EF820463A
:1032800010BD08B5FEF7AAFD08BD10B50446006BD9
:1032900050B10368DB68984730B1206B0368214662
:1032A0009B68BDE81040184710BD00F58E728A4239
:1032B00002D10368DB6A184770470B7970B590F844
:1032C0002C6004460D460BB916B170BD002EFCD023
:1032D000B3FA83F35B0984F82C3023682046D3F8D3
:1032E0008C309847236820465B699847002EECD0C5
:1032F0002B79012BE9D123682046D3F88830BDE82B
:1033000070401847036870B55E6B124B1B6804462B
:103310008DB22BB9104B114A6C2111481FF02EF8B9
:103320001049828D0988914203D80F4B0B4A6D21B9
:10333000F3E713F812200D4B1B6853F822000368C3
:103340001B6B9847291A3346204609B2BDE87040E6
:10335000184700BF6039012090410208D24102089D
:103360000D420208643901205442020868390120E4
:1033700000224FF0FF31C0E900218260704770B534
:10338000036804461B6B1546984723682946204668
:103390005B6BBDE87040184770B5036804469B6BD3
:1033A00015469847236829462046DB6BBDE87040E8
:1033B00018470B8870B5A0F860300546138825F8CB
:1033C000623F044628460EF0E9FE064628460EF007
:1033D00019FF314602462046FFF7DEFF23682046EC
:1033E000D3F88C30BDE87040184700000022C0E9D7
:1033F0000122C0E90322C0E90522C0E907224FF4F7
:1034000080728284014A0260704700BF9C420208B9
:1034100038B5262204460D4600211FF0B6F9204695
:10342000FFF7E4FF064B23602B88E384FF2320464D
:1034300084F82830294609F0E0F8204638BD00BF5E
:10344000D049020810B52622044600211FF09DF93C
:103450002046FFF7CBFF0A4BA3624FF6FF73A3850D
:103460004FF47F020023C4E90C32064A226023870E
:103470004FF0FF32C4E91023E363A364204610BD7C
:10348000A03D020804430208F7B54FF47F43064607
:10349000838540F2011300258384134B8562C0E9C4
:1034A0000155C0E90355C0E90555C0E90755056355
:1034B00046F8343B04464FF6FF7701A93046ADF895
:1034C0000470FFF7A5FF2A4629463046A4F860702D
:1034D000A4F86270FFF753FF2046314606F038F833
:1034E000204603B0F0BD00BF944302082DE9F04F21
:1034F00004468DB0274600250DF07EFC884BE56321
:1035000047F8403B2622294638461FF03EF9384608
:10351000FFF76CFF834B236404F16C0BFF234FF622
:10352000FF7684F866300AA9A5665846ADF828608B
:10353000FFF76EFF04F198030AA918460193ADF84E
:103540002860FFF765FF04F1C4030AA91846029337
:10355000ADF82860FFF75CFF04F1F00304F58E7A04
:103560000AA91846039304F5C079ADF82860FFF75F
:103570004FFF5046FFF788FF04F5E6784846FFF70F
:1035800061FF4046FFF75EFF674BC4E98634674B37
:103590002A46C4E9883529463846FFF7F0FE4FF43D
:1035A000A0723846F021FFF7F7FE261D4FF07F434B
:1035B000A3663946304605F0CBFF2A4629465846D1
:1035C000FFF7DDFE0AA95846ADF8285009F015F8B6
:1035D0005946304605F0BCFF2A460198DFF850B145
:1035E0002946FFF7CCFE01270198ADF828700AA9FB
:1035F00009F003F80199304605F0AAFF02982A461F
:103600002946FFF7BCFE02220298ADF828200AA93D
:1036100008F0F3FF0299304605F09AFF03982A4616
:103620002946FFF7ACFE03220398ADF828200AA92B
:1036300008F0E3FF0399304605F08AFF0522ADF854
:1036400024200922ADF8282009A90AAA5046FFF72C
:10365000B0FE2A46294604F5A870FFF790FE04F54F
:103660000672C4F84C215046C8225A21FFF787FE43
:103670003C2211465046FFF78FFE5146304605F07A
:1036800067FF48466A224A21FFF779FED4F8802175
:10369000A4F8B4514FF07F430DF1100AC4F8B031D3
:1036A00049465046D2F8842090479AE8070004F52E
:1036B000DE7C8CE807000AA94846CDF828B0ADF8B2
:1036C0002C7008F0D3FE4946304605F041FF8C22AD
:1036D00040464A21FFF753FE4FF07F43C4F8FC31C8
:1036E000D4F8CC31A4F8005241465046D3F8843087
:1036F00098479AE8070004F5027383E807000AA9CF
:103700004046CDF828B0ADF82C5008F0AFFE30465A
:10371000414605F01DFF20460DB0BDE8F08F00BF0B
:103720004C4402086849020834440208AB320008DD
:10373000A03D02087047000030B5164D2C68BFF35D
:103740005B8F14F001048FB020D128461DF0A7FD37
:10375000E0B13F230993104B0893104B10491148D7
:103760000A940122CDE906430423CDE903320A235A
:103770000093CDE90B44CDE901440594FFF7C0FC6B
:1037800009481EF019FE28461DF095FD05480FB0AA
:1037900030BD00BFF42A0020B0540208BC54020817
:1037A00080540208F82A00203537000870470000CE
:1037B00030B5164D2C68BFF35B8F14F001048FB049
:1037C00020D128461DF06BFDE0B13F230993104B3B
:1037D0000893104B104911480A940122CDE9064381
:1037E0000423CDE9033214230093CDE90B44CDE942
:1037F00001440594FFF784FC09481EF0DDFD2846CE
:103800001DF059FD05480FB030BD00BF242B00202E
:10381000B4540208C054020890540208282B002017
:10382000AD3700087047000030B5164D2C68BFF367
:103830005B8F14F001048FB020D128461DF02FFDBE
:10384000E0B13F230993104B0893104B10491148E6
:103850000A940122CDE906430423CDE9033228234B
:103860000093CDE90B44CDE901440594FFF748FCF2
:1038700009481EF0A1FD28461DF01DFD05480FB0AA
:1038800030BD00BF542B0020B8540208C4540208B5
:10389000A0540208582B002025380008002070474B
:1038A000002070470EB403B503AB002153F8042B7E
:1038B00001930CF025FB02B05DF804EB03B07047F8
:1038C0000CB407B504AB53F8042B01930CF018FBB0
:1038D00003B05DF804EB02B070470000436C10B514
:1038E000044673B3038F2BB9184B194AC5211948E5
:1038F0001EF044FDC38E00EB43035B8C0BB30EF054
:1039000066F9238F012B03D8134B144ACB21EEE722
:10391000E28E531C9BB2092B194688BFA3F10A0102
:1039200004EB410140F63F10498C814209D10A2B3A
:1039300004EB420228BF002304EB4303508C58845D
:1039400051842046BDE810400EF044B87C44020883
:1039500085440208304502087A4502088845020875
:103960000DF0FFBF10B586B002AC84E806001A4621
:103970000AAB05930193099B00932146089B0AF02B
:10398000D5FD06B010BD000038B518BB124B13486A
:103990001C681349B4B12268224402606268224460
:1039A0000A60A26814440F4B00221A8000F038F815
:1039B000054600F033F80C4B1C600C4B1D600C4BA3
:1039C000188007E00B4B03600B4B0B600B4B1C6824
:1039D000002CE8D138BD00BF902B0020882B0020A0
:1039E000842B00208C2B00206039012068390120B5
:1039F00064390120D0540208C8540208D454020883
:103A0000044B1B6853F82100034B1B6803EB400079
:103A1000704700BF842B0020882B002002207047B5
:103A200000487047942B002010B5FFF7C1FE044CEE
:103A30002060FFF7F9FE6060FFF77EFEA06010BD1A
:103A4000942B002010B5002404600C6014601C60EE
:103A500010BD704710B54FF4AE7104461DF01DFC4B
:103A6000204610BD10B50446D0F8580100F013F8F8
:103A70002046BDE810400BF03DBA000010B50446EA
:103A8000FFF7C4FA014B2360204610BD64460208CC
:103A900000220260704770477047043870477047D3
:103AA00010B5102104461DF0F8FB204610BDA0F112
:103AB0000400F5E700228260024A02601832426088
:103AC000C1607047B84602087047000038B5094B1E
:103AD0000360044641F28C15635960191B682C3D44
:103AE0009847B5F5057FF7D12046FFF77FFB2046C5
:103AF00038BD00BFE046020810B50446FFF7E6FFF8
:103B000020464FF499511DF0C8FB204610BD00001F
:103B10002DE9F3410646FFF7E9FC324B33601E24E2
:103B2000012306F58D57C6E98A43183706F5107448
:103B30004FF6FF7504F5C678204601A92C34ADF880
:103B40000450FFF765FC4445F6D1A742F2D101A924
:103B500006F59250ADF80450234CFFF759FC06F5DA
:103B6000935001A90C30ADF80450FFF751FC0FCC75
:103B700006F5805707F52F750FC50FCC0FC594E8D4
:103B80000F00103485E80F000FCC07F53B750FC50B
:103B90000FCC0FC594E80F0085E80F00FA23C7F893
:103BA0001C331248124A0423C7F83C320A2100236E
:103BB000C6E98C13C7E9AB0202F10312C7F8B422BD
:103BC0000322C7F8B8220B4AC6F83C220A4AC7F8B3
:103BD0009C220A4AC7F8A022304687F8983202B0E1
:103BE000BDE8F081E0460208D43302080400060074
:103BF0000700080015CD5B070000D64200008C438B
:103C00002DE9F74F00F58D5600F59058044617360C
:103C1000002508F1140815F0010F0CBF0823092333
:103C2000019304F5107B2746B2464FF000091AF8BD
:103C3000013F6BB1D7F8403238F925209B6DB7F9B9
:103C4000441258469847D7F8403258465B6998471F
:103C5000019B09F10109994507F12C070BF12C0B88
:103C6000E5DB01350A2D06F1090604F5C674D2D14B
:103C700003B0BDE8F08F00F5905300F5915010337C
:103C8000183053F8042F013283421A60F9D170477B
:103C90002DE9F04300F580542DED028B94F8983215
:103CA00083B0032B12D8DFE803F002166E7F484B77
:103CB0001B887E3B9BB2032B05D8464B1B887E3B63
:103CC0009BB2032B02D9012384F8983203B0BDECD8
:103CD000028BBDE8F0833E4B1B887E3B9BB2032BDF
:103CE000F4D83C4B1B887E3B9BB2032BEED80223BF
:103CF00084F89832384B9FED397A1B8807EE903A5A
:103D0000F8EEE77A364B77EEC77A1B88FDEEE77A56
:103D100017EE906A07EE903AF8EEE77A77EEC77AF8
:103D2000FDEEE77A17EE905A05FB05F006FB06005C
:103D3000FCF700FC41EC180BB0EE480AF0EE680A04
:103D40001DF0D3FA59EC108B7042FCF7F3FB42469E
:103D50004B46FCF783FDFCF707FFB0EE480AF0EE98
:103D6000680AC4F8A4021DF0C0FA57EC106B684250
:103D7000FCF7E0FB32463B46FCF770FDFCF7F4FE37
:103D8000C4F8A802A2E7D4EDA77A94EDA97A77EE59
:103D9000877A94EDAA7AC4EDA77AD4EDA87A77EE63
:103DA000877AC4EDA87A91E7002384F8983201A9B4
:103DB000B4F89232ADF8043000F5925008F01DFCD2
:103DC000084BC4F89C32084BC4F8A0327EE700BF11
:103DD00040280020422800203E2800200000FF420A
:103DE0003C2800200000D64200008C4338B500F586
:103DF00080542DED028B94EDA70A00F592551DF02D
:103E000029FCB0EE408A94EDA80A1DF023FCBDEE1B
:103E1000C00ABDEEC88A10EE103A1AB218EE103A77
:103E2000284619B2FDF72DFFBDEC028B2846BDE8F0
:103E300038400CF08FB931EE426A70EEE27A31EE22
:103E4000E27A70EE426A67EEC67A32EE432AE6EE16
:103E5000877A88B030EE437AF5EEC07A70EEE37A76
:103E600072EEE32A67EEC27AF1EE10FAE7EE227AFA
:103E70004CBF01230023F5EEC07AF1EE10FA4CBFDF
:103E800001220022934217D130EE410A73EEE13A4B
:103E900070EEE10A33EE413A20EE230AA3EE600A07
:103EA000B5EEC00AF1EE10FA4CBF01200020C31A93
:103EB0005842584108B070470020FBE72DE9F04F09
:103EC00001F5805A2DED068BDAEDA8AADAF83C72DE
:103ED0008BB005461AEE900A0C46FCF73DFB00221B
:103EE000804BFCF7D9F907F2844304EB8303804647
:103EF00058688946FCF71EFB7A4B0022FCF7CEF986
:103F000002460B4640464946FCF70EFE48B14FF0CC
:103F1000FF33C5E9003328460BB0BDEC068BBDE886
:103F2000F08F6FF02A0363430193B946F2EE0A8AD9
:103F3000F2EE0D9A09EBC90109F0010601F58D5168
:103F400006F10803173109F28448009321444FF029
:103F5000000B04EB880811F8010F002800F0B18075
:103F60002C2303FB01F0A0F54230A0F5AE70019BBD
:103F7000D8ED017AC35E9AEDA74A01EE103AF8EE49
:103F8000E75AB8EEC11A35EEA95A34EE68AA7AEEAD
:103F9000E94A31EE688A31EE289AF0EE453AB0EE01
:103FA000493AB0EE482AF0EE452AF0EE651AB0EE36
:103FB0004A0AF0EE640A20468DED02AACDED034ACE
:103FC0008DED041ACDED055A8DED095AFFF733FF3B
:103FD00090B109F101030A2193FBF1F001FB1039C3
:103FE00016B90BF1010B04E0BBF1080F08BF4FF04D
:103FF000070BC5E9009B8EE775EEE95AB0EE493A2A
:10400000F0EE453AB0EE492AF0EE652AB0EE4A0AE3
:10401000F0EE640A2046FFF70EFF90B1009B082BDC
:104020000CBF072108215945DBD109F101030A2101
:1040300093FBF1F001FB1039002ED2D00BF1FF3BC6
:10404000D7E734EE284AB0EE483AF0EE453AB0EE03
:10405000492AF0EE452AB0EE440AF0EE640A204602
:104060008DED088AFFF7E7FE60B109F101030A212F
:1040700093FBF1F001FB1039002EBAD0BBF1000F19
:10408000B7D0DBE7B0EE483AF0EE453AB0EE482A5A
:10409000F0EE652AB0EE440AF0EE640A20468DED9B
:1040A000068ACDED075AFFF7C6FE50B1BBF1000FEF
:1040B000C4D109F101030A2193FBF1F001FB10398E
:1040C00097E7009B0BF1010B5B453FF744AFB9F15C
:1040D00001024CBF09F1090991464F457FF42AAF0F
:1040E00015E700BF00002D40F0B585B06B4683E8B2
:1040F00006004FF4C67316464B432C22044602FBBF
:10410000063303F51070234404F58057D3F840328A
:10411000B7F866221B6EADF80C200D46204403A9AB
:10412000984705EBC503E218324441F2B81001216B
:104130001154D7F83C124FF00A0C4A1C92FBFCFEBB
:104140000CFB1E22AA421FD1034415F0010F04EB01
:1041500003024FF000030CBF4FF0080C4FF0090CA6
:1041600018469E4218BFD05401336345F9DB05F26F
:10417000844301F2844104EB830304EB810462680D
:104180001D325A60C7F83C5205B0F0BD13B500F5BA
:10419000805401A9B4F89232ADF8043000F5925081
:1041A00008F02BFA034BC4F89C32034BC4F8A0323E
:1041B00002B010BD0000D64200008C43D0F83C1283
:1041C0000246054843F2390300FB013323F0004067
:1041D000C2F83C02704700BF6D4EC64110B50446A0
:1041E000FFF7ECFF04F58053D3F8B832B0FBF3F2DD
:1041F00002FB130000F6541004EB4004A08810BD2D
:1042000013B50446FFF7EAFFADF8040004F5935038
:1042100001A90C3008F0F1F902B010BDF7B5044661
:1042200003F0C5F8D4F82832B0FBF3F503F0B8F882
:10423000D4F83832C01AA84252D904F58055D5F8BE
:104240003C3203F2844304EB83035868FCF772F9B1
:10425000244B0022FCF722F80646D5F81C030F4633
:10426000FCF768F902460B4630463946FCF75CFC21
:104270000146A8BBD4F834325A1CC4F83422D4F80E
:104280003022934204D12046FFF7F5FCC4F83412E3
:1042900020466D46FFF7FCFC21462846FFF70EFE40
:1042A000009B01330DD0019B01330AD095E8060035
:1042B0002046FFF719FF2046FFF768FF2046FFF76B
:1042C0009FFF2046FFF79CFC2046FFF78FFD04F57B
:1042D00093500C300BF03EFF03F062F8C4F8380244
:1042E00003B0F0BD00002D402DE9F04F00F58053E4
:1042F00087B0D3F83C4206464FF0FF377A1C02BF26
:10430000D3F83C721D22574304F0010218BF1D3F31
:10431000002A0CBF0822092206EB840A019204EB52
:10432000C4094FF4C6720AF5805A02FB04F509F578
:104330008D5905F5107509F11709CAF814720CBFEB
:104340004FF0100B4FF0030B3544B1444FF0000811
:104350002A680393126E02923046FFF73FFF029ADB
:10436000ADF8140005A92846904708EB480108EB72
:1043700081010BEB41012846BAF9142209B2FEF77C
:10438000FEFF4FF0010309F8013F2946301D05F0FB
:10439000DFF8019B08F10108434505F12C05039B5B
:1043A000D6D1621E58BF1446D3F83C2248BF093408
:1043B000A242A3D107B0BDE8F08F70B52DED028BFE
:1043C00082B000F592550446FFF708FF04F58056C9
:1043D00001A9ADF80400284608F00FF996EDA70AE8
:1043E0001DF038F9B0EE408A96EDA80A1DF032F9BA
:1043F000BDEEC00ABDEEC88A10EE103A1AB218EE31
:10440000103A284619B2FEF7BAFF2946201D02B01D
:10441000BDEC028BBDE8704005F09AB837B5054693
:1044200000F59354FFF7DAFE0C34ADF8040001A94F
:10443000204608F0E2F820464FF48C720A21FEF77D
:104440009EFF2146281D03B0BDE8304005F080B82E
:1044500010B50446FEF7CBFE2046FFF745FF204689
:10446000FFF7ABFF2046FFF7D9FF002384F8413167
:1044700002F096FFC4F8380210BDF02070474FF4E8
:10448000A07070472920FEF705B92820FEF702B971
:1044900008B5FEF7D3F8CA20FEF7FCF8C320FEF7F4
:1044A000DDF80820FEF7DAF85020FEF7D7F8CF2025
:1044B000FEF7F0F80020FEF7D1F8C120FEF7CEF8A5
:1044C0003020FEF7CBF8ED20FEF7E4F86420FEF78D
:1044D000C5F80320FEF7C2F81220FEF7BFF88120CE
:1044E000FEF7BCF8E820FEF7D5F88520FEF7B6F811
:1044F0000020FEF7B3F87820FEF7B0F8CB20FEF7E7
:10450000C9F83920FEF7AAF82C20FEF7A7F80020FA
:10451000FEF7A4F83420FEF7A1F80220FEF79EF87B
:10452000F720FEF7B7F82020FEF798F8EA20FEF70C
:10453000B1F80020FEF792F80020FEF78FF8B120C6
:10454000FEF7A8F80020FEF789F81B20FEF786F892
:10455000B620FEF79FF80A20FEF780F8A220FEF7AB
:104560007DF8C020FEF796F81020FEF777F8C120FE
:10457000FEF790F81020FEF771F8C520FEF78AF8D4
:104580004520FEF76BF81520FEF768F8C720FEF708
:1045900081F89020FEF762F83620FEF77BF8C820FD
:1045A000FEF75CF8F220FEF775F80020FEF756F8EB
:1045B000B020FEF76FF8C220FEF750F8B620FEF7E5
:1045C00069F80A20FEF74AF8A720FEF747F82720E7
:1045D000FEF744F80420FEF741F82A20FEF75AF8C7
:1045E0000020FEF73BF80020FEF738F80020FEF729
:1045F00035F8EF20FEF732F82B20FEF74BF80020BD
:10460000FEF72CF80020FEF729F80120FEF726F827
:104610003F20FEF723F8F620FEF73CF80120FEF7D6
:104620001DF80020FEF71AF80620FEF717F82C20D8
:10463000FEF730F8C820FEF77BF82620FEF72AF8B0
:104640000120FEF70BF8E020FEF724F80F20FEF71C
:1046500005F82920FEF702F82420FDF7FFFF0C20C3
:10466000FDF7FCFF0E20FDF7F9FF0920FDF7F6FF2F
:104670004E20FDF7F3FF7820FDF7F0FF3C20FDF71B
:10468000EDFF0920FDF7EAFF1320FDF7E7FF052006
:10469000FDF7E4FF1720FDF7E1FF1120FDF7DEFF36
:1046A0000020FDF7DBFFE120FDF7F4FF0020FDF720
:1046B000D5FF1620FDF7D2FF1B20FDF7CFFF04200A
:1046C000FDF7CCFF1120FDF7C9FF0720FDF7C6FF5E
:1046D0003120FDF7C3FF3320FDF7C0FF4220FDF777
:1046E000BDFF0520FDF7BAFF0C20FDF7B7FF0A203C
:1046F000FDF7B4FF2820FDF7B1FF2F20FDF7AEFF37
:104700000F20FDF7ABFF1120FDF7C4FFC820FEF717
:104710000FF82920FDF7BEFFBDE808402C20FDF76B
:10472000B9BF08B5FDF78AFF0321D320FDF7CEFFFF
:1047300080B208BD10B5C4B2022203212046FDF7A5
:1047400033FF0A20FDF778FF204600220321FDF702
:104750002BFFBDE810400220FDF76EBF38B50446C0
:10476000E4B2FDF71FFF00212046FDF735FF0121D0
:1047700005462046FDF730FF40EA052080B238BDEF
:1047800010B5C4B240212046FDF726FF030607D529
:104790004C212046FDF720FF003818BF012010BD36
:1047A00001224B212046FDF7FFFE204600224B212F
:1047B000FDF7FAFE0020F2E773B50423C4B20E46FB
:1047C0001546D7210DEB03022046FDF71FFF019B85
:1047D0001BBA1A0DC3F30B23328020462B80012213
:1047E0004B21FDF7E1FE00224B212046FDF7DCFEC8
:1047F00002B070BD10B50A4A1378984204460DD035
:10480000517888420AD00BB141B90123D454FDF745
:10481000C9FE2046BDE81040FFF78CBF10BD00BFA9
:10482000A02B002010B5C4B209212046FDF7D4FE0C
:1048300040F00102D2B220460921BDE81040FDF748
:10484000B3BE10B5C4B209212046FDF7C5FE09214B
:1048500000F0FE022046BDE81040FDF7A5BE38B5C9
:10486000C4B20D4620460A21FDF7B6FE40EA050215
:10487000D2B220460A21BDE83840FDF795BE10B5FA
:104880000446FDF790FE20461F21FFF7E8FF204673
:10489000BDE81040FFF7C6BF38B5C4B20D4620468C
:1048A0000A21FDF799FE20EA0502D2B220460A212C
:1048B000BDE83840FDF778BE10B50446FFF7C1FFEC
:1048C00020461F21BDE81040FFF7E6BF10B5C0B27B
:1048D0000C460B21FDF780FE204010BD1F21FFF785
:1048E000F5BF0A46C0B20B21FDF75EBE1F21FFF7E0
:1048F000F8BF38B5C4B20D4620461721FDF76CFE4F
:1049000020EA0502D2B220461721BDE83840FDF763
:104910004BBE70B5C4B2064604212046FDF75CFECE
:10492000042100F0FB0205462046FDF73DFE30461F
:10493000F021FFF7DEFF05F0F80220460421FDF725
:1049400033FE492220212046FDF72EFE0220FDF7EE
:1049500073FE204601222121FDF726FE20469A22E1
:104960004121FDF721FE204601224A21FDF71CFED0
:10497000204601224B21FDF717FE204600224B2145
:10498000FDF712FE204601225621FDF70DFE2046BE
:1049900001225821FDF708FE204601224021FDF7A3
:1049A00003FE2046FF220B21FDF7FEFDBDE870400F
:1049B0000220FDF741BE0000054BD3F8882042F4E9
:1049C0007002C3F888204FF000629A60704700BF01
:1049D00000ED00E008B50B4B1A6842F400721A6053
:1049E0001A6842F480621A601A6842F480721A608F
:1049F000032000F047FA0020FEF7DCF8FDF7A6FEE2
:104A0000002008BD003C0240034A044B11681B789B
:104A10000B441360704700BFA42B002078000020D7
:104A2000014B1868704700BFA42B002038B504461E
:104A3000FFF7F6FF631C1CBF054B1B78054618BF2C
:104A4000E418FFF7EDFF431BA342FAD338BD00BFC4
:104A5000780000207047000038B50446002800F0B8
:104A60009B80056C25B9FFF7F5FF656484F83C5021
:104A7000236CDB0600F18E80236C23F4885323F033
:104A8000020343F002032364444B5A6822F4403289
:104A90005A605A6861680A435A60236821695A68F3
:104AA00022F480725A605A6842EA01225A605A68B7
:104AB000A16822F040725A605A680A435A609A68A4
:104AC000E16822F400629A609A680A439A60344965
:104AD000A26A8A4252D0996821F0706199609968FF
:104AE0000A439A609A68E16A22F040529A609A6892
:104AF0000A439A609A6822F002029A609A68217EBC
:104B000042EA41029A6094F82020002A3ED05A6876
:104B1000616A42F400625A605A6822F460425A6044
:104B20005A68013942EA41325A60DA6AE16922F48C
:104B30007002DA62DA6A013942EA0152DA629A688C
:104B400022F400729A609A6894F8301042EA412286
:104B50009A609A68616922F480629A609A6800207B
:104B600042EA81229A606064236C23F0030343F0DD
:104B700001032364002384F83C3038BD9A6822F096
:104B800070629A609A6822F04052B2E75A6822F442
:104B90000062C9E70120EDE70120EEE700230140B4
:104BA0000100000F82B00023019390F83C30012BEC
:104BB00069D0012380F83C3003689A68D2070BD58E
:104BC0009A68D1071AD4036C43F010030364436C52
:104BD00043F0010343644CE09A682C4942F001021F
:104BE0009A602B4A1268B2FBF1F202EB4202019288
:104BF000019A002AE4D0019A013AF8E7026C22F403
:104C0000E06222F0010242F4807202645A685205A6
:104C100041BF026C22F4405242F480520264026CA2
:104C200012F480521CBF426C22F006024264002241
:104C300080F83C206FF022021A60164A516811F089
:104C40001F0F15491CD18B4207D001F580718B4293
:104C50000CD1526812F01F0F0BD19A6812F0405F0E
:104C600007D19A6842F080429A6002E00B498B4279
:104C700002D0002002B07047526812F0100FEBE72C
:104C80008B42F6D1E9E70220F4E700BF40420F0073
:104C90007400002000230140002001400022014058
:104CA00003689A68520570B504460D460BD59B689B
:104CB000DE0508D5036C43F020030364002380F86D
:104CC0003C30012070BDFFF7ABFE064623681A6832
:104CD00091070CD56FF012021A60226C42F4007238
:104CE00022649A6812F0405F17D00020EAE7681C3F
:104CF000EDD065B923681B6813F00203E6D1226C7E
:104D000084F83C3042F0040222640320DAE7FFF723
:104D100087FE801BA842EDD8D8E7227E002AE4D186
:104D2000DA6A12F4700F02D09B685A05DDD4236C46
:104D300023F480732364236CDB04D6D4236C43F008
:104D400001032364D1E70368D86C7047F7B50023EB
:104D5000019390F83C30012B054600F0868001233A
:104D600080F83C3008682B688E68092884B233D9F3
:104D700004EB4402DF681E3A4FF0070C0CFA02FC09
:104D800027EA0C07DF60DF6806FA02F23A43DA60CE
:104D90004968062901EB81022DD8596B053A1F2677
:104DA000964021EA06015963596B04FA02F20A435C
:104DB0005A632F4A93420AD1122837D12D4B5A6891
:104DC00022F400025A605A6842F480025A600020BD
:104DD00085F83C0003B0F0BD1A6900EB400C0727D2
:104DE00007FA0CF722EA07021A611A6906FA0CF6AA
:104DF00016431E61CCE70C294FF01F010BD81E6B28
:104E0000233A914026EA01011963196B04FA02F270
:104E10000A431A63CDE7DE6A413A914026EA01016E
:104E2000D962D96A94400C43DC62C2E7124B9842C3
:104E300001D01128CBD10F4B5A6822F480025A605E
:104E40005A6842F400025A600B4B9842BFD10B4B98
:104E50000B4A1B68B3FBF2F30A2253430193019BF5
:104E6000002BB4D0019B013BF8E70220B2E700BF62
:104E700000200140002301401200001074000020B7
:104E800040420F000749CA6822F4E062030212049C
:104E900003F4E063120C134343F0BF6343F40033A5
:104EA000CB60704700ED00E0164B30B5DC68C4F312
:104EB0000224C4F10703251D042B28BF0423062D5B
:104EC0004FF0FF358CBF033C002405FA03F321EAC1
:104ED0000303A54022EA0502A340002843EA020397
:104EE000ACBF00F16040084A4FEA0313B8BF00F0BE
:104EF0000F00DBB2AABF00F56140135480F8003305
:104F000030BD00BF00ED00E014ED00E0002807DB3D
:104F1000044A4109012300F01F00834042F8213078
:104F2000704700BF00E100E010B5044650B143797E
:104F300003F0FF0213B90271FDF728FC012363712E
:104F4000002010BD0120FCE710B5044630B390F8F6
:104F5000393003F0FF021BB980F83820FDF72EFC32
:104F600022686168022384F83930136823F44033DF
:104F70000B431360536BA16823F007030B43536388
:104F8000136CE16823F47F5323F03F030B43136456
:104F900000200123E06384F8393010BD0120FCE7D4
:104FA00070477047036870B55E681D68F207044675
:104FB00014D5E90512D51A6822F480721A60C26B02
:104FC00042F00102C26301229A60042380F8393062
:104FD000002380F83830436903B19847B20616D5EC
:104FE000AB0414D523681A6822F400521A602022F8
:104FF0009A60E36B43F00203E363042384F83930DF
:10500000002384F8383063690BB120469847300795
:1050100016D5290514D523681A6822F400621A608F
:1050200008229A60E36B43F00403E363042384F8EB
:105030003930002384F8383063690BB12046984733
:1050400072070BD56B0509D523681A6822F48062B4
:105050001A6004229A602046FFF7A2FFB00714D519
:10506000A90512D523681A6822F400721A60022278
:105070009A60E36BE363012384F83930002384F8FA
:10508000383023690BB120469847F20613D5EB045C
:1050900011D523681A6822F480521A6010229A608F
:1050A000E36BE363012384F83930002384F838305C
:1050B0002046FFF776FF70BDF0B590F83820012A42
:1050C00003464FF002002BD0012283F8382083F8EA
:1050D000390003EB0112D2E90740556A174F44EA41
:1050E0000040093C012C9CBF05F07F4210434FEA71
:1050F00001161A6888BF40EA056091B9516A3940C3
:1051000001435162012C9969916103D8596A21F0D8
:105110007F4191620122002083F8392083F8380012
:10512000F0BDD16939400143D1619919012C8969D8
:1051300011619CBF25F07F451562EBE7F0FFFC0095
:105140002DE9F74FDFF8BC916C4A00230D6801246C
:105150009C4004EA0506AC4340F0B7804D68032745
:1051600005F003044FEA430807FA08FC671E012F05
:105170006FEA0C0C34D8876807EA0C0ECF6807FA80
:1051800008F747EA0E078760476827EA060EC5F367
:1051900000179F4047EA0E074760C76807EA0C0EF2
:1051A0008F6807FA08F747EA0E07022CC76019D183
:1051B0004FEAD30A00EB8A0A03F0070BDAF82070F3
:1051C0004FEA8B0B4FF00F0E0EFA0BFE27EA0E0E76
:1051D0000F6907FA0BF747EA0E07CAF8207001E0DB
:1051E000032CDAD1076804FA08F407EA0C073C43F9
:1051F00015F4403F046068D000240194D9F844407D
:1052000044F48044C9F84440D9F8444023F00307EB
:1052100007F1804704F4804407F59C37019403F0BC
:10522000030C019CD7F808E04FEA8C0C0F2404FA19
:105230000CF42EEA040E324CA0424DD004F58064EA
:10524000A0424BD004F58064A04249D004F58064AC
:10525000A04247D004F58064A04245D004F58064A4
:10526000A04243D004F58064A04241D004F580649C
:10527000A0423FD004F58064A0423DD004F5806494
:10528000A04214BF0A24092404FA0CF444EA0E04D0
:10529000BC609468F74315F4801F0CBF3C40344356
:1052A0009460D46815F4001F0CBF3C403443D460B4
:1052B000546815F4003F0CBF3C40344354601468FC
:1052C000ED0354BF3C40344314600133102B7FF492
:1052D0003DAF03B0BDE8F08F0024D5E70124D3E74C
:1052E0000224D1E70324CFE70424CDE70524CBE74C
:1052F0000624C9E70724C7E70824C5E7003C0140A6
:1053000000000240003802400369194214BF012026
:10531000002070470AB1816170470904FBE74369C7
:1053200001EA030221EA030141EA02418161704777
:1053300001684B6913F480634FF0000210D06FF4E2
:1053400080634B612023026380F83D3080F83E206B
:10535000036C80F83C2043F0040303640120704791
:10536000184670472DE9F84606460F4691461D46F9
:105370004FEA114A3368BAF1010F0CBF5C699C69AE
:1053800027EA0404A4B2B4FA84F46409A14501D064
:10539000002025E06A1CEED0FFF742FB089BC01AF4
:1053A000A84201D8002DE5D13368BAF1010F0CBF36
:1053B0005B699B6927EA03039BB2B3FA83F35B093A
:1053C0009945D7D100232022336386F83D2086F803
:1053D0003E30326C86F83C3042F0200232640120CC
:1053E000BDE8F8862DE9F04104460F46164698467A
:1053F0002568686927EA000080B2C0B16B695A0568
:1054000017D52B6843F400732B606FF480636B61D6
:1054100020220023236384F83D2084F83E30236C4F
:1054200043F004032364002384F83C300120BDE8EA
:10543000F081731CDDD0FFF7F3FAA0EB0800B04257
:1054400001D8002ED4D123685A6927EA020292B209
:10545000002ACDD000232022236384F83D2084F845
:105460003E30236C1343DDE770B504460D46164607
:1054700023685B691B0601D500201EE02046FFF76C
:1054800057FFC8B96A1CF3D0FFF7CAFA801BA842BD
:1054900001D8002DECD123685B6913F08003E7D1BC
:1054A0002022236384F83D2084F83E30226C84F867
:1054B0003C3042F020022264012070BD2DE9F0430F
:1054C0001546026885B0DDE90C789946136843F407
:1054D000807313600E463B46CDF8008000224FF0EB
:1054E00001110446FFF73EFF236838B11B68DB0556
:1054F00002D54FF400732364032620E006F0FE0675
:105500001E611A4943463A462046FFF76BFFA8B989
:10551000236803905A6903929B6903934246394674
:105520002046039BFFF7A0FF064660B1236C042BC7
:1055300001BF2268136843F40073136001263046EC
:1055400005B0BDE8F083B9F1010F236802D1EDB2D7
:105550001D61F4E72A0A1A61394642462046FFF7E0
:1055600083FF0028E2D12368F1E700BF02000100B9
:105570002DE9FF479A46036815461A6842F480628F
:105580001A601A68DDE90C7842F480721A600E46DF
:105590003B46CDF8008000224FF001110446FFF792
:1055A000E1FE236838B11B68DB0544BF4FF400738C
:1055B0002364032021E05FFA86F906F0FE061E61EF
:1055C0002B4943463A462046FFF70CFFA0B9236813
:1055D00003905A6903929B690393424639462046D9
:1055E000039BFFF741FF58B1236C042B01BF2268D6
:1055F000136843F400731360012004B0BDE8F08722
:10560000BAF1010F23681AD1EDB242461D61394645
:105610002046FFF729FF02460028E5D121680B68E4
:1056200043F480730B602046CDF800803B464FF07A
:105630000111FFF797FE226860B11368B4E72A0AE8
:105640001A61394642462046FFF70EFF0028CBD1AB
:105650002368D9E749F001031361054943463A46F7
:105660002046FFF7BFFE003818BF0120C5E700BF86
:105670000200010070B504460D46164623685B69BA
:105680005B0701D500201EE02046FFF751FEC8B998
:105690006A1CF3D0FFF7C4F9801BA84201D8002D83
:1056A000ECD123685B6913F00403E7D12022236364
:1056B00084F83D2084F83E30226C84F83C3042F07F
:1056C00020022264012070BD70B504460D461646C6
:1056D00021684B6913F0400301D0002011E04A69B2
:1056E000D2060FD56FF010024A612022236384F89E
:1056F0003D2084F83E30236C2364002384F83C3042
:10570000012070BDFFF78CF9801BA84201D8002D45
:10571000DED123685B6913F04003D9D120222363D3
:1057200084F83D2084F83E30236C1343E4E7000006
:1057300070B5044608B9012070BD90F83D3003F003
:10574000FF021BB980F83C20FDF75AF8242384F8A7
:105750003D3023681A6822F001021A601A6842F488
:1057600000421A601A6822F400421A6000F0B2FE89
:105770003F4B65689D4294BF3E4B3F4B98428CBF68
:1057800000230123002BD6D12268394E51683B4BB0
:10579000B0FBF3F321F03F011943B542516088BFDC
:1057A0004FF49676116A88BF734321F03F0184BF9E
:1057B0004FF47A76B3FBF6F301330B431362D169EE
:1057C000431E2B4821F44F41854221F0FF0132D87E
:1057D0006D0040F6FC70B3FBF5F30133034242D099
:1057E000C3F30B031943D161D4E9073011680343B4
:1057F00021F0C0010B4313609168D4E9030321F445
:105800000341034321F0FF010B439360D4E90530CA
:10581000D168034321F0FF010B43D360136843F0C9
:105820000103136000202023206484F83D302063AE
:1058300084F83E0080E7A06850B905EB4505B3FB4E
:10584000F5F30133C3F30B037BB143F40043C9E722
:1058500019206843B3FBF0F30133C3F30B0323B107
:1058600043F44043BEE70423BCE70123BAE700BF8B
:10587000A08601007F841E00FF083D0040420F000B
:105880002DE9F743044699460C9E0F469046FFF7D4
:10589000C7F894F83D30202B054603D0022003B012
:1058A000BDE8F08300903C49192301222046FFF710
:1058B00059FD0028F2D194F83C30012BEED020683D
:1058C000012384F83C300368D9075EBF036843F0C6
:1058D00001030360036823F400630360212384F859
:1058E0003D30402384F83E30002323640A9B6362EA
:1058F000BDF82C306385638D2385284BE3624246D7
:10590000CDE900654B4639462046FFF7D7FD002814
:105910002AD00120C3E7FFF7A7FD40B1236C042B79
:1059200001BF2268136843F400731360F1E7636AF0
:1059300027681A4612F8011B39616262628D218D57
:10594000013A92B262857A69481E80B25207208578
:105950000AD548B15A783A6102336362638D013BDC
:1059600002399BB221856385238D2A463146204624
:10597000002BD0D1FFF77EFE0028CFD1226813681C
:1059800043F400731360202384F83D3084F83C0016
:1059900084F83E0083E700BF020010000000FFFF14
:1059A0002DE9F043044687B09946109F0D46904676
:1059B000FFF736F894F83D30202B064604D0022538
:1059C000284607B0BDE8F08300907A4919230122E8
:1059D0002046FFF7C7FC0028F1D194F83C30012B9A
:1059E000EDD02068012384F83C300368DB075EBFFC
:1059F000036843F001030360036823F4006303605A
:105A0000222384F83D30402384F83E300023236471
:105A10000E9B6362BDF83C306385638D2385664BC6
:105A2000E3622946CDE900764B4642462046FFF721
:105A30009FFD054608B10125C2E7228D2368B2B952
:105A400002905A6902929A690292029A1A6842F482
:105A500000721A60DFF86481238D002B2CD1202284
:105A600084F83D2084F83C3084F83E30A8E7012AD1
:105A70000AD11A6822F480621A6003905A6903926C
:105A80009A690392039AE1E7022A0ED11A6822F476
:105A900080621A601A6842F400621A6004905A69BF
:105AA00004929B690493049BD4E705905A6905927C
:105AB0009B690593059BCDE7032B56D8012B15D188
:105AC000324639462046FFF7FFFD0028B3D1236850
:105AD0001A69636A1A70636A01336362238D013B3A
