:020000040800F2
:1000000000000320E50F0008192E00081B2E000831
:100010001D2E00081F2E0008212E000800000000E1
:10002000000000000000000000000000817D0008CA
:10003000232E000800000000117E000893760008BF
:10004000351000083510000835100008351000087C
:10005000351000083510000835100008351000086C
:10006000351000083510000835100008351000085C
:10007000351000083510000835100008351000084C
:10008000351000083510000835100008351000083C
:10009000351000083510000835100008351000082C
:1000A000351000083510000835100008351000081C
:1000B000351000083510000835100008351000080C
:1000C00035100008351000083510000835100008FC
:1000D00035100008351000083510000835100008EC
:1000E00035100008351000083510000835100008DC
:1000F00035100008351000083510000835100008CC
:1001000035100008351000083510000835100008BB
:100110003510000835100008252E0008351000089D
:10012000351000083510000835100008351000089B
:10013000351000083510000835100008351000088B
:10014000351000083510000835100008351000087B
:10015000351000083510000835100008351000086B
:10016000351000083510000835100008351000085B
:100170003510000835100008351000080000000098
:10018000351000083510000835100008351000083B
:10019000351000083510000835100008351000082B
:0C01A000312E0008351000083D2E00082C
:1001B00010B5054C237833B9044B13B10448AFF3A1
:1001C00000800123237010BD800300200000000088
:1001D0008C3B020808B5034B1BB103490348AFF33E
:1001E000008008BD00000000840300208C3B020852
:1001F000034613F8012B002AFBD1181A0138704767
:1002000001F0FF01102A2BDB10F0070F08D010F8C7
:10021000013B013A8B422DD010F0070F42B3F6D1CB
:10022000F0B441EA012141EA014122F007047FF0E4
:1002300000070023F0E80256083C85EA010586EA3B
:10024000010685FA47F5A3FA87F586FA47F6A5FA77
:1002500087F68EB9EED1F0BC01F0FF0102F0070283
:1002600032B110F8013B013A83EA010313B1F8D12E
:100270000020704701387047002D06BF354603380F
:10028000073815F0010F07D1013015F4807F02BF48
:10029000013015F4C03F0130F0BC0138704700BF99
:1002A00081F0004102E000BF83F0004330B54FEA27
:1002B00041044FEA430594EA050F08BF90EA020F94
:1002C0001FBF54EA000C55EA020C7FEA645C7FEA27
:1002D000655C00F0E2804FEA5454D4EB5555B8BF4A
:1002E0006D420CDD2C4480EA020281EA030382EABB
:1002F000000083EA010180EA020281EA0303362D4D
:1003000088BF30BD11F0004F4FEA01314FF4801C1F
:100310004CEA113102D0404261EB410113F0004F31
:100320004FEA03334CEA133302D0524263EB4303E8
:1003300094EA050F00F0A780A4F10104D5F1200E86
:100340000DDB02FA0EFC22FA05F2801841F10001E1
:1003500003FA0EF2801843FA05F359410EE0A5F1B5
:1003600020050EF1200E012A03FA0EFC28BF4CF0E6
:10037000020C43FA05F3C01851EBE37101F000459C
:1003800007D54FF0000EDCF1000C7EEB00006EEBA9
:100390000101B1F5801F1BD3B1F5001F0CD3490833
:1003A0005FEA30004FEA3C0C04F101044FEA44528A
:1003B00012F5800F80F09A80BCF1004F08BF5FEA11
:1003C000500C50F1000041EB045141EA050130BDF1
:1003D0005FEA4C0C404141EB0101013C28BFB1F503
:1003E000801FE9D291F0000F04BF01460020B1FA4E
:1003F00081F308BF2033A3F10B03B3F120020CDA21
:100400000C3208DD02F1140CC2F10C0201FA0CF0FE
:1004100021FA02F10CE002F11402D8BFC2F1200C63
:1004200001FA02F120FA0CFCDCBF41EA0C01904019
:10043000E41AA2BF01EB0451294330BD6FEA040462
:100440001F3C1CDA0C340EDC04F11404C4F120024D
:1004500020FA04F001FA02F340EA030021FA04F35F
:1004600045EA030130BDC4F10C04C4F1200220FAB6
:1004700002F001FA04F340EA0300294630BD21FAF4
:1004800004F0294630BD94F0000F83F4801306BFBA
:1004900081F480110134013D4EE77FEA645C18BFAE
:1004A0007FEA655C29D094EA050F08BF90EA020F45
:1004B00005D054EA000C04BF1946104630BD91EA3D
:1004C000030F1EBF0021002030BD5FEA545C05D140
:1004D0004000494128BF41F0004130BD14F580047F
:1004E0003CBF01F5801130BD01F0004545F0FE41F3
:1004F00041F470014FF0000030BD7FEA645C1ABF28
:10050000194610467FEA655C1CBF0B46024650EA5E
:10051000013406BF52EA033591EA030F41F400218A
:1005200030BD00BF90F0000F04BF0021704730B510
:100530004FF4806404F132044FF000054FF00001E5
:1005400050E700BF90F0000F04BF0021704730B5A6
:100550004FF4806404F1320410F0004548BF40427B
:100560004FF000013EE700BF42004FEAE2014FEAD0
:1005700031014FEA02701FBF12F07F4393F07F4FAB
:1005800081F06051704732F07F4208BF704793F0AE
:100590007F4F04BF41F40021704730B54FF46074C1
:1005A00001F0004521F000411CE700BF50EA0102C4
:1005B00008BF704730B54FF000050AE050EA01026D
:1005C00008BF704730B511F0004502D5404261EBDD
:1005D00041014FF4806404F132045FEA915C3FF41E
:1005E000D8AE4FF003025FEADC0C18BF03325FEABB
:1005F000DC0C18BF033202EBDC02C2F1200300FA6C
:1006000003FC20FA02F001FA03FE40EA0E0021FA90
:1006100002F11444BDE600BF70B54FF0FF0C4CF47E
:10062000E06C1CEA11541DBF1CEA135594EA0C0F30
:1006300095EA0C0F00F0DEF82C4481EA030621EA6B
:100640004C5123EA4C5350EA013518BF52EA0335A6
:1006500041F4801143F4801338D0A0FB02CE4FF058
:100660000005E1FB02E506F00042E0FB03E54FF088
:100670000006E1FB03569CF0000F18BF4EF0010E80
:10068000A4F1FF04B6F5007F64F5407404D25FEA7C
:100690004E0E6D4146EB060642EAC62141EA55512F
:1006A0004FEAC52040EA5E504FEACE2EB4F1FD0C71
:1006B00088BFBCF5E06F1ED8BEF1004F08BF5FEAEF
:1006C000500E50F1000041EB045170BD06F00046A1
:1006D00046EA010140EA020081EA0301B4EB5C044E
:1006E000C2BFD4EB0C0541EA045170BD41F4801146
:1006F0004FF0000E013C00F3AB8014F1360FDEBF6B
:10070000002001F0004170BDC4F10004203C35DA46
:100710000C341BDC04F11404C4F1200500FA05F3C9
:1007200020FA04F001FA05F240EA020001F000426A
:1007300021F0004110EBD37021FA04F642EB0601E0
:100740005EEA430E08BF20EAD37070BDC4F10C040A
:10075000C4F1200500FA04F320FA05F001FA04F2CE
:1007600040EA020001F0004110EBD37041F10001BA
:100770005EEA430E08BF20EAD37070BDC4F12005C5
:1007800000FA05F24EEA020E20FA04F301FA05F22D
:1007900043EA020321FA04F001F0004121FA04F2D5
:1007A00020EA020000EBD3705EEA430E08BF20EAA5
:1007B000D37070BD94F0000F0FD101F000464000DF
:1007C00041EB010111F4801F08BF013CF7D041EA61
:1007D000060195F0000F18BF704703F00046520065
:1007E00043EB030313F4801F08BF013DF7D043EA36
:1007F0000603704794EA0C0F0CEA135518BF95EAEC
:100800000C0F0CD050EA410618BF52EA4306D1D172
:1008100081EA030101F000414FF0000070BD50EA91
:10082000410606BF1046194652EA430619D094EA1B
:100830000C0F02D150EA013613D195EA0C0F05D105
:1008400052EA03361CBF104619460AD181EA030159
:1008500001F0004141F0FE4141F470014FF0000011
:1008600070BD41F0FE4141F4780170BD70B54FF0AC
:10087000FF0C4CF4E06C1CEA11541DBF1CEA13552C
:1008800094EA0C0F95EA0C0F00F0A7F8A4EB05040E
:1008900081EA030E52EA03354FEA013100F0888005
:1008A0004FEA03334FF0805545EA131343EA1263CE
:1008B0004FEA022245EA111545EA10654FEA002683
:1008C0000EF000419D4208BF964244F1FD0404F53C
:1008D000407402D25B084FEA3202B61A65EB030598
:1008E0005B084FEA32024FF480104FF4002CB6EB55
:1008F000020E75EB030E22BFB61A754640EA0C00D5
:100900005B084FEA3202B6EB020E75EB030E22BF14
:10091000B61A754640EA5C005B084FEA3202B6EB55
:10092000020E75EB030E22BFB61A754640EA9C0014
:100930005B084FEA3202B6EB020E75EB030E22BFE4
:10094000B61A754640EADC0055EA060E18D04FEAA2
:10095000051545EA16754FEA06164FEAC30343EA42
:1009600052734FEAC2025FEA1C1CC0D111F4801F0F
:100970000BD141EA00014FF000004FF0004CB6E708
:1009800011F4801F04BF01430020B4F1FD0C88BFA7
:10099000BCF5E06F3FF6AFAEB5EB030C04BFB6EBB2
:1009A000020C5FEA500C50F1000041EB045170BDA5
:1009B0000EF0004E4EEA113114EB5C04C2BFD4EBD2
:1009C0000C0541EA045170BD41F480114FF0000E56
:1009D000013C90E645EA060E8DE60CEA135594EAD2
:1009E0000C0F08BF95EA0C0F3FF43BAF94EA0C0FD5
:1009F0000AD150EA01347FF434AF95EA0C0F7FF44A
:100A000025AF104619462CE795EA0C0F06D152EA9D
:100A100003353FF4FDAE1046194622E750EA410681
:100A200018BF52EA43067FF4C5AE50EA41047FF492
:100A30000DAF52EA43057FF4EBAE12E74FF0FF3CF7
:100A400006E000BF4FF0010C02E000BF4FF0010CC8
:100A50004DF804CD4FEA410C7FEA6C5C4FEA430C41
:100A600018BF7FEA6C5C1BD001B050EA410C0CBF90
:100A700052EA430C91EA030F02BF90EA020F0020F2
:100A8000704710F1000F91EA030F58BF994208BF59
:100A900090422CBFD8176FEAE37040F00100704716
:100AA0004FEA410C7FEA6C5C02D150EA013C07D16D
:100AB0004FEA430C7FEA6C5CD6D152EA033CD3D0B8
:100AC0005DF8040B704700BF8446104662468C46B2
:100AD0001946634600E000BF01B5FFF7B7FF0028E5
:100AE00048BF10F1000F01BD4DF808EDFFF7F4FF0E
:100AF0000CBF012000205DF808FB00BF4DF808ED99
:100B0000FFF7EAFF34BF012000205DF808FB00BFBB
:100B10004DF808EDFFF7E0FF94BF012000205DF8DD
:100B200008FB00BF4DF808EDFFF7CEFF94BF012092
:100B300000205DF808FB00BF4DF808EDFFF7C4FF8B
:100B400034BF012000205DF808FB00BF4FEA410CD4
:100B50007FEA6C5C02D150EA013C0AD14FEA430CB7
:100B60007FEA6C5C02D152EA033C02D14FF00000F4
:100B700070474FF0010070474FEA4102B2F1E04385
:100B800024BFB3F5001CDCF1FE5C0DD901F0004C74
:100B90004FEAC0024CEA5070B2F1004F40EB8300C4
:100BA00008BF20F00100704711F0804F21D113F1F0
:100BB0003872BCBF01F00040704741F480114FEA29
:100BC0005252C2F11802C2F1200C10FA0CF320FAB2
:100BD00002F018BF40F001004FEAC1234FEAD323CF
:100BE00003FA0CFC40EA0C0023FA02F34FEA430339
:100BF000CCE77FEA625307D150EA01331EBF4FF0C2
:100C0000FE4040F44000704701F0004040F0FE40DC
:100C100040F40000704700BF7BB972B90029BEBF25
:100C200000204FF0004106E008BF00281CBF6FF015
:100C300000414FF0FF3000F0D3B9ADF1080C6DE981
:100C400004CE002909DB002B1ADB00F04DF8DDF89B
:100C500004E0DDE9022304B07047404261EB41014A
:100C6000002B1BDB00F040F8DDF804E0DDE9022397
:100C700004B0404261EB4101524263EB43037047D1
:100C8000524263EB430300F02FF8DDF804E0DDE9A6
:100C9000022304B0404261EB41017047524263EBD2
:100CA000430300F021F8DDF804E0DDE9022304B09D
:100CB000524263EB4303704753B94AB9002908BF56
:100CC00000281CBF4FF0FF314FF0FF3000F088B913
:100CD000ADF1080C6DE904CE00F006F8DDF804E093
:100CE000DDE9022304B070472DE9F047089D8E46E8
:100CF00004468846002B4AD18A42174662D9B2FA86
:100D000082F64EB1C6F1200301FA06F820FA03F389
:100D1000B74043EA0808B4404FEA174E1FFA87FC71
:100D2000B8FBFEF1230C0EFB118843EA084301FBDC
:100D30000CF29A4209D9FB1801F1FF3080F0EA80E9
:100D40009A4240F2E78002393B449A1AA3B2B2FBBE
:100D5000FEF00EFB102243EA024300FB0CFC9C4514
:100D600009D9FB1800F1FF3280F0D6809C4540F293
:100D7000D3803B44023840EA0140A3EB0C0300213E
:100D80001DB1F3400022C5E90032BDE8F0878B4277
:100D900005D90DB1C5E9000100210846F5E7B3FA10
:100DA00083F1002946D1734502D3824200F20581C6
:100DB000841A6EEB030201209046002DE5D0C5E9B0
:100DC0000048E2E7002A00F09080B2FA82F6002E96
:100DD00040F0A4808A1A030C4FEA174E80B2BCB2CE
:100DE0000121B2FBFEFC0EFB1C2243EA024304FB82
:100DF0000CF29A4207D9FB180CF1FF3802D29A4242
:100E000000F2E080C4469B1AB3FBFEF20EFB1233E5
:100E100040EA034302FB04F49C4207D9FB1802F1A9
:100E2000FF3002D29C4200F2CA8002461B1B42EAFB
:100E30000C40A5E7C1F120068B4022FA06F71F43BC
:100E40000EFA01F420FA06F32EFA06FE4FEA1749CD
:100E5000234300FA01F81FFA87FCBEFBF9F01C0CD3
:100E600009FB10EE44EA0E4400FB0CFEA64502FA14
:100E700001F209D93C1900F1FF3A80F09C80A645A7
:100E800040F2998002383C44A4EB0E041FFA83FE22
:100E9000B4FBF9F309FB13444EEA044403FB0CFCD6
:100EA000A44508D93C1903F1FF3E80F08280A44597
:100EB0007FD9023B3C4443EA0040A4EB0C04A0FB76
:100EC00002EC64457346E14662D35FD05DB1B8EB96
:100ED000030264EB090404FA06F622FA01F31E4346
:100EE000CC40C5E9006400214FE7B1FBF2FC010CE6
:100EF00041EA0E4180B240EA01423B4638463C4658
:100F0000B846BE462026B1FBF7F1A2EB080241EA43
:100F10000C4166E7014618E710462CE7C6F12002AF
:100F20002EFA02F3B740B14020FA02F24FEA174E10
:100F30000A43B3FBFEF8BCB20EFB1833110C41EAB6
:100F4000034108FB04F9B04089454FEA104380B2E1
:100F50003ED9791808F1FF3C01D289451FD8A1EB91
:100F60000901B1FBFEF909FB04F80EFB191192B25D
:100F700042EA0142424529D2BA1809F1FF31C4D2EE
:100F80004245C2D2A9F102013A44BEE7F0459DD2E2
:100F9000BEEB02036CEB070C0138E14696E7A7EBCA
:100FA00009094944A8F1020CB1FBFEF909FB04F858
:100FB000DBE773467FE7504666E70846FDE63B44BD
:100FC000023A33E7ACF1020C3B441CE749469CE78C
:100FD000A1EB0901C446B1FBFEF909FB04F8C4E723
:100FE000704700BFDFF834D0002103E00C4B5B58A2
:100FF000435004310B480C4B42189A42F6D30B4A2B
:1010000002E0002342F8043B094B9A42F9D303F073
:101010009BFD21F0A5FE01F0ADF870470000032014
:101020002C7C1308000000206C01002080030020AD
:1010300020470120FEE7704708B500F0BFFDBDE87E
:10104000084000F041BD00F0BBBD704710B5042161
:10105000044620F0F2FA204610BD000038B50C4BD3
:101060000C4C18800C4B822019806368984740F61E
:10107000110398420AD1094D23682C6082209847B9
:101080002B688220DB689847002038BD0120FCE7F0
:10109000A603002054000020A4030020A803002081
:1010A0004FF4A071F020FFF7D9BF0000F7B5394D1C
:1010B0002B6804461B6982209847208000284ED068
:1010C0002B680DF106025B6901A982209847324B1B
:1010D0001B78002B4BD0BDF8062040F674639A4273
:1010E0003FD9ADF80630BDF806209B1A9BB20A2BFB
:1010F00042D90B22B3FBF2F3284A1288934201D95A
:10110000013A93B2BDF80420254840F6B8318A422E
:1011100034D8C2F571620E32016892B20F25B2FB6B
:10112000F5F2204D2D88AA4284BF05F1FF35AAB201
:101130008A4215468EB22AD9921B91B21A4E37684E
:10114000BB42BAB28CBF9A1AD21A92B21144052984
:10115000C4BF05603360036863803368A38003B055
:10116000F0BDB32A9CBFB422ADF80620BBE7BDF8A2
:101170000630A3F5B473B9E70023C3E7C2F56D6287
:10118000083292B20E2A0168C8D800252A46891A68
:1011900089B2D3E7A80300202C280020A403002054
:1011A000A0030020A60300209C03002037B568465A
:1011B0000D461446FFF77AFFBDF8000030B1BDF8C8
:1011C00002302B60BDF804302360012003B030BD35
:1011D000032821D8DFE800F0020B12190F4B1A6820
:1011E000B2FA82F2520904210D4804F057B90B4BB0
:1011F0005A68B2FA82F252090821F5E7074B9A6859
:10120000B2FA82F252091021EEE7044BDA68B2FA20
:1012100082F252092021E7E7704700BFAC030020AB
:1012200000100240032821D8DFE800F0020B121959
:101230000F4B1A68003A18BF012204210D4804F030
:101240002DB90B4B5A68003A18BF01220821F5E767
:10125000074B9A68003A18BF01221021EEE7044BB1
:10126000DA68003A18BF01222021E7E7704700BF83
:10127000AC0300200010024003280DD8DFE800F086
:101280000206080A0421054804F00DB90821FAE70E
:101290001021F8E72021F6E7704700BF0010024058
:1012A00008B5032811D8DFE800F0020A0C0E04216B
:1012B000074804F0EDF8431E5842584108BD082184
:1012C000F6E71021F4E72021F2E70020F3E700BF62
:1012D0000010024070B5084D00240126E0B2FFF76F
:1012E000DFFF18B12B68012B18BF2E600134052CCD
:1012F00005F10405F2D170BDAC030020012380F894
:10130000781080F8793070477047002070470000EF
:10131000034B4164003918BF01211970704700BFA9
:10132000DF390120704700207047836B0BB10846FE
:10133000184770474FF6FF707047406803689B6915
:1013400018477047704770477047704710B504469C
:1013500000F04CFD23680349D3F890302046BDE8E7
:1013600010401847000000D008B503680446D3F8C1
:101370008430984723682046DB6F984700F0ECF8EC
:10138000236820465B6F9847292001F0D7F900F0C9
:10139000E3F8236820465B6F9847F8E710B50446EA
:1013A00009F00EFB23682046D3F8BC30BDE810409E
:1013B000184700F0FFBC00F003BD00F035BD00F0A1
:1013C000D5BC00F045BD00F04DBD00F0D9BC08F023
:1013D00025BD10B58421044620F02FF9204610BD0C
:1013E00010B590F8341090F878400C4B8C421A7875
:1013F00009D03AB90A4A0B491488088810800C8031
:1014000001221A7010BD002AFCD0054A0549148833
:10141000088810800C800022F3E700BFD839012033
:10142000D4390120D639012070B50D46194635B999
:10143000094B0A4A0A4840F2FF2121F061F9C0E94C
:101440000F52084B003A18BF01221A700368BDE81A
:101450007040D3F890301847603C0208983C02086E
:10146000E63C0208DE39012008B5094B1B888B4297
:1014700003D8084B1B88934205D9074B074A0848F5
:10148000A32121F03DF9074B1980074B1A8008BDB5
:10149000D4390120D63901202B3D02088E3D0208A7
:1014A000E63C0208DA390120DC390120034690F8D5
:1014B0007A0018B1586803681B6818477047000025
:1014C000012108B50022084606F076F90A4B18609B
:1014D00028B90A4B0A4A28210A4821F011F90022AA
:1014E0000421012006F007FA074B186018B9074BD2
:1014F000034A2C21F0E708BDC0030020D13D0208BB
:101500001A3E0208493E0208BC0300208F3E020832
:10151000024B4FF0FF31186806F098B9C003002065
:10152000014B186806F0BEB9C0030020024B002131
:10153000186806F08BB900BFC0030020FFF7F0BFAA
:1015400003480449006800231A4606F00FBA00BF9A
:10155000BC0300200400002013B5084C00231A46E9
:1015600001A9206806F033FA20684FF0FF3300220B
:1015700001A906F02CFA02B010BD00BFBC03002088
:1015800003685B6C18470120704703689B6A184723
:10159000FEE740F2EF307047054B0360054B4FF01C
:1015A0008062C3F88820BFF34F8FBFF36F8F7047FF
:1015B0008848020800E100E010B504464FF45A6183
:1015C000FFF7EAFF204620F038F8204610BD000063
:1015D00082B0002301930E4B1A6B42F400021A638F
:1015E0001A6B02F400020192019A1A6942F4000295
:1015F0001A611A6922F400021A61064B064A1A613E
:10160000064A5A61064B4FF080629A6002B07047FA
:10161000003802400C2A00207118000891150008BB
:1016200000E100E008B50A2809D8DFE800F006105C
:101630000E080808081010101000022008BD054B05
:10164000054A0648902121F05BF80020F6E70120CA
:10165000F4E700BFD13E0208EC3E0208373F020823
:1016600038B50C46887FFFF7DDFFA58AE28A164B66
:101670002169586342EA05425A64628BD963521B5E
:101680001A642568082D0ED19A611A615862207F6C
:101690000E4A42EA0062DA61E2681A620C4A596153
:1016A000D9601A6038BD0022D8611A61E1680A0A5F
:1016B000480902F4784200F4FC600243C1F3C4011B
:1016C0000A439A63034AECE700B0024009000100B4
:1016D000012302000123030008B50B280BD8DFE823
:1016E00000F00612100A0A0A0A0808080808022070
:1016F00008BD0520FCE7054B054A06486F2120F090
:10170000FFFF0020F4E70120F2E700BFD13E02080E
:101710007B3F0208373F02082DE9F04191F81D8018
:101720000C464046FFF7D8FFA77F05463846FFF72F
:10173000D3FF06463846FFF775FFA18A628B444BFC
:10174000521A1A649A61228B521A1A61E28A5863F9
:1017500042EA01425A6421696268D963DA6020680A
:10176000802828D0227F0FD8202867D0402865D035
:1017700004281AD0364B45EA026545F40035B845D1
:10178000DD6161D0334A44E0B0F5807F04D0B0F52C
:10179000007FEFD1304800E0304840EA0262DA6171
:1017A000E2681A625E62596132E045EA026242F41E
:1017B0000032DA61F6E7A068021DDA62227F45EAAC
:1017C000026545F40035DD615E625961017841B121
:1017D000012921D0224B234A23484FF48D7120F058
:1017E0008FFFDA69418822F47F42013922F010022A
:1017F00042EA0122DA610121154BDA6942F0200246
:10180000DA61DA699206FCD410229A600029B9D014
:10181000164A1A60BDE8F081B2F1FF01DA6940882A
:1018200022F47F4200F1FF3022F0100242EA00224F
:1018300042F0100218BF0121DA61DDE745EA0262D9
:10184000034B42F40032B4E742F20132E1E700BF59
:1018500000B0024001230100090002000A0002005A
:10186000C53F0208DF3F0208373F0208012302009C
:10187000024B1B68586803685B691847E039012010
:1018800070B5044625460A4B0C300026606026726F
:10189000667245F8203B6022294609F0E7F904F515
:1018A0005A63EE6024359D42FBD1204670BD00BFD7
:1018B00088480208034B1A68D207FCD423229A6096
:1018C000704700BF00B002407047000030B50F4CB9
:1018D0002568ED07FCD423250904A56041F001012A
:1018E0000225FF2B65636164E0630AD008496562E5
:1018F00041EA0363E361074B22626061E0602360B9
:1019000030BDE561039BA363034BF8E700B00240E1
:1019100009000100010002000100030030B50E4C77
:101920002568ED07FCD423251204A56042F00102CE
:101930000225FF2B65636264E063E16008D01B064B
:1019400043F00213E361054B65626061236030BDC3
:10195000034BE3610123F9E700B0024001000200FC
:10196000020002FF30B50B4C2568ED07FCD423259F
:1019700012041B06A56043F40033022542F0010265
:1019800065636264E063E160E361034B656260612B
:10199000236030BD00B0024001000200012070470A
:1019A0000C2070470C2303FB0100083070470C2308
:1019B00003FB010008307047012070474FF4995035
:1019C00070474FF4995303FB0100083070474FF400
:1019D000995303FB01000830704701207047102025
:1019E000704700EB01100830704700EB0110083021
:1019F0007047084601F020BC10B5034B0360044655
:101A000007F063FF204610BD4049020810B50446A8
:101A1000FFF7F2FF204614211FF00FFE204610BDF5
:101A200010B5034B0360044607F04FFF204610BD7E
:101A30000C49020810B50446FFF7F2FF204641F2B8
:101A400028311FF0FAFD204610BD000010B5034BF1
:101A50000360044607F039FF204610BDD84802084D
:101A600010B50446FFF7F2FF204618211FF0E5FDF0
:101A7000204610BD10B5094B0360044600F59A508E
:101A80001430FFF7B9FF04F12C00FFF7C9FF04F190
:101A90001400FFF7DBFF204610BD00BF74490208A9
:101AA00008B50248FFF7E6FF08BD00BF9C12002002
:101AB00010B50446FFF7DEFF204641F2C8411FF093
:101AC000BCFD204610BD00002DE9F34101F02AFACB
:101AD000054601F02BFA00240146234628462246FB
:101AE000009410F017FD284B284A1A60204602F097
:101AF0002DF8274D274B284A28489A6010F072FC91
:101B00002B68BFF35B8FDB0737D428461FF097FDA8
:101B100098B3234C234B236004F1140000F59A572B
:101B200007F1180604F12C086060C4F80880E7602B
:101B3000266107F0CBFE1C4B6361404607F0C6FEF2
:101B40001A4BE362384607F0C1FE04F5805303F5F3
:101B50005A70174AC3F8542302F07CF8224607F162
:101B60001401304602F06CF8304601F065FB114874
:101B700020F0E4FD28461FF06EFD0F4802B0BDE8DE
:101B8000F041FFF7E3BB00BF443A012048040020C6
:101B900098120020680400204C0400200800002057
:101BA0009C12002074490208D84802080C49020817
:101BB00040490208A11A0008C40300207047000031
:101BC0000148FFF7D1BB00BFC403002070B5264E0B
:101BD000264C274D274B23603046FFF751FE284601
:101BE00015F09EFD24480EF03BFD244B2448DC609C
:101BF00000224FF48071C3E9121222491A86C3E908
:101C00001A12214983F85820C3E91E011F49C3F85D
:101C100080101F491F480B60F021C3E90422C3E96B
:101C20000622C3E90822C3E90A22C3E90E22C3E956
:101C30001022C3E91422C3E917225A6683F87020E0
:101C40005A67C3E9016501801348018013484FF4C6
:101C5000A07101801248018012490A70012283F8A4
:101C60003420114A1A6070BDF40400209412002040
:101C700068040020503C02084C040020C4030020EB
:101C80000000010101000001000450001A001400CE
:101C9000E0390120D4390120DA390120D639012078
:101CA000DC390120D83901209C4702080148FFF7A0
:101CB00073BC00BFF404002000207047818070478F
:101CC000C1807047018170474181704770477047FC
:101CD00070477047704710B4C4880368121B84882B
:101CE0005B6D091B12B25DF8044B09B218474FF641
:101CF000FF7383814FF0FF3303621368C361106089
:101D00007047002070478B888380012070477047A0
:101D100080F82610704790F82600704710B5002212
:101D2000B1F90840B1F90A10028042808480C18074
:101D300010BD0022028042808280C28070470177FD
:101D4000704780ED080A704780F82410704780F8CB
:101D50002510704701207047983070478C307047CD
:101D6000843070477047704770470000034B9022E3
:101D700083F85A2383F85823704700BF00E100E03E
:101D8000094A0A49D3680A48C3F30A03013B9BB2D4
:101D90000B801169C1F30A01013901801364536B8F
:101DA00043F0010353637047006801406627002039
:101DB00064270020014BD3F8AC0070470068014055
:101DC000024B0122C3F8AC105A6270470068014010
:101DD00010B52C2104461FF030FC204610BD10B574
:101DE000BC2104461FF029FC204610BD70B50446F6
:101DF00008F069F823689D6E0DF0CAF90146204687
:101E0000A8472368054AD3F88C502046AC460023E7
:101E1000BDE87040A2F51631604700BF00B004D0A5
:101E200008F038B808F042B807F0FEBF08F06DB906
:101E300090F8252012B103685B691847704790F845
:101E400025201AB190F8242002B1186070470000D4
:101E5000034B4FF080629A604FF080729A60704737
:101E600000E100E0084B4FF08062C3F88820BFF328
:101E70004F8FBFF36F8F4FF08072C3F88820BFF38E
:101E80004F8FBFF36F8F704700E100E070B5002304
:101E9000124E8380124B0360336893F85820054636
:101EA0000AB1D86C00B998680368DB6A9847336850
:101EB000B0FA80F4D86C640930B10368DB6A9847E3
:101EC000002808BF44F001042CB9064B064A074815
:101ED0002C2120F015FC284670BD00BFE039012000
:101EE000884902081D4002087B400208B4400208ED
:101EF00070B5254E3568BFF35B8F15F0010540D1F5
:101F000030461FF09CFB00283BD0204C204B256125
:101F100004F13400C4E90035C4E90255E584A56242
:101F2000A5850EF082FE04F158000AF055FB194B0E
:101F3000A3652046184B40F8843BFFF7A7FF174BDB
:101F4000C4F884302433C4F88C304FF4C803C4E997
:101F500028350023C4F8AC30C4F8B030C4F8B4302D
:101F6000C4F8B8300E480F4BC4F89050C4F89C50D9
:101F7000C4F8A850C4F8983020F0E0FB30461FF0B9
:101F80006AFB024870BD00BF682700206C27002054
:101F900000510208A8490208204A0208B450020869
:101FA000691D00089450020838B5184C23685BB3CB
:101FB000174B184A1B6C11888B4216D1164B198887
:101FC00004F074F8236893F86A200025013283F83E
:101FD0006A2083F87C50FFF7B3FA206808F0F0FC21
:101FE0002846BDE83840FFF7F3B804F05FF82468EE
:101FF000236820461B6A9847012384F87C30002020
:10200000BDE83840FFF70EB938BD00BFE039012008
:1020100000680140662700206427002007B5064BB2
:10202000ADF806001B68054801220DF1060104F019
:10203000B3FD03B05DF804FB0C000020B8280020BD
:1020400008B5642005F0ACFBFBE70000BFB51B4EF4
:102050001B4D1C4C1C4F304602F06AFE284602F015
:1020600067FE0121304602F0E1FE0121284602F020
:10207000DDFE164B22881A80154B3A881A803046AE
:1020800002F027FF2080284602F023FF2288114912
:10209000388083B201A820F0F7FC01A8FEF7A8F869
:1020A0000A2382B201A90C4805F00DFA322002F091
:1020B00085FD012005F074FBCBE700BF9C2A0020C2
:1020C000542A00201A0000201800002016000020CA
:1020D00014000020164102087028002030B595B089
:1020E000102200210AA820F034FD1422002103A8A8
:1020F00020F02FFD00241D4B01941A6C42F08052F9
:102100001A641B6C03F080530193019B184B0294DB
:102110001A6842F440421A601B6803F44043029379
:102120000122029B4FF48033CDE9082302254FF4AE
:102130008003CDE90E5308214FF4A873CDE91013A5
:1021400008A804231393129503F0CEFF0F23CDE9C3
:1021500003354FF4A0504FF48053CDE90603052119
:1021600003A8059404F09CF915B030BD0038024076
:10217000007000402DE980489BB002F0F3FCFFF7AF
:10218000ADFF142200210DA820F0E3FC0024C84B71
:1021900000941A6BC748C84D42F010021A631A6BBC
:1021A00002F010020092009A01941A6B42F0200291
:1021B0001A631A6B02F020020192019A02941A6BC0
:1021C00042F080021A631A6B02F080020292029AB5
:1021D00003941A6B42F004021A631A6B02F00402B1
:1021E0000392039A04941A6B42F001021A631A6B69
:1021F00002F001020492049A05941A6B42F0020262
:102200001A631A6B02F002020592059A06941A6B81
:1022100042F040021A631A6B02F040020692069ADC
:1022200007941A6B42F008021A631B6B03F0080351
:10223000224607933C21079B03F030F99F48012277
:10224000022103F02BF922469C48042103F026F9D1
:1022500022469B484FF4405103F020F901263C23CD
:10226000CDE90D3693480F9403230DA9022710934F
:1022700003F02AF891480DA9CDE90D76CDE90F4478
:1022800003F022F804238D480DA9CDE90D36CDE9E0
:102290000F4703F019F80DA94FF440538848CDE9D2
:1022A0000D36CDE90F4703F00FF88648864B0360E3
:1022B00002F000FFDFF838C2844B2C62C5E900C38E
:1022C00028464FF48043C5E90434C5E90244C5E912
:1022D000064403F0F1FA1021284603F035FD2146AB
:1022E000284603F050FD7A4DDFF808E2AC624FF467
:1022F0008273C5E900E34FF400781823C5E906832B
:1023000028460A23C5E90244C5E90444C5E908444E
:10231000EB6204F0E5FB8F232246394667488DF8CF
:1023200024308DF8344003F0B9F832464FF47A7314
:1023300009A9284604F030FC4FF47A7332460DA9FF
:10234000284604F0D5FD324639465C48614D03F01D
:10235000A5F89DF83430D32B04BF5F4B1E705F4B44
:102360000126C5E900364FF0100840230024C5E9D6
:1023700004834FF4C073C5E906344FF40063C5E924
:1023800008344FF4005302274FF0040A4FF0030BB8
:10239000AB620DA907232846CDE90D73CDE90FA344
:1023A0004FF00809C5E9024ACDE911B7139704F0C7
:1023B0007BFA4FF6FF7209A92846CDE90A960894E0
:1023C00009960C9404F090FA304602F0F7FB4FF6B1
:1023D000FF7209A92846CDE90979CDE90B6404F01B
:1023E00083FA4FF6FF7209A92846CDE909B9CDE96C
:1023F0000BA404F079FA4FF40C730893089B0C9328
:102400004FF6FF7209A92846CDE909A90B9604F0F9
:102410006BFA40F26A51284604F084FA34222146CD
:102420000DEB020020F095FB2D4D2E4B2C61C5E9E4
:1024300000340923C5E905361D23C5E9073B40F2F1
:102440000D1240F24313C5E9092340F2171140F27F
:1024500047132846C5E90B13C5E90244AC8685F845
:10246000364003F02BFDFF21F022CDE912144FF08E
:1024700005094FF480614FF4A073CDE90E24CDE936
:102480001419CDE916420DA922462846CDE9103788
:10249000154D18930D94ADF864408DF8664003F027
:1024A000D8FD124B2B601B6898472B6824E000BFB7
:1024B0000038024000100240B82900200008024005
:1024C000000C02404C2A002000300240A08601008F
:1024D000B82800203C2800202C280020400100A023
:1024E0001029002000680140282800201C0000203E
:1024F000005C004000500140424DDB689847424B71
:102500002846C5E90034C5E90274C5E90A47C5E9AA
:102510000C4402F0DFFD3146284602F091FE3B4DAF
:102520003B4F424621460DA820F013FB394B2C614E
:102530004FF4003B4FF0007A2846C5E9003BC5F850
:1025400008A02C7685F82040EC62AF62EC60EE616A
:1025500085F830406E6102F045FB0D230DA9284639
:10256000CDE90D362C4D0F9402F0B6FC42462146C3
:102570000DA820F0EEFA294BC5F808A02846C5E9B9
:10258000003BC5E90A742C612C7685F82040EC608C
:10259000EE6185F830406E6102F024FB0DA92846FB
:1025A000CDE90D961E4D0F9402F096FC1D484FF498
:1025B000E133C0E900530C23C0E90534C0E902440B
:1025C0000461C46104F050FFFEF736FDFEF733FDF1
:1025D00005F06CF8144A1548214605F09DF8144B97
:1025E000144A18602146144805F096F8134B144A13
:1025F00018602146134805F08FF8134B186005F05A
:1026000067F8FEE70C2A002000B002409C2A002058
:102610000100000F00200140542A00200021014049
:102620000010014070280020AC4A02084120000838
:1026300038280020884A0208471000083428002063
:10264000644A02084D200008302800207047704777
:102650007FB5094B8DF817201B6802930DF1170207
:102660000123009201930A460146044803F0CCF985
:1026700007B05DF804FB00BF10000020B82900205F
:102680007FB500238DF81730084B1B6802930A466C
:1026900001230DF11701009101930146044803F055
:1026A00043FA9DF8170007B05DF804FB1000002006
:1026B000B82900201FB5084C24680092CDE90134E8
:1026C0000A4601230146054803F02EFA003818BFD8
:1026D000012004B010BD00BF10000020B829002068
:1026E00002F06CBA10B5064C00222046042102F01C
:1026F000D5FE20460122BDE81040042102F0CEBEE6
:102700000008024038B50B4D044601220A484FF438
:10271000005102F0C3FE00220421284602F0BEFE52
:102720002046FFF77BFC28460122BDE83840042103
:1027300002F0B4BE00080240000C024038B50B4D58
:10274000044600220A484FF4005102F0A7FE00227E
:102750000421284602F0A2FE2046FFF75FFC28462F
:102760000122BDE83840042102F098BE0008024072
:10277000000C0240F7B5144E144F05460C46304687
:102780000022042102F08AFE00224FF40051384654
:1027900002F084FE2846FFF741FC0D4B0D481B68F4
:1027A000224601A904F0A4FB384601224FF400514F
:1027B000019C02F073FE30460122042102F06EFEFD
:1027C000204603B0F0BD00BF00080240000C0240EC
:1027D0000C000020B828002002F0F0B90268034B7A
:1027E0009A4201D102F0D8B9704700BF00100040F2
:1027F0007047000082B00E4B00220092596C41F4E9
:1028000080415964596C01F4804100910099019212
:10281000196C41F0805119641B6C03F080530193D3
:10282000019B0F216FF0010002B002F003BC00BF5A
:102830000038024010B514228AB0044600210DEB86
:10284000020020F086F92368214A93421FD1214BD0
:102850002148002101915A6C42F480725A645A6CEA
:1028600002F480720192019A02911A6B42F0040202
:102870001A631B6B03F0040302930821029B0323DA
:10288000CDE9051305A902F01FFD0AB010BD134ADA
:102890009342FAD10F4B1248002103915A6C42F433
:1028A00000725A645A6C02F400720392039A049103
:1028B0001A6B42F001021A631B6B03F001030493CD
:1028C000049B20220323CDE9052305A9DBE700BFF4
:1028D0000020014000380240000802400021014071
:1028E000000002400268094B9A4282B00BD10023DB
:1028F0000193074B1A6B42F480521A631B6B03F46B
:1029000080530193019B02B0704700BF003002402A
:102910000038024007B50F4B02689A4216D10022D8
:10292000A3F5F0430192196B41F4000119631B6B8D
:1029300003F40003019305215A20019B02F07AFB66
:102940005A2003B05DF804EB02F0A6BB03B05DF8BB
:1029500004FB00BF00B002402DE9F043044689B0FB
:102960001422002103A820F0F4F82268244B9A4294
:1029700043D1244C244800250095236B43F00403E5
:102980002363236B03F004030093009B0195236BE7
:1029900043F001032363236B03F001030193019BC5
:1029A0004FF012094FF400734FF00108032704267B
:1029B00003A9CDE90339CDE90587079602F084FC28
:1029C0004FF480731148079603A9CDE90339CDE987
:1029D000058702F079FC0295236C43F4000323641D
:1029E000236C03F400030293029B236A43F4000365
:1029F0002362236A23F40003236209B0BDE8F08355
:102A0000005C004000380240000802400000024024
:102A1000F0B599B004461422002107A820F099F8D7
:102A200030220DEB0200002120F093F822685E4B6B
:102A30009A4240F0B78008230C93C02310930423DC
:102A400012930CA84FF40033159303F001FE08B164
:102A5000FFF7CEFE554B5648002400945A6C42F0C6
:102A600080625A645A6C02F080620092009A01946B
:102A70001A6B42F020021A631A6B02F020020192D4
:102A8000019A02941A6B42F001021A631A6B02F067
:102A900001020292029A03941A6B42F002021A6334
:102AA0001A6B02F002020392039A04941A6B42F02A
:102AB00040021A631A6B02F040020492049A0594D1
:102AC0001A6B42F004021A631A6B02F004020592B8
:102AD000059A06941A6B42F008021A631B6B03F006
:102AE0000803069302250E26069B0B964FF480637F
:102AF00007A9CDE90735CDE9094502F0E5FB41F627
:102B000058032C480B9607A9CDE907350927CDE9CD
:102B1000094502F0D9FB032327480B9707A9CDE904
:102B20000735CDE9094502F0CFFB4FF47063224829
:102B30000B9607A9CDE90735CDE9094502F0C4FB9D
:102B40004FF40C631D480B9607A9CDE90735CDE975
:102B5000094502F0B9FBC02319480B9607A9CDE936
:102B60000735CDE9094502F0AFFB082315480B9660
:102B700007A9CDE90735CDE9094502F0A5FB4FF4DA
:102B8000A0530E480B9707A9CDE90735CDE90945B4
:102B900002F09AFB58202246052102F04BFA5820F9
:102BA00002F07AFA19B0F0BD006801400038024026
:102BB00000140240000002400004024000180240DD
:102BC00000080240000C024010B5044688B01422F0
:102BD000002103A81FF0BDFF2268144B9A4223D1A5
:102BE00003F56843002101915A6C114842F48012A8
:102BF0005A645A6C02F480120192019A02911A6B83
:102C000042F020021A631B6B03F020030293029B25
:102C10004FF4607202230321CDE903230523CDE99C
:102C2000061303A902F050FB08B010BD005001408C
:102C30000014024010B5044688B01422002103A8F5
:102C40001FF087FF2268144B9A4223D103F5943377
:102C5000002101915A6C114842F010025A645A6CDA
:102C600002F010020192019A02911A6B42F00102E5
:102C70001A631B6B03F001030293029B4FF4C062C3
:102C800002230321CDE903230723CDE9061303A97A
:102C900002F01AFB08B010BD001001400000024015
:102CA0002DE9F04186B0002303932B4B1C68002CC8
:102CB0004FD14FF00108C3F80080284B00949A6B65
:102CC000274842EA08029A639B6B03EA08030093D1
:102CD000022703260C25009B01A94FF63F03CDE9EF
:102CE0000137CDE9046502F0EFFA1E48059501A908
:102CF000CDE90187CDE9034602F0E6FA48F2331345
:102D00001948059501A9CDE90137CDE9034602F03F
:102D1000DBFA4FF683731548059501A9CDE9013714
:102D2000CDE9034602F0D0FA4CF203731048059542
:102D300001A9CDE90137CDE9034602F0C5FA6023C8
:102D40000C48059501A9CDE90137CDE9034602F00C
:102D5000BBFA06B0BDE8F081E42A0020003802404A
:102D60000014024000080240001802400010024017
:102D7000000C02400004024070B588B000230293AA
:102D8000204B1A6C42F010021A641B6C03F0100303
:102D90000293054601A903A8029B03F03BFC069B96
:102DA0004BBB03F017FC184E184B336040F2E7336F
:102DB000F360174BB0FBF3F3013B73603046002325
:102DC0003361B360B36104F063FA044680B93046FE
:102DD00004F034F9044658B9362002F05DF90F2D9D
:102DE0000DD822462946362002F024F9094B1D60F1
:102DF000204608B070BD03F0EDFB4000D3E701248E
:102E0000F6E700BF00380240E82A0020001000402A
:102E100040420F00840000207047FEE7FEE7FEE717
:102E2000FEE77047014804F047B900BFE82A0020D8
:102E3000014803F0B1B800BF10290020014802F09A
:102E400075B900BF0C2A00200120704708B51FF09B
:102E500081FF162303604FF0FF3008BD08B51FF057
:102E600079FF16230360FEE770B50D4614460E4643
:102E7000731B9C4201DC204670BDAFF3008006F856
:102E8000010BF5E770B50D4614460E46731B9C42C8
:102E900001DC204670BD16F8010BAFF30080F5E7AA
:102EA0004FF0FF3070474FF400534B6000207047E5
:102EB00001207047002070470A4A116808B5034690
:102EC00009B9094911601068694603448B4206D963
:102ED0001FF040FF0C2303604FF0FF3008BD13606C
:102EE000FCE700BF302B002020470120704710B5C1
:102EF000042104461EF0A1FB204610BD012908B59F
:102F000006D0022908D059B900F06CFE006808BD4F
:102F100000F068FE4068FAE700F064FE8068F6E7BB
:102F20000020F4E700487047E44A02080C2070478C
:102F300013B5002451B1036801948DF8034001AA30
:102F40009C680DF10303A04702B010BD0846FBE7E3
:102F5000C0897047008A7047C08870478088704772
:102F6000807A00F07F007047807AC00970470020A7
:102F7000704700009FED010A704700BF000000008D
:102F8000704710B5082104461EF057FB204610BDBF
:102F90007047704700F598730868496803C3704725
:102FA000704770474160704770477047064BC0F8E4
:102FB0004C310023C0F8503100F5A273C0F848012D
:102FC000C0F84031704700BF6D3000080123037224
:102FD0007047704710B4C26841685410034601EB53
:102FE0006200D20748BF0A599B685DF8044B48BF8E
:102FF000D35818470346406830B19A681AB9D86860
:1030000000F0010070470120704710B50C21044604
:103010001EF013FB204610BD10B5102104461EF013
:103020000CFB204610BD10B54FF4AE7104461EF0E7
:1030300004FB204610BD10B50CF0AAF80368BDE8EB
:103040001040DB6B184710B50446D0F8400158B16A
:103050000368DB68984738B1D4F8400103689B687F
:1030600098470023C4F8403110BD00002DE9F14F0E
:10307000D0E9556A0746B06803681B6A9847B0F5FF
:10308000995F05D2444B454AA32145481FF038FBC0
:10309000706803681B6A98470F2803D8414B3F4A62
:1030A000A421F2E7F06803681B6A98470B2803D84D
:1030B0003D4B3A4AA521E8E70CF06AF8DFF8F090BA
:1030C00004300CF08AF8D9F8000010B10368DB680E
:1030D0009847D9F8000010B103681B689847DFF8DB
:1030E000D480D8F8000010B103685B699847D7F81E
:1030F0003C0110B103685B689847D8F8000010B134
:1031000003681B689847D7F83C0110B103689B68B7
:103110009847F068036800215B6A98474FF0000BFE
:10312000224BC0F804B0044680F808B00360B068D1
:10313000036859465B6A9847054600F0CBFD706806
:10314000036859465B6A98472946064600F094FD95
:10315000331DC7F83C61C9F80040C8F80050CAF8F0
:1031600000302B68C6F808A02846DB68EE63984755
:10317000336830461B689847214628460EF0B8F958
:10318000236820461B69984723685B69204601B085
:10319000BDE8F04F184700BF43410208D141020883
:1031A000A3420208EA4202088D430208584C020872
:1031B000283A0120243A0120044B1B6893F8582038
:1031C0000AB1D86C00B99868704700BFE039012097
:1031D000F8B5174604460E460CF09CF8124B1C60DE
:1031E000124B2360124B0025C4E95135114BC4E941
:1031F00053551868036801219B68C4E94F55C4E919
:1032000055769847284600F0A1FCFFF7D5FF16F049
:1032100030F9FFF7D1FF16F0A7F9FFF7CDFF16F051
:10322000AFF92046F8BD00BF343A0120044C020833
:10323000EC4B0208E0390120064BC0F84C3100236A
:10324000C0F8503100F5A273C0F84801C0F8403111
:10325000704700BF6D300008406A7047806A704751
:1032600070478A880B8810B5D20A4C88C1699BB216
:1032700051F8220043EA0443184410BD10B5044637
:10328000BAB1107B68B1537BD27A1B0203F4E063BE
:103290001A43236A03EB82031A888A4202D193F904
:1032A000020010BD05D8013880B204330028F3D1E4
:1032B000F7E70020F5E710B52C2104461EF0BDF914
:1032C000204610BD30B58BB00446BDF8605008955F
:1032D000BDF85C5007959DF8505006959DF84C50F0
:1032E00005959DF8485004959DF8445003959DF828
:1032F000405002959DF83C500195BDF8385000951E
:103300000DF050FD064B2360159BE361169B236275
:10331000199B63621A9BA36220460BB030BD00BFAD
:103320007C4C0208806A704770477047704770474E
:10333000704730B5036885B06D460181D3F884309D
:10334000014604462846984795E807003C3484E83F
:10335000070005B030BD30B5036885B06D464181CA
:10336000D3F88430014604462846984795E807007C
:103370003C3484E8070005B030BD00220280428062
:103380008280C280704780F83610704770B503683D
:1033900004461B6B154698472368294620465B6EFA
:1033A000BDE87040184700207047806C7047704738
:1033B0007047704770477047704730B4C2684468C0
:1033C0005510034604EB6200D20748BF62599B6860
:1033D00030BC48BFD35818470346406830B19A689C
:1033E0001AB9D86800F0010070470120704790F8C2
:1033F0002D3080F85C3070470146343091F82C3025
:1034000013B1623109F0C9BA6031FBE710B564212C
:1034100004461EF012F9204610BD10B54C2104469A
:103420001EF00BF9204610BD10B5102104461EF009
:1034300004F9204610BD10B54FF40A7104461EF081
:10344000FCF8204610BD08B5FEF7F2FC08BD10B52B
:103450000446006B50B10368DB68984730B1206BBD
:10346000036821469B68BDE81040184710BD00F571
:103470008E728A4202D10368DB6A184770470B7963
:1034800070B590F82C6004460D460BB916B170BDAE
:10349000002EFCD0B3FA83F35B0984F82C30236848
:1034A0002046D3F88C309847236820465B699847BC
:1034B000002EECD02B79012BE9D123682046D3F8DC
:1034C0008830BDE870401847036870B55E6B124BDA
:1034D0001B6804468DB22BB9104B114A6C21114860
:1034E0001FF00EF91049828D0988914203D80F4BC5
:1034F0000B4A6D21F3E713F812200D4B1B6853F8AC
:10350000220003681B6B9847291A3346204609B2EC
:10351000BDE87040184700BF383A01203044020827
:1035200072440208AD4402083C3A0120F444020807
:10353000403A012000224FF0FF31C0E900218260B3
:10354000704770B5036804461B6B1546984723689F
:10355000294620465B6BBDE87040184770B503688C
:1035600004469B6B15469847236829462046DB6B2B
:10357000BDE8704018470B8870B5A0F8603005466C
:10358000138825F8623F044628460EF0D7FF06460A
:1035900028460FF007F8314602462046FFF7DEFFC7
:1035A00023682046D3F88C30BDE8704018470000EF
:1035B0000022C0E90122C0E90322C0E90522C0E9D6
:1035C00007224FF480728284014A0260704700BF74
:1035D000E44C020838B5262204460D4600211FF0AF
:1035E000B8FA2046FFF7E4FF064B23602B88E384FC
:1035F000FF23204684F82830294609F0CEF92046DA
:1036000038BD00BF2C52020810B526220446002106
:103610001FF09FFA2046FFF7CBFF0A4BA3624FF63D
:10362000FF73A3854FF47F020023C4E90C32064ADE
:10363000226023874FF0FF32C4E91023E363A364C1
:10364000204610BDDC4B02084C4D0208F7B54FF484
:103650007F430646838540F2011300258384134B84
:103660008562C0E90155C0E90355C0E90555C0E9C7
:103670000755056346F8343B04464FF6FF7701A92A
:103680003046ADF80470FFF7A5FF2A4629463046BC
:10369000A4F86070A4F86270FFF753FF204631462B
:1036A00006F026F9204603B0F0BD00BFDC4D02084D
:1036B0002DE9F04F04468DB0274600250DF06CFD36
:1036C000884BE56347F8403B2622294638461FF0E1
:1036D00040FA3846FFF76CFF834B236404F16C0B10
:1036E000FF234FF6FF7684F866300AA9A566584690
:1036F000ADF82860FFF76EFF04F198030AA9184699
:103700000193ADF82860FFF765FF04F1C4030AA92F
:1037100018460293ADF82860FFF75CFF04F1F00350
:1037200004F58E7A0AA91846039304F5C079ADF81A
:103730002860FFF74FFF5046FFF788FF04F5E67853
:103740004846FFF761FF4046FFF75EFF674BC4E95D
:103750008634674B2A46C4E9883529463846FFF740
:10376000F0FE4FF4A0723846F021FFF7F7FE261D59
:103770004FF07F43A3663946304606F0B9F82A4633
:1037800029465846FFF7DDFE0AA95846ADF82850ED
:1037900009F003F95946304606F0AAF82A4601987E
:1037A000DFF850B12946FFF7CCFE01270198ADF8AC
:1037B00028700AA909F0F1F80199304606F098F846
:1037C00002982A462946FFF7BCFE02220298ADF86D
:1037D00028200AA909F0E1F80299304606F088F895
:1037E00003982A462946FFF7ACFE03220398ADF85A
:1037F00028200AA909F0D1F80399304606F078F894
:103800000522ADF824200922ADF8282009A90AAA2A
:103810005046FFF7B0FE2A46294604F5A870FFF788
:1038200090FE04F50672C4F84C215046C8225A2175
:10383000FFF787FE3C2211465046FFF78FFE5146A8
:10384000304606F055F848466A224A21FFF779FECD
:10385000D4F88021A4F8B4514FF07F430DF1100A41
:10386000C4F8B03149465046D2F8842090479AE8CF
:10387000070004F5DE7C8CE807000AA94846CDF86D
:1038800028B0ADF82C7008F0C1FF4946304606F06C
:103890002FF88C2240464A21FFF753FE4FF07F431A
:1038A000C4F8FC31D4F8CC31A4F80052414650465B
:1038B000D3F8843098479AE8070004F5027383E848
:1038C00007000AA94046CDF828B0ADF82C5008F002
:1038D0009DFF3046414606F00BF820460DB0BDE88E
:1038E000F08F00BF944E0208C45102087C4E0208BB
:1038F0006F340008DC4B02087047000030B5164DED
:103900002C6814F001048FB0BFF35B8F20D12846E0
:103910001DF095FEE0B13F230993104B0893104B27
:10392000104911480A940122CDE906430423CDE948
:1039300003320A230093CDE90B44CDE901440594F9
:10394000FFF7C0FC09481EF0F9FE28461DF083FE73
:1039500005480FB030BD00BF342B0020AC5C02081E
:10396000B85C02087C5C0208382B0020F93800089B
:103970007047000030B5164D2C6814F001048FB06C
:10398000BFF35B8F20D128461DF059FEE0B13F23E5
:103990000993104B0893104B104911480A940122C7
:1039A000CDE906430423CDE9033214230093CDE986
:1039B0000B44CDE901440594FFF784FC09481EF04F
:1039C000BDFE28461DF047FE05480FB030BD00BFC4
:1039D000642B0020B05C0208BC5C02088C5C02080E
:1039E000682B0020713900087047000030B5164D73
:1039F0002C6814F001048FB0BFF35B8F20D12846F0
:103A00001DF01DFEE0B13F230993104B0893104BAE
:103A1000104911480A940122CDE906430423CDE957
:103A2000033228230093CDE90B44CDE901440594EA
:103A3000FFF748FC09481EF081FE28461DF00BFEEA
:103A400005480FB030BD00BF942B0020B45C0208C5
:103A5000C05C02089C5C0208982B0020E939000831
:103A600000207047002070470EB403B503AB00215F
:103A700053F8042B01930CF013FC02B05DF804EB37
:103A800003B070470CB407B504AB53F8042B019393
:103A90000CF006FC03B05DF804EB02B070470000C8
:103AA000436C10B5044673B3038F2BB9184B194AF6
:103AB000C52119481EF024FEC38E00EB43035B8C26
:103AC0000BB30EF054FA238F012B03D8134B144A77
:103AD000CB21EEE7E28E531C9BB2092B194688BF1F
:103AE000A3F10A0104EB410140F63F10498C8142E9
:103AF00009D10A2B04EB420228BF002304EB430345
:103B0000508C588451842046BDE810400EF032B9E4
:103B1000324502083B450208E645020830460208E5
:103B20003E4602080EF0EDB810B586B002AC84E84F
:103B300006001A460AAB05930193099B00932146A0
:103B4000089B0AF0C3FE06B010BD000038B518BBD4
:103B5000124B13481C681349B4B122682244026016
:103B6000626822440A60A26814440F4B00221A8043
:103B700000F038F8054600F033F80C4B1C600C4B95
:103B80001D600C4B188007E00B4B03600B4B0B6068
:103B90000B4B1C68002CE8D138BD00BFD02B002097
:103BA000C82B0020C42B0020CC2B0020383A012049
:103BB000403A01203C3A0120CC5C0208C45C020877
:103BC000D05C0208044B1B6853F82100034B1B68B0
:103BD00003EB4000704700BFC42B0020C82B00201F
:103BE0000220704700487047D42B002010B5FFF723
:103BF000C1FE044C2060FFF7F9FE6060FFF77EFE17
:103C0000A06010BDD42B002010B5002404600C600F
:103C100014601C6010BD704710B54FF4AE710446BF
:103C20001DF00BFD204610BD10B50446D0F858011C
:103C300000F013F82046BDE810400BF02BBB00004D
:103C400010B50446FFF7C4FA014B2360204610BDAF
:103C5000CC4E02080022026070477047704704385B
:103C60007047704710B5102104461DF0E6FC204651
:103C700010BDA0F10400F5E700228260024A026054
:103C800018324260C1607047204F02087047000040
:103C900038B5094B0360044641F28C15B5F5057F34
:103CA00005D0635960191B6898472C3DF6E72046FC
:103CB000FFF781FB204638BD484F020810B5044687
:103CC000FFF7E6FF20464FF499511DF0B6FC204661
:103CD00010BD00002DE9F3410646FFF7E9FC324B29
:103CE00033601E24012306F58D57C6E98A43183731
:103CF00006F510744FF6FF7504F5C678204601A945
:103D00002C34ADF80450FFF765FC4445F6D1BC42B5
:103D1000F2D101A906F59250ADF80450234CFFF7FB
:103D200059FC06F5935001A90C30ADF80450FFF78B
:103D300051FC0FCC06F5805707F52F750FC50FCC3A
:103D40000FC594E80F00103485E80F000FCC07F57D
:103D50003B750FC50FCC0FC594E80F0085E80F0029
:103D6000FA23C7F81C331248124A0423C7F83C321E
:103D70000A210023C6E98C13C7E9AB0202F1031242
:103D8000C7F8B4220322C7F8B8220B4AC6F83C226F
:103D90000A4AC7F89C220A4AC7F8A022304687F888
:103DA000983202B0BDE8F081484F0208A83B0208F3
:103DB000040006000700080015CD5B070000D6428E
:103DC00000008C432DE9F74F00F58D5600F5905813
:103DD00007461736002508F1140815F0010F4FF4B7
:103DE000C6740CBF4FF0080B4FF0090B04FB0574B1
:103DF000B2464FF000091AF8013F7BB1D4F84032C7
:103E000038F925209B6DB4F9441204F51070019027
:103E10009847D4F8403201985B69984709F1010945
:103E2000D94504F12C04E6DB01350A2D06F109061B
:103E3000D3D103B0BDE8F08F00F5905300F5915059
:103E40001033183053F8042F013283421A60F9D12D
:103E500070470000D0B500F580542DED048B94F828
:103E60009832012B14D0022B6CD073B93E4B1B88B7
:103E7000783B9BB20F2B05D83C4B1B88783B9BB201
:103E80000F2B02D9012384F89832BDEC048BD0BDEE
:103E9000354B1B88783B9BB20F2BF6D8334B1B88D6
:103EA000783B9BB20F2BF0D8022384F89832304B2A
:103EB000DFED307A1B8808EE903A2F4B1B88F8EE26
:103EC000E88A08EE103A78EEE78AB8EEC88A38EE4B
:103ED000678AF1EE687A17EE900AFCF745FB68EE08
:103EE000087A0646E8EEA87A0F4617EE900AFCF725
:103EF0003BFB41EC190BB0EE490AF0EE690A1DF0EC
:103F0000C4FB304653EC102B3946FCF7AFFCFCF7F2
:103F100033FEB0EE490AF0EE690AC4F8A4021DF0BF
:103F2000B4FBF1EE487A57EC106B17EE900AFCF7F1
:103F30001BFB32463B46FCF799FCFCF71DFEC4F820
:103F4000A802A2E7D4EDA77A94EDA97A77EE877A52
:103F500094EDAA7AC4EDA77AD4EDA87A77EE877AA1
:103F6000C4EDA87A91E700BF180000201A000020D5
:103F7000160000200000FF421400002038B500F5B4
:103F800080542DED028B94EDA70A00F592551DF09B
:103F90002DFDB0EE408A94EDA80A1DF027FDBDEE80
:103FA000C00ABDEEC88A10EE103A1AB218EE103AE6
:103FB000284619B2FDF78FFEBDEC028B2846BDE8FE
:103FC00038400CF097BA31EE426A70EEE27A31EE88
:103FD000E27A70EE426A67EEC67A32EE432AE6EE85
:103FE000877A88B030EE437AF5EEC07A70EEE37AE5
:103FF00072EEE32A67EEC27AF1EE10FAE7EE227A69
:104000004CBF01230023F5EEC07AF1EE10FA4CBF4D
:1040100001220022934217D130EE410A73EEE13AB9
:1040200070EEE10A33EE413A20EE230AA3EE600A75
:10403000B5EEC00AF1EE10FA4CBF01200020C31A01
:104040005842584108B070470020FBE72DE9F04F77
:1040500001F5805A2DED068BDAEDA8AADAF83C724C
:104060008BB005461AEE900A0C46FCF77DFA00224A
:10407000804BFCF719F907F2844304EB8303804675
:1040800058688946FCF75EFA7A4B0022FCF70EF975
:1040900002460B4640464946FCF74EFD48B14FF0FC
:1040A000FF33C5E9003328460BB0BDEC068BBDE8F5
:1040B000F08F6FF02A0363430193B946F2EE0A8A48
:1040C000F2EE0D9A09EBC90109F0010601F58D51D7
:1040D00006F10803173109F28448009321444FF098
:1040E000000B04EB880811F8010F002800F0B180E4
:1040F0002C2303FB01F0A0F54230A0F5AE70019B2C
:10410000D8ED017AC35E9AEDA74A01EE103AF8EEB7
:10411000E75AB8EEC11A35EEA95A34EE68AA7AEE1B
:10412000E94A31EE688A31EE289AF0EE453AB0EE6F
:10413000493AB0EE482AF0EE452AF0EE651AB0EEA4
:104140004A0AF0EE640A20468DED02AACDED034A3C
:104150008DED041ACDED055A8DED095AFFF733FFA9
:1041600090B109F101030A2193FBF1F001FB103931
:1041700016B90BF1010B04E0BBF1080F08BF4FF0BB
:10418000070BC5E9009B8EE775EEE95AB0EE493A98
:10419000F0EE453AB0EE492AF0EE652AB0EE4A0A52
:1041A000F0EE640A2046FFF70EFF80B1009B082B5B
:1041B0000CBF072108218B45DBD109F101030A223D
:1041C000C6F1080B93FBF2F102FB1139D9E734EE8B
:1041D000284AB0EE483AF0EE453AB0EE492AF0EE01
:1041E000452AB0EE440AF0EE640A20468DED088AB6
:1041F000FFF7E9FE70B109F101030A2193FBF1F029
:1042000001FB1039002EBCD0BBF1000FB9D00BF16F
:10421000FF3BB6E7B0EE483AF0EE453AB0EE482A3A
:10422000F0EE652AB0EE440AF0EE640A20468DED09
:10423000068ACDED075AFFF7C6FE50B1BBF1000F5D
:10424000E5D109F101030A2193FBF1F001FB1039DB
:1042500097E7009B0BF1010B5B453FF744AFB9F1CA
:1042600001024CBF09F1090991464F457FF42AAF7D
:1042700015E700BF00002D40F0B585B06B4683E820
:1042800006004FF4C67316464B432C22044602FB2D
:10429000063303F51070234404F58057D3F84032F9
:1042A000B7F866221B6EADF80C200D46204403A91A
:1042B000984705EBC503E218324441F2B8100121DA
:1042C0001154D7F83C124FF00A0C4A1C92FBFCFE2A
:1042D0000CFB1E22AA421FD1034415F0010F04EB70
:1042E00003024FF000030CBF4FF0080C4FF0090C15
:1042F00018469E4218BFD05401336345F9DB05F2DE
:10430000844301F2844104EB830304EB810462687B
:104310001D325A60C7F83C5205B0F0BD13B500F528
:10432000805401A9B4F89232ADF8043000F59250EF
:1043300008F033FB002384F89832044BC4F89C3215
:10434000034BC4F8A03202B010BD00BF0000D6423B
:1043500000008C43D0F83C120246054843F2390372
:1043600000FB013323F00040C2F83C02704700BF5D
:104370006D4EC64110B50446FFF7ECFF04F58053BF
:10438000D3F8B832B0FBF3F202FB130000F654107E
:1043900004EB4004A08810BD13B50446FFF7EAFF04
:1043A000ADF8040004F5935001A90C3008F0F5FABB
:1043B00002B010BDF7B5044603F0ABF9D4F82832CB
:1043C000B0FBF3F503F09EF9D4F83832C01AA842D6
:1043D00052D904F58055D5F83C3203F2844304EBFE
:1043E00083035868FCF7AEF8244B0022FBF75EFF0E
:1043F0000646D5F81C030F46FCF7A4F802460B4608
:1044000030463946FCF798FB0146A8BBD4F8343255
:104410005A1CC4F83422D4F83022934204D12046E6
:10442000FFF70AFDC4F8341220466D46FFF712FD6F
:1044300021462846FFF70AFE009B01330DD0019B61
:1044400001330AD095E806002046FFF715FF204605
:10445000FFF764FF2046FFF79FFF2046FFF7B2FCFF
:104460002046FFF78BFD04F593500C300CF042F81A
:1044700003F048F9C4F8380203B0F0BD00002D4045
:104480002DE9F04F00F5805A87B0DAF83C42054636
:104490004FF0FF36731C02BFDAF83C621D235E4307
:1044A00004F0010318BF1D3E002B0CBF0823092395
:1044B00001934FF4C67303FB045804EBC40305EBEC
:1044C000840903F58D5309F5805903F117032B4433
:1044D0000093C9F814620CBF102703270023D8F8F3
:1044E00040220393126E02922846FFF743FF08F51D
:1044F000107B029AADF8140005A95846904739B2CE
:10450000B9F914225846FFF71CF8009B4FF001023E
:1045100003F8012F5946281D009305F0E9F9039B84
:10452000019A01331A37934208F12C08BFB2D6D151
:10453000631E58BF1C46DAF83C3248BF0934A34218
:10454000A8D107B0BDE8F08F70B52DED028B82B019
:1045500000F592550446FFF70DFF04F5805601A9BA
:10456000ADF80400284608F018FA96EDA70A1DF0E9
:104570003DFAB0EE408A96EDA80A1DF037FABDEE7E
:10458000C00ABDEEC88A10EE103A1AB218EE103A00
:10459000284619B2FEF7D5FF2946201D02B0BDEC12
:1045A000028BBDE8704005F0A3B937B5054600F5AC
:1045B0009354FFF7DFFE0C34ADF8040001A9204648
:1045C00008F0EBF920464FF48C720A21FEF7B9FF90
:1045D0002146281D03B0BDE8304005F089B910B56B
:1045E0000446FEF7E9FE2046FFF74AFF2046FFF7A4
:1045F000ABFF2046FFF7D9FF002384F8413103F0D9
:1046000081F8C4F8380210BDF02070474FF4A07054
:1046100070472920FEF792B82820FEF78FB808B51A
:10462000FEF760F8CA20FEF789F8C320FEF76AF8A3
:104630000820FEF767F85020FEF764F8CF20FEF759
:104640007DF80020FEF75EF8C120FEF75BF8302011
:10465000FEF758F8ED20FEF771F86420FEF752F8E7
:104660000320FEF74FF81220FEF74CF88120FEF7EA
:1046700049F8E820FEF762F88520FEF743F80020AD
:10468000FEF740F87820FEF73DF8CB20FEF756F80D
:104690003920FEF737F82C20FEF734F80020FEF71B
:1046A00031F83420FEF72EF80220FEF72BF8F72021
:1046B000FEF744F82020FEF725F8EA20FEF73EF842
:1046C0000020FEF71FF80020FEF71CF8B120FEF7CF
:1046D00035F80020FEF716F81B20FEF713F8B62079
:1046E000FEF72CF80A20FEF70DF8A220FEF70AF8D4
:1046F000C020FEF723F81020FEF704F8C120FEF7D3
:104700001DF81020FDF7FEFFC520FEF717F8452025
:10471000FDF7F8FF1520FDF7F5FFC720FEF70EF8AF
:104720009020FDF7EFFF3620FEF708F8C820FDF7D0
:10473000E9FFF220FEF702F80020FDF7E3FFB020CA
:10474000FDF7FCFFC220FDF7DDFFB620FDF7F6FF09
:104750000A20FDF7D7FFA720FDF7D4FF2720FDF79C
:10476000D1FF0420FDF7CEFF2A20FDF7E7FF002050
:10477000FDF7C8FF0020FDF7C5FF0020FDF7C2FFD1
:10478000EF20FDF7BFFF2B20FDF7D8FF0020FDF73E
:10479000B9FF0020FDF7B6FF0120FDF7B3FF3F2072
:1047A000FDF7B0FFF620FDF7C9FF0120FDF7AAFFD6
:1047B0000020FDF7A7FF0620FDF7A4FF2C20FDF742
:1047C000BDFFC820FEF708F82620FDF7B7FF01203F
:1047D000FDF798FFE020FDF7B1FF0F20FDF792FFF6
:1047E0002920FDF78FFF2420FDF78CFF0C20FDF71B
:1047F00089FF0E20FDF786FF0920FDF783FF4E207D
:10480000FDF780FF7820FDF77DFF3C20FDF77AFF64
:104810000920FDF777FF1320FDF774FF0520FDF752
:1048200071FF1720FDF76EFF1120FDF76BFF0020D1
:10483000FDF768FFE120FDF781FF0020FDF762FF33
:104840001620FDF75FFF1B20FDF75CFF0420FDF73E
:1048500059FF1120FDF756FF0720FDF753FF3120C8
:10486000FDF750FF3320FDF74DFF4220FDF74AFFD3
:104870000520FDF747FF0C20FDF744FF0A20FDF758
:1048800041FF2820FDF73EFF2F20FDF73BFF0F20C3
:10489000FDF738FF1120FDF751FFC820FDF79CFF01
:1048A0002920FDF74BFFBDE808402C20FDF746BF4F
:1048B00008B5FDF717FF0321D320FDF75BFF80B29A
:1048C00008BD10B5C4B2022203212046FDF7C0FE88
:1048D0000A20FDF705FF204600220321FDF7B8FE60
:1048E000BDE810400220FDF7FBBE38B50446E4B237
:1048F000FDF7ACFE00212046FDF7C2FE0121054672
:104900002046FDF7BDFE40EA052080B238BD10B557
:10491000C4B240212046FDF7B3FE030607D54C2163
:104920002046FDF7ADFE003818BF012010BD012262
:104930004B212046FDF78CFE204600224B21FDF73F
:1049400087FE0020F2E773B50423C4B20E46154675
:10495000D7210DEB03022046FDF7ACFE019B1BBAED
:104960001A0DC3F30B23328020462B8001224B21EA
:10497000FDF76EFE00224B212046FDF769FE02B0D6
:1049800070BD000010B50A4A1378984204460DD055
:10499000517888420AD00BB141B90123D454FDF7B4
:1049A00055FE2046BDE81040FFF78BBF10BD00BF8D
:1049B000E02B002010B5C4B209212046FDF760FEAF
:1049C00040F00102D2B220460921BDE81040FDF7B7
:1049D0003FBE10B5C4B209212046FDF751FE0921A2
:1049E00000F0FE022046BDE81040FDF731BE38B5AC
:1049F000C4B20D4620460A21FDF742FE40EA0502F8
:104A0000D2B220460A21BDE83840FDF721BE10B5DC
:104A10000446FDF71CFE20461F21FFF7E8FF204655
:104A2000BDE81040FFF7C6BF38B5C4B20D462046FA
:104A30000A21FDF725FE20EA0502D2B220460A210E
:104A4000BDE83840FDF704BE10B50446FFF7C1FFCE
:104A500020461F21BDE81040FFF7E6BF10B5C0B2E9
:104A60000C460B21FDF70CFE204010BD1F21FFF767
:104A7000F5BF0A46C0B20B21FDF7EABD1F21FFF7C3
:104A8000F8BF38B5C4B20D4620461721FDF7F8FD32
:104A900020EA0502D2B220461721BDE83840FDF7D2
:104AA000D7BD70B5C4B2064604212046FDF7E8FD27
:104AB000042100F0FB0205462046FDF7C9FD304603
:104AC000F021FFF7DEFF05F0F80220460421FDF794
:104AD000BFFD492220212046FDF7BAFD0220FDF747
:104AE000FFFD204601222121FDF7B2FD20469A223A
:104AF0004121FDF7ADFD204601224A21FDF7A8FD29
:104B0000204601224B21FDF7A3FD204600224B2128
:104B1000FDF79EFD204601225621FDF799FD204616
:104B200001225821FDF794FD204601224021FDF786
:104B30008FFD2046FF220B21FDF78AFDBDE8704066
:104B40000220FDF7CDBD0000054BD3F8882042F4CC
:104B50007002C3F888204FF000629A60704700BF6F
:104B600000ED00E008B50B4B1A6842F400721A60C1
:104B70001A6842F480621A601A6842F480721A60FD
:104B8000032000F045FA0020FEF7F6F8FDF732FEAC
:104B9000002008BD003C0240034A044B11681B780A
:104BA0000B441360704700BFE42B002080000020FE
:104BB000014B1868704700BFE42B002038B504464D
:104BC000FFF7F6FF631C1CBF054B1B78054618BF9B
:104BD000E418FFF7EDFF431BA342FAD338BD00BF33
:104BE0008000002038B50446002800F09B80056C4A
:104BF00025B9FDF71FFE656484F83C50236CDB0685
:104C000000F18E80236C23F4885323F0020343F0D9
:104C100002032364444B5A6822F440325A605A68B3
:104C200061680A435A60236821695A6822F48072D5
:104C30005A605A6842EA01225A605A68A16822F012
:104C400040725A605A680A435A609A68E16822F4CE
:104C500000629A609A680A439A603449A26A8A425A
:104C600052D0996821F07061996099680A439A60FE
:104C70009A68E16A22F040529A609A680A439A6000
:104C80009A6822F002029A609A68217E42EA410202
:104C90009A6094F82020002A3ED05A68616A42F453
:104CA00000625A605A6822F460425A605A680139B8
:104CB00042EA41325A60DA6AE16922F47002DA6249
:104CC000DA6A013942EA0152DA629A6822F4007221
:104CD0009A609A6894F8301042EA41229A609A6881
:104CE000616922F480629A609A68002042EA812217
:104CF0009A606064236C23F0030343F00103236490
:104D0000002384F83C3038BD9A6822F070629A60C3
:104D10009A6822F04052B2E75A6822F40062C9E76A
:104D20000120EDE70120EEE7002301400100000F24
:104D300082B00023019390F83C30012B69D001230D
:104D400080F83C3003689A68D2070BD59A68D1077F
:104D50001AD4036C43F010030364436C43F0010363
:104D600043644CE09A682C4942F001029A602B4A55
:104D70001268B2FBF1F202EB42020192019A002AA0
:104D8000E4D0019A013AF8E7026C22F4E06222F0E2
:104D9000010242F4807202645A68520541BF026CFB
:104DA00022F4405242F480520264026C12F48052A7
:104DB0001CBF426C22F006024264002280F83C20B4
:104DC0006FF022021A60164A516811F01F0F154940
:104DD0001CD18B4207D001F580718B420CD15268F7
:104DE00012F01F0F0BD19A6812F0405F07D19A683A
:104DF00042F080429A6002E00B498B4202D00020D0
:104E000002B07047526812F0100FEBE78B42F6D1F8
:104E1000E9E70220F4E700BF40420F007C000020D9
:104E200000230140002001400022014003689A68ED
:104E3000520570B504460D460BD59B68DE0508D5B6
:104E4000036C43F020030364002380F83C3001200E
:104E500070BDFFF7ADFE064623681A6891070CD5B2
:104E60006FF012021A60226C42F4007222649A6897
:104E700012F0405F17D00020EAE7681CEDD065B95A
:104E800023681B6813F00203E6D1226C84F83C30DF
:104E900042F0040222640320DAE7FFF789FE801B58
:104EA000A842EDD8D8E7227E002AE4D1DA6A12F4CB
:104EB000700F02D09B685A05DDD4236C23F48073F5
:104EC0002364236CDB04D6D4236C43F001032364F6
:104ED000D1E70368D86C7047F7B50023019390F8C9
:104EE0003C30012B054600F08680012380F83C30E1
:104EF00008682B688E68092884B233D904EB440211
:104F0000DF681E3A4FF0070C0CFA02FC27EA0C0788
:104F1000DF60DF6806FA02F23A43DA604968062980
:104F200001EB81022DD8596B053A1F26964021EAE4
:104F300006015963596B04FA02F20A435A632F4A75
:104F400093420AD1122837D12D4B5A6822F400021D
:104F50005A605A6842F480025A60002085F83C008A
:104F600003B0F0BD1A6900EB400C072707FA0CF7F5
:104F700022EA07021A611A6906FA0CF616431E6144
:104F8000CCE70C294FF01F010BD81E6B233A914040
:104F900026EA01011963196B04FA02F20A431A6343
:104FA000CDE7DE6A413A914026EA0101D962D96A29
:104FB00094400C43DC62C2E7124B984201D01128A6
:104FC000CBD10F4B5A6822F480025A605A6842F4DF
:104FD00000025A600B4B9842BFD10B4B0B4A1B6827
:104FE000B3FBF2F30A2253430193019B002BB4D08D
:104FF000019B013BF8E70220B2E700BF002001401F
:1050000000230140120000107C00002040420F00ED
:105010000749CA6822F4E0620302120403F4E06361
:10502000120C134343F0BF6343F40033CB6070476B
:1050300000ED00E0164B30B5DC68C4F30224C4F187
:105040000703251D042B28BF0423062D4FF0FF3531
:105050008CBF033C002405FA03F321EA0303A540B7
:1050600022EA0502A340002843EA0203ACBF00F194
:105070006040084A4FEA0313B8BF00F00F00DBB2EC
:10508000AABF00F56140135480F8003330BD00BF63
:1050900000ED00E014ED00E0002807DB044A4109C0
:1050A000012300F01F00834042F82130704700BF09
:1050B00000E100E010B5044650B1437903F0FF026F
:1050C00013B90271FDF70EFC01236371002010BDBE
:1050D0000120FCE710B5044620B390F8393003F006
:1050E000FF021BB980F83820FDF714FC022384F876
:1050F0003930236861681A6822F440320A431A6022
:105100005A6BA16822F007020A435A631A6CE168DD
:105110006FF30D020A431A6400200123E06384F850
:10512000393010BD0120FCE770477047036870B547
:105130005E681D68F207044614D5E90512D51A68A1
:1051400022F480721A60C26B42F00102C263012233
:105150009A60042380F83930002380F8383043699E
:1051600003B19847B20616D5AB0414D523681A6864
:1051700022F400521A6020229A60E36B43F002038B
:10518000E363042384F83930002384F838306369FA
:105190000BB120469847300716D5290514D523684A
:1051A0001A6822F400621A6008229A60E36B43F0E6
:1051B0000403E363042384F83930002384F838308F
:1051C00063690BB12046984772070BD56B0509D56B
:1051D00023681A6822F480621A6004229A602046CA
:1051E000FFF7A2FFB00714D5A90512D523681A68E6
:1051F00022F400721A6002229A60E36BE3630123D7
:1052000084F83930002384F8383023690BB1204604
:105210009847F20613D5EB0411D523681A6822F4D7
:1052200080521A6010229A60E36BE363012384F8D2
:105230003930002384F838302046FFF776FF70BD00
:10524000F0B590F83820012A03464FF002002BD029
:10525000012283F8382083F8390003EB0112D2E9E8
:105260000740556A174F44EA0040093C012C9CBF97
:1052700005F07F4210434FEA01161A6888BF40EAE2
:10528000056091B9516A394001435162012C996915
:10529000916103D8596A21F07F4191620122002077
:1052A00083F8392083F83800F0BDD16939400143D3
:1052B000D1619919012C896911619CBF25F07F4545
:1052C0001562EBE7F0FFFC002DE9F74FDFF8BC912A
:1052D0006C4A00230D6801249C4004EA0506AC4397
:1052E00040F0B7804D68032705F003044FEA4308F8
:1052F00007FA08FC671E012F6FEA0C0C34D8876888
:1053000007EA0C0ECF6807FA08F747EA0E0787602E
:10531000476827EA060EC5F300179F4047EA0E07C5
:105320004760C76807EA0C0E8F6807FA08F747EA74
:105330000E07022CC76019D14FEAD30A00EB8A0A84
:1053400003F0070BDAF820704FEA8B0B4FF00F0ECB
:105350000EFA0BFE27EA0E0E0F6907FA0BF747EA63
:105360000E07CAF8207001E0032CDAD1076804FAAE
:1053700008F407EA0C073C4315F4403F046068D08A
:1053800000240194D9F8444044F48044C9F84440CE
:10539000D9F8444023F0030707F1804704F4804420
:1053A00007F59C37019403F0030C019CD7F808E043
:1053B0004FEA8C0C0F2404FA0CF42EEA040E324C43
:1053C000A0424DD004F58064A0424BD004F5806427
:1053D000A04249D004F58064A04247D004F580641F
:1053E000A04245D004F58064A04243D004F5806417
:1053F000A04241D004F58064A0423FD004F580640F
:10540000A0423DD004F58064A04214BF0A240924C0
:1054100004FA0CF444EA0E04BC609468F74315F4F3
:10542000801F0CBF3C4034439460D46815F4001FC7
:105430000CBF3C403443D460546815F4003F0CBFAB
:105440003C40344354601468ED0354BF3C40344343
:1054500014600133102B7FF43DAF03B0BDE8F08F33
:105460000024D5E70124D3E70224D1E70324CFE7C2
:105470000424CDE70524CBE70624C9E70724C7E7C2
:105480000824C5E7003C014000000240003802400B
:105490000369194214BF0120002070470AB18161DD
:1054A00070470904FBE7436901EA030221EA0301AB
:1054B00041EA02418161704701684B6913F48063DE
:1054C0004FF0000210D06FF480634B612023026321
:1054D00080F83D3080F83E20036C80F83C2043F09B
:1054E0000403036401207047184670472DE9F8460D
:1054F00006460F4691461D464FEA114A3368BAF1F7
:10550000010F0CBF5C699C6927EA0404A4B2B4FAD9
:1055100084F46409A14501D0002025E06A1CEED086
:10552000FFF746FB089BC01AA84201D8002DE5D121
:105530003368BAF1010F0CBF5B699B6927EA03036B
:105540009BB2B3FA83F35B099945D7D1002320229C
:10555000336386F83D2086F83E30326C86F83C3066
:1055600042F0200232640120BDE8F8862DE9F041C6
:1055700004460F46164698462568686927EA0000E3
:1055800080B2C0B16B695A0517D52B6843F400731C
:105590002B606FF480636B6120220023236384F807
:1055A0003D2084F83E30236C43F004032364002341
:1055B00084F83C300120BDE8F081731CDDD0FFF79A
:1055C000F7FAA0EB0800B04201D8002ED4D123682E
:1055D0005A6927EA020292B2002ACDD00023202283
:1055E000236384F83D2084F83E30236C1343DDE7C9
:1055F00070B504460D46164623685B691B0601D547
:1056000000201EE02046FFF757FFC8B96A1CF3D000
:10561000FFF7CEFA801BA84201D8002DECD12368F9
:105620005B6913F08003E7D12022236384F83D20D7
:1056300084F83E30226C84F83C3042F02002226430
:10564000012070BD2DE9F0431546026885B0DDE903
:105650000C789946136843F4807313600E463B46FA
:10566000CDF8008000224FF001110446FFF73EFF05
:10567000236838B11B68DB0502D54FF4007323643F
:10568000032620E006F0FE061E611A4943463A460C
:105690002046FFF76BFFA8B9236803905A6903926D
:1056A0009B690393424639462046039BFFF7A0FFC0
:1056B000064660B1236C042B01BF2268136843F4D3
:1056C000007313600126304605B0BDE8F083B9F1E0
:1056D000010F236802D1EDB21D61F4E72A0A1A61B5
:1056E000394642462046FFF783FF0028E2D123686F
:1056F000F1E700BF020001002DE9FF479A46036869
:1057000015461A6842F480621A601A68DDE90C785E
:1057100042F480721A600E463B46CDF800800022AB
:105720004FF001110446FFF7E1FE236838B11B6812
:10573000DB0544BF4FF400732364032021E05FFACC
:1057400086F906F0FE061E612B4943463A4620467E
:10575000FFF70CFFA0B9236803905A6903929B6975
:105760000393424639462046039BFFF741FF58B159
:10577000236C042B01BF2268136843F40073136089
:10578000012004B0BDE8F087BAF1010F23681AD1F7
:10579000EDB242461D6139462046FFF729FF024619
:1057A0000028E5D121680B6843F480730B60204624
:1057B000CDF800803B464FF00111FFF797FE2268BD
:1057C00060B11368B4E72A0A1A6139464246204696
:1057D000FFF70EFF0028CBD12368D9E749F001037A
:1057E0001361054943463A462046FFF7BFFE00389D
:1057F00018BF0120C5E700BF0200010070B50446D4
:105800000D46164623685B695B0701D500201EE044
:105810002046FFF751FEC8B96A1CF3D0FFF7C8F95C
:10582000801BA84201D8002DECD123685B6913F0DE
:105830000403E7D12022236384F83D2084F83E301E
:10584000226C84F83C3042F020022264012070BDBA
:1058500070B504460D46164621684B6913F04003A7
:1058600001D0002011E04A69D2060FD56FF0100276
:105870004A612022236384F83D2084F83E30236C63
:105880002364002384F83C30012070BDFFF790F9B9
:10589000801BA84201D8002DDED123685B6913F07C
:1058A0004003D9D12022236384F83D2084F83E3080
:1058B000236C1343E4E7000070B5044608B90120E7
:1058C00070BD90F83D3003F0FF021BB980F83C201A
:1058D000FDF742F8242384F83D3023681A6822F04B
:1058E00001021A601A6842F400421A601A6822F42F
:1058F00000421A6000F06EFE3F4B65689D4294BF07
:105900003E4B3F4B98428CBF00230123002BD6D146
:105910002268394E51683B4BB0FBF3F321F03F0155
:105920001943B542516088BF4FF49676116A88BF1B
:10593000734321F03F0184BF4FF47A76B3FBF6F353
:1059400001330B431362D169431E2B4821F44F41AD
:10595000854221F0FF0132D86D0040F6FC70B3FBA8
:10596000F5F30133034242D0C3F30B031943D16172
:10597000D4E907301168034321F0C0010B431360E1
:105980009168D4E9030321F40341034321F0FF01AB
:105990000B439360D4E90530D168034321F0FF0144
:1059A0000B43D360136843F00103136000202023EE
:1059B000206484F83D30206384F83E0080E7A068CE
:1059C00050B905EB4505B3FBF5F30133C3F30B0306
:1059D0007BB143F40043C9E719206843B3FBF0F3FC
:1059E0000133C3F30B0323B143F44043BEE7042365
:1059F000BCE70123BAE700BFA08601007F841E0038
:105A0000FF083D0040420F002DE9F7430446994648
:105A10000C9E0F469046FFF7CBF894F83D30202BB4
:105A2000054603D0022003B0BDE8F08300903C4956
:105A3000192301222046FFF759FD0028F2D194F8DE
:105A40003C30012BEED02068012384F83C30036801
:105A5000D9075EBF036843F001030360036823F4C2
:105A600000630360212384F83D30402384F83E30F6
:105A7000002323640A9B6362BDF82C306385638D29
:105A80002385284BE3624246CDE900654B46394603
:105A90002046FFF7D7FD00282AD00120C3E7FFF7F3
:105AA000A7FD40B1236C042B01BF2268136843F4A7
:105AB00000731360F1E7636A27681A4612F8011B46
:105AC00039616262628D218D013A92B262857A6992
:105AD000481E80B2520720850AD548B15A783A61EB
